{
  "abi": [
    {
      "inputs": [],
      "name": "num",
      "outputs": [
        {
          "internalType": "uint256",
          "name": "",
          "type": "uint256"
        }
      ],
      "stateMutability": "view",
      "type": "function"
    },
    {
      "inputs": [],
      "name": "sender",
      "outputs": [
        {
          "internalType": "address",
          "name": "",
          "type": "address"
        }
      ],
      "stateMutability": "view",
      "type": "function"
    },
    {
      "inputs": [
        {
          "internalType": "address",
          "name": "_contract",
          "type": "address"
        },
        {
          "internalType": "uint256",
          "name": "_num",
          "type": "uint256"
        }
      ],
      "name": "setVars",
      "outputs": [],
      "stateMutability": "payable",
      "type": "function"
    },
    {
      "inputs": [],
      "name": "value",
      "outputs": [
        {
          "internalType": "uint256",
          "name": "",
          "type": "uint256"
        }
      ],
      "stateMutability": "view",
      "type": "function"
    }
  ],
  "bytecode": {
    "object": "0x608060405234801561001057600080fd5b50610251806100206000396000f3fe60806040526004361061003f5760003560e01c80633fa4f245146100445780634e70b1dc1461006d57806367e404ce14610083578063d1e0f308146100bb575b600080fd5b34801561005057600080fd5b5061005a60025481565b6040519081526020015b60405180910390f35b34801561007957600080fd5b5061005a60005481565b34801561008f57600080fd5b506001546100a3906001600160a01b031681565b6040516001600160a01b039091168152602001610064565b6100ce6100c93660046101b4565b6100d0565b005b6000826001600160a01b0316826040516024016100ef91815260200190565b60408051601f198184030181529181526020820180516001600160e01b0316636466414b60e01b1790525161012491906101ec565b600060405180830381855af49150503d806000811461015f576040519150601f19603f3d011682016040523d82523d6000602084013e610164565b606091505b50509050806101af5760405162461bcd60e51b815260206004820152601360248201527219195b1959d85d1958d85b1b0819985a5b1959606a1b604482015260640160405180910390fd5b505050565b600080604083850312156101c757600080fd5b82356001600160a01b03811681146101de57600080fd5b946020939093013593505050565b6000825160005b8181101561020d57602081860181015185830152016101f3565b50600092019182525091905056fea26469706673582212202d167eab3ae652e1e5c75babb2c24aabf5f2ca094db7a263ca7024977c778f3364736f6c63430008140033",
    "linkReferences": {}
  },
  "methodIdentifiers": {
    "num()": "4e70b1dc",
    "sender()": "67e404ce",
    "setVars(address,uint256)": "d1e0f308",
    "value()": "3fa4f245"
  },
  "id": 41
}