{
  "abi": [
    {
      "inputs": [],
      "name": "num",
      "outputs": [
        {
          "internalType": "uint256",
          "name": "",
          "type": "uint256"
        }
      ],
      "stateMutability": "view",
      "type": "function"
    },
    {
      "inputs": [],
      "name": "sender",
      "outputs": [
        {
          "internalType": "address",
          "name": "",
          "type": "address"
        }
      ],
      "stateMutability": "view",
      "type": "function"
    },
    {
      "inputs": [
        {
          "internalType": "uint256",
          "name": "_num",
          "type": "uint256"
        }
      ],
      "name": "setVars",
      "outputs": [],
      "stateMutability": "payable",
      "type": "function"
    },
    {
      "inputs": [],
      "name": "value",
      "outputs": [
        {
          "internalType": "uint256",
          "name": "",
          "type": "uint256"
        }
      ],
      "stateMutability": "view",
      "type": "function"
    }
  ],
  "bytecode": {
    "object": "0x608060405234801561001057600080fd5b50610125806100206000396000f3fe608060405260043610603a5760003560e01c80633fa4f24514603f5780634e70b1dc1460665780636466414b14607a57806367e404ce1460a2575b600080fd5b348015604a57600080fd5b50605360025481565b6040519081526020015b60405180910390f35b348015607157600080fd5b50605360005481565b60a0608536600460d7565b600055600180546001600160a01b0319163317905534600255565b005b34801560ad57600080fd5b5060015460c0906001600160a01b031681565b6040516001600160a01b039091168152602001605d565b60006020828403121560e857600080fd5b503591905056fea2646970667358221220f421b10a62b719e5ab13935c965d8c9d1f85fa5a56ecb4a14072848fef03050564736f6c63430008140033",
    "linkReferences": {}
  },
  "methodIdentifiers": {
    "num()": "4e70b1dc",
    "sender()": "67e404ce",
    "setVars(uint256)": "6466414b",
    "value()": "3fa4f245"
  },
  "id": 41
}