{
  "abi": [
    {
      "inputs": [],
      "stateMutability": "nonpayable",
      "type": "constructor"
    },
    {
      "inputs": [],
      "name": "Funding_Goal_CanntoBeLess_Than_Zero",
      "type": "error"
    },
    {
      "inputs": [],
      "name": "Name_Exists",
      "type": "error"
    },
    {
      "inputs": [],
      "name": "ProjectNam_CntBEmpty",
      "type": "error"
    },
    {
      "inputs": [],
      "name": "Project_Does_Not_Exist",
      "type": "error"
    },
    {
      "inputs": [],
      "name": "ProjectsStorage__NotOwner",
      "type": "error"
    },
    {
      "inputs": [
        {
          "internalType": "string",
          "name": "_name",
          "type": "string"
        },
        {
          "internalType": "uint256",
          "name": "_fundingGoal",
          "type": "uint256"
        }
      ],
      "name": "addProject",
      "outputs": [],
      "stateMutability": "nonpayable",
      "type": "function"
    },
    {
      "inputs": [
        {
          "internalType": "string",
          "name": "_name",
          "type": "string"
        }
      ],
      "name": "getProjectFunders",
      "outputs": [
        {
          "internalType": "address[]",
          "name": "",
          "type": "address[]"
        }
      ],
      "stateMutability": "view",
      "type": "function"
    },
    {
      "inputs": [],
      "name": "getProjectsLength",
      "outputs": [
        {
          "internalType": "uint256",
          "name": "",
          "type": "uint256"
        }
      ],
      "stateMutability": "view",
      "type": "function"
    },
    {
      "inputs": [
        {
          "internalType": "uint256",
          "name": "",
          "type": "uint256"
        }
      ],
      "name": "listofProjects",
      "outputs": [
        {
          "internalType": "uint256",
          "name": "id",
          "type": "uint256"
        },
        {
          "internalType": "string",
          "name": "name",
          "type": "string"
        },
        {
          "internalType": "uint256",
          "name": "fundingGoal",
          "type": "uint256"
        },
        {
          "internalType": "uint256",
          "name": "totalFundsRaised",
          "type": "uint256"
        }
      ],
      "stateMutability": "view",
      "type": "function"
    },
    {
      "inputs": [],
      "name": "projectIdCounter",
      "outputs": [
        {
          "internalType": "uint256",
          "name": "",
          "type": "uint256"
        }
      ],
      "stateMutability": "view",
      "type": "function"
    },
    {
      "inputs": [
        {
          "internalType": "string",
          "name": "projectName",
          "type": "string"
        }
      ],
      "name": "projectNameAlreadyExists",
      "outputs": [
        {
          "internalType": "bool",
          "name": "",
          "type": "bool"
        }
      ],
      "stateMutability": "view",
      "type": "function"
    },
    {
      "inputs": [
        {
          "internalType": "string",
          "name": "",
          "type": "string"
        }
      ],
      "name": "projectNameToId",
      "outputs": [
        {
          "internalType": "uint256",
          "name": "",
          "type": "uint256"
        }
      ],
      "stateMutability": "view",
      "type": "function"
    }
  ],
  "bytecode": {
    "object": "0x60a060405234801561001057600080fd5b5033608052608051610abe61003060003960006101570152610abe6000f3fe608060405234801561001057600080fd5b506004361061007d5760003560e01c80635929591f1161005b5780635929591f146100f557806392c9e21914610118578063c6bdc0a21461013b578063d5977b5e1461014357600080fd5b806301a80a031461008257806329ba314b146100c05780634d719184146100d5575b600080fd5b6100ad61009036600461067e565b805160208183018101805160028252928201919093012091525481565b6040519081526020015b60405180910390f35b6100d36100ce3660046106bb565b61014c565b005b6100e86100e3366004610700565b610347565b6040516100b79190610772565b6101086101033660046107bf565b610425565b6040516100b794939291906107fc565b61012b61012636600461067e565b6104e9565b60405190151581526020016100b7565b6001546100ad565b6100ad60005481565b336001600160a01b037f000000000000000000000000000000000000000000000000000000000000000016146101955760405163078ff3e160e51b815260040160405180910390fd5b600081116101b6576040516301c9079760e11b815260040160405180910390fd5b6101bf826104e9565b15156001036101e157604051630ee5c54560e21b815260040160405180910390fd5b604080516020808201909252600090528251908301207f3a2db9fe7908dcc36d81824d2338fc3f1aff49ac357dd8c4840527fba27a5b9001610236576040516334895b9360e01b815260040160405180910390fd5b6000805490806102458361085b565b919050555060016040518060a00160405280600054815260200184815260200183815260200160008152602001600067ffffffffffffffff81111561028c5761028c6105db565b6040519080825280602002602001820160405280156102b5578160200160208202803683370190505b509052815460018181018455600093845260209384902083516005909302019182559282015191929091908201906102ed90826108fd565b5060408201516002820155606082015160038201556080820151805161031d916004840191602090910190610561565b50505060005460028360405161033391906109bd565b908152604051908190036020019020555050565b606060006002848460405161035d9291906109d9565b90815260200160405180910390205490508060001461038f57604051631a5ebf2360e21b815260040160405180910390fd5b6000600161039d81846109e9565b815481106103ad576103ad6109fc565b906000526020600020906005020190508060040180548060200260200160405190810160405280929190818152602001828054801561041557602002820191906000526020600020905b81546001600160a01b031681526001909101906020018083116103f7575b5050505050925050505b92915050565b6001818154811061043557600080fd5b6000918252602090912060059091020180546001820180549193509061045a90610874565b80601f016020809104026020016040519081016040528092919081815260200182805461048690610874565b80156104d35780601f106104a8576101008083540402835291602001916104d3565b820191906000526020600020905b8154815290600101906020018083116104b657829003601f168201915b5050505050908060020154908060030154905084565b6000805b60015481101561055857828051906020012060018281548110610512576105126109fc565b90600052602060002090600502016001016040516105309190610a12565b6040518091039020036105465750600192915050565b806105508161085b565b9150506104ed565b50600092915050565b8280548282559060005260206000209081019282156105b6579160200282015b828111156105b657825182546001600160a01b0319166001600160a01b03909116178255602090920191600190910190610581565b506105c29291506105c6565b5090565b5b808211156105c257600081556001016105c7565b634e487b7160e01b600052604160045260246000fd5b600082601f83011261060257600080fd5b813567ffffffffffffffff8082111561061d5761061d6105db565b604051601f8301601f19908116603f01168101908282118183101715610645576106456105db565b8160405283815286602085880101111561065e57600080fd5b836020870160208301376000602085830101528094505050505092915050565b60006020828403121561069057600080fd5b813567ffffffffffffffff8111156106a757600080fd5b6106b3848285016105f1565b949350505050565b600080604083850312156106ce57600080fd5b823567ffffffffffffffff8111156106e557600080fd5b6106f1858286016105f1565b95602094909401359450505050565b6000806020838503121561071357600080fd5b823567ffffffffffffffff8082111561072b57600080fd5b818501915085601f83011261073f57600080fd5b81358181111561074e57600080fd5b86602082850101111561076057600080fd5b60209290920196919550909350505050565b6020808252825182820181905260009190848201906040850190845b818110156107b35783516001600160a01b03168352928401929184019160010161078e565b50909695505050505050565b6000602082840312156107d157600080fd5b5035919050565b60005b838110156107f35781810151838201526020016107db565b50506000910152565b84815260806020820152600084518060808401526108218160a08501602089016107d8565b604083019490945250606081019190915260a0601f909201601f1916010192915050565b634e487b7160e01b600052601160045260246000fd5b60006001820161086d5761086d610845565b5060010190565b600181811c9082168061088857607f821691505b6020821081036108a857634e487b7160e01b600052602260045260246000fd5b50919050565b601f8211156108f857600081815260208120601f850160051c810160208610156108d55750805b601f850160051c820191505b818110156108f4578281556001016108e1565b5050505b505050565b815167ffffffffffffffff811115610917576109176105db565b61092b816109258454610874565b846108ae565b602080601f83116001811461096057600084156109485750858301515b600019600386901b1c1916600185901b1785556108f4565b600085815260208120601f198616915b8281101561098f57888601518255948401946001909101908401610970565b50858210156109ad5787850151600019600388901b60f8161c191681555b5050505050600190811b01905550565b600082516109cf8184602087016107d8565b9190910192915050565b8183823760009101908152919050565b8181038181111561041f5761041f610845565b634e487b7160e01b600052603260045260246000fd5b6000808354610a2081610874565b60018281168015610a385760018114610a4d57610a7c565b60ff1984168752821515830287019450610a7c565b8760005260208060002060005b85811015610a735781548a820152908401908201610a5a565b50505082870194505b5092969550505050505056fea2646970667358221220b7c8de600b720831ba36b8fcc06e6d1f820a1787ec171763587c799aadf9b7e164736f6c63430008140033",
    "linkReferences": {}
  },
  "methodIdentifiers": {
    "addProject(string,uint256)": "29ba314b",
    "getProjectFunders(string)": "4d719184",
    "getProjectsLength()": "c6bdc0a2",
    "listofProjects(uint256)": "5929591f",
    "projectIdCounter()": "d5977b5e",
    "projectNameAlreadyExists(string)": "92c9e219",
    "projectNameToId(string)": "01a80a03"
  },
  "id": 20
}