{
  "abi": [
    {
      "inputs": [],
      "stateMutability": "nonpayable",
      "type": "constructor"
    },
    {
      "inputs": [],
      "name": "Funding_Goal_CanntoBeLess_Than_Zero",
      "type": "error"
    },
    {
      "inputs": [],
      "name": "Name_Exists",
      "type": "error"
    },
    {
      "inputs": [],
      "name": "ProjectNam_CntBEmpty",
      "type": "error"
    },
    {
      "inputs": [],
      "name": "Project_Does_Not_Exist",
      "type": "error"
    },
    {
      "inputs": [],
      "name": "ProjectsStorage__NotOwner",
      "type": "error"
    },
    {
      "inputs": [
        {
          "internalType": "string",
          "name": "_name",
          "type": "string"
        },
        {
          "internalType": "uint256",
          "name": "_fundingGoal",
          "type": "uint256"
        }
      ],
      "name": "addProject",
      "outputs": [],
      "stateMutability": "nonpayable",
      "type": "function"
    },
    {
      "inputs": [
        {
          "internalType": "string",
          "name": "_name",
          "type": "string"
        }
      ],
      "name": "checkGoalReached",
      "outputs": [
        {
          "internalType": "bool",
          "name": "",
          "type": "bool"
        }
      ],
      "stateMutability": "view",
      "type": "function"
    },
    {
      "inputs": [
        {
          "internalType": "uint256",
          "name": "projectId",
          "type": "uint256"
        }
      ],
      "name": "getProject",
      "outputs": [
        {
          "components": [
            {
              "internalType": "uint256",
              "name": "id",
              "type": "uint256"
            },
            {
              "internalType": "string",
              "name": "name",
              "type": "string"
            },
            {
              "internalType": "uint256",
              "name": "fundingGoal",
              "type": "uint256"
            },
            {
              "internalType": "uint256",
              "name": "totalFundsRaised",
              "type": "uint256"
            },
            {
              "internalType": "address[]",
              "name": "funders",
              "type": "address[]"
            },
            {
              "internalType": "address",
              "name": "projectAddress",
              "type": "address"
            }
          ],
          "internalType": "struct ProjectsStorage.Project",
          "name": "",
          "type": "tuple"
        }
      ],
      "stateMutability": "view",
      "type": "function"
    },
    {
      "inputs": [
        {
          "internalType": "string",
          "name": "_name",
          "type": "string"
        }
      ],
      "name": "getProjectFunders",
      "outputs": [
        {
          "internalType": "address[]",
          "name": "",
          "type": "address[]"
        }
      ],
      "stateMutability": "view",
      "type": "function"
    },
    {
      "inputs": [
        {
          "internalType": "string",
          "name": "projectName",
          "type": "string"
        }
      ],
      "name": "getProjectId",
      "outputs": [
        {
          "internalType": "uint256",
          "name": "",
          "type": "uint256"
        }
      ],
      "stateMutability": "view",
      "type": "function"
    },
    {
      "inputs": [],
      "name": "getProjectsLength",
      "outputs": [
        {
          "internalType": "uint256",
          "name": "",
          "type": "uint256"
        }
      ],
      "stateMutability": "view",
      "type": "function"
    },
    {
      "inputs": [],
      "name": "getUniqueAddress",
      "outputs": [
        {
          "internalType": "address",
          "name": "",
          "type": "address"
        }
      ],
      "stateMutability": "view",
      "type": "function"
    },
    {
      "inputs": [
        {
          "internalType": "uint256",
          "name": "",
          "type": "uint256"
        }
      ],
      "name": "listofProjects",
      "outputs": [
        {
          "internalType": "uint256",
          "name": "id",
          "type": "uint256"
        },
        {
          "internalType": "string",
          "name": "name",
          "type": "string"
        },
        {
          "internalType": "uint256",
          "name": "fundingGoal",
          "type": "uint256"
        },
        {
          "internalType": "uint256",
          "name": "totalFundsRaised",
          "type": "uint256"
        },
        {
          "internalType": "address",
          "name": "projectAddress",
          "type": "address"
        }
      ],
      "stateMutability": "view",
      "type": "function"
    },
    {
      "inputs": [],
      "name": "projectIdCounter",
      "outputs": [
        {
          "internalType": "uint256",
          "name": "",
          "type": "uint256"
        }
      ],
      "stateMutability": "view",
      "type": "function"
    },
    {
      "inputs": [
        {
          "internalType": "string",
          "name": "projectName",
          "type": "string"
        }
      ],
      "name": "projectNameAlreadyExists",
      "outputs": [
        {
          "internalType": "bool",
          "name": "",
          "type": "bool"
        }
      ],
      "stateMutability": "view",
      "type": "function"
    },
    {
      "inputs": [
        {
          "internalType": "string",
          "name": "",
          "type": "string"
        }
      ],
      "name": "projectNameToId",
      "outputs": [
        {
          "internalType": "uint256",
          "name": "",
          "type": "uint256"
        }
      ],
      "stateMutability": "view",
      "type": "function"
    }
  ],
  "bytecode": {
    "object": "0x60a060405234801561001057600080fd5b5033608052608051610f1261003060003960006101ea0152610f126000f3fe608060405234801561001057600080fd5b50600436106100a95760003560e01c806392c9e2191161007157806392c9e21914610158578063c6bdc0a21461017b578063cdd02d7e14610183578063d5977b5e146101a3578063f0d9c292146101ac578063f0f3f2c8146101bf57600080fd5b806301a80a03146100ae57806329ba314b146100ec5780634d719184146101015780635076a3a5146101215780635929591f14610134575b600080fd5b6100d96100bc366004610a07565b805160208183018101805160028252928201919093012091525481565b6040519081526020015b60405180910390f35b6100ff6100fa366004610a44565b6101df565b005b61011461010f366004610a89565b61041d565b6040516100e39190610afb565b6100d961012f366004610a07565b6104fb565b610147610142366004610b48565b610523565b6040516100e3959493929190610bb1565b61016b610166366004610a07565b6105f8565b60405190151581526020016100e3565b6001546100d9565b61018b610670565b6040516001600160a01b0390911681526020016100e3565b6100d960005481565b61016b6101ba366004610a07565b6106be565b6101d26101cd366004610b48565b610746565b6040516100e39190610bf0565b336001600160a01b037f000000000000000000000000000000000000000000000000000000000000000016146102285760405163078ff3e160e51b815260040160405180910390fd5b6000610232610670565b905060008211610255576040516301c9079760e11b815260040160405180910390fd5b61025e836105f8565b151560010361028057604051630ee5c54560e21b815260040160405180910390fd5b604080516020808201909252600090528351908401207f3a2db9fe7908dcc36d81824d2338fc3f1aff49ac357dd8c4840527fba27a5b90016102d5576040516334895b9360e01b815260040160405180910390fd5b6000805490806102e483610caf565b919050555060016040518060c00160405280600054815260200185815260200184815260200160008152602001600067ffffffffffffffff81111561032b5761032b610964565b604051908082528060200260200182016040528015610354578160200160208202803683370190505b5081526001600160a01b038416602091820152825460018181018555600094855293829020835160069092020190815590820151919290919082019061039a9082610d51565b506040820151600282015560608201516003820155608082015180516103ca9160048401916020909101906108ea565b5060a09190910151600590910180546001600160a01b0319166001600160a01b03909216919091179055600054604051600290610408908690610e11565b90815260405190819003602001902055505050565b6060600060028484604051610433929190610e2d565b90815260200160405180910390205490508060001461046557604051631a5ebf2360e21b815260040160405180910390fd5b600060016104738184610e3d565b8154811061048357610483610e50565b90600052602060002090600602019050806004018054806020026020016040519081016040528092919081815260200182805480156104eb57602002820191906000526020600020905b81546001600160a01b031681526001909101906020018083116104cd575b5050505050925050505b92915050565b600060028260405161050d9190610e11565b9081526020016040518091039020549050919050565b6001818154811061053357600080fd5b6000918252602090912060069091020180546001820180549193509061055890610cc8565b80601f016020809104026020016040519081016040528092919081815260200182805461058490610cc8565b80156105d15780601f106105a6576101008083540402835291602001916105d1565b820191906000526020600020905b8154815290600101906020018083116105b457829003601f168201915b5050505060028301546003840154600590940154929390929091506001600160a01b031685565b6000805b6001548110156106675782805190602001206001828154811061062157610621610e50565b906000526020600020906006020160010160405161063f9190610e66565b6040518091039020036106555750600192915050565b8061065f81610caf565b9150506105fc565b50600092915050565b600042336040516020016106a092919091825260601b6bffffffffffffffffffffffff1916602082015260340190565b6040516020818303038152906040528051906020012060001c905090565b6000806002836040516106d19190610e11565b90815260200160405180910390205490508060000361070357604051631a5ebf2360e21b815260040160405180910390fd5b600060016107118184610e3d565b8154811061072157610721610e50565b9060005260206000209060060201905080600201548160030154101592505050919050565b6107886040518060c00160405280600081526020016060815260200160008152602001600081526020016060815260200160006001600160a01b031681525090565b60016107948184610e3d565b815481106107a4576107a4610e50565b90600052602060002090600602016040518060c0016040529081600082015481526020016001820180546107d790610cc8565b80601f016020809104026020016040519081016040528092919081815260200182805461080390610cc8565b80156108505780601f1061082557610100808354040283529160200191610850565b820191906000526020600020905b81548152906001019060200180831161083357829003601f168201915b505050505081526020016002820154815260200160038201548152602001600482018054806020026020016040519081016040528092919081815260200182805480156108c657602002820191906000526020600020905b81546001600160a01b031681526001909101906020018083116108a8575b5050509183525050600591909101546001600160a01b031660209091015292915050565b82805482825590600052602060002090810192821561093f579160200282015b8281111561093f57825182546001600160a01b0319166001600160a01b0390911617825560209092019160019091019061090a565b5061094b92915061094f565b5090565b5b8082111561094b5760008155600101610950565b634e487b7160e01b600052604160045260246000fd5b600082601f83011261098b57600080fd5b813567ffffffffffffffff808211156109a6576109a6610964565b604051601f8301601f19908116603f011681019082821181831017156109ce576109ce610964565b816040528381528660208588010111156109e757600080fd5b836020870160208301376000602085830101528094505050505092915050565b600060208284031215610a1957600080fd5b813567ffffffffffffffff811115610a3057600080fd5b610a3c8482850161097a565b949350505050565b60008060408385031215610a5757600080fd5b823567ffffffffffffffff811115610a6e57600080fd5b610a7a8582860161097a565b95602094909401359450505050565b60008060208385031215610a9c57600080fd5b823567ffffffffffffffff80821115610ab457600080fd5b818501915085601f830112610ac857600080fd5b813581811115610ad757600080fd5b866020828501011115610ae957600080fd5b60209290920196919550909350505050565b6020808252825182820181905260009190848201906040850190845b81811015610b3c5783516001600160a01b031683529284019291840191600101610b17565b50909695505050505050565b600060208284031215610b5a57600080fd5b5035919050565b60005b83811015610b7c578181015183820152602001610b64565b50506000910152565b60008151808452610b9d816020860160208601610b61565b601f01601f19169290920160200192915050565b85815260a060208201526000610bca60a0830187610b85565b60408301959095525060608101929092526001600160a01b031660809091015292915050565b600060208083528351818401528084015160c06040850152610c1560e0850182610b85565b6040860151606086810191909152860151608080870191909152860151858203601f190160a0870152805180835290840192506000918401905b80831015610c785783516001600160a01b03168252928401926001929092019190840190610c4f565b5060a08701516001600160a01b03811660c088015293509695505050505050565b634e487b7160e01b600052601160045260246000fd5b600060018201610cc157610cc1610c99565b5060010190565b600181811c90821680610cdc57607f821691505b602082108103610cfc57634e487b7160e01b600052602260045260246000fd5b50919050565b601f821115610d4c57600081815260208120601f850160051c81016020861015610d295750805b601f850160051c820191505b81811015610d4857828155600101610d35565b5050505b505050565b815167ffffffffffffffff811115610d6b57610d6b610964565b610d7f81610d798454610cc8565b84610d02565b602080601f831160018114610db45760008415610d9c5750858301515b600019600386901b1c1916600185901b178555610d48565b600085815260208120601f198616915b82811015610de357888601518255948401946001909101908401610dc4565b5085821015610e015787850151600019600388901b60f8161c191681555b5050505050600190811b01905550565b60008251610e23818460208701610b61565b9190910192915050565b8183823760009101908152919050565b818103818111156104f5576104f5610c99565b634e487b7160e01b600052603260045260246000fd5b6000808354610e7481610cc8565b60018281168015610e8c5760018114610ea157610ed0565b60ff1984168752821515830287019450610ed0565b8760005260208060002060005b85811015610ec75781548a820152908401908201610eae565b50505082870194505b5092969550505050505056fea2646970667358221220e28588fb86bbf2cf6ae6b7a3367f12edbe2668cffeb3b6c62a848aa69670daa464736f6c63430008140033",
    "linkReferences": {}
  },
  "methodIdentifiers": {
    "addProject(string,uint256)": "29ba314b",
    "checkGoalReached(string)": "f0d9c292",
    "getProject(uint256)": "f0f3f2c8",
    "getProjectFunders(string)": "4d719184",
    "getProjectId(string)": "5076a3a5",
    "getProjectsLength()": "c6bdc0a2",
    "getUniqueAddress()": "cdd02d7e",
    "listofProjects(uint256)": "5929591f",
    "projectIdCounter()": "d5977b5e",
    "projectNameAlreadyExists(string)": "92c9e219",
    "projectNameToId(string)": "01a80a03"
  },
  "id": 38
}