{
  "abi": [
    {
      "inputs": [
        {
          "internalType": "contract IEntryPoint",
          "name": "anEntryPoint",
          "type": "address"
        },
        {
          "internalType": "address",
          "name": "pharmaceuticsContractAddress",
          "type": "address"
        }
      ],
      "stateMutability": "nonpayable",
      "type": "constructor"
    },
    {
      "anonymous": false,
      "inputs": [
        {
          "indexed": false,
          "internalType": "address",
          "name": "previousAdmin",
          "type": "address"
        },
        {
          "indexed": false,
          "internalType": "address",
          "name": "newAdmin",
          "type": "address"
        }
      ],
      "name": "AdminChanged",
      "type": "event"
    },
    {
      "anonymous": false,
      "inputs": [
        {
          "indexed": true,
          "internalType": "address",
          "name": "beacon",
          "type": "address"
        }
      ],
      "name": "BeaconUpgraded",
      "type": "event"
    },
    {
      "anonymous": false,
      "inputs": [
        {
          "indexed": false,
          "internalType": "uint8",
          "name": "version",
          "type": "uint8"
        }
      ],
      "name": "Initialized",
      "type": "event"
    },
    {
      "anonymous": false,
      "inputs": [
        {
          "indexed": true,
          "internalType": "contract IEntryPoint",
          "name": "entryPoint",
          "type": "address"
        },
        {
          "indexed": true,
          "internalType": "address",
          "name": "owner",
          "type": "address"
        }
      ],
      "name": "SupplyChainAccountInitialized",
      "type": "event"
    },
    {
      "anonymous": false,
      "inputs": [
        {
          "indexed": true,
          "internalType": "address",
          "name": "implementation",
          "type": "address"
        }
      ],
      "name": "Upgraded",
      "type": "event"
    },
    {
      "inputs": [],
      "name": "addDeposit",
      "outputs": [],
      "stateMutability": "payable",
      "type": "function"
    },
    {
      "inputs": [
        {
          "internalType": "string",
          "name": "name",
          "type": "string"
        },
        {
          "internalType": "string",
          "name": "description",
          "type": "string"
        }
      ],
      "name": "addDrug",
      "outputs": [],
      "stateMutability": "nonpayable",
      "type": "function"
    },
    {
      "inputs": [
        {
          "internalType": "uint8",
          "name": "role",
          "type": "uint8"
        }
      ],
      "name": "createAccount",
      "outputs": [],
      "stateMutability": "nonpayable",
      "type": "function"
    },
    {
      "inputs": [],
      "name": "entryPoint",
      "outputs": [
        {
          "internalType": "contract IEntryPoint",
          "name": "",
          "type": "address"
        }
      ],
      "stateMutability": "view",
      "type": "function"
    },
    {
      "inputs": [
        {
          "internalType": "address",
          "name": "dest",
          "type": "address"
        },
        {
          "internalType": "uint256",
          "name": "value",
          "type": "uint256"
        },
        {
          "internalType": "bytes",
          "name": "func",
          "type": "bytes"
        }
      ],
      "name": "execute",
      "outputs": [],
      "stateMutability": "nonpayable",
      "type": "function"
    },
    {
      "inputs": [
        {
          "internalType": "address[]",
          "name": "dest",
          "type": "address[]"
        },
        {
          "internalType": "bytes[]",
          "name": "func",
          "type": "bytes[]"
        }
      ],
      "name": "executeBatch",
      "outputs": [],
      "stateMutability": "nonpayable",
      "type": "function"
    },
    {
      "inputs": [
        {
          "internalType": "uint256",
          "name": "orderId",
          "type": "uint256"
        }
      ],
      "name": "fulfillOrder",
      "outputs": [],
      "stateMutability": "nonpayable",
      "type": "function"
    },
    {
      "inputs": [],
      "name": "getDeposit",
      "outputs": [
        {
          "internalType": "uint256",
          "name": "",
          "type": "uint256"
        }
      ],
      "stateMutability": "view",
      "type": "function"
    },
    {
      "inputs": [
        {
          "internalType": "uint256",
          "name": "drugId",
          "type": "uint256"
        }
      ],
      "name": "getDrug",
      "outputs": [
        {
          "internalType": "string",
          "name": "name",
          "type": "string"
        },
        {
          "internalType": "string",
          "name": "description",
          "type": "string"
        },
        {
          "internalType": "address",
          "name": "manufacturer",
          "type": "address"
        },
        {
          "internalType": "address",
          "name": "currentOwner",
          "type": "address"
        },
        {
          "internalType": "address[]",
          "name": "ownershipChain",
          "type": "address[]"
        },
        {
          "internalType": "bool",
          "name": "authenticityStatus",
          "type": "bool"
        }
      ],
      "stateMutability": "view",
      "type": "function"
    },
    {
      "inputs": [],
      "name": "getDrugCounter",
      "outputs": [
        {
          "internalType": "uint256",
          "name": "",
          "type": "uint256"
        }
      ],
      "stateMutability": "view",
      "type": "function"
    },
    {
      "inputs": [],
      "name": "getNonce",
      "outputs": [
        {
          "internalType": "uint256",
          "name": "",
          "type": "uint256"
        }
      ],
      "stateMutability": "view",
      "type": "function"
    },
    {
      "inputs": [
        {
          "internalType": "uint256",
          "name": "orderId",
          "type": "uint256"
        }
      ],
      "name": "getOrder",
      "outputs": [
        {
          "internalType": "uint256",
          "name": "drugId",
          "type": "uint256"
        },
        {
          "internalType": "address",
          "name": "buyer",
          "type": "address"
        },
        {
          "internalType": "address",
          "name": "seller",
          "type": "address"
        },
        {
          "internalType": "bool",
          "name": "fulfillmentStatus",
          "type": "bool"
        }
      ],
      "stateMutability": "view",
      "type": "function"
    },
    {
      "inputs": [],
      "name": "getOrderCounter",
      "outputs": [
        {
          "internalType": "uint256",
          "name": "",
          "type": "uint256"
        }
      ],
      "stateMutability": "view",
      "type": "function"
    },
    {
      "inputs": [
        {
          "internalType": "address",
          "name": "anOwner",
          "type": "address"
        }
      ],
      "name": "initialize",
      "outputs": [],
      "stateMutability": "nonpayable",
      "type": "function"
    },
    {
      "inputs": [
        {
          "internalType": "address",
          "name": "",
          "type": "address"
        },
        {
          "internalType": "address",
          "name": "",
          "type": "address"
        },
        {
          "internalType": "uint256[]",
          "name": "",
          "type": "uint256[]"
        },
        {
          "internalType": "uint256[]",
          "name": "",
          "type": "uint256[]"
        },
        {
          "internalType": "bytes",
          "name": "",
          "type": "bytes"
        }
      ],
      "name": "onERC1155BatchReceived",
      "outputs": [
        {
          "internalType": "bytes4",
          "name": "",
          "type": "bytes4"
        }
      ],
      "stateMutability": "pure",
      "type": "function"
    },
    {
      "inputs": [
        {
          "internalType": "address",
          "name": "",
          "type": "address"
        },
        {
          "internalType": "address",
          "name": "",
          "type": "address"
        },
        {
          "internalType": "uint256",
          "name": "",
          "type": "uint256"
        },
        {
          "internalType": "uint256",
          "name": "",
          "type": "uint256"
        },
        {
          "internalType": "bytes",
          "name": "",
          "type": "bytes"
        }
      ],
      "name": "onERC1155Received",
      "outputs": [
        {
          "internalType": "bytes4",
          "name": "",
          "type": "bytes4"
        }
      ],
      "stateMutability": "pure",
      "type": "function"
    },
    {
      "inputs": [
        {
          "internalType": "address",
          "name": "",
          "type": "address"
        },
        {
          "internalType": "address",
          "name": "",
          "type": "address"
        },
        {
          "internalType": "uint256",
          "name": "",
          "type": "uint256"
        },
        {
          "internalType": "bytes",
          "name": "",
          "type": "bytes"
        }
      ],
      "name": "onERC721Received",
      "outputs": [
        {
          "internalType": "bytes4",
          "name": "",
          "type": "bytes4"
        }
      ],
      "stateMutability": "pure",
      "type": "function"
    },
    {
      "inputs": [],
      "name": "owner",
      "outputs": [
        {
          "internalType": "address",
          "name": "",
          "type": "address"
        }
      ],
      "stateMutability": "view",
      "type": "function"
    },
    {
      "inputs": [
        {
          "internalType": "uint256",
          "name": "drugId",
          "type": "uint256"
        },
        {
          "internalType": "address",
          "name": "seller",
          "type": "address"
        }
      ],
      "name": "placeOrder",
      "outputs": [],
      "stateMutability": "nonpayable",
      "type": "function"
    },
    {
      "inputs": [],
      "name": "proxiableUUID",
      "outputs": [
        {
          "internalType": "bytes32",
          "name": "",
          "type": "bytes32"
        }
      ],
      "stateMutability": "view",
      "type": "function"
    },
    {
      "inputs": [
        {
          "internalType": "bytes4",
          "name": "interfaceId",
          "type": "bytes4"
        }
      ],
      "name": "supportsInterface",
      "outputs": [
        {
          "internalType": "bool",
          "name": "",
          "type": "bool"
        }
      ],
      "stateMutability": "view",
      "type": "function"
    },
    {
      "inputs": [
        {
          "internalType": "address",
          "name": "",
          "type": "address"
        },
        {
          "internalType": "address",
          "name": "",
          "type": "address"
        },
        {
          "internalType": "address",
          "name": "",
          "type": "address"
        },
        {
          "internalType": "uint256",
          "name": "",
          "type": "uint256"
        },
        {
          "internalType": "bytes",
          "name": "",
          "type": "bytes"
        },
        {
          "internalType": "bytes",
          "name": "",
          "type": "bytes"
        }
      ],
      "name": "tokensReceived",
      "outputs": [],
      "stateMutability": "pure",
      "type": "function"
    },
    {
      "inputs": [
        {
          "internalType": "uint256",
          "name": "drugId",
          "type": "uint256"
        },
        {
          "internalType": "address",
          "name": "recipient",
          "type": "address"
        }
      ],
      "name": "transferDrugOwnership",
      "outputs": [],
      "stateMutability": "nonpayable",
      "type": "function"
    },
    {
      "inputs": [
        {
          "internalType": "address",
          "name": "newImplementation",
          "type": "address"
        }
      ],
      "name": "upgradeTo",
      "outputs": [],
      "stateMutability": "nonpayable",
      "type": "function"
    },
    {
      "inputs": [
        {
          "internalType": "address",
          "name": "newImplementation",
          "type": "address"
        },
        {
          "internalType": "bytes",
          "name": "data",
          "type": "bytes"
        }
      ],
      "name": "upgradeToAndCall",
      "outputs": [],
      "stateMutability": "payable",
      "type": "function"
    },
    {
      "inputs": [
        {
          "components": [
            {
              "internalType": "address",
              "name": "sender",
              "type": "address"
            },
            {
              "internalType": "uint256",
              "name": "nonce",
              "type": "uint256"
            },
            {
              "internalType": "bytes",
              "name": "initCode",
              "type": "bytes"
            },
            {
              "internalType": "bytes",
              "name": "callData",
              "type": "bytes"
            },
            {
              "internalType": "uint256",
              "name": "callGasLimit",
              "type": "uint256"
            },
            {
              "internalType": "uint256",
              "name": "verificationGasLimit",
              "type": "uint256"
            },
            {
              "internalType": "uint256",
              "name": "preVerificationGas",
              "type": "uint256"
            },
            {
              "internalType": "uint256",
              "name": "maxFeePerGas",
              "type": "uint256"
            },
            {
              "internalType": "uint256",
              "name": "maxPriorityFeePerGas",
              "type": "uint256"
            },
            {
              "internalType": "bytes",
              "name": "paymasterAndData",
              "type": "bytes"
            },
            {
              "internalType": "bytes",
              "name": "signature",
              "type": "bytes"
            }
          ],
          "internalType": "struct UserOperation",
          "name": "userOp",
          "type": "tuple"
        },
        {
          "internalType": "bytes32",
          "name": "userOpHash",
          "type": "bytes32"
        },
        {
          "internalType": "uint256",
          "name": "missingAccountFunds",
          "type": "uint256"
        }
      ],
      "name": "validateUserOp",
      "outputs": [
        {
          "internalType": "uint256",
          "name": "validationData",
          "type": "uint256"
        }
      ],
      "stateMutability": "nonpayable",
      "type": "function"
    },
    {
      "inputs": [
        {
          "internalType": "bytes32",
          "name": "hash",
          "type": "bytes32"
        },
        {
          "internalType": "bytes",
          "name": "signature",
          "type": "bytes"
        }
      ],
      "name": "verifyDrugAuthenticity",
      "outputs": [
        {
          "internalType": "bool",
          "name": "",
          "type": "bool"
        }
      ],
      "stateMutability": "view",
      "type": "function"
    },
    {
      "inputs": [
        {
          "internalType": "address",
          "name": "userAddress",
          "type": "address"
        }
      ],
      "name": "verifyUser",
      "outputs": [],
      "stateMutability": "nonpayable",
      "type": "function"
    },
    {
      "inputs": [
        {
          "internalType": "address payable",
          "name": "withdrawAddress",
          "type": "address"
        },
        {
          "internalType": "uint256",
          "name": "amount",
          "type": "uint256"
        }
      ],
      "name": "withdrawDepositTo",
      "outputs": [],
      "stateMutability": "nonpayable",
      "type": "function"
    },
    {
      "stateMutability": "payable",
      "type": "receive"
    }
  ],
  "bytecode": {
    "object": "0x60c0604052306080523480156200001557600080fd5b5060405162002c7d38038062002c7d83398101604081905262000038916200014a565b6001600160a01b0382811660a052600180546001600160a01b031916918316919091179055620000676200006f565b505062000189565b600054610100900460ff1615620000dc5760405162461bcd60e51b815260206004820152602760248201527f496e697469616c697a61626c653a20636f6e747261637420697320696e697469604482015266616c697a696e6760c81b606482015260840160405180910390fd5b60005460ff90811610156200012f576000805460ff191660ff9081179091556040519081527f7f26b83ff96e1f2b6a682f133852f6798a09c465da95921460cefb38474024989060200160405180910390a15b565b6001600160a01b03811681146200014757600080fd5b50565b600080604083850312156200015e57600080fd5b82516200016b8162000131565b60208401519092506200017e8162000131565b809150509250929050565b60805160a051612a81620001fc6000396000818161043d01528181610b7101528181610c16015281816110610152818161130901528181611425015281816116c601526119d2015260008181610a3b01528181610a7b01528181610c8101528181610cc10152610d540152612a816000f3fe6080604052600436106101c55760003560e01c80636311e830116100f7578063bc197c8111610095578063d087d28811610064578063d087d2881461054c578063d09ef24114610561578063d98fe606146105b3578063f23a6e61146105c857600080fd5b8063bc197c81146104c8578063c399ec88146104f7578063c4d66de81461050c578063cc3beaec1461052c57600080fd5b8063b0d691fe116100d1578063b0d691fe1461042e578063b61d27f614610461578063b629a26a14610481578063b8840d3d1461049657600080fd5b80636311e830146103b05780637a31b777146103d05780638da5cb5b146103f057600080fd5b80633a871cdd116101645780634d44560d1161013e5780634d44560d146103485780634d813120146103685780634f1ef2861461038857806352d1902d1461039b57600080fd5b80633a871cdd146102f257806340e9ca5c146103205780634a58db191461034057600080fd5b806318dfb3c7116101a057806318dfb3c7146102725780631d748bb71461029257806329f57107146102b25780633659cfe6146102d257600080fd5b806223de29146101d157806301ffc9a7146101f8578063150b7a021461022d57600080fd5b366101cc57005b600080fd5b3480156101dd57600080fd5b506101f66101ec366004611f08565b5050505050505050565b005b34801561020457600080fd5b50610218610213366004611fb8565b6105f5565b60405190151581526020015b60405180910390f35b34801561023957600080fd5b50610259610248366004611fe2565b630a85bd0160e11b95945050505050565b6040516001600160e01b03199091168152602001610224565b34801561027e57600080fd5b506101f661028d366004612098565b610647565b34801561029e57600080fd5b506101f66102ad366004612103565b6109a8565b3480156102be57600080fd5b506102186102cd36600461221e565b610a13565b3480156102de57600080fd5b506101f66102ed366004612264565b610a31565b3480156102fe57600080fd5b5061031261030d366004612281565b610b10565b604051908152602001610224565b34801561032c57600080fd5b506101f661033b366004612103565b610b36565b6101f6610b6f565b34801561035457600080fd5b506101f66103633660046122d4565b610be8565b34801561037457600080fd5b506101f6610383366004612264565b610c45565b6101f6610396366004612300565b610c77565b3480156103a757600080fd5b50610312610d47565b3480156103bc57600080fd5b506101f66103cb366004612339565b610dfa565b3480156103dc57600080fd5b506101f66103eb366004612352565b610e40565b3480156103fc57600080fd5b50600054610416906201000090046001600160a01b031681565b6040516001600160a01b039091168152602001610224565b34801561043a57600080fd5b507f0000000000000000000000000000000000000000000000000000000000000000610416565b34801561046d57600080fd5b506101f661047c3660046123ab565b610e72565b34801561048d57600080fd5b50610312610f1e565b3480156104a257600080fd5b506104b66104b1366004612339565b610f91565b6040516102249695949392919061244a565b3480156104d457600080fd5b506102596104e33660046124e0565b63bc197c8160e01b98975050505050505050565b34801561050357600080fd5b50610312611041565b34801561051857600080fd5b506101f6610527366004612264565b6110a9565b34801561053857600080fd5b506101f661054736600461257d565b6111bb565b34801561055857600080fd5b506103126112e2565b34801561056d57600080fd5b5061058161057c366004612339565b611338565b60405161022494939291909384526001600160a01b039283166020850152911660408301521515606082015260800190565b3480156105bf57600080fd5b506103126113d0565b3480156105d457600080fd5b506102596105e33660046125a0565b63f23a6e6160e01b9695505050505050565b60006001600160e01b03198216630a85bd0160e11b148061062657506001600160e01b03198216630271189760e51b145b8061064157506001600160e01b031982166301ffc9a760e01b145b92915050565b33600090815260026020526040902054600160a01b900460ff166001146106c55760405162461bcd60e51b815260206004820152602760248201527f4f6e6c7920737570706c696572732063616e20616363657373207468697320666044820152663ab731ba34b7b760c91b60648201526084015b60405180910390fd5b6106cd61141a565b8281146107125760405162461bcd60e51b815260206004820152601360248201527277726f6e67206172726179206c656e6774687360681b60448201526064016106bc565b60005b838110156109a15760048383838181106107315761073161261b565b90506020028101906107439190612631565b90501015801561079e5750601160f91b8383838181106107655761076561261b565b90506020028101906107779190612631565b60008181106107885761078861261b565b9050013560f81c60f81b6001600160f81b031916145b80156107f55750607560f91b8383838181106107bc576107bc61261b565b90506020028101906107ce9190612631565b60018181106107df576107df61261b565b9050013560f81c60f81b6001600160f81b031916145b801561084c5750603d60f81b8383838181106108135761081361261b565b90506020028101906108259190612631565b60028181106108365761083661261b565b9050013560f81c60f81b6001600160f81b031916145b80156108a35750602360f91b83838381811061086a5761086a61261b565b905060200281019061087c9190612631565b600381811061088d5761088d61261b565b9050013560f81c60f81b6001600160f81b031916145b156109055733600090815260026020526040902054600160a81b900460ff166109055760405162461bcd60e51b8152602060048201526014602482015273155cd95c881a5cc81b9bdd081d995c9a599a595960621b60448201526064016106bc565b61098f85858381811061091a5761091a61261b565b905060200201602081019061092f9190612264565b60008585858181106109435761094361261b565b90506020028101906109559190612631565b8080601f0160208091040260200160405190810160405280939291908181526020018383808284376000920191909152506114af92505050565b8061099981612677565b915050610715565b5050505050565b600154604051631d748bb760e01b8152600481018490526001600160a01b03838116602483015290911690631d748bb7906044015b600060405180830381600087803b1580156109f757600080fd5b505af1158015610a0b573d6000803e3d6000fd5b505050505050565b600030610a20848461151f565b6001600160a01b0316149392505050565b6001600160a01b037f0000000000000000000000000000000000000000000000000000000000000000163003610a795760405162461bcd60e51b81526004016106bc9061269e565b7f00000000000000000000000000000000000000000000000000000000000000006001600160a01b0316610ac2600080516020612a05833981519152546001600160a01b031690565b6001600160a01b031614610ae85760405162461bcd60e51b81526004016106bc906126ea565b610af181611543565b60408051600080825260208201909252610b0d9183919061154b565b50565b6000610b1a6116bb565b610b248484611733565b9050610b2f826118fb565b9392505050565b60015460405163103a729760e21b8152600481018490526001600160a01b038381166024830152909116906340e9ca5c906044016109dd565b7f000000000000000000000000000000000000000000000000000000000000000060405163b760faf960e01b81523060048201526001600160a01b03919091169063b760faf99034906024016000604051808303818588803b158015610bd457600080fd5b505af11580156109a1573d6000803e3d6000fd5b610bf0611948565b60405163040b850f60e31b81526001600160a01b038381166004830152602482018390527f0000000000000000000000000000000000000000000000000000000000000000169063205c2878906044016109dd565b610c4d611948565b6001600160a01b03166000908152600260205260409020805460ff60a81b1916600160a81b179055565b6001600160a01b037f0000000000000000000000000000000000000000000000000000000000000000163003610cbf5760405162461bcd60e51b81526004016106bc9061269e565b7f00000000000000000000000000000000000000000000000000000000000000006001600160a01b0316610d08600080516020612a05833981519152546001600160a01b031690565b6001600160a01b031614610d2e5760405162461bcd60e51b81526004016106bc906126ea565b610d3782611543565b610d438282600161154b565b5050565b6000306001600160a01b037f00000000000000000000000000000000000000000000000000000000000000001614610de75760405162461bcd60e51b815260206004820152603860248201527f555550535570677261646561626c653a206d757374206e6f742062652063616c60448201527f6c6564207468726f7567682064656c656761746563616c6c000000000000000060648201526084016106bc565b50600080516020612a0583398151915290565b6001546040516306311e8360e41b8152600481018390526001600160a01b0390911690636311e83090602401600060405180830381600087803b158015610bd457600080fd5b600154604051637a31b77760e01b81526001600160a01b0390911690637a31b777906109dd9085908590600401612736565b610e7a61141a565b33600090815260026020526040902054600160a81b900460ff16610ed75760405162461bcd60e51b8152602060048201526014602482015273155cd95c881a5cc81b9bdd081d995c9a599a595960621b60448201526064016106bc565b610f18848484848080601f0160208091040260200160405190810160405280939291908181526020018383808284376000920191909152506114af92505050565b50505050565b60015460408051635bc4dfa960e11b815290516000926001600160a01b03169163b789bf529160048083019260209291908290030181865afa158015610f68573d6000803e3d6000fd5b505050506040513d601f19601f82011682018060405250810190610f8c9190612764565b905090565b600154604051637e52f30f60e11b815260048101839052606091829160009182918491839182916001600160a01b03169063fca5e61e90602401600060405180830381865afa158015610fe8573d6000803e3d6000fd5b505050506040513d6000823e601f3d908101601f19168201604052611010919081019061285f565b8051602082015160408301516060840151608085015160a090950151939d929c50909a509850919650945092505050565b6040516370a0823160e01b81523060048201526000906001600160a01b037f000000000000000000000000000000000000000000000000000000000000000016906370a08231906024015b602060405180830381865afa158015610f68573d6000803e3d6000fd5b600054610100900460ff16158080156110c95750600054600160ff909116105b806110e35750303b1580156110e3575060005460ff166001145b6111465760405162461bcd60e51b815260206004820152602e60248201527f496e697469616c697a61626c653a20636f6e747261637420697320616c72656160448201526d191e481a5b9a5d1a585b1a5e995960921b60648201526084016106bc565b6000805460ff191660011790558015611169576000805461ff0019166101001790555b6111728261199f565b8015610d43576000805461ff0019169055604051600181527f7f26b83ff96e1f2b6a682f133852f6798a09c465da95921460cefb38474024989060200160405180910390a15050565b336000908152600260205260409020546001600160a01b03161561121a5760405162461bcd60e51b81526020600482015260166024820152754163636f756e7420616c72656164792065786973747360501b60448201526064016106bc565b8060ff166001148061122f57508060ff166002145b61126a5760405162461bcd60e51b815260206004820152600c60248201526b496e76616c696420726f6c6560a01b60448201526064016106bc565b604080516060810182523380825260ff9384166020808401918252600084860181815293815260029091529390932091518254935191511515600160a81b0260ff60a81b1992909516600160a01b026001600160a81b03199094166001600160a01b0391909116179290921791909116919091179055565b604051631aab3f0d60e11b8152306004820152600060248201819052906001600160a01b037f000000000000000000000000000000000000000000000000000000000000000016906335567e1a9060440161108c565b60015460405163a85c38ef60e01b81526004810183905260009182918291829182916001600160a01b03169063a85c38ef90602401608060405180830381865afa15801561138a573d6000803e3d6000fd5b505050506040513d601f19601f820116820180604052508101906113ae9190612946565b8051602082015160408301516060909301519199909850919650945092505050565b6001546040805163641db20760e01b815290516000926001600160a01b03169163641db2079160048083019260209291908290030181865afa158015610f68573d6000803e3d6000fd5b336001600160a01b037f000000000000000000000000000000000000000000000000000000000000000016148061146157506000546201000090046001600160a01b031633145b6114ad5760405162461bcd60e51b815260206004820181905260248201527f6163636f756e743a206e6f74204f776e6572206f7220456e747279506f696e7460448201526064016106bc565b565b600080846001600160a01b031684846040516114cb91906129bf565b60006040518083038185875af1925050503d8060008114611508576040519150601f19603f3d011682016040523d82523d6000602084013e61150d565b606091505b5091509150816109a157805160208201fd5b600080600061152e8585611a1b565b9150915061153b81611a60565b509392505050565b610b0d611948565b7f4910fdfa16fed3260ed0e7147f7cc6da11a60208b5b9406d12a635614ffd91435460ff16156115835761157e83611baa565b505050565b826001600160a01b03166352d1902d6040518163ffffffff1660e01b8152600401602060405180830381865afa9250505080156115dd575060408051601f3d908101601f191682019092526115da91810190612764565b60015b6116405760405162461bcd60e51b815260206004820152602e60248201527f45524331393637557067726164653a206e657720696d706c656d656e7461746960448201526d6f6e206973206e6f74205555505360901b60648201526084016106bc565b600080516020612a0583398151915281146116af5760405162461bcd60e51b815260206004820152602960248201527f45524331393637557067726164653a20756e737570706f727465642070726f786044820152681a58589b195555525160ba1b60648201526084016106bc565b5061157e838383611c46565b336001600160a01b037f000000000000000000000000000000000000000000000000000000000000000016146114ad5760405162461bcd60e51b815260206004820152601c60248201527f6163636f756e743a206e6f742066726f6d20456e747279506f696e740000000060448201526064016106bc565b60008061178d836040517f19457468657265756d205369676e6564204d6573736167653a0a3332000000006020820152603c8101829052600090605c01604051602081830303815290604052805190602001209050919050565b905060006117df6117a2610140870187612631565b8080601f016020809104026020016040519081016040528093929190818152602001838380828437600092019190915250869392505061151f9050565b33600090815260026020526040902054909150600160a81b900460ff16156118d55733600090815260026020526040902054600160a01b900460ff1660010361187e576000546001600160a01b038281166201000090920416146118795760405162461bcd60e51b8152602060048201526011602482015270496e76616c6964207369676e617475726560781b60448201526064016106bc565b6118ca565b6001600160a01b03811633146118ca5760405162461bcd60e51b8152602060048201526011602482015270496e76616c6964207369676e617475726560781b60448201526064016106bc565b600092505050610641565b6000546001600160a01b038281166201000090920416146118ca57600192505050610641565b8015610b0d57604051600090339060001990849084818181858888f193505050503d80600081146109a1576040519150601f19603f3d011682016040523d82523d6000602084013e6109a1565b6000546201000090046001600160a01b031633148061196657503330145b6114ad5760405162461bcd60e51b815260206004820152600a60248201526937b7363c9037bbb732b960b11b60448201526064016106bc565b6000805462010000600160b01b031916620100006001600160a01b038481168202929092178084556040519190048216927f0000000000000000000000000000000000000000000000000000000000000000909216917f4005b00cd0b0c04a4df693e5cb7ddc4931e1565a1dd5d531faa3ce5cf2796c5791a350565b6000808251604103611a515760208301516040840151606085015160001a611a4587828585611c6b565b94509450505050611a59565b506000905060025b9250929050565b6000816004811115611a7457611a746129db565b03611a7c5750565b6001816004811115611a9057611a906129db565b03611add5760405162461bcd60e51b815260206004820152601860248201527f45434453413a20696e76616c6964207369676e6174757265000000000000000060448201526064016106bc565b6002816004811115611af157611af16129db565b03611b3e5760405162461bcd60e51b815260206004820152601f60248201527f45434453413a20696e76616c6964207369676e6174757265206c656e6774680060448201526064016106bc565b6003816004811115611b5257611b526129db565b03610b0d5760405162461bcd60e51b815260206004820152602260248201527f45434453413a20696e76616c6964207369676e6174757265202773272076616c604482015261756560f01b60648201526084016106bc565b6001600160a01b0381163b611c175760405162461bcd60e51b815260206004820152602d60248201527f455243313936373a206e657720696d706c656d656e746174696f6e206973206e60448201526c1bdd08184818dbdb9d1c9858dd609a1b60648201526084016106bc565b600080516020612a0583398151915280546001600160a01b0319166001600160a01b0392909216919091179055565b611c4f83611d2f565b600082511180611c5c5750805b1561157e57610f188383611d6f565b6000807f7fffffffffffffffffffffffffffffff5d576e7357a4501ddfe92f46681b20a0831115611ca25750600090506003611d26565b6040805160008082526020820180845289905260ff881692820192909252606081018690526080810185905260019060a0016020604051602081039080840390855afa158015611cf6573d6000803e3d6000fd5b5050604051601f1901519150506001600160a01b038116611d1f57600060019250925050611d26565b9150600090505b94509492505050565b611d3881611baa565b6040516001600160a01b038216907fbc7cd75a20ee27fd9adebab32041f755214dbc6bffa90cc0225b39da2e5c2d3b90600090a250565b6060610b2f8383604051806060016040528060278152602001612a25602791396060600080856001600160a01b031685604051611dac91906129bf565b600060405180830381855af49150503d8060008114611de7576040519150601f19603f3d011682016040523d82523d6000602084013e611dec565b606091505b5091509150611dfd86838387611e07565b9695505050505050565b60608315611e76578251600003611e6f576001600160a01b0385163b611e6f5760405162461bcd60e51b815260206004820152601d60248201527f416464726573733a2063616c6c20746f206e6f6e2d636f6e747261637400000060448201526064016106bc565b5081611e80565b611e808383611e88565b949350505050565b815115611e985781518083602001fd5b8060405162461bcd60e51b81526004016106bc91906129f1565b6001600160a01b0381168114610b0d57600080fd5b60008083601f840112611ed957600080fd5b5081356001600160401b03811115611ef057600080fd5b602083019150836020828501011115611a5957600080fd5b60008060008060008060008060c0898b031215611f2457600080fd5b8835611f2f81611eb2565b97506020890135611f3f81611eb2565b96506040890135611f4f81611eb2565b95506060890135945060808901356001600160401b0380821115611f7257600080fd5b611f7e8c838d01611ec7565b909650945060a08b0135915080821115611f9757600080fd5b50611fa48b828c01611ec7565b999c989b5096995094979396929594505050565b600060208284031215611fca57600080fd5b81356001600160e01b031981168114610b2f57600080fd5b600080600080600060808688031215611ffa57600080fd5b853561200581611eb2565b9450602086013561201581611eb2565b93506040860135925060608601356001600160401b0381111561203757600080fd5b61204388828901611ec7565b969995985093965092949392505050565b60008083601f84011261206657600080fd5b5081356001600160401b0381111561207d57600080fd5b6020830191508360208260051b8501011115611a5957600080fd5b600080600080604085870312156120ae57600080fd5b84356001600160401b03808211156120c557600080fd5b6120d188838901612054565b909650945060208701359150808211156120ea57600080fd5b506120f787828801612054565b95989497509550505050565b6000806040838503121561211657600080fd5b82359150602083013561212881611eb2565b809150509250929050565b634e487b7160e01b600052604160045260246000fd5b60405160c081016001600160401b038111828210171561216b5761216b612133565b60405290565b604051601f8201601f191681016001600160401b038111828210171561219957612199612133565b604052919050565b60006001600160401b038211156121ba576121ba612133565b50601f01601f191660200190565b600082601f8301126121d957600080fd5b81356121ec6121e7826121a1565b612171565b81815284602083860101111561220157600080fd5b816020850160208301376000918101602001919091529392505050565b6000806040838503121561223157600080fd5b8235915060208301356001600160401b0381111561224e57600080fd5b61225a858286016121c8565b9150509250929050565b60006020828403121561227657600080fd5b8135610b2f81611eb2565b60008060006060848603121561229657600080fd5b83356001600160401b038111156122ac57600080fd5b840161016081870312156122bf57600080fd5b95602085013595506040909401359392505050565b600080604083850312156122e757600080fd5b82356122f281611eb2565b946020939093013593505050565b6000806040838503121561231357600080fd5b823561231e81611eb2565b915060208301356001600160401b0381111561224e57600080fd5b60006020828403121561234b57600080fd5b5035919050565b6000806040838503121561236557600080fd5b82356001600160401b038082111561237c57600080fd5b612388868387016121c8565b9350602085013591508082111561239e57600080fd5b5061225a858286016121c8565b600080600080606085870312156123c157600080fd5b84356123cc81611eb2565b93506020850135925060408501356001600160401b038111156123ee57600080fd5b6120f787828801611ec7565b60005b838110156124155781810151838201526020016123fd565b50506000910152565b600081518084526124368160208601602086016123fa565b601f01601f19169290920160200192915050565b60c08152600061245d60c083018961241e565b602083820381850152612470828a61241e565b6001600160a01b0389811660408701528881166060870152858203608087015287518083528389019450909183019060005b818110156124c05785518416835294840194918401916001016124a2565b505086151560a087015293506124d592505050565b979650505050505050565b60008060008060008060008060a0898b0312156124fc57600080fd5b883561250781611eb2565b9750602089013561251781611eb2565b965060408901356001600160401b038082111561253357600080fd5b61253f8c838d01612054565b909850965060608b013591508082111561255857600080fd5b6125648c838d01612054565b909650945060808b0135915080821115611f9757600080fd5b60006020828403121561258f57600080fd5b813560ff81168114610b2f57600080fd5b60008060008060008060a087890312156125b957600080fd5b86356125c481611eb2565b955060208701356125d481611eb2565b9450604087013593506060870135925060808701356001600160401b038111156125fd57600080fd5b61260989828a01611ec7565b979a9699509497509295939492505050565b634e487b7160e01b600052603260045260246000fd5b6000808335601e1984360301811261264857600080fd5b8301803591506001600160401b0382111561266257600080fd5b602001915036819003821315611a5957600080fd5b60006001820161269757634e487b7160e01b600052601160045260246000fd5b5060010190565b6020808252602c908201527f46756e6374696f6e206d7573742062652063616c6c6564207468726f7567682060408201526b19195b1959d85d1958d85b1b60a21b606082015260800190565b6020808252602c908201527f46756e6374696f6e206d7573742062652063616c6c6564207468726f7567682060408201526b6163746976652070726f787960a01b606082015260800190565b604081526000612749604083018561241e565b828103602084015261275b818561241e565b95945050505050565b60006020828403121561277657600080fd5b5051919050565b600082601f83011261278e57600080fd5b815161279c6121e7826121a1565b8181528460208386010111156127b157600080fd5b611e808260208301602087016123fa565b80516127cd81611eb2565b919050565b600082601f8301126127e357600080fd5b815160206001600160401b038211156127fe576127fe612133565b8160051b61280d828201612171565b928352848101820192828101908785111561282757600080fd5b83870192505b848310156124d557825161284081611eb2565b8252918301919083019061282d565b805180151581146127cd57600080fd5b60006020828403121561287157600080fd5b81516001600160401b038082111561288857600080fd5b9083019060c0828603121561289c57600080fd5b6128a4612149565b8251828111156128b357600080fd5b6128bf8782860161277d565b8252506020830151828111156128d457600080fd5b6128e08782860161277d565b6020830152506128f2604084016127c2565b6040820152612903606084016127c2565b606082015260808301518281111561291a57600080fd5b612926878286016127d2565b60808301525061293860a0840161284f565b60a082015295945050505050565b60006080828403121561295857600080fd5b604051608081018181106001600160401b038211171561297a5761297a612133565b60405282518152602083015161298f81611eb2565b602082015260408301516129a281611eb2565b60408201526129b36060840161284f565b60608201529392505050565b600082516129d18184602087016123fa565b9190910192915050565b634e487b7160e01b600052602160045260246000fd5b602081526000610b2f602083018461241e56fe360894a13ba1a3210667c828492db98dca3e2076cc3735a920a3ca505d382bbc416464726573733a206c6f772d6c6576656c2064656c65676174652063616c6c206661696c6564a2646970667358221220a0ccb780c29a835f3011cb209477f3ff5f81e9ec4ffb1cb0eca835cc4a2422b564736f6c63430008140033",
    "linkReferences": {}
  },
  "methodIdentifiers": {
    "addDeposit()": "4a58db19",
    "addDrug(string,string)": "7a31b777",
    "createAccount(uint8)": "cc3beaec",
    "entryPoint()": "b0d691fe",
    "execute(address,uint256,bytes)": "b61d27f6",
    "executeBatch(address[],bytes[])": "18dfb3c7",
    "fulfillOrder(uint256)": "6311e830",
    "getDeposit()": "c399ec88",
    "getDrug(uint256)": "b8840d3d",
    "getDrugCounter()": "d98fe606",
    "getNonce()": "d087d288",
    "getOrder(uint256)": "d09ef241",
    "getOrderCounter()": "b629a26a",
    "initialize(address)": "c4d66de8",
    "onERC1155BatchReceived(address,address,uint256[],uint256[],bytes)": "bc197c81",
    "onERC1155Received(address,address,uint256,uint256,bytes)": "f23a6e61",
    "onERC721Received(address,address,uint256,bytes)": "150b7a02",
    "owner()": "8da5cb5b",
    "placeOrder(uint256,address)": "40e9ca5c",
    "proxiableUUID()": "52d1902d",
    "supportsInterface(bytes4)": "01ffc9a7",
    "tokensReceived(address,address,address,uint256,bytes,bytes)": "0023de29",
    "transferDrugOwnership(uint256,address)": "1d748bb7",
    "upgradeTo(address)": "3659cfe6",
    "upgradeToAndCall(address,bytes)": "4f1ef286",
    "validateUserOp((address,uint256,bytes,bytes,uint256,uint256,uint256,uint256,uint256,bytes,bytes),bytes32,uint256)": "3a871cdd",
    "verifyDrugAuthenticity(bytes32,bytes)": "29f57107",
    "verifyUser(address)": "4d813120",
    "withdrawDepositTo(address,uint256)": "4d44560d"
  },
  "id": 32
}