{
  "abi": [
    {
      "inputs": [
        {
          "internalType": "address",
          "name": "_address",
          "type": "address"
        },
        {
          "internalType": "address",
          "name": "Sender",
          "type": "address"
        },
        {
          "internalType": "address",
          "name": "Transporter",
          "type": "address"
        },
        {
          "internalType": "address",
          "name": "Receiver",
          "type": "address"
        }
      ],
      "stateMutability": "nonpayable",
      "type": "constructor"
    },
    {
      "inputs": [],
      "name": "Transporter_is_not_Authorised",
      "type": "error"
    },
    {
      "inputs": [],
      "name": "UnAuthorised_Receiver",
      "type": "error"
    },
    {
      "inputs": [],
      "name": "get_addressStatus",
      "outputs": [
        {
          "internalType": "uint256",
          "name": "",
          "type": "uint256"
        }
      ],
      "stateMutability": "view",
      "type": "function"
    },
    {
      "inputs": [
        {
          "internalType": "address",
          "name": "_address",
          "type": "address"
        },
        {
          "internalType": "address",
          "name": "transporterAddr",
          "type": "address"
        }
      ],
      "name": "pickDC",
      "outputs": [],
      "stateMutability": "nonpayable",
      "type": "function"
    },
    {
      "inputs": [
        {
          "internalType": "address",
          "name": "_address",
          "type": "address"
        },
        {
          "internalType": "address",
          "name": "Receiver",
          "type": "address"
        }
      ],
      "name": "receiveDC",
      "outputs": [],
      "stateMutability": "nonpayable",
      "type": "function"
    }
  ],
  "bytecode": {
    "object": "0x608060405234801561001057600080fd5b5060405161038638038061038683398101604081905261002f916100b6565b600080546001600160a01b039485166001600160a01b0319918216811790925560018054968616968216969096179095556002805486169091179055600380549284169290941691909117909255600480546001600160a81b0319169290911691909117905561010a565b80516001600160a01b03811681146100b157600080fd5b919050565b600080600080608085870312156100cc57600080fd5b6100d58561009a565b93506100e36020860161009a565b92506100f16040860161009a565b91506100ff6060860161009a565b905092959194509250565b61026d806101196000396000f3fe608060405234801561001057600080fd5b50600436106100415760003560e01c806353157b1a14610046578063c0114d061461005b578063f7addc3e14610075575b600080fd5b6100596100543660046101ee565b610088565b005b610063610136565b60405190815260200160405180910390f35b6100596100833660046101ee565b61015c565b6003546001600160a01b038281169116146100b65760405163c38b258560e01b815260040160405180910390fd5b60048054600160a01b60ff60a01b1982161782556002546040516305e3aeb160e31b81526001600160a01b039283169381019390935281166024830152831690632f1d7588906044015b600060405180830381600087803b15801561011a57600080fd5b505af115801561012e573d6000803e3d6000fd5b505050505050565b600454600090600160a01b900460ff16600281111561015757610157610221565b905090565b6004546001600160a01b0382811691161461018a576040516377c4980160e01b815260040160405180910390fd5b600480546002919060ff60a01b1916600160a01b83021790555060405163c8f5f18960e01b81526001600160a01b03828116600483015283169063c8f5f18990602401610100565b80356001600160a01b03811681146101e957600080fd5b919050565b6000806040838503121561020157600080fd5b61020a836101d2565b9150610218602084016101d2565b90509250929050565b634e487b7160e01b600052602160045260246000fdfea2646970667358221220f5711e6f12bf328ec8ebde82ba5d23843f8f08a9f6526e605cd1e8b5cd24232464736f6c63430008140033",
    "linkReferences": {}
  },
  "methodIdentifiers": {
    "get_addressStatus()": "c0114d06",
    "pickDC(address,address)": "53157b1a",
    "receiveDC(address,address)": "f7addc3e"
  },
  "id": 2
}