{
  "abi": [
    {
      "inputs": [
        {
          "internalType": "uint8",
          "name": "_maxWhitelistedAddresses",
          "type": "uint8"
        }
      ],
      "stateMutability": "nonpayable",
      "type": "constructor"
    },
    {
      "inputs": [],
      "name": "SENDER_ALREADY_WHITELISTED",
      "type": "error"
    },
    {
      "inputs": [],
      "name": "WHITE_LISTLIMIT_REACHED",
      "type": "error"
    },
    {
      "inputs": [],
      "name": "MAX_WHITE_LISTED_ADDRESSES",
      "outputs": [
        {
          "internalType": "uint8",
          "name": "",
          "type": "uint8"
        }
      ],
      "stateMutability": "view",
      "type": "function"
    },
    {
      "inputs": [],
      "name": "addAddressToWhitelist",
      "outputs": [],
      "stateMutability": "nonpayable",
      "type": "function"
    },
    {
      "inputs": [],
      "name": "numAddressesWhiteListed",
      "outputs": [
        {
          "internalType": "uint8",
          "name": "",
          "type": "uint8"
        }
      ],
      "stateMutability": "view",
      "type": "function"
    },
    {
      "inputs": [
        {
          "internalType": "address",
          "name": "",
          "type": "address"
        }
      ],
      "name": "whitelistedAddresses",
      "outputs": [
        {
          "internalType": "bool",
          "name": "",
          "type": "bool"
        }
      ],
      "stateMutability": "view",
      "type": "function"
    }
  ],
  "bytecode": {
    "object": "0x608060405234801561001057600080fd5b5060405161028638038061028683398101604081905261002f91610048565b6000805460ff191660ff92909216919091179055610072565b60006020828403121561005a57600080fd5b815160ff8116811461006b57600080fd5b9392505050565b610205806100816000396000f3fe608060405234801561001057600080fd5b506004361061004c5760003560e01c806306c933d8146100515780638e7314d914610089578063b8091bbc14610093578063f23d78bf146100b7575b600080fd5b61007461005f366004610172565b60016020526000908152604090205460ff1681565b60405190151581526020015b60405180910390f35b6100916100c4565b005b6000546100a590610100900460ff1681565b60405160ff9091168152602001610080565b6000546100a59060ff1681565b3360009081526001602052604090205460ff16156100f55760405163457f28ab60e01b815260040160405180910390fd5b60005460ff80821661010090920416111561012357604051631356ba0360e01b815260040160405180910390fd5b3360009081526001602081905260408220805460ff19168217905581549091908290610158908290610100900460ff166101a2565b92506101000a81548160ff021916908360ff160217905550565b60006020828403121561018457600080fd5b81356001600160a01b038116811461019b57600080fd5b9392505050565b60ff81811683821601908111156101c957634e487b7160e01b600052601160045260246000fd5b9291505056fea2646970667358221220c6c198b2df620a518ceeb7c2b5cbf7c39d693618e4e7703c4f34f44c0e1fd81b64736f6c63430008140033",
    "linkReferences": {}
  },
  "methodIdentifiers": {
    "MAX_WHITE_LISTED_ADDRESSES()": "f23d78bf",
    "addAddressToWhitelist()": "8e7314d9",
    "numAddressesWhiteListed()": "b8091bbc",
    "whitelistedAddresses(address)": "06c933d8"
  },
  "id": 17
}