{
  "abi": [
    {
      "inputs": [
        {
          "internalType": "address",
          "name": "",
          "type": "address"
        },
        {
          "internalType": "uint256",
          "name": "",
          "type": "uint256"
        }
      ],
      "name": "CommoditiesAtWholesaler",
      "outputs": [
        {
          "internalType": "address",
          "name": "",
          "type": "address"
        }
      ],
      "stateMutability": "view",
      "type": "function"
    },
    {
      "inputs": [
        {
          "internalType": "address",
          "name": "",
          "type": "address"
        },
        {
          "internalType": "uint256",
          "name": "",
          "type": "uint256"
        }
      ],
      "name": "CommodityWtoD",
      "outputs": [
        {
          "internalType": "address",
          "name": "",
          "type": "address"
        }
      ],
      "stateMutability": "view",
      "type": "function"
    },
    {
      "inputs": [
        {
          "internalType": "address",
          "name": "",
          "type": "address"
        }
      ],
      "name": "CommodityWtoDTxContract",
      "outputs": [
        {
          "internalType": "address",
          "name": "",
          "type": "address"
        }
      ],
      "stateMutability": "view",
      "type": "function"
    },
    {
      "inputs": [
        {
          "internalType": "address",
          "name": "_address",
          "type": "address"
        }
      ],
      "name": "commodityRecievedAtWholesaler",
      "outputs": [],
      "stateMutability": "nonpayable",
      "type": "function"
    },
    {
      "inputs": [
        {
          "internalType": "address",
          "name": "_address",
          "type": "address"
        },
        {
          "internalType": "address",
          "name": "transporter",
          "type": "address"
        },
        {
          "internalType": "address",
          "name": "receiver",
          "type": "address"
        }
      ],
      "name": "transferCommodityWtoD",
      "outputs": [],
      "stateMutability": "nonpayable",
      "type": "function"
    }
  ],
  "bytecode": {
    "object": "0x608060405234801561001057600080fd5b50610766806100206000396000f3fe608060405234801561001057600080fd5b50600436106100575760003560e01c8063afc589611461005c578063cf340ed91461008b578063d1f93e0c146100b4578063db37acb1146100c9578063e18ea3fb146100dc575b600080fd5b61006f61006a3660046102ce565b6100ef565b6040516001600160a01b03909116815260200160405180910390f35b61006f6100993660046102f8565b6002602052600090815260409020546001600160a01b031681565b6100c76100c23660046102f8565b610127565b005b61006f6100d73660046102ce565b6101d9565b6100c76100ea36600461031a565b6101f5565b6000602052816000526040600020818154811061010b57600080fd5b6000918252602090912001546001600160a01b03169150829050565b604051631f3e95d560e11b81523360048201526000906001600160a01b03831690633e7d2baa906024016020604051808303816000875af1158015610170573d6000803e3d6000fd5b505050506040513d601f19601f82011682018060405250810190610194919061035d565b9050806001036101d557336000908152602081815260408220805460018101825590835291200180546001600160a01b0319166001600160a01b0384161790555b5050565b6001602052816000526040600020818154811061010b57600080fd5b600083338484604051610207906102a5565b6001600160a01b039485168152928416602084015290831660408301529091166060820152608001604051809103906000f08015801561024b573d6000803e3d6000fd5b5033600090815260016020818152604080842080549384018155845281842090920180546001600160a01b039586166001600160a01b03199182168117909255989094168352600290529020805490951617909355505050565b6103ba8061037783390190565b80356001600160a01b03811681146102c957600080fd5b919050565b600080604083850312156102e157600080fd5b6102ea836102b2565b946020939093013593505050565b60006020828403121561030a57600080fd5b610313826102b2565b9392505050565b60008060006060848603121561032f57600080fd5b610338846102b2565b9250610346602085016102b2565b9150610354604085016102b2565b90509250925092565b60006020828403121561036f57600080fd5b505191905056fe608060405234801561001057600080fd5b506040516103ba3803806103ba83398101604081905261002f916100b6565b600080546001600160a01b039485166001600160a01b0319918216811790925560018054968616968216969096179095556002805486169091179055600380549284169290941691909117909255600480546001600160a81b0319169290911691909117905561010a565b80516001600160a01b03811681146100b157600080fd5b919050565b600080600080608085870312156100cc57600080fd5b6100d58561009a565b93506100e36020860161009a565b92506100f16040860161009a565b91506100ff6060860161009a565b905092959194509250565b6102a1806101196000396000f3fe608060405234801561001057600080fd5b50600436106100415760003560e01c8063443c28d814610046578063d2f3fcc71461005b578063d7dcbe3b14610075575b600080fd5b610059610054366004610222565b610088565b005b610063610136565b60405190815260200160405180910390f35b610059610083366004610222565b61015c565b6003546001600160a01b038281169116146100b657604051630806858d60e01b815260040160405180910390fd5b60048054600160a01b60ff60a01b19821617825560025460405163f5c0e38360e01b81526001600160a01b03928316938101939093528116602483015283169063f5c0e383906044015b600060405180830381600087803b15801561011a57600080fd5b505af115801561012e573d6000803e3d6000fd5b505050505050565b600454600090600160a01b900460ff16600281111561015757610157610255565b905090565b6004546001600160a01b03908116908216036101be5760405162461bcd60e51b815260206004820152601f60248201527f556e617574686f72697a65642072656365697665722773206163636f756e7400604482015260640160405180910390fd5b600480546002919060ff60a01b1916600160a01b8302179055506040516393a668b760e01b81526001600160a01b0382811660048301528316906393a668b790602401610100565b80356001600160a01b038116811461021d57600080fd5b919050565b6000806040838503121561023557600080fd5b61023e83610206565b915061024c60208401610206565b90509250929050565b634e487b7160e01b600052602160045260246000fdfea264697066735822122091c74ce2d82c5491bfef4908c2c223814ac111b8cd47aab893be773c7fc4b43864736f6c63430008140033a264697066735822122081f845155d5b8d61c7723cd39fa2907d2342a87b904a716313bda22c16f282c964736f6c63430008140033",
    "linkReferences": {}
  },
  "methodIdentifiers": {
    "CommoditiesAtWholesaler(address,uint256)": "afc58961",
    "CommodityWtoD(address,uint256)": "db37acb1",
    "CommodityWtoDTxContract(address)": "cf340ed9",
    "commodityRecievedAtWholesaler(address)": "d1f93e0c",
    "transferCommodityWtoD(address,address,address)": "e18ea3fb"
  },
  "id": 11
}