{
  "abi": [
    {
      "inputs": [
        {
          "internalType": "address",
          "name": "whitelistContract",
          "type": "address"
        }
      ],
      "stateMutability": "nonpayable",
      "type": "constructor"
    },
    {
      "inputs": [],
      "name": "ALREADY_OWNED",
      "type": "error"
    },
    {
      "inputs": [],
      "name": "EXCEEDED_MAX_SUPPLY",
      "type": "error"
    },
    {
      "inputs": [],
      "name": "FAILED_TO_SEND_ETHER",
      "type": "error"
    },
    {
      "inputs": [],
      "name": "NOT_ENOUGH_ETHER",
      "type": "error"
    },
    {
      "anonymous": false,
      "inputs": [
        {
          "indexed": true,
          "internalType": "address",
          "name": "owner",
          "type": "address"
        },
        {
          "indexed": true,
          "internalType": "address",
          "name": "approved",
          "type": "address"
        },
        {
          "indexed": true,
          "internalType": "uint256",
          "name": "tokenId",
          "type": "uint256"
        }
      ],
      "name": "Approval",
      "type": "event"
    },
    {
      "anonymous": false,
      "inputs": [
        {
          "indexed": true,
          "internalType": "address",
          "name": "owner",
          "type": "address"
        },
        {
          "indexed": true,
          "internalType": "address",
          "name": "operator",
          "type": "address"
        },
        {
          "indexed": false,
          "internalType": "bool",
          "name": "approved",
          "type": "bool"
        }
      ],
      "name": "ApprovalForAll",
      "type": "event"
    },
    {
      "anonymous": false,
      "inputs": [
        {
          "indexed": true,
          "internalType": "address",
          "name": "previousOwner",
          "type": "address"
        },
        {
          "indexed": true,
          "internalType": "address",
          "name": "newOwner",
          "type": "address"
        }
      ],
      "name": "OwnershipTransferred",
      "type": "event"
    },
    {
      "anonymous": false,
      "inputs": [
        {
          "indexed": true,
          "internalType": "address",
          "name": "from",
          "type": "address"
        },
        {
          "indexed": true,
          "internalType": "address",
          "name": "to",
          "type": "address"
        },
        {
          "indexed": true,
          "internalType": "uint256",
          "name": "tokenId",
          "type": "uint256"
        }
      ],
      "name": "Transfer",
      "type": "event"
    },
    {
      "inputs": [],
      "name": "_price",
      "outputs": [
        {
          "internalType": "uint256",
          "name": "",
          "type": "uint256"
        }
      ],
      "stateMutability": "view",
      "type": "function"
    },
    {
      "inputs": [
        {
          "internalType": "address",
          "name": "to",
          "type": "address"
        },
        {
          "internalType": "uint256",
          "name": "tokenId",
          "type": "uint256"
        }
      ],
      "name": "approve",
      "outputs": [],
      "stateMutability": "nonpayable",
      "type": "function"
    },
    {
      "inputs": [
        {
          "internalType": "address",
          "name": "owner",
          "type": "address"
        }
      ],
      "name": "balanceOf",
      "outputs": [
        {
          "internalType": "uint256",
          "name": "",
          "type": "uint256"
        }
      ],
      "stateMutability": "view",
      "type": "function"
    },
    {
      "inputs": [
        {
          "internalType": "uint256",
          "name": "tokenId",
          "type": "uint256"
        }
      ],
      "name": "getApproved",
      "outputs": [
        {
          "internalType": "address",
          "name": "",
          "type": "address"
        }
      ],
      "stateMutability": "view",
      "type": "function"
    },
    {
      "inputs": [
        {
          "internalType": "address",
          "name": "owner",
          "type": "address"
        },
        {
          "internalType": "address",
          "name": "operator",
          "type": "address"
        }
      ],
      "name": "isApprovedForAll",
      "outputs": [
        {
          "internalType": "bool",
          "name": "",
          "type": "bool"
        }
      ],
      "stateMutability": "view",
      "type": "function"
    },
    {
      "inputs": [],
      "name": "maxTokenIds",
      "outputs": [
        {
          "internalType": "uint256",
          "name": "",
          "type": "uint256"
        }
      ],
      "stateMutability": "view",
      "type": "function"
    },
    {
      "inputs": [],
      "name": "mint",
      "outputs": [],
      "stateMutability": "payable",
      "type": "function"
    },
    {
      "inputs": [],
      "name": "name",
      "outputs": [
        {
          "internalType": "string",
          "name": "",
          "type": "string"
        }
      ],
      "stateMutability": "view",
      "type": "function"
    },
    {
      "inputs": [],
      "name": "owner",
      "outputs": [
        {
          "internalType": "address",
          "name": "",
          "type": "address"
        }
      ],
      "stateMutability": "view",
      "type": "function"
    },
    {
      "inputs": [
        {
          "internalType": "uint256",
          "name": "tokenId",
          "type": "uint256"
        }
      ],
      "name": "ownerOf",
      "outputs": [
        {
          "internalType": "address",
          "name": "",
          "type": "address"
        }
      ],
      "stateMutability": "view",
      "type": "function"
    },
    {
      "inputs": [],
      "name": "renounceOwnership",
      "outputs": [],
      "stateMutability": "nonpayable",
      "type": "function"
    },
    {
      "inputs": [],
      "name": "reservedTokens",
      "outputs": [
        {
          "internalType": "uint256",
          "name": "",
          "type": "uint256"
        }
      ],
      "stateMutability": "view",
      "type": "function"
    },
    {
      "inputs": [],
      "name": "reservedTokensClaimed",
      "outputs": [
        {
          "internalType": "uint256",
          "name": "",
          "type": "uint256"
        }
      ],
      "stateMutability": "view",
      "type": "function"
    },
    {
      "inputs": [
        {
          "internalType": "address",
          "name": "from",
          "type": "address"
        },
        {
          "internalType": "address",
          "name": "to",
          "type": "address"
        },
        {
          "internalType": "uint256",
          "name": "tokenId",
          "type": "uint256"
        }
      ],
      "name": "safeTransferFrom",
      "outputs": [],
      "stateMutability": "nonpayable",
      "type": "function"
    },
    {
      "inputs": [
        {
          "internalType": "address",
          "name": "from",
          "type": "address"
        },
        {
          "internalType": "address",
          "name": "to",
          "type": "address"
        },
        {
          "internalType": "uint256",
          "name": "tokenId",
          "type": "uint256"
        },
        {
          "internalType": "bytes",
          "name": "data",
          "type": "bytes"
        }
      ],
      "name": "safeTransferFrom",
      "outputs": [],
      "stateMutability": "nonpayable",
      "type": "function"
    },
    {
      "inputs": [
        {
          "internalType": "address",
          "name": "operator",
          "type": "address"
        },
        {
          "internalType": "bool",
          "name": "approved",
          "type": "bool"
        }
      ],
      "name": "setApprovalForAll",
      "outputs": [],
      "stateMutability": "nonpayable",
      "type": "function"
    },
    {
      "inputs": [
        {
          "internalType": "bytes4",
          "name": "interfaceId",
          "type": "bytes4"
        }
      ],
      "name": "supportsInterface",
      "outputs": [
        {
          "internalType": "bool",
          "name": "",
          "type": "bool"
        }
      ],
      "stateMutability": "view",
      "type": "function"
    },
    {
      "inputs": [],
      "name": "symbol",
      "outputs": [
        {
          "internalType": "string",
          "name": "",
          "type": "string"
        }
      ],
      "stateMutability": "view",
      "type": "function"
    },
    {
      "inputs": [
        {
          "internalType": "uint256",
          "name": "index",
          "type": "uint256"
        }
      ],
      "name": "tokenByIndex",
      "outputs": [
        {
          "internalType": "uint256",
          "name": "",
          "type": "uint256"
        }
      ],
      "stateMutability": "view",
      "type": "function"
    },
    {
      "inputs": [
        {
          "internalType": "address",
          "name": "owner",
          "type": "address"
        },
        {
          "internalType": "uint256",
          "name": "index",
          "type": "uint256"
        }
      ],
      "name": "tokenOfOwnerByIndex",
      "outputs": [
        {
          "internalType": "uint256",
          "name": "",
          "type": "uint256"
        }
      ],
      "stateMutability": "view",
      "type": "function"
    },
    {
      "inputs": [
        {
          "internalType": "uint256",
          "name": "tokenId",
          "type": "uint256"
        }
      ],
      "name": "tokenURI",
      "outputs": [
        {
          "internalType": "string",
          "name": "",
          "type": "string"
        }
      ],
      "stateMutability": "view",
      "type": "function"
    },
    {
      "inputs": [],
      "name": "totalSupply",
      "outputs": [
        {
          "internalType": "uint256",
          "name": "",
          "type": "uint256"
        }
      ],
      "stateMutability": "view",
      "type": "function"
    },
    {
      "inputs": [
        {
          "internalType": "address",
          "name": "from",
          "type": "address"
        },
        {
          "internalType": "address",
          "name": "to",
          "type": "address"
        },
        {
          "internalType": "uint256",
          "name": "tokenId",
          "type": "uint256"
        }
      ],
      "name": "transferFrom",
      "outputs": [],
      "stateMutability": "nonpayable",
      "type": "function"
    },
    {
      "inputs": [
        {
          "internalType": "address",
          "name": "newOwner",
          "type": "address"
        }
      ],
      "name": "transferOwnership",
      "outputs": [],
      "stateMutability": "nonpayable",
      "type": "function"
    },
    {
      "inputs": [],
      "name": "whitelist",
      "outputs": [
        {
          "internalType": "contract Whitelist",
          "name": "",
          "type": "address"
        }
      ],
      "stateMutability": "view",
      "type": "function"
    },
    {
      "inputs": [],
      "name": "withdraw",
      "outputs": [],
      "stateMutability": "nonpayable",
      "type": "function"
    }
  ],
  "bytecode": {
    "object": "0x60806040526000600d553480156200001657600080fd5b506040516200206d3803806200206d833981016040819052620000399162000198565b6040518060400160405280600b81526020016a43727970746f204465767360a81b8152506040518060400160405280600281526020016110d160f21b81525081600090816200008991906200026f565b5060016200009882826200026f565b505050620000b5620000af6200014260201b60201c565b62000146565b600b80546001600160a01b0319166001600160a01b0383169081179091556040805163f23d78bf60e01b8152905163f23d78bf916004808201926020929091908290030181865afa1580156200010f573d6000803e3d6000fd5b505050506040513d601f19601f820116820180604052508101906200013591906200033b565b60ff16600c555062000360565b3390565b600a80546001600160a01b038381166001600160a01b0319831681179093556040519116919082907f8be0079c531659141344cd1fd0a4f28419497f9722a3daafe3b4186f6b6457e090600090a35050565b600060208284031215620001ab57600080fd5b81516001600160a01b0381168114620001c357600080fd5b9392505050565b634e487b7160e01b600052604160045260246000fd5b600181811c90821680620001f557607f821691505b6020821081036200021657634e487b7160e01b600052602260045260246000fd5b50919050565b601f8211156200026a57600081815260208120601f850160051c81016020861015620002455750805b601f850160051c820191505b81811015620002665782815560010162000251565b5050505b505050565b81516001600160401b038111156200028b576200028b620001ca565b620002a3816200029c8454620001e0565b846200021c565b602080601f831160018114620002db5760008415620002c25750858301515b600019600386901b1c1916600185901b17855562000266565b600085815260208120601f198616915b828110156200030c57888601518255948401946001909101908401620002eb565b50858210156200032b5787850151600019600388901b60f8161c191681555b5050505050600190811b01905550565b6000602082840312156200034e57600080fd5b815160ff81168114620001c357600080fd5b611cfd80620003706000396000f3fe6080604052600436106101815760003560e01c80635f769621116100d157806395d89b411161008a578063c87b56dd11610064578063c87b56dd14610425578063e985e9c514610445578063f2fde38b1461048e578063fdddd2cd146104ae57600080fd5b806395d89b41146103d0578063a22cb465146103e5578063b88d4fde1461040557600080fd5b80635f769621146103285780636352211e1461033d57806370a082311461035d578063715018a61461037d5780638da5cb5b1461039257806393e59dc1146103b057600080fd5b806318160ddd1161013e5780632f745c59116101185780632f745c59146102b35780633ccfd60b146102d357806342842e0e146102e85780634f6ccce71461030857600080fd5b806318160ddd14610263578063235b6ea11461027857806323b872dd1461029357600080fd5b806301ffc9a71461018657806306fdde03146101bb578063081812fc146101dd578063095ea7b3146102155780631249c58b1461023757806315a553471461023f575b600080fd5b34801561019257600080fd5b506101a66101a13660046117fb565b6104c4565b60405190151581526020015b60405180910390f35b3480156101c757600080fd5b506101d06104ef565b6040516101b29190611868565b3480156101e957600080fd5b506101fd6101f836600461187b565b610581565b6040516001600160a01b0390911681526020016101b2565b34801561022157600080fd5b506102356102303660046118b0565b6105a8565b005b6102356106c2565b34801561024b57600080fd5b50610255600c5481565b6040519081526020016101b2565b34801561026f57600080fd5b50600854610255565b34801561028457600080fd5b50610255662386f26fc1000081565b34801561029f57600080fd5b506102356102ae3660046118da565b61080f565b3480156102bf57600080fd5b506102556102ce3660046118b0565b610840565b3480156102df57600080fd5b506102356108d6565b3480156102f457600080fd5b506102356103033660046118da565b61092d565b34801561031457600080fd5b5061025561032336600461187b565b610948565b34801561033457600080fd5b50610255601481565b34801561034957600080fd5b506101fd61035836600461187b565b6109db565b34801561036957600080fd5b50610255610378366004611916565b610a3b565b34801561038957600080fd5b50610235610ac1565b34801561039e57600080fd5b50600a546001600160a01b03166101fd565b3480156103bc57600080fd5b50600b546101fd906001600160a01b031681565b3480156103dc57600080fd5b506101d0610ad5565b3480156103f157600080fd5b5061023561040036600461193f565b610ae4565b34801561041157600080fd5b5061023561042036600461198c565b610af3565b34801561043157600080fd5b506101d061044036600461187b565b610b2b565b34801561045157600080fd5b506101a6610460366004611a68565b6001600160a01b03918216600090815260056020908152604080832093909416825291909152205460ff1690565b34801561049a57600080fd5b506102356104a9366004611916565b610b9f565b3480156104ba57600080fd5b50610255600d5481565b60006001600160e01b0319821663780e9d6360e01b14806104e957506104e982610c15565b92915050565b6060600080546104fe90611a9b565b80601f016020809104026020016040519081016040528092919081815260200182805461052a90611a9b565b80156105775780601f1061054c57610100808354040283529160200191610577565b820191906000526020600020905b81548152906001019060200180831161055a57829003601f168201915b5050505050905090565b600061058c82610c65565b506000908152600460205260409020546001600160a01b031690565b60006105b3826109db565b9050806001600160a01b0316836001600160a01b0316036106255760405162461bcd60e51b815260206004820152602160248201527f4552433732313a20617070726f76616c20746f2063757272656e74206f776e656044820152603960f91b60648201526084015b60405180910390fd5b336001600160a01b038216148061064157506106418133610460565b6106b35760405162461bcd60e51b815260206004820152603d60248201527f4552433732313a20617070726f76652063616c6c6572206973206e6f7420746f60448201527f6b656e206f776e6572206f7220617070726f76656420666f7220616c6c000000606482015260840161061c565b6106bd8383610cc4565b505050565b6014600d54600c546106d360085490565b6106dd9190611aeb565b6106e79190611afe565b11156107065760405163dc0ec69b60e01b815260040160405180910390fd5b600b5460405162d9267b60e31b81523360048201526001600160a01b03909116906306c933d890602401602060405180830381865afa15801561074d573d6000803e3d6000fd5b505050506040513d601f19601f820116820180604052508101906107719190611b11565b80156107835750662386f26fc1000034105b156107cd5761079133610a3b565b156107af57604051631462ae9360e11b815260040160405180910390fd5b6001600c60008282546107c29190611aeb565b909155506107f59050565b662386f26fc100003410156107f55760405163c45ad8f560e01b815260040160405180910390fd5b600061080060085490565b905061080c3382610d32565b50565b6108193382610d4c565b6108355760405162461bcd60e51b815260040161061c90611b2e565b6106bd838383610dcb565b600061084b83610a3b565b82106108ad5760405162461bcd60e51b815260206004820152602b60248201527f455243373231456e756d657261626c653a206f776e657220696e646578206f7560448201526a74206f6620626f756e647360a81b606482015260840161061c565b506001600160a01b03919091166000908152600660209081526040808320938352929052205490565b6108de610f3c565b60006108f2600a546001600160a01b031690565b60405190915047906001600160a01b0383169082156108fc029083906000818181858888f193505050501580156106bd573d6000803e3d6000fd5b6106bd83838360405180602001604052806000815250610af3565b600061095360085490565b82106109b65760405162461bcd60e51b815260206004820152602c60248201527f455243373231456e756d657261626c653a20676c6f62616c20696e646578206f60448201526b7574206f6620626f756e647360a01b606482015260840161061c565b600882815481106109c9576109c9611b7b565b90600052602060002001549050919050565b6000818152600260205260408120546001600160a01b0316806104e95760405162461bcd60e51b8152602060048201526018602482015277115490cdcc8c4e881a5b9d985b1a59081d1bdad95b88125160421b604482015260640161061c565b60006001600160a01b038216610aa55760405162461bcd60e51b815260206004820152602960248201527f4552433732313a2061646472657373207a65726f206973206e6f7420612076616044820152683634b21037bbb732b960b91b606482015260840161061c565b506001600160a01b031660009081526003602052604090205490565b610ac9610f3c565b610ad36000610f96565b565b6060600180546104fe90611a9b565b610aef338383610fe8565b5050565b610afd3383610d4c565b610b195760405162461bcd60e51b815260040161061c90611b2e565b610b25848484846110b6565b50505050565b6060610b3682610c65565b6000610b4d60408051602081019091526000815290565b90506000815111610b6d5760405180602001604052806000815250610b98565b80610b77846110e9565b604051602001610b88929190611b91565b6040516020818303038152906040525b9392505050565b610ba7610f3c565b6001600160a01b038116610c0c5760405162461bcd60e51b815260206004820152602660248201527f4f776e61626c653a206e6577206f776e657220697320746865207a65726f206160448201526564647265737360d01b606482015260840161061c565b61080c81610f96565b60006001600160e01b031982166380ac58cd60e01b1480610c4657506001600160e01b03198216635b5e139f60e01b145b806104e957506301ffc9a760e01b6001600160e01b03198316146104e9565b6000818152600260205260409020546001600160a01b031661080c5760405162461bcd60e51b8152602060048201526018602482015277115490cdcc8c4e881a5b9d985b1a59081d1bdad95b88125160421b604482015260640161061c565b600081815260046020526040902080546001600160a01b0319166001600160a01b0384169081179091558190610cf9826109db565b6001600160a01b03167f8c5be1e5ebec7d5bd14f71427d1e84f3dd0314c0f7b2291e5b200ac8c7c3b92560405160405180910390a45050565b610aef82826040518060200160405280600081525061117c565b600080610d58836109db565b9050806001600160a01b0316846001600160a01b03161480610d9f57506001600160a01b0380821660009081526005602090815260408083209388168352929052205460ff165b80610dc35750836001600160a01b0316610db884610581565b6001600160a01b0316145b949350505050565b826001600160a01b0316610dde826109db565b6001600160a01b031614610e045760405162461bcd60e51b815260040161061c90611bc0565b6001600160a01b038216610e665760405162461bcd60e51b8152602060048201526024808201527f4552433732313a207472616e7366657220746f20746865207a65726f206164646044820152637265737360e01b606482015260840161061c565b610e7383838360016111af565b826001600160a01b0316610e86826109db565b6001600160a01b031614610eac5760405162461bcd60e51b815260040161061c90611bc0565b600081815260046020908152604080832080546001600160a01b03199081169091556001600160a01b0387811680865260038552838620805460001901905590871680865283862080546001019055868652600290945282852080549092168417909155905184937fddf252ad1be2c89b69c2b068fc378daa952ba7f163c4a11628f55a4df523b3ef91a4505050565b600a546001600160a01b03163314610ad35760405162461bcd60e51b815260206004820181905260248201527f4f776e61626c653a2063616c6c6572206973206e6f7420746865206f776e6572604482015260640161061c565b600a80546001600160a01b038381166001600160a01b0319831681179093556040519116919082907f8be0079c531659141344cd1fd0a4f28419497f9722a3daafe3b4186f6b6457e090600090a35050565b816001600160a01b0316836001600160a01b0316036110495760405162461bcd60e51b815260206004820152601960248201527f4552433732313a20617070726f766520746f2063616c6c657200000000000000604482015260640161061c565b6001600160a01b03838116600081815260056020908152604080832094871680845294825291829020805460ff191686151590811790915591519182527f17307eab39ab6107e8899845ad3d59bd9653f200f220920489ca2b5937696c31910160405180910390a3505050565b6110c1848484610dcb565b6110cd848484846112e3565b610b255760405162461bcd60e51b815260040161061c90611c05565b606060006110f6836113e4565b600101905060008167ffffffffffffffff81111561111657611116611976565b6040519080825280601f01601f191660200182016040528015611140576020820181803683370190505b5090508181016020015b600019016f181899199a1a9b1b9c1cb0b131b232b360811b600a86061a8153600a850494508461114a57509392505050565b61118683836114bc565b61119360008484846112e3565b6106bd5760405162461bcd60e51b815260040161061c90611c05565b600181111561121e5760405162461bcd60e51b815260206004820152603560248201527f455243373231456e756d657261626c653a20636f6e7365637574697665207472604482015274185b9cd9995c9cc81b9bdd081cdd5c1c1bdc9d1959605a1b606482015260840161061c565b816001600160a01b03851661127a5761127581600880546000838152600960205260408120829055600182018355919091527ff3f7a9fe364faab93b216da50a3214154f22a0a2b415b23a84c8169e8b636ee30155565b61129d565b836001600160a01b0316856001600160a01b03161461129d5761129d8582611655565b6001600160a01b0384166112b9576112b4816116f2565b6112dc565b846001600160a01b0316846001600160a01b0316146112dc576112dc84826117a1565b5050505050565b60006001600160a01b0384163b156113d957604051630a85bd0160e11b81526001600160a01b0385169063150b7a0290611327903390899088908890600401611c57565b6020604051808303816000875af1925050508015611362575060408051601f3d908101601f1916820190925261135f91810190611c94565b60015b6113bf573d808015611390576040519150601f19603f3d011682016040523d82523d6000602084013e611395565b606091505b5080516000036113b75760405162461bcd60e51b815260040161061c90611c05565b805181602001fd5b6001600160e01b031916630a85bd0160e11b149050610dc3565b506001949350505050565b60008072184f03e93ff9f4daa797ed6e38ed64bf6a1f0160401b83106114235772184f03e93ff9f4daa797ed6e38ed64bf6a1f0160401b830492506040015b6d04ee2d6d415b85acef8100000000831061144f576d04ee2d6d415b85acef8100000000830492506020015b662386f26fc10000831061146d57662386f26fc10000830492506010015b6305f5e1008310611485576305f5e100830492506008015b612710831061149957612710830492506004015b606483106114ab576064830492506002015b600a83106104e95760010192915050565b6001600160a01b0382166115125760405162461bcd60e51b815260206004820181905260248201527f4552433732313a206d696e7420746f20746865207a65726f2061646472657373604482015260640161061c565b6000818152600260205260409020546001600160a01b0316156115775760405162461bcd60e51b815260206004820152601c60248201527f4552433732313a20746f6b656e20616c7265616479206d696e74656400000000604482015260640161061c565b6115856000838360016111af565b6000818152600260205260409020546001600160a01b0316156115ea5760405162461bcd60e51b815260206004820152601c60248201527f4552433732313a20746f6b656e20616c7265616479206d696e74656400000000604482015260640161061c565b6001600160a01b038216600081815260036020908152604080832080546001019055848352600290915280822080546001600160a01b0319168417905551839291907fddf252ad1be2c89b69c2b068fc378daa952ba7f163c4a11628f55a4df523b3ef908290a45050565b6000600161166284610a3b565b61166c9190611afe565b6000838152600760205260409020549091508082146116bf576001600160a01b03841660009081526006602090815260408083208584528252808320548484528184208190558352600790915290208190555b5060009182526007602090815260408084208490556001600160a01b039094168352600681528383209183525290812055565b60085460009061170490600190611afe565b6000838152600960205260408120546008805493945090928490811061172c5761172c611b7b565b90600052602060002001549050806008838154811061174d5761174d611b7b565b600091825260208083209091019290925582815260099091526040808220849055858252812055600880548061178557611785611cb1565b6001900381819060005260206000200160009055905550505050565b60006117ac83610a3b565b6001600160a01b039093166000908152600660209081526040808320868452825280832085905593825260079052919091209190915550565b6001600160e01b03198116811461080c57600080fd5b60006020828403121561180d57600080fd5b8135610b98816117e5565b60005b8381101561183357818101518382015260200161181b565b50506000910152565b60008151808452611854816020860160208601611818565b601f01601f19169290920160200192915050565b602081526000610b98602083018461183c565b60006020828403121561188d57600080fd5b5035919050565b80356001600160a01b03811681146118ab57600080fd5b919050565b600080604083850312156118c357600080fd5b6118cc83611894565b946020939093013593505050565b6000806000606084860312156118ef57600080fd5b6118f884611894565b925061190660208501611894565b9150604084013590509250925092565b60006020828403121561192857600080fd5b610b9882611894565b801515811461080c57600080fd5b6000806040838503121561195257600080fd5b61195b83611894565b9150602083013561196b81611931565b809150509250929050565b634e487b7160e01b600052604160045260246000fd5b600080600080608085870312156119a257600080fd5b6119ab85611894565b93506119b960208601611894565b925060408501359150606085013567ffffffffffffffff808211156119dd57600080fd5b818701915087601f8301126119f157600080fd5b813581811115611a0357611a03611976565b604051601f8201601f19908116603f01168101908382118183101715611a2b57611a2b611976565b816040528281528a6020848701011115611a4457600080fd5b82602086016020830137600060208483010152809550505050505092959194509250565b60008060408385031215611a7b57600080fd5b611a8483611894565b9150611a9260208401611894565b90509250929050565b600181811c90821680611aaf57607f821691505b602082108103611acf57634e487b7160e01b600052602260045260246000fd5b50919050565b634e487b7160e01b600052601160045260246000fd5b808201808211156104e9576104e9611ad5565b818103818111156104e9576104e9611ad5565b600060208284031215611b2357600080fd5b8151610b9881611931565b6020808252602d908201527f4552433732313a2063616c6c6572206973206e6f7420746f6b656e206f776e6560408201526c1c881bdc88185c1c1c9bdd9959609a1b606082015260800190565b634e487b7160e01b600052603260045260246000fd5b60008351611ba3818460208801611818565b835190830190611bb7818360208801611818565b01949350505050565b60208082526025908201527f4552433732313a207472616e736665722066726f6d20696e636f72726563742060408201526437bbb732b960d91b606082015260800190565b60208082526032908201527f4552433732313a207472616e7366657220746f206e6f6e20455243373231526560408201527131b2b4bb32b91034b6b83632b6b2b73a32b960711b606082015260800190565b6001600160a01b0385811682528416602082015260408101839052608060608201819052600090611c8a9083018461183c565b9695505050505050565b600060208284031215611ca657600080fd5b8151610b98816117e5565b634e487b7160e01b600052603160045260246000fdfea2646970667358221220697e666c7bf927c8bd8129d7f01ce61a68b583c679ea0474d4725d0f06ec650664736f6c63430008140033",
    "linkReferences": {}
  },
  "methodIdentifiers": {
    "_price()": "235b6ea1",
    "approve(address,uint256)": "095ea7b3",
    "balanceOf(address)": "70a08231",
    "getApproved(uint256)": "081812fc",
    "isApprovedForAll(address,address)": "e985e9c5",
    "maxTokenIds()": "5f769621",
    "mint()": "1249c58b",
    "name()": "06fdde03",
    "owner()": "8da5cb5b",
    "ownerOf(uint256)": "6352211e",
    "renounceOwnership()": "715018a6",
    "reservedTokens()": "15a55347",
    "reservedTokensClaimed()": "fdddd2cd",
    "safeTransferFrom(address,address,uint256)": "42842e0e",
    "safeTransferFrom(address,address,uint256,bytes)": "b88d4fde",
    "setApprovalForAll(address,bool)": "a22cb465",
    "supportsInterface(bytes4)": "01ffc9a7",
    "symbol()": "95d89b41",
    "tokenByIndex(uint256)": "4f6ccce7",
    "tokenOfOwnerByIndex(address,uint256)": "2f745c59",
    "tokenURI(uint256)": "c87b56dd",
    "totalSupply()": "18160ddd",
    "transferFrom(address,address,uint256)": "23b872dd",
    "transferOwnership(address)": "f2fde38b",
    "whitelist()": "93e59dc1",
    "withdraw()": "3ccfd60b"
  },
  "id": 14
}