{
  "abi": [
    {
      "inputs": [],
      "stateMutability": "nonpayable",
      "type": "constructor"
    },
    {
      "anonymous": false,
      "inputs": [
        {
          "indexed": true,
          "internalType": "uint256",
          "name": "drugId",
          "type": "uint256"
        },
        {
          "indexed": false,
          "internalType": "string",
          "name": "name",
          "type": "string"
        },
        {
          "indexed": false,
          "internalType": "string",
          "name": "description",
          "type": "string"
        },
        {
          "indexed": false,
          "internalType": "address",
          "name": "manufacturer",
          "type": "address"
        }
      ],
      "name": "DrugAdded",
      "type": "event"
    },
    {
      "anonymous": false,
      "inputs": [
        {
          "indexed": true,
          "internalType": "uint256",
          "name": "drugId",
          "type": "uint256"
        },
        {
          "indexed": true,
          "internalType": "address",
          "name": "from",
          "type": "address"
        },
        {
          "indexed": true,
          "internalType": "address",
          "name": "to",
          "type": "address"
        }
      ],
      "name": "DrugTransfer",
      "type": "event"
    },
    {
      "anonymous": false,
      "inputs": [
        {
          "indexed": true,
          "internalType": "uint256",
          "name": "orderId",
          "type": "uint256"
        },
        {
          "indexed": false,
          "internalType": "uint256",
          "name": "drugId",
          "type": "uint256"
        },
        {
          "indexed": true,
          "internalType": "address",
          "name": "buyer",
          "type": "address"
        },
        {
          "indexed": true,
          "internalType": "address",
          "name": "seller",
          "type": "address"
        }
      ],
      "name": "OrderPlaced",
      "type": "event"
    },
    {
      "anonymous": false,
      "inputs": [
        {
          "indexed": true,
          "internalType": "uint256",
          "name": "drugId",
          "type": "uint256"
        },
        {
          "indexed": false,
          "internalType": "address[]",
          "name": "ownershipChain",
          "type": "address[]"
        }
      ],
      "name": "OwnershipChainUpdated",
      "type": "event"
    },
    {
      "inputs": [
        {
          "internalType": "string",
          "name": "name",
          "type": "string"
        },
        {
          "internalType": "string",
          "name": "description",
          "type": "string"
        }
      ],
      "name": "addDrug",
      "outputs": [],
      "stateMutability": "nonpayable",
      "type": "function"
    },
    {
      "inputs": [],
      "name": "drugCounter",
      "outputs": [
        {
          "internalType": "uint256",
          "name": "",
          "type": "uint256"
        }
      ],
      "stateMutability": "view",
      "type": "function"
    },
    {
      "inputs": [
        {
          "internalType": "uint256",
          "name": "",
          "type": "uint256"
        }
      ],
      "name": "drugs",
      "outputs": [
        {
          "internalType": "string",
          "name": "name",
          "type": "string"
        },
        {
          "internalType": "string",
          "name": "description",
          "type": "string"
        },
        {
          "internalType": "address",
          "name": "manufacturer",
          "type": "address"
        },
        {
          "internalType": "address",
          "name": "currentOwner",
          "type": "address"
        },
        {
          "internalType": "bool",
          "name": "authenticityStatus",
          "type": "bool"
        }
      ],
      "stateMutability": "view",
      "type": "function"
    },
    {
      "inputs": [
        {
          "internalType": "uint256",
          "name": "orderId",
          "type": "uint256"
        }
      ],
      "name": "fulfillOrder",
      "outputs": [],
      "stateMutability": "nonpayable",
      "type": "function"
    },
    {
      "inputs": [],
      "name": "orderCounter",
      "outputs": [
        {
          "internalType": "uint256",
          "name": "",
          "type": "uint256"
        }
      ],
      "stateMutability": "view",
      "type": "function"
    },
    {
      "inputs": [
        {
          "internalType": "uint256",
          "name": "",
          "type": "uint256"
        }
      ],
      "name": "orders",
      "outputs": [
        {
          "internalType": "uint256",
          "name": "drugId",
          "type": "uint256"
        },
        {
          "internalType": "address",
          "name": "buyer",
          "type": "address"
        },
        {
          "internalType": "address",
          "name": "seller",
          "type": "address"
        },
        {
          "internalType": "bool",
          "name": "fulfillmentStatus",
          "type": "bool"
        }
      ],
      "stateMutability": "view",
      "type": "function"
    },
    {
      "inputs": [
        {
          "internalType": "uint256",
          "name": "drugId",
          "type": "uint256"
        },
        {
          "internalType": "address",
          "name": "seller",
          "type": "address"
        }
      ],
      "name": "placeOrder",
      "outputs": [],
      "stateMutability": "nonpayable",
      "type": "function"
    },
    {
      "inputs": [
        {
          "internalType": "uint256",
          "name": "drugId",
          "type": "uint256"
        },
        {
          "internalType": "address",
          "name": "recipient",
          "type": "address"
        }
      ],
      "name": "transferDrugOwnership",
      "outputs": [],
      "stateMutability": "nonpayable",
      "type": "function"
    }
  ],
  "bytecode": {
    "object": "0x608060405234801561001057600080fd5b5060006002819055600355610be18061002a6000396000f3fe608060405234801561001057600080fd5b50600436106100885760003560e01c80637a31b7771161005b5780637a31b777146100e4578063a85c38ef146100f7578063b789bf5214610170578063fca5e61e1461017957600080fd5b80631d748bb71461008d57806340e9ca5c146100a25780636311e830146100b5578063641db207146100c8575b600080fd5b6100a061009b3660046107bc565b61019d565b005b6100a06100b03660046107bc565b6102cd565b6100a06100c33660046107f8565b610413565b6100d160025481565b6040519081526020015b60405180910390f35b6100a06100f23660046108b4565b6104be565b61013e6101053660046107f8565b60016020819052600091825260409091208054918101546002909101546001600160a01b0391821691811690600160a01b900460ff1684565b6040516100db94939291909384526001600160a01b039283166020850152911660408301521515606082015260800190565b6100d160035481565b61018c6101873660046107f8565b6105f4565b6040516100db95949392919061095e565b600082815260208190526040902060038101546001600160a01b031633146102215760405162461bcd60e51b815260206004820152602c60248201527f4f6e6c79207468652063757272656e74206f776e65722063616e207472616e7360448201526b66657220746865206472756760a01b60648201526084015b60405180910390fd5b6004810180546001810182556000918252602082200180546001600160a01b0385166001600160a01b03199182168117909255600384018054909116821790556040519091339186917f0cc87ca174bd05b7e773c50ea68b0a3c149b0a031525a0dd9ce888772b080b8691a4827fa3a7b660032e51694c89f9de11310357e409b8e33f98deb399684fce3ff58a4c826004016040516102c091906109ad565b60405180910390a2505050565b6000828152602081905260409020600301546001600160a01b038281169116146103395760405162461bcd60e51b815260206004820181905260248201527f5468652073656c6c657220646f6573206e6f74206f776e2074686520647275676044820152606401610218565b60038054906000610349836109fd565b9091555050604080516080810182528381523360208083018281526001600160a01b038681168587018181526000606088018181526003805483526001808952928b902099518a55955191890180546001600160a01b031916928616929092179091559051600290970180549151979093166001600160a81b031990911617600160a01b96151596909602959095179055549351868152929391927fdffaf8fcb52f7b0de48693cfd7f4423b24a3cab5911c0a2e84f876678a93692f910160405180910390a45050565b600081815260016020526040902060028101546001600160a01b0316331461048b5760405162461bcd60e51b815260206004820152602560248201527f4f6e6c79207468652073656c6c65722063616e2066756c66696c6c207468652060448201526437b93232b960d91b6064820152608401610218565b60028101805460ff60a01b1916600160a01b179055805460018201546104ba91906001600160a01b031661019d565b5050565b600280549060006104ce836109fd565b90915550506040805160c08101825283815260208082018490523382840181905260608301528251600080825281830185526080840191909152600160a0840152600254815290819052919091208151819061052a9082610aad565b506020820151600182019061053f9082610aad565b5060408201516002820180546001600160a01b039283166001600160a01b031991821617909155606084015160038401805491909316911617905560808201518051610595916004840191602090910190610742565b5060a091909101516005909101805460ff19169115159190911790556002546040517fa9e2ce00663dc467daab64a47e8c4e0ead28a50232e1b6d41f15d8f7e9a06b71906105e890859085903390610b6d565b60405180910390a25050565b60006020819052908152604090208054819061060f90610a24565b80601f016020809104026020016040519081016040528092919081815260200182805461063b90610a24565b80156106885780601f1061065d57610100808354040283529160200191610688565b820191906000526020600020905b81548152906001019060200180831161066b57829003601f168201915b50505050509080600101805461069d90610a24565b80601f01602080910402602001604051908101604052809291908181526020018280546106c990610a24565b80156107165780601f106106eb57610100808354040283529160200191610716565b820191906000526020600020905b8154815290600101906020018083116106f957829003601f168201915b505050506002830154600384015460059094015492936001600160a01b03918216939116915060ff1685565b828054828255906000526020600020908101928215610797579160200282015b8281111561079757825182546001600160a01b0319166001600160a01b03909116178255602090920191600190910190610762565b506107a39291506107a7565b5090565b5b808211156107a357600081556001016107a8565b600080604083850312156107cf57600080fd5b8235915060208301356001600160a01b03811681146107ed57600080fd5b809150509250929050565b60006020828403121561080a57600080fd5b5035919050565b634e487b7160e01b600052604160045260246000fd5b600082601f83011261083857600080fd5b813567ffffffffffffffff8082111561085357610853610811565b604051601f8301601f19908116603f0116810190828211818310171561087b5761087b610811565b8160405283815286602085880101111561089457600080fd5b836020870160208301376000602085830101528094505050505092915050565b600080604083850312156108c757600080fd5b823567ffffffffffffffff808211156108df57600080fd5b6108eb86838701610827565b9350602085013591508082111561090157600080fd5b5061090e85828601610827565b9150509250929050565b6000815180845260005b8181101561093e57602081850181015186830182015201610922565b506000602082860101526020601f19601f83011685010191505092915050565b60a08152600061097160a0830188610918565b82810360208401526109838188610918565b6001600160a01b039687166040850152949095166060830152509015156080909101529392505050565b6020808252825482820181905260008481528281209092916040850190845b818110156109f15783546001600160a01b0316835260019384019392850192016109cc565b50909695505050505050565b600060018201610a1d57634e487b7160e01b600052601160045260246000fd5b5060010190565b600181811c90821680610a3857607f821691505b602082108103610a5857634e487b7160e01b600052602260045260246000fd5b50919050565b601f821115610aa857600081815260208120601f850160051c81016020861015610a855750805b601f850160051c820191505b81811015610aa457828155600101610a91565b5050505b505050565b815167ffffffffffffffff811115610ac757610ac7610811565b610adb81610ad58454610a24565b84610a5e565b602080601f831160018114610b105760008415610af85750858301515b600019600386901b1c1916600185901b178555610aa4565b600085815260208120601f198616915b82811015610b3f57888601518255948401946001909101908401610b20565b5085821015610b5d5787850151600019600388901b60f8161c191681555b5050505050600190811b01905550565b606081526000610b806060830186610918565b8281036020840152610b928186610918565b91505060018060a01b038316604083015294935050505056fea2646970667358221220de3c632029c899674a8786fde0bf34bcc3f14d91c82358ea0a67cc2ac721ff8a64736f6c63430008140033",
    "linkReferences": {}
  },
  "methodIdentifiers": {
    "addDrug(string,string)": "7a31b777",
    "drugCounter()": "641db207",
    "drugs(uint256)": "fca5e61e",
    "fulfillOrder(uint256)": "6311e830",
    "orderCounter()": "b789bf52",
    "orders(uint256)": "a85c38ef",
    "placeOrder(uint256,address)": "40e9ca5c",
    "transferDrugOwnership(uint256,address)": "1d748bb7"
  },
  "id": 31
}