{
  "abi": [
    {
      "inputs": [
        {
          "internalType": "string",
          "name": "sadSvgUri",
          "type": "string"
        },
        {
          "internalType": "string",
          "name": "happySvgUri",
          "type": "string"
        }
      ],
      "stateMutability": "nonpayable",
      "type": "constructor"
    },
    {
      "inputs": [
        {
          "internalType": "address",
          "name": "sender",
          "type": "address"
        },
        {
          "internalType": "uint256",
          "name": "tokenId",
          "type": "uint256"
        },
        {
          "internalType": "address",
          "name": "owner",
          "type": "address"
        }
      ],
      "name": "ERC721IncorrectOwner",
      "type": "error"
    },
    {
      "inputs": [
        {
          "internalType": "address",
          "name": "operator",
          "type": "address"
        },
        {
          "internalType": "uint256",
          "name": "tokenId",
          "type": "uint256"
        }
      ],
      "name": "ERC721InsufficientApproval",
      "type": "error"
    },
    {
      "inputs": [
        {
          "internalType": "address",
          "name": "approver",
          "type": "address"
        }
      ],
      "name": "ERC721InvalidApprover",
      "type": "error"
    },
    {
      "inputs": [
        {
          "internalType": "address",
          "name": "operator",
          "type": "address"
        }
      ],
      "name": "ERC721InvalidOperator",
      "type": "error"
    },
    {
      "inputs": [
        {
          "internalType": "address",
          "name": "owner",
          "type": "address"
        }
      ],
      "name": "ERC721InvalidOwner",
      "type": "error"
    },
    {
      "inputs": [
        {
          "internalType": "address",
          "name": "receiver",
          "type": "address"
        }
      ],
      "name": "ERC721InvalidReceiver",
      "type": "error"
    },
    {
      "inputs": [
        {
          "internalType": "address",
          "name": "sender",
          "type": "address"
        }
      ],
      "name": "ERC721InvalidSender",
      "type": "error"
    },
    {
      "inputs": [],
      "name": "ERC721Metadata__URI_QueryFor_NonExistentToken",
      "type": "error"
    },
    {
      "inputs": [
        {
          "internalType": "uint256",
          "name": "tokenId",
          "type": "uint256"
        }
      ],
      "name": "ERC721NonexistentToken",
      "type": "error"
    },
    {
      "anonymous": false,
      "inputs": [
        {
          "indexed": true,
          "internalType": "address",
          "name": "owner",
          "type": "address"
        },
        {
          "indexed": true,
          "internalType": "address",
          "name": "approved",
          "type": "address"
        },
        {
          "indexed": true,
          "internalType": "uint256",
          "name": "tokenId",
          "type": "uint256"
        }
      ],
      "name": "Approval",
      "type": "event"
    },
    {
      "anonymous": false,
      "inputs": [
        {
          "indexed": true,
          "internalType": "address",
          "name": "owner",
          "type": "address"
        },
        {
          "indexed": true,
          "internalType": "address",
          "name": "operator",
          "type": "address"
        },
        {
          "indexed": false,
          "internalType": "bool",
          "name": "approved",
          "type": "bool"
        }
      ],
      "name": "ApprovalForAll",
      "type": "event"
    },
    {
      "anonymous": false,
      "inputs": [
        {
          "indexed": true,
          "internalType": "uint256",
          "name": "tokenId",
          "type": "uint256"
        }
      ],
      "name": "CreatedNFT",
      "type": "event"
    },
    {
      "anonymous": false,
      "inputs": [
        {
          "indexed": true,
          "internalType": "address",
          "name": "from",
          "type": "address"
        },
        {
          "indexed": true,
          "internalType": "address",
          "name": "to",
          "type": "address"
        },
        {
          "indexed": true,
          "internalType": "uint256",
          "name": "tokenId",
          "type": "uint256"
        }
      ],
      "name": "Transfer",
      "type": "event"
    },
    {
      "inputs": [
        {
          "internalType": "address",
          "name": "to",
          "type": "address"
        },
        {
          "internalType": "uint256",
          "name": "tokenId",
          "type": "uint256"
        }
      ],
      "name": "approve",
      "outputs": [],
      "stateMutability": "nonpayable",
      "type": "function"
    },
    {
      "inputs": [
        {
          "internalType": "address",
          "name": "owner",
          "type": "address"
        }
      ],
      "name": "balanceOf",
      "outputs": [
        {
          "internalType": "uint256",
          "name": "",
          "type": "uint256"
        }
      ],
      "stateMutability": "view",
      "type": "function"
    },
    {
      "inputs": [
        {
          "internalType": "uint256",
          "name": "tokenId",
          "type": "uint256"
        }
      ],
      "name": "getApproved",
      "outputs": [
        {
          "internalType": "address",
          "name": "",
          "type": "address"
        }
      ],
      "stateMutability": "view",
      "type": "function"
    },
    {
      "inputs": [],
      "name": "getHappySVG",
      "outputs": [
        {
          "internalType": "string",
          "name": "",
          "type": "string"
        }
      ],
      "stateMutability": "view",
      "type": "function"
    },
    {
      "inputs": [],
      "name": "getSadSVG",
      "outputs": [
        {
          "internalType": "string",
          "name": "",
          "type": "string"
        }
      ],
      "stateMutability": "view",
      "type": "function"
    },
    {
      "inputs": [],
      "name": "getTokenCounter",
      "outputs": [
        {
          "internalType": "uint256",
          "name": "",
          "type": "uint256"
        }
      ],
      "stateMutability": "view",
      "type": "function"
    },
    {
      "inputs": [
        {
          "internalType": "address",
          "name": "owner",
          "type": "address"
        },
        {
          "internalType": "address",
          "name": "operator",
          "type": "address"
        }
      ],
      "name": "isApprovedForAll",
      "outputs": [
        {
          "internalType": "bool",
          "name": "",
          "type": "bool"
        }
      ],
      "stateMutability": "view",
      "type": "function"
    },
    {
      "inputs": [
        {
          "internalType": "address",
          "name": "to",
          "type": "address"
        }
      ],
      "name": "mintNft",
      "outputs": [],
      "stateMutability": "nonpayable",
      "type": "function"
    },
    {
      "inputs": [],
      "name": "name",
      "outputs": [
        {
          "internalType": "string",
          "name": "",
          "type": "string"
        }
      ],
      "stateMutability": "view",
      "type": "function"
    },
    {
      "inputs": [
        {
          "internalType": "uint256",
          "name": "tokenId",
          "type": "uint256"
        }
      ],
      "name": "ownerOf",
      "outputs": [
        {
          "internalType": "address",
          "name": "",
          "type": "address"
        }
      ],
      "stateMutability": "view",
      "type": "function"
    },
    {
      "inputs": [
        {
          "internalType": "address",
          "name": "from",
          "type": "address"
        },
        {
          "internalType": "address",
          "name": "to",
          "type": "address"
        },
        {
          "internalType": "uint256",
          "name": "tokenId",
          "type": "uint256"
        }
      ],
      "name": "safeTransferFrom",
      "outputs": [],
      "stateMutability": "nonpayable",
      "type": "function"
    },
    {
      "inputs": [
        {
          "internalType": "address",
          "name": "from",
          "type": "address"
        },
        {
          "internalType": "address",
          "name": "to",
          "type": "address"
        },
        {
          "internalType": "uint256",
          "name": "tokenId",
          "type": "uint256"
        },
        {
          "internalType": "bytes",
          "name": "data",
          "type": "bytes"
        }
      ],
      "name": "safeTransferFrom",
      "outputs": [],
      "stateMutability": "nonpayable",
      "type": "function"
    },
    {
      "inputs": [
        {
          "internalType": "address",
          "name": "operator",
          "type": "address"
        },
        {
          "internalType": "bool",
          "name": "approved",
          "type": "bool"
        }
      ],
      "name": "setApprovalForAll",
      "outputs": [],
      "stateMutability": "nonpayable",
      "type": "function"
    },
    {
      "inputs": [
        {
          "internalType": "bytes4",
          "name": "interfaceId",
          "type": "bytes4"
        }
      ],
      "name": "supportsInterface",
      "outputs": [
        {
          "internalType": "bool",
          "name": "",
          "type": "bool"
        }
      ],
      "stateMutability": "view",
      "type": "function"
    },
    {
      "inputs": [],
      "name": "symbol",
      "outputs": [
        {
          "internalType": "string",
          "name": "",
          "type": "string"
        }
      ],
      "stateMutability": "view",
      "type": "function"
    },
    {
      "inputs": [
        {
          "internalType": "address",
          "name": "owner",
          "type": "address"
        },
        {
          "internalType": "uint256",
          "name": "index",
          "type": "uint256"
        }
      ],
      "name": "tokenOfOwnerByIndex",
      "outputs": [
        {
          "internalType": "uint256",
          "name": "",
          "type": "uint256"
        }
      ],
      "stateMutability": "view",
      "type": "function"
    },
    {
      "inputs": [
        {
          "internalType": "uint256",
          "name": "tokenId",
          "type": "uint256"
        }
      ],
      "name": "tokenURI",
      "outputs": [
        {
          "internalType": "string",
          "name": "",
          "type": "string"
        }
      ],
      "stateMutability": "view",
      "type": "function"
    },
    {
      "inputs": [
        {
          "internalType": "address",
          "name": "from",
          "type": "address"
        },
        {
          "internalType": "address",
          "name": "to",
          "type": "address"
        },
        {
          "internalType": "uint256",
          "name": "tokenId",
          "type": "uint256"
        }
      ],
      "name": "transferFrom",
      "outputs": [],
      "stateMutability": "nonpayable",
      "type": "function"
    }
  ],
  "bytecode": {
    "object": "0x60806040523480156200001157600080fd5b506040516200190a3803806200190a833981016040819052620000349162000183565b60405180604001604052806008815260200167135bdbd90813919560c21b8152506040518060400160405280600281526020016126a760f11b81525081600090816200008191906200027c565b5060016200009082826200027c565b50506000600655506007620000a683826200027c565b506008620000b582826200027c565b50505062000348565b634e487b7160e01b600052604160045260246000fd5b600082601f830112620000e657600080fd5b81516001600160401b0380821115620001035762000103620000be565b604051601f8301601f19908116603f011681019082821181831017156200012e576200012e620000be565b816040528381526020925086838588010111156200014b57600080fd5b600091505b838210156200016f578582018301518183018401529082019062000150565b600093810190920192909252949350505050565b600080604083850312156200019757600080fd5b82516001600160401b0380821115620001af57600080fd5b620001bd86838701620000d4565b93506020850151915080821115620001d457600080fd5b50620001e385828601620000d4565b9150509250929050565b600181811c908216806200020257607f821691505b6020821081036200022357634e487b7160e01b600052602260045260246000fd5b50919050565b601f8211156200027757600081815260208120601f850160051c81016020861015620002525750805b601f850160051c820191505b8181101562000273578281556001016200025e565b5050505b505050565b81516001600160401b03811115620002985762000298620000be565b620002b081620002a98454620001ed565b8462000229565b602080601f831160018114620002e85760008415620002cf5750858301515b600019600386901b1c1916600185901b17855562000273565b600085815260208120601f198616915b828110156200031957888601518255948401946001909101908401620002f8565b5085821015620003385787850151600019600388901b60f8161c191681555b5050505050600190811b01905550565b6115b280620003586000396000f3fe608060405234801561001057600080fd5b50600436106101165760003560e01c80636e02007d116100a2578063b88d4fde11610071578063b88d4fde14610230578063c87b56dd14610243578063e985e9c514610256578063e9c2e14b14610292578063fc842121146102a557600080fd5b80636e02007d146101fa57806370a082311461020257806395d89b4114610215578063a22cb4651461021d57600080fd5b806323b872dd116100e957806323b872dd146101985780632f745c59146101ab57806342842e0e146101cc5780635de0682f146101df5780636352211e146101e757600080fd5b806301ffc9a71461011b57806306fdde0314610143578063081812fc14610158578063095ea7b314610183575b600080fd5b61012e610129366004611024565b6102ad565b60405190151581526020015b60405180910390f35b61014b6102ff565b60405161013a9190611098565b61016b6101663660046110ab565b610391565b6040516001600160a01b03909116815260200161013a565b6101966101913660046110e0565b6103b8565b005b6101966101a636600461110a565b610456565b6101be6101b93660046110e0565b610491565b60405190815260200161013a565b6101966101da36600461110a565b610536565b61014b610551565b61016b6101f53660046110ab565b610560565b6006546101be565b6101be610210366004611146565b610599565b61014b6105e1565b61019661022b366004611161565b6105f0565b61019661023e3660046111b3565b6105ff565b61014b6102513660046110ab565b610641565b61012e61026436600461128f565b6001600160a01b03918216600090815260056020908152604080832093909416825291909152205460ff1690565b6101966102a0366004611146565b610855565b61014b6108a0565b60006001600160e01b031982166380ac58cd60e01b14806102de57506001600160e01b03198216635b5e139f60e01b145b806102f957506301ffc9a760e01b6001600160e01b03198316145b92915050565b60606000805461030e906112c2565b80601f016020809104026020016040519081016040528092919081815260200182805461033a906112c2565b80156103875780601f1061035c57610100808354040283529160200191610387565b820191906000526020600020905b81548152906001019060200180831161036a57829003601f168201915b5050505050905090565b600061039c826108af565b506000908152600460205260409020546001600160a01b031690565b60006103c382610560565b9050806001600160a01b0316836001600160a01b03160361040757604051630b61174360e31b81526001600160a01b03821660048201526024015b60405180910390fd5b336001600160a01b0382161480159061042757506104258133610264565b155b156104475760405163a9fbf51f60e01b81523360048201526024016103fe565b61045183836108ea565b505050565b6104603382610958565b6104865760405163177e802f60e01b8152336004820152602481018290526044016103fe565b6104518383836109d7565b600061049c83610599565b82106104f95760405162461bcd60e51b815260206004820152602660248201527f46756e64526166666c654d6f6f644e66743a20496e76616c696420746f6b656e604482015265040d2dcc8caf60d31b60648201526084016103fe565b6001600160a01b0383166000908152600a60205260409020805483908110610523576105236112fc565b9060005260206000200154905092915050565b610451838383604051806020016040528060008152506105ff565b60606007805461030e906112c2565b6000818152600260205260408120546001600160a01b0316806102f957604051637e27328960e01b8152600481018490526024016103fe565b60006001600160a01b0382166105c5576040516322718ad960e21b8152600060048201526024016103fe565b506001600160a01b031660009081526003602052604090205490565b60606001805461030e906112c2565b6105fb338383610b65565b5050565b6106093383610958565b61062f5760405163177e802f60e01b8152336004820152602481018390526044016103fe565b61063b84848484610c0f565b50505050565b6000818152600260205260409020546060906001600160a01b0316610679576040516336faf6d760e11b815260040160405180910390fd5b600060088054610688906112c2565b80601f01602080910402602001604051908101604052809291908181526020018280546106b4906112c2565b80156107015780601f106106d657610100808354040283529160200191610701565b820191906000526020600020905b8154815290600101906020018083116106e457829003601f168201915b509394506001935061071292505050565b60008481526009602052604090205460ff16600181111561073557610735611312565b036107c85760078054610747906112c2565b80601f0160208091040260200160405190810160405280929190818152602001828054610773906112c2565b80156107c05780601f10610795576101008083540402835291602001916107c0565b820191906000526020600020905b8154815290600101906020018083116107a357829003601f168201915b505050505090505b60408051808201909152601d81527f646174613a6170706c69636174696f6e2f6a736f6e3b6261736536342c000000602082015261082d6108076102ff565b83604051602001610819929190611328565b604051602081830303815290604052610c4e565b60405160200161083e92919061143e565b604051602081830303815290604052915050919050565b61086181600654610da1565b60065461086f906001611483565b60068190556040517f72102923c3d44433bd725cb2c744a4c92a536ad249b665dec9853a16ed66552590600090a250565b60606008805461030e906112c2565b6000818152600260205260409020546001600160a01b03166108e757604051637e27328960e01b8152600481018290526024016103fe565b50565b600081815260046020526040902080546001600160a01b0319166001600160a01b038416908117909155819061091f82610560565b6001600160a01b03167f8c5be1e5ebec7d5bd14f71427d1e84f3dd0314c0f7b2291e5b200ac8c7c3b92560405160405180910390a45050565b60008061096483610560565b9050806001600160a01b0316846001600160a01b031614806109ab57506001600160a01b0380821660009081526005602090815260408083209388168352929052205460ff165b806109cf5750836001600160a01b03166109c484610391565b6001600160a01b0316145b949350505050565b60006109e282610560565b9050836001600160a01b0316816001600160a01b031614610a30576040516364283d7b60e01b81526001600160a01b03808616600483015260248201849052821660448201526064016103fe565b6001600160a01b038316610a5a57604051633250574960e11b8152600060048201526024016103fe565b610a6382610560565b9050836001600160a01b0316816001600160a01b031614610ab1576040516364283d7b60e01b81526001600160a01b03808616600483015260248201849052821660448201526064016103fe565b600082815260046020908152604080832080546001600160a01b03191690556001600160a01b038716835260039091528120805460019290610af4908490611496565b90915550506001600160a01b03808416600081815260036020908152604080832080546001019055868352600290915280822080546001600160a01b031916841790555185938816917fddf252ad1be2c89b69c2b068fc378daa952ba7f163c4a11628f55a4df523b3ef91a461063b565b816001600160a01b0316836001600160a01b031603610ba257604051630b61174360e31b81526001600160a01b03841660048201526024016103fe565b6001600160a01b03838116600081815260056020908152604080832094871680845294825291829020805460ff191686151590811790915591519182527f17307eab39ab6107e8899845ad3d59bd9653f200f220920489ca2b5937696c31910160405180910390a3505050565b610c1a8484846109d7565b610c2684848484610dbb565b61063b57604051633250574960e11b81526001600160a01b03841660048201526024016103fe565b60608151600003610c6d57505060408051602081019091526000815290565b600060405180606001604052806040815260200161153d6040913990506000600384516002610c9c9190611483565b610ca691906114a9565b610cb19060046114cb565b67ffffffffffffffff811115610cc957610cc961119d565b6040519080825280601f01601f191660200182016040528015610cf3576020820181803683370190505b509050600182016020820185865187015b80821015610d5f576003820191508151603f8160121c168501518453600184019350603f81600c1c168501518453600184019350603f8160061c168501518453600184019350603f8116850151845350600183019250610d04565b5050600386510660018114610d7b5760028114610d8e57610d96565b603d6001830353603d6002830353610d96565b603d60018303535b509195945050505050565b6105fb828260405180602001604052806000815250610ec8565b60006001600160a01b0384163b15610ebd57604051630a85bd0160e11b81526001600160a01b0385169063150b7a0290610dff9033908990889088906004016114e2565b6020604051808303816000875af1925050508015610e3a575060408051601f3d908101601f19168201909252610e379181019061151f565b60015b610ea3573d808015610e68576040519150601f19603f3d011682016040523d82523d6000602084013e610e6d565b606091505b508051600003610e9b57604051633250574960e11b81526001600160a01b03861660048201526024016103fe565b805181602001fd5b6001600160e01b031916630a85bd0160e11b1490506109cf565b506001949350505050565b610ed28383610f07565b610edf6000848484610dbb565b61045157604051633250574960e11b81526001600160a01b03841660048201526024016103fe565b6001600160a01b038216610f3157604051633250574960e11b8152600060048201526024016103fe565b6000818152600260205260409020546001600160a01b031615610f6a576040516339e3563760e11b8152600060048201526024016103fe565b6000818152600260205260409020546001600160a01b031615610fa3576040516339e3563760e11b8152600060048201526024016103fe565b6001600160a01b038216600081815260036020908152604080832080546001019055848352600290915280822080546001600160a01b0319168417905551839291907fddf252ad1be2c89b69c2b068fc378daa952ba7f163c4a11628f55a4df523b3ef908290a45050565b6001600160e01b0319811681146108e757600080fd5b60006020828403121561103657600080fd5b81356110418161100e565b9392505050565b60005b8381101561106357818101518382015260200161104b565b50506000910152565b60008151808452611084816020860160208601611048565b601f01601f19169290920160200192915050565b602081526000611041602083018461106c565b6000602082840312156110bd57600080fd5b5035919050565b80356001600160a01b03811681146110db57600080fd5b919050565b600080604083850312156110f357600080fd5b6110fc836110c4565b946020939093013593505050565b60008060006060848603121561111f57600080fd5b611128846110c4565b9250611136602085016110c4565b9150604084013590509250925092565b60006020828403121561115857600080fd5b611041826110c4565b6000806040838503121561117457600080fd5b61117d836110c4565b91506020830135801515811461119257600080fd5b809150509250929050565b634e487b7160e01b600052604160045260246000fd5b600080600080608085870312156111c957600080fd5b6111d2856110c4565b93506111e0602086016110c4565b925060408501359150606085013567ffffffffffffffff8082111561120457600080fd5b818701915087601f83011261121857600080fd5b81358181111561122a5761122a61119d565b604051601f8201601f19908116603f011681019083821181831017156112525761125261119d565b816040528281528a602084870101111561126b57600080fd5b82602086016020830137600060208483010152809550505050505092959194509250565b600080604083850312156112a257600080fd5b6112ab836110c4565b91506112b9602084016110c4565b90509250929050565b600181811c908216806112d657607f821691505b6020821081036112f657634e487b7160e01b600052602260045260246000fd5b50919050565b634e487b7160e01b600052603260045260246000fd5b634e487b7160e01b600052602160045260246000fd5b683d913730b6b2911d1160b91b8152825160009061134d816009850160208801611048565b7f222c20226465736372697074696f6e223a22416e204e465420746861742072656009918401918201527f666c656374732074686520206d6f6f64206f66207468652077696e6e65722c206029820152700189818129037b71021b430b4b71091161607d1b60498201527f2261747472696275746573223a205b7b2274726169745f74797065223a20226d605a8201527f6f6f64696e657373222c202276616c7565223a203130307d5d2c2022696d6167607a8201526332911d1160e11b609a820152835161142381609e840160208801611048565b61227d60f01b609e929091019182015260a001949350505050565b60008351611450818460208801611048565b835190830190611464818360208801611048565b01949350505050565b634e487b7160e01b600052601160045260246000fd5b808201808211156102f9576102f961146d565b818103818111156102f9576102f961146d565b6000826114c657634e487b7160e01b600052601260045260246000fd5b500490565b80820281158282048414176102f9576102f961146d565b6001600160a01b03858116825284166020820152604081018390526080606082018190526000906115159083018461106c565b9695505050505050565b60006020828403121561153157600080fd5b81516110418161100e56fe4142434445464748494a4b4c4d4e4f505152535455565758595a6162636465666768696a6b6c6d6e6f707172737475767778797a303132333435363738392b2fa2646970667358221220ac2809e4beb3aee21aa84f1b13c9e272dcae2fcfa0af355d26033a9a3cc67a6164736f6c63430008140033",
    "linkReferences": {}
  },
  "methodIdentifiers": {
    "approve(address,uint256)": "095ea7b3",
    "balanceOf(address)": "70a08231",
    "getApproved(uint256)": "081812fc",
    "getHappySVG()": "fc842121",
    "getSadSVG()": "5de0682f",
    "getTokenCounter()": "6e02007d",
    "isApprovedForAll(address,address)": "e985e9c5",
    "mintNft(address)": "e9c2e14b",
    "name()": "06fdde03",
    "ownerOf(uint256)": "6352211e",
    "safeTransferFrom(address,address,uint256)": "42842e0e",
    "safeTransferFrom(address,address,uint256,bytes)": "b88d4fde",
    "setApprovalForAll(address,bool)": "a22cb465",
    "supportsInterface(bytes4)": "01ffc9a7",
    "symbol()": "95d89b41",
    "tokenOfOwnerByIndex(address,uint256)": "2f745c59",
    "tokenURI(uint256)": "c87b56dd",
    "transferFrom(address,address,uint256)": "23b872dd"
  },
  "id": 37
}