{
  "abi": [
    {
      "inputs": [
        {
          "internalType": "string",
          "name": "sadSvgUri",
          "type": "string"
        },
        {
          "internalType": "string",
          "name": "happySvgUri",
          "type": "string"
        }
      ],
      "stateMutability": "nonpayable",
      "type": "constructor"
    },
    {
      "inputs": [
        {
          "internalType": "address",
          "name": "sender",
          "type": "address"
        },
        {
          "internalType": "uint256",
          "name": "tokenId",
          "type": "uint256"
        },
        {
          "internalType": "address",
          "name": "owner",
          "type": "address"
        }
      ],
      "name": "ERC721IncorrectOwner",
      "type": "error"
    },
    {
      "inputs": [
        {
          "internalType": "address",
          "name": "operator",
          "type": "address"
        },
        {
          "internalType": "uint256",
          "name": "tokenId",
          "type": "uint256"
        }
      ],
      "name": "ERC721InsufficientApproval",
      "type": "error"
    },
    {
      "inputs": [
        {
          "internalType": "address",
          "name": "approver",
          "type": "address"
        }
      ],
      "name": "ERC721InvalidApprover",
      "type": "error"
    },
    {
      "inputs": [
        {
          "internalType": "address",
          "name": "operator",
          "type": "address"
        }
      ],
      "name": "ERC721InvalidOperator",
      "type": "error"
    },
    {
      "inputs": [
        {
          "internalType": "address",
          "name": "owner",
          "type": "address"
        }
      ],
      "name": "ERC721InvalidOwner",
      "type": "error"
    },
    {
      "inputs": [
        {
          "internalType": "address",
          "name": "receiver",
          "type": "address"
        }
      ],
      "name": "ERC721InvalidReceiver",
      "type": "error"
    },
    {
      "inputs": [
        {
          "internalType": "address",
          "name": "sender",
          "type": "address"
        }
      ],
      "name": "ERC721InvalidSender",
      "type": "error"
    },
    {
      "inputs": [],
      "name": "ERC721Metadata__URI_QueryFor_NonExistentToken",
      "type": "error"
    },
    {
      "inputs": [
        {
          "internalType": "uint256",
          "name": "tokenId",
          "type": "uint256"
        }
      ],
      "name": "ERC721NonexistentToken",
      "type": "error"
    },
    {
      "anonymous": false,
      "inputs": [
        {
          "indexed": true,
          "internalType": "address",
          "name": "owner",
          "type": "address"
        },
        {
          "indexed": true,
          "internalType": "address",
          "name": "approved",
          "type": "address"
        },
        {
          "indexed": true,
          "internalType": "uint256",
          "name": "tokenId",
          "type": "uint256"
        }
      ],
      "name": "Approval",
      "type": "event"
    },
    {
      "anonymous": false,
      "inputs": [
        {
          "indexed": true,
          "internalType": "address",
          "name": "owner",
          "type": "address"
        },
        {
          "indexed": true,
          "internalType": "address",
          "name": "operator",
          "type": "address"
        },
        {
          "indexed": false,
          "internalType": "bool",
          "name": "approved",
          "type": "bool"
        }
      ],
      "name": "ApprovalForAll",
      "type": "event"
    },
    {
      "anonymous": false,
      "inputs": [
        {
          "indexed": true,
          "internalType": "uint256",
          "name": "tokenId",
          "type": "uint256"
        }
      ],
      "name": "CreatedNFT",
      "type": "event"
    },
    {
      "anonymous": false,
      "inputs": [
        {
          "indexed": true,
          "internalType": "address",
          "name": "from",
          "type": "address"
        },
        {
          "indexed": true,
          "internalType": "address",
          "name": "to",
          "type": "address"
        },
        {
          "indexed": true,
          "internalType": "uint256",
          "name": "tokenId",
          "type": "uint256"
        }
      ],
      "name": "Transfer",
      "type": "event"
    },
    {
      "inputs": [
        {
          "internalType": "address",
          "name": "to",
          "type": "address"
        },
        {
          "internalType": "uint256",
          "name": "tokenId",
          "type": "uint256"
        }
      ],
      "name": "approve",
      "outputs": [],
      "stateMutability": "nonpayable",
      "type": "function"
    },
    {
      "inputs": [
        {
          "internalType": "address",
          "name": "owner",
          "type": "address"
        }
      ],
      "name": "balanceOf",
      "outputs": [
        {
          "internalType": "uint256",
          "name": "",
          "type": "uint256"
        }
      ],
      "stateMutability": "view",
      "type": "function"
    },
    {
      "inputs": [
        {
          "internalType": "uint256",
          "name": "tokenId",
          "type": "uint256"
        }
      ],
      "name": "getApproved",
      "outputs": [
        {
          "internalType": "address",
          "name": "",
          "type": "address"
        }
      ],
      "stateMutability": "view",
      "type": "function"
    },
    {
      "inputs": [],
      "name": "getHappySVG",
      "outputs": [
        {
          "internalType": "string",
          "name": "",
          "type": "string"
        }
      ],
      "stateMutability": "view",
      "type": "function"
    },
    {
      "inputs": [],
      "name": "getSadSVG",
      "outputs": [
        {
          "internalType": "string",
          "name": "",
          "type": "string"
        }
      ],
      "stateMutability": "view",
      "type": "function"
    },
    {
      "inputs": [],
      "name": "getTokenCounter",
      "outputs": [
        {
          "internalType": "uint256",
          "name": "",
          "type": "uint256"
        }
      ],
      "stateMutability": "view",
      "type": "function"
    },
    {
      "inputs": [
        {
          "internalType": "address",
          "name": "owner",
          "type": "address"
        },
        {
          "internalType": "address",
          "name": "operator",
          "type": "address"
        }
      ],
      "name": "isApprovedForAll",
      "outputs": [
        {
          "internalType": "bool",
          "name": "",
          "type": "bool"
        }
      ],
      "stateMutability": "view",
      "type": "function"
    },
    {
      "inputs": [
        {
          "internalType": "address",
          "name": "to",
          "type": "address"
        }
      ],
      "name": "mintNft",
      "outputs": [],
      "stateMutability": "nonpayable",
      "type": "function"
    },
    {
      "inputs": [],
      "name": "name",
      "outputs": [
        {
          "internalType": "string",
          "name": "",
          "type": "string"
        }
      ],
      "stateMutability": "view",
      "type": "function"
    },
    {
      "inputs": [
        {
          "internalType": "uint256",
          "name": "tokenId",
          "type": "uint256"
        }
      ],
      "name": "ownerOf",
      "outputs": [
        {
          "internalType": "address",
          "name": "",
          "type": "address"
        }
      ],
      "stateMutability": "view",
      "type": "function"
    },
    {
      "inputs": [
        {
          "internalType": "address",
          "name": "from",
          "type": "address"
        },
        {
          "internalType": "address",
          "name": "to",
          "type": "address"
        },
        {
          "internalType": "uint256",
          "name": "tokenId",
          "type": "uint256"
        }
      ],
      "name": "safeTransferFrom",
      "outputs": [],
      "stateMutability": "nonpayable",
      "type": "function"
    },
    {
      "inputs": [
        {
          "internalType": "address",
          "name": "from",
          "type": "address"
        },
        {
          "internalType": "address",
          "name": "to",
          "type": "address"
        },
        {
          "internalType": "uint256",
          "name": "tokenId",
          "type": "uint256"
        },
        {
          "internalType": "bytes",
          "name": "data",
          "type": "bytes"
        }
      ],
      "name": "safeTransferFrom",
      "outputs": [],
      "stateMutability": "nonpayable",
      "type": "function"
    },
    {
      "inputs": [
        {
          "internalType": "address",
          "name": "operator",
          "type": "address"
        },
        {
          "internalType": "bool",
          "name": "approved",
          "type": "bool"
        }
      ],
      "name": "setApprovalForAll",
      "outputs": [],
      "stateMutability": "nonpayable",
      "type": "function"
    },
    {
      "inputs": [
        {
          "internalType": "bytes4",
          "name": "interfaceId",
          "type": "bytes4"
        }
      ],
      "name": "supportsInterface",
      "outputs": [
        {
          "internalType": "bool",
          "name": "",
          "type": "bool"
        }
      ],
      "stateMutability": "view",
      "type": "function"
    },
    {
      "inputs": [],
      "name": "symbol",
      "outputs": [
        {
          "internalType": "string",
          "name": "",
          "type": "string"
        }
      ],
      "stateMutability": "view",
      "type": "function"
    },
    {
      "inputs": [
        {
          "internalType": "uint256",
          "name": "tokenId",
          "type": "uint256"
        }
      ],
      "name": "tokenURI",
      "outputs": [
        {
          "internalType": "string",
          "name": "",
          "type": "string"
        }
      ],
      "stateMutability": "view",
      "type": "function"
    },
    {
      "inputs": [
        {
          "internalType": "address",
          "name": "from",
          "type": "address"
        },
        {
          "internalType": "address",
          "name": "to",
          "type": "address"
        },
        {
          "internalType": "uint256",
          "name": "tokenId",
          "type": "uint256"
        }
      ],
      "name": "transferFrom",
      "outputs": [],
      "stateMutability": "nonpayable",
      "type": "function"
    }
  ],
  "bytecode": {
    "object": "0x60806040523480156200001157600080fd5b506040516200181038038062001810833981016040819052620000349162000183565b60405180604001604052806008815260200167135bdbd90813919560c21b8152506040518060400160405280600281526020016126a760f11b81525081600090816200008191906200027c565b5060016200009082826200027c565b50506000600655506007620000a683826200027c565b506008620000b582826200027c565b50505062000348565b634e487b7160e01b600052604160045260246000fd5b600082601f830112620000e657600080fd5b81516001600160401b0380821115620001035762000103620000be565b604051601f8301601f19908116603f011681019082821181831017156200012e576200012e620000be565b816040528381526020925086838588010111156200014b57600080fd5b600091505b838210156200016f578582018301518183018401529082019062000150565b600093810190920192909252949350505050565b600080604083850312156200019757600080fd5b82516001600160401b0380821115620001af57600080fd5b620001bd86838701620000d4565b93506020850151915080821115620001d457600080fd5b50620001e385828601620000d4565b9150509250929050565b600181811c908216806200020257607f821691505b6020821081036200022357634e487b7160e01b600052602260045260246000fd5b50919050565b601f8211156200027757600081815260208120601f850160051c81016020861015620002525750805b601f850160051c820191505b8181101562000273578281556001016200025e565b5050505b505050565b81516001600160401b03811115620002985762000298620000be565b620002b081620002a98454620001ed565b8462000229565b602080601f831160018114620002e85760008415620002cf5750858301515b600019600386901b1c1916600185901b17855562000273565b600085815260208120601f198616915b828110156200031957888601518255948401946001909101908401620002f8565b5085821015620003385787850151600019600388901b60f8161c191681555b5050505050600190811b01905550565b6114b880620003586000396000f3fe608060405234801561001057600080fd5b506004361061010b5760003560e01c80636e02007d116100a2578063b88d4fde11610071578063b88d4fde1461020e578063c87b56dd14610221578063e985e9c514610234578063e9c2e14b14610247578063fc8421211461025a57600080fd5b80636e02007d146101ce57806370a08231146101e057806395d89b41146101f3578063a22cb465146101fb57600080fd5b806323b872dd116100de57806323b872dd1461018d57806342842e0e146101a05780635de0682f146101b35780636352211e146101bb57600080fd5b806301ffc9a71461011057806306fdde0314610138578063081812fc1461014d578063095ea7b314610178575b600080fd5b61012361011e366004610f42565b610262565b60405190151581526020015b60405180910390f35b6101406102b4565b60405161012f9190610fb6565b61016061015b366004610fc9565b610346565b6040516001600160a01b03909116815260200161012f565b61018b610186366004610ffe565b61036d565b005b61018b61019b366004611028565b61040b565b61018b6101ae366004611028565b610446565b610140610461565b6101606101c9366004610fc9565b610470565b6006545b60405190815260200161012f565b6101d26101ee366004611064565b6104a9565b6101406104f1565b61018b61020936600461107f565b610500565b61018b61021c3660046110d1565b61050f565b61014061022f366004610fc9565b610551565b6101236102423660046111ad565b610765565b61018b610255366004611064565b610793565b6101406107de565b60006001600160e01b031982166380ac58cd60e01b148061029357506001600160e01b03198216635b5e139f60e01b145b806102ae57506301ffc9a760e01b6001600160e01b03198316145b92915050565b6060600080546102c3906111e0565b80601f01602080910402602001604051908101604052809291908181526020018280546102ef906111e0565b801561033c5780601f106103115761010080835404028352916020019161033c565b820191906000526020600020905b81548152906001019060200180831161031f57829003601f168201915b5050505050905090565b6000610351826107ed565b506000908152600460205260409020546001600160a01b031690565b600061037882610470565b9050806001600160a01b0316836001600160a01b0316036103bc57604051630b61174360e31b81526001600160a01b03821660048201526024015b60405180910390fd5b336001600160a01b038216148015906103dc57506103da8133610765565b155b156103fc5760405163a9fbf51f60e01b81523360048201526024016103b3565b6104068383610828565b505050565b6104153382610896565b61043b5760405163177e802f60e01b8152336004820152602481018290526044016103b3565b6104068383836108f5565b6104068383836040518060200160405280600081525061050f565b6060600780546102c3906111e0565b6000818152600260205260408120546001600160a01b0316806102ae57604051637e27328960e01b8152600481018490526024016103b3565b60006001600160a01b0382166104d5576040516322718ad960e21b8152600060048201526024016103b3565b506001600160a01b031660009081526003602052604090205490565b6060600180546102c3906111e0565b61050b338383610a83565b5050565b6105193383610896565b61053f5760405163177e802f60e01b8152336004820152602481018390526044016103b3565b61054b84848484610b2d565b50505050565b6000818152600260205260409020546060906001600160a01b0316610589576040516336faf6d760e11b815260040160405180910390fd5b600060088054610598906111e0565b80601f01602080910402602001604051908101604052809291908181526020018280546105c4906111e0565b80156106115780601f106105e657610100808354040283529160200191610611565b820191906000526020600020905b8154815290600101906020018083116105f457829003601f168201915b509394506001935061062292505050565b60008481526009602052604090205460ff1660018111156106455761064561121a565b036106d85760078054610657906111e0565b80601f0160208091040260200160405190810160405280929190818152602001828054610683906111e0565b80156106d05780601f106106a5576101008083540402835291602001916106d0565b820191906000526020600020905b8154815290600101906020018083116106b357829003601f168201915b505050505090505b60408051808201909152601d81527f646174613a6170706c69636174696f6e2f6a736f6e3b6261736536342c000000602082015261073d6107176102b4565b83604051602001610729929190611230565b604051602081830303815290604052610b6c565b60405160200161074e929190611344565b604051602081830303815290604052915050919050565b6001600160a01b03918216600090815260056020908152604080832093909416825291909152205460ff1690565b61079f81600654610cbf565b6006546107ad906001611389565b60068190556040517f72102923c3d44433bd725cb2c744a4c92a536ad249b665dec9853a16ed66552590600090a250565b6060600880546102c3906111e0565b6000818152600260205260409020546001600160a01b031661082557604051637e27328960e01b8152600481018290526024016103b3565b50565b600081815260046020526040902080546001600160a01b0319166001600160a01b038416908117909155819061085d82610470565b6001600160a01b03167f8c5be1e5ebec7d5bd14f71427d1e84f3dd0314c0f7b2291e5b200ac8c7c3b92560405160405180910390a45050565b6000806108a283610470565b9050806001600160a01b0316846001600160a01b031614806108c957506108c98185610765565b806108ed5750836001600160a01b03166108e284610346565b6001600160a01b0316145b949350505050565b600061090082610470565b9050836001600160a01b0316816001600160a01b03161461094e576040516364283d7b60e01b81526001600160a01b03808616600483015260248201849052821660448201526064016103b3565b6001600160a01b03831661097857604051633250574960e11b8152600060048201526024016103b3565b61098182610470565b9050836001600160a01b0316816001600160a01b0316146109cf576040516364283d7b60e01b81526001600160a01b03808616600483015260248201849052821660448201526064016103b3565b600082815260046020908152604080832080546001600160a01b03191690556001600160a01b038716835260039091528120805460019290610a1290849061139c565b90915550506001600160a01b03808416600081815260036020908152604080832080546001019055868352600290915280822080546001600160a01b031916841790555185938816917fddf252ad1be2c89b69c2b068fc378daa952ba7f163c4a11628f55a4df523b3ef91a461054b565b816001600160a01b0316836001600160a01b031603610ac057604051630b61174360e31b81526001600160a01b03841660048201526024016103b3565b6001600160a01b03838116600081815260056020908152604080832094871680845294825291829020805460ff191686151590811790915591519182527f17307eab39ab6107e8899845ad3d59bd9653f200f220920489ca2b5937696c31910160405180910390a3505050565b610b388484846108f5565b610b4484848484610cd9565b61054b57604051633250574960e11b81526001600160a01b03841660048201526024016103b3565b60608151600003610b8b57505060408051602081019091526000815290565b60006040518060600160405280604081526020016114436040913990506000600384516002610bba9190611389565b610bc491906113af565b610bcf9060046113d1565b67ffffffffffffffff811115610be757610be76110bb565b6040519080825280601f01601f191660200182016040528015610c11576020820181803683370190505b509050600182016020820185865187015b80821015610c7d576003820191508151603f8160121c168501518453600184019350603f81600c1c168501518453600184019350603f8160061c168501518453600184019350603f8116850151845350600183019250610c22565b5050600386510660018114610c995760028114610cac57610cb4565b603d6001830353603d6002830353610cb4565b603d60018303535b509195945050505050565b61050b828260405180602001604052806000815250610de6565b60006001600160a01b0384163b15610ddb57604051630a85bd0160e11b81526001600160a01b0385169063150b7a0290610d1d9033908990889088906004016113e8565b6020604051808303816000875af1925050508015610d58575060408051601f3d908101601f19168201909252610d5591810190611425565b60015b610dc1573d808015610d86576040519150601f19603f3d011682016040523d82523d6000602084013e610d8b565b606091505b508051600003610db957604051633250574960e11b81526001600160a01b03861660048201526024016103b3565b805181602001fd5b6001600160e01b031916630a85bd0160e11b1490506108ed565b506001949350505050565b610df08383610e25565b610dfd6000848484610cd9565b61040657604051633250574960e11b81526001600160a01b03841660048201526024016103b3565b6001600160a01b038216610e4f57604051633250574960e11b8152600060048201526024016103b3565b6000818152600260205260409020546001600160a01b031615610e88576040516339e3563760e11b8152600060048201526024016103b3565b6000818152600260205260409020546001600160a01b031615610ec1576040516339e3563760e11b8152600060048201526024016103b3565b6001600160a01b038216600081815260036020908152604080832080546001019055848352600290915280822080546001600160a01b0319168417905551839291907fddf252ad1be2c89b69c2b068fc378daa952ba7f163c4a11628f55a4df523b3ef908290a45050565b6001600160e01b03198116811461082557600080fd5b600060208284031215610f5457600080fd5b8135610f5f81610f2c565b9392505050565b60005b83811015610f81578181015183820152602001610f69565b50506000910152565b60008151808452610fa2816020860160208601610f66565b601f01601f19169290920160200192915050565b602081526000610f5f6020830184610f8a565b600060208284031215610fdb57600080fd5b5035919050565b80356001600160a01b0381168114610ff957600080fd5b919050565b6000806040838503121561101157600080fd5b61101a83610fe2565b946020939093013593505050565b60008060006060848603121561103d57600080fd5b61104684610fe2565b925061105460208501610fe2565b9150604084013590509250925092565b60006020828403121561107657600080fd5b610f5f82610fe2565b6000806040838503121561109257600080fd5b61109b83610fe2565b9150602083013580151581146110b057600080fd5b809150509250929050565b634e487b7160e01b600052604160045260246000fd5b600080600080608085870312156110e757600080fd5b6110f085610fe2565b93506110fe60208601610fe2565b925060408501359150606085013567ffffffffffffffff8082111561112257600080fd5b818701915087601f83011261113657600080fd5b813581811115611148576111486110bb565b604051601f8201601f19908116603f01168101908382118183101715611170576111706110bb565b816040528281528a602084870101111561118957600080fd5b82602086016020830137600060208483010152809550505050505092959194509250565b600080604083850312156111c057600080fd5b6111c983610fe2565b91506111d760208401610fe2565b90509250929050565b600181811c908216806111f457607f821691505b60208210810361121457634e487b7160e01b600052602260045260246000fd5b50919050565b634e487b7160e01b600052602160045260246000fd5b683d913730b6b2911d1160b91b81528251600090611255816009850160208801610f66565b7f222c20226465736372697074696f6e223a22416e204e465420746861742072656009918401918201527f666c6563747320746865206d6f6f64206f6620746865206f776e65722c20313060298201526e018129037b71021b430b4b71091161608d1b60498201527f2261747472696275746573223a205b7b2274726169745f74797065223a20226d60588201527f6f6f64696e657373222c202276616c7565223a203130307d5d2c2022696d616760788201526332911d1160e11b6098820152835161132981609c840160208801610f66565b61227d60f01b609c9290910191820152609e01949350505050565b60008351611356818460208801610f66565b83519083019061136a818360208801610f66565b01949350505050565b634e487b7160e01b600052601160045260246000fd5b808201808211156102ae576102ae611373565b818103818111156102ae576102ae611373565b6000826113cc57634e487b7160e01b600052601260045260246000fd5b500490565b80820281158282048414176102ae576102ae611373565b6001600160a01b038581168252841660208201526040810183905260806060820181905260009061141b90830184610f8a565b9695505050505050565b60006020828403121561143757600080fd5b8151610f5f81610f2c56fe4142434445464748494a4b4c4d4e4f505152535455565758595a6162636465666768696a6b6c6d6e6f707172737475767778797a303132333435363738392b2fa2646970667358221220855bde089e30887d1579d2b3c2ab331d34395ffa348d2f2b03dc4921ea540ea364736f6c63430008140033",
    "linkReferences": {}
  },
  "methodIdentifiers": {
    "approve(address,uint256)": "095ea7b3",
    "balanceOf(address)": "70a08231",
    "getApproved(uint256)": "081812fc",
    "getHappySVG()": "fc842121",
    "getSadSVG()": "5de0682f",
    "getTokenCounter()": "6e02007d",
    "isApprovedForAll(address,address)": "e985e9c5",
    "mintNft(address)": "e9c2e14b",
    "name()": "06fdde03",
    "ownerOf(uint256)": "6352211e",
    "safeTransferFrom(address,address,uint256)": "42842e0e",
    "safeTransferFrom(address,address,uint256,bytes)": "b88d4fde",
    "setApprovalForAll(address,bool)": "a22cb465",
    "supportsInterface(bytes4)": "01ffc9a7",
    "symbol()": "95d89b41",
    "tokenURI(uint256)": "c87b56dd",
    "transferFrom(address,address,uint256)": "23b872dd"
  },
  "id": 35
}