{
  "abi": [
    {
      "inputs": [],
      "stateMutability": "nonpayable",
      "type": "constructor"
    },
    {
      "inputs": [
        {
          "internalType": "address",
          "name": "sender",
          "type": "address"
        },
        {
          "internalType": "uint256",
          "name": "tokenId",
          "type": "uint256"
        },
        {
          "internalType": "address",
          "name": "owner",
          "type": "address"
        }
      ],
      "name": "ERC721IncorrectOwner",
      "type": "error"
    },
    {
      "inputs": [
        {
          "internalType": "address",
          "name": "operator",
          "type": "address"
        },
        {
          "internalType": "uint256",
          "name": "tokenId",
          "type": "uint256"
        }
      ],
      "name": "ERC721InsufficientApproval",
      "type": "error"
    },
    {
      "inputs": [
        {
          "internalType": "address",
          "name": "approver",
          "type": "address"
        }
      ],
      "name": "ERC721InvalidApprover",
      "type": "error"
    },
    {
      "inputs": [
        {
          "internalType": "address",
          "name": "operator",
          "type": "address"
        }
      ],
      "name": "ERC721InvalidOperator",
      "type": "error"
    },
    {
      "inputs": [
        {
          "internalType": "address",
          "name": "owner",
          "type": "address"
        }
      ],
      "name": "ERC721InvalidOwner",
      "type": "error"
    },
    {
      "inputs": [
        {
          "internalType": "address",
          "name": "receiver",
          "type": "address"
        }
      ],
      "name": "ERC721InvalidReceiver",
      "type": "error"
    },
    {
      "inputs": [
        {
          "internalType": "address",
          "name": "sender",
          "type": "address"
        }
      ],
      "name": "ERC721InvalidSender",
      "type": "error"
    },
    {
      "inputs": [
        {
          "internalType": "uint256",
          "name": "tokenId",
          "type": "uint256"
        }
      ],
      "name": "ERC721NonexistentToken",
      "type": "error"
    },
    {
      "anonymous": false,
      "inputs": [
        {
          "indexed": true,
          "internalType": "address",
          "name": "owner",
          "type": "address"
        },
        {
          "indexed": true,
          "internalType": "address",
          "name": "approved",
          "type": "address"
        },
        {
          "indexed": true,
          "internalType": "uint256",
          "name": "tokenId",
          "type": "uint256"
        }
      ],
      "name": "Approval",
      "type": "event"
    },
    {
      "anonymous": false,
      "inputs": [
        {
          "indexed": true,
          "internalType": "address",
          "name": "owner",
          "type": "address"
        },
        {
          "indexed": true,
          "internalType": "address",
          "name": "operator",
          "type": "address"
        },
        {
          "indexed": false,
          "internalType": "bool",
          "name": "approved",
          "type": "bool"
        }
      ],
      "name": "ApprovalForAll",
      "type": "event"
    },
    {
      "anonymous": false,
      "inputs": [
        {
          "indexed": true,
          "internalType": "address",
          "name": "from",
          "type": "address"
        },
        {
          "indexed": true,
          "internalType": "address",
          "name": "to",
          "type": "address"
        },
        {
          "indexed": true,
          "internalType": "uint256",
          "name": "tokenId",
          "type": "uint256"
        }
      ],
      "name": "Transfer",
      "type": "event"
    },
    {
      "inputs": [
        {
          "internalType": "address",
          "name": "to",
          "type": "address"
        },
        {
          "internalType": "uint256",
          "name": "tokenId",
          "type": "uint256"
        }
      ],
      "name": "approve",
      "outputs": [],
      "stateMutability": "nonpayable",
      "type": "function"
    },
    {
      "inputs": [
        {
          "internalType": "address",
          "name": "owner",
          "type": "address"
        }
      ],
      "name": "balanceOf",
      "outputs": [
        {
          "internalType": "uint256",
          "name": "",
          "type": "uint256"
        }
      ],
      "stateMutability": "view",
      "type": "function"
    },
    {
      "inputs": [
        {
          "internalType": "uint256",
          "name": "tokenId",
          "type": "uint256"
        }
      ],
      "name": "getApproved",
      "outputs": [
        {
          "internalType": "address",
          "name": "",
          "type": "address"
        }
      ],
      "stateMutability": "view",
      "type": "function"
    },
    {
      "inputs": [
        {
          "internalType": "address",
          "name": "owner",
          "type": "address"
        },
        {
          "internalType": "address",
          "name": "operator",
          "type": "address"
        }
      ],
      "name": "isApprovedForAll",
      "outputs": [
        {
          "internalType": "bool",
          "name": "",
          "type": "bool"
        }
      ],
      "stateMutability": "view",
      "type": "function"
    },
    {
      "inputs": [
        {
          "internalType": "string",
          "name": "tokenUri",
          "type": "string"
        }
      ],
      "name": "mintNft",
      "outputs": [],
      "stateMutability": "nonpayable",
      "type": "function"
    },
    {
      "inputs": [],
      "name": "name",
      "outputs": [
        {
          "internalType": "string",
          "name": "",
          "type": "string"
        }
      ],
      "stateMutability": "view",
      "type": "function"
    },
    {
      "inputs": [
        {
          "internalType": "uint256",
          "name": "tokenId",
          "type": "uint256"
        }
      ],
      "name": "ownerOf",
      "outputs": [
        {
          "internalType": "address",
          "name": "",
          "type": "address"
        }
      ],
      "stateMutability": "view",
      "type": "function"
    },
    {
      "inputs": [
        {
          "internalType": "address",
          "name": "from",
          "type": "address"
        },
        {
          "internalType": "address",
          "name": "to",
          "type": "address"
        },
        {
          "internalType": "uint256",
          "name": "tokenId",
          "type": "uint256"
        }
      ],
      "name": "safeTransferFrom",
      "outputs": [],
      "stateMutability": "nonpayable",
      "type": "function"
    },
    {
      "inputs": [
        {
          "internalType": "address",
          "name": "from",
          "type": "address"
        },
        {
          "internalType": "address",
          "name": "to",
          "type": "address"
        },
        {
          "internalType": "uint256",
          "name": "tokenId",
          "type": "uint256"
        },
        {
          "internalType": "bytes",
          "name": "data",
          "type": "bytes"
        }
      ],
      "name": "safeTransferFrom",
      "outputs": [],
      "stateMutability": "nonpayable",
      "type": "function"
    },
    {
      "inputs": [
        {
          "internalType": "address",
          "name": "operator",
          "type": "address"
        },
        {
          "internalType": "bool",
          "name": "approved",
          "type": "bool"
        }
      ],
      "name": "setApprovalForAll",
      "outputs": [],
      "stateMutability": "nonpayable",
      "type": "function"
    },
    {
      "inputs": [
        {
          "internalType": "bytes4",
          "name": "interfaceId",
          "type": "bytes4"
        }
      ],
      "name": "supportsInterface",
      "outputs": [
        {
          "internalType": "bool",
          "name": "",
          "type": "bool"
        }
      ],
      "stateMutability": "view",
      "type": "function"
    },
    {
      "inputs": [],
      "name": "symbol",
      "outputs": [
        {
          "internalType": "string",
          "name": "",
          "type": "string"
        }
      ],
      "stateMutability": "view",
      "type": "function"
    },
    {
      "inputs": [
        {
          "internalType": "uint256",
          "name": "tokenId",
          "type": "uint256"
        }
      ],
      "name": "tokenURI",
      "outputs": [
        {
          "internalType": "string",
          "name": "",
          "type": "string"
        }
      ],
      "stateMutability": "view",
      "type": "function"
    },
    {
      "inputs": [
        {
          "internalType": "address",
          "name": "from",
          "type": "address"
        },
        {
          "internalType": "address",
          "name": "to",
          "type": "address"
        },
        {
          "internalType": "uint256",
          "name": "tokenId",
          "type": "uint256"
        }
      ],
      "name": "transferFrom",
      "outputs": [],
      "stateMutability": "nonpayable",
      "type": "function"
    }
  ],
  "bytecode": {
    "object": "0x60806040523480156200001157600080fd5b5060405180604001604052806005815260200164446f67696560d81b8152506040518060400160405280600481526020016320444f4760e01b81525081600090816200005e919062000120565b5060016200006d828262000120565b5050600060065550620001ec565b634e487b7160e01b600052604160045260246000fd5b600181811c90821680620000a657607f821691505b602082108103620000c757634e487b7160e01b600052602260045260246000fd5b50919050565b601f8211156200011b57600081815260208120601f850160051c81016020861015620000f65750805b601f850160051c820191505b81811015620001175782815560010162000102565b5050505b505050565b81516001600160401b038111156200013c576200013c6200007b565b62000154816200014d845462000091565b84620000cd565b602080601f8311600181146200018c5760008415620001735750858301515b600019600386901b1c1916600185901b17855562000117565b600085815260208120601f198616915b82811015620001bd578886015182559484019460019091019084016200019c565b5085821015620001dc5787850151600019600388901b60f8161c191681555b5050505050600190811b01905550565b61112c80620001fc6000396000f3fe608060405234801561001057600080fd5b50600436106100ea5760003560e01c806370a082311161008c578063b88d4fde11610066578063b88d4fde146101e1578063c87b56dd146101f4578063da86f4a914610207578063e985e9c51461021a57600080fd5b806370a08231146101a557806395d89b41146101c6578063a22cb465146101ce57600080fd5b8063095ea7b3116100c8578063095ea7b31461015757806323b872dd1461016c57806342842e0e1461017f5780636352211e1461019257600080fd5b806301ffc9a7146100ef57806306fdde0314610117578063081812fc1461012c575b600080fd5b6101026100fd366004610c1f565b61022d565b60405190151581526020015b60405180910390f35b61011f61027f565b60405161010e9190610c89565b61013f61013a366004610c9c565b610311565b6040516001600160a01b03909116815260200161010e565b61016a610165366004610cd1565b610338565b005b61016a61017a366004610cfb565b6103d6565b61016a61018d366004610cfb565b610411565b61013f6101a0366004610c9c565b61042c565b6101b86101b3366004610d37565b610465565b60405190815260200161010e565b61011f6104ad565b61016a6101dc366004610d52565b6104bc565b61016a6101ef366004610e1a565b6104cb565b61011f610202366004610c9c565b61050d565b61016a610215366004610e96565b6105af565b610102610228366004610edf565b6105ef565b60006001600160e01b031982166380ac58cd60e01b148061025e57506001600160e01b03198216635b5e139f60e01b145b8061027957506301ffc9a760e01b6001600160e01b03198316145b92915050565b60606000805461028e90610f12565b80601f01602080910402602001604051908101604052809291908181526020018280546102ba90610f12565b80156103075780601f106102dc57610100808354040283529160200191610307565b820191906000526020600020905b8154815290600101906020018083116102ea57829003601f168201915b5050505050905090565b600061031c8261061d565b506000908152600460205260409020546001600160a01b031690565b60006103438261042c565b9050806001600160a01b0316836001600160a01b03160361038757604051630b61174360e31b81526001600160a01b03821660048201526024015b60405180910390fd5b336001600160a01b038216148015906103a757506103a581336105ef565b155b156103c75760405163a9fbf51f60e01b815233600482015260240161037e565b6103d18383610658565b505050565b6103e033826106c6565b6104065760405163177e802f60e01b81523360048201526024810182905260440161037e565b6103d1838383610725565b6103d1838383604051806020016040528060008152506104cb565b6000818152600260205260408120546001600160a01b03168061027957604051637e27328960e01b81526004810184905260240161037e565b60006001600160a01b038216610491576040516322718ad960e21b81526000600482015260240161037e565b506001600160a01b031660009081526003602052604090205490565b60606001805461028e90610f12565b6104c73383836108b3565b5050565b6104d533836106c6565b6104fb5760405163177e802f60e01b81523360048201526024810183905260440161037e565b6105078484848461095d565b50505050565b600081815260076020526040902080546060919061052a90610f12565b80601f016020809104026020016040519081016040528092919081815260200182805461055690610f12565b80156105a35780601f10610578576101008083540402835291602001916105a3565b820191906000526020600020905b81548152906001019060200180831161058657829003601f168201915b50505050509050919050565b60065460009081526007602052604090206105ca8282610f9a565b506105d73360065461099c565b600680549060006105e783611070565b919050555050565b6001600160a01b03918216600090815260056020908152604080832093909416825291909152205460ff1690565b6000818152600260205260409020546001600160a01b031661065557604051637e27328960e01b81526004810182905260240161037e565b50565b600081815260046020526040902080546001600160a01b0319166001600160a01b038416908117909155819061068d8261042c565b6001600160a01b03167f8c5be1e5ebec7d5bd14f71427d1e84f3dd0314c0f7b2291e5b200ac8c7c3b92560405160405180910390a45050565b6000806106d28361042c565b9050806001600160a01b0316846001600160a01b031614806106f957506106f981856105ef565b8061071d5750836001600160a01b031661071284610311565b6001600160a01b0316145b949350505050565b60006107308261042c565b9050836001600160a01b0316816001600160a01b03161461077e576040516364283d7b60e01b81526001600160a01b038086166004830152602482018490528216604482015260640161037e565b6001600160a01b0383166107a857604051633250574960e11b81526000600482015260240161037e565b6107b18261042c565b9050836001600160a01b0316816001600160a01b0316146107ff576040516364283d7b60e01b81526001600160a01b038086166004830152602482018490528216604482015260640161037e565b600082815260046020908152604080832080546001600160a01b03191690556001600160a01b038716835260039091528120805460019290610842908490611089565b90915550506001600160a01b03808416600081815260036020908152604080832080546001019055868352600290915280822080546001600160a01b031916841790555185938816917fddf252ad1be2c89b69c2b068fc378daa952ba7f163c4a11628f55a4df523b3ef91a4610507565b816001600160a01b0316836001600160a01b0316036108f057604051630b61174360e31b81526001600160a01b038416600482015260240161037e565b6001600160a01b03838116600081815260056020908152604080832094871680845294825291829020805460ff191686151590811790915591519182527f17307eab39ab6107e8899845ad3d59bd9653f200f220920489ca2b5937696c31910160405180910390a3505050565b610968848484610725565b610974848484846109b6565b61050757604051633250574960e11b81526001600160a01b038416600482015260240161037e565b6104c7828260405180602001604052806000815250610ac3565b60006001600160a01b0384163b15610ab857604051630a85bd0160e11b81526001600160a01b0385169063150b7a02906109fa90339089908890889060040161109c565b6020604051808303816000875af1925050508015610a35575060408051601f3d908101601f19168201909252610a32918101906110d9565b60015b610a9e573d808015610a63576040519150601f19603f3d011682016040523d82523d6000602084013e610a68565b606091505b508051600003610a9657604051633250574960e11b81526001600160a01b038616600482015260240161037e565b805181602001fd5b6001600160e01b031916630a85bd0160e11b14905061071d565b506001949350505050565b610acd8383610b02565b610ada60008484846109b6565b6103d157604051633250574960e11b81526001600160a01b038416600482015260240161037e565b6001600160a01b038216610b2c57604051633250574960e11b81526000600482015260240161037e565b6000818152600260205260409020546001600160a01b031615610b65576040516339e3563760e11b81526000600482015260240161037e565b6000818152600260205260409020546001600160a01b031615610b9e576040516339e3563760e11b81526000600482015260240161037e565b6001600160a01b038216600081815260036020908152604080832080546001019055848352600290915280822080546001600160a01b0319168417905551839291907fddf252ad1be2c89b69c2b068fc378daa952ba7f163c4a11628f55a4df523b3ef908290a45050565b6001600160e01b03198116811461065557600080fd5b600060208284031215610c3157600080fd5b8135610c3c81610c09565b9392505050565b6000815180845260005b81811015610c6957602081850181015186830182015201610c4d565b506000602082860101526020601f19601f83011685010191505092915050565b602081526000610c3c6020830184610c43565b600060208284031215610cae57600080fd5b5035919050565b80356001600160a01b0381168114610ccc57600080fd5b919050565b60008060408385031215610ce457600080fd5b610ced83610cb5565b946020939093013593505050565b600080600060608486031215610d1057600080fd5b610d1984610cb5565b9250610d2760208501610cb5565b9150604084013590509250925092565b600060208284031215610d4957600080fd5b610c3c82610cb5565b60008060408385031215610d6557600080fd5b610d6e83610cb5565b915060208301358015158114610d8357600080fd5b809150509250929050565b634e487b7160e01b600052604160045260246000fd5b600067ffffffffffffffff80841115610dbf57610dbf610d8e565b604051601f8501601f19908116603f01168101908282118183101715610de757610de7610d8e565b81604052809350858152868686011115610e0057600080fd5b858560208301376000602087830101525050509392505050565b60008060008060808587031215610e3057600080fd5b610e3985610cb5565b9350610e4760208601610cb5565b925060408501359150606085013567ffffffffffffffff811115610e6a57600080fd5b8501601f81018713610e7b57600080fd5b610e8a87823560208401610da4565b91505092959194509250565b600060208284031215610ea857600080fd5b813567ffffffffffffffff811115610ebf57600080fd5b8201601f81018413610ed057600080fd5b61071d84823560208401610da4565b60008060408385031215610ef257600080fd5b610efb83610cb5565b9150610f0960208401610cb5565b90509250929050565b600181811c90821680610f2657607f821691505b602082108103610f4657634e487b7160e01b600052602260045260246000fd5b50919050565b601f8211156103d157600081815260208120601f850160051c81016020861015610f735750805b601f850160051c820191505b81811015610f9257828155600101610f7f565b505050505050565b815167ffffffffffffffff811115610fb457610fb4610d8e565b610fc881610fc28454610f12565b84610f4c565b602080601f831160018114610ffd5760008415610fe55750858301515b600019600386901b1c1916600185901b178555610f92565b600085815260208120601f198616915b8281101561102c5788860151825594840194600190910190840161100d565b508582101561104a5787850151600019600388901b60f8161c191681555b5050505050600190811b01905550565b634e487b7160e01b600052601160045260246000fd5b6000600182016110825761108261105a565b5060010190565b818103818111156102795761027961105a565b6001600160a01b03858116825284166020820152604081018390526080606082018190526000906110cf90830184610c43565b9695505050505050565b6000602082840312156110eb57600080fd5b8151610c3c81610c0956fea26469706673582212207b4b0f823583aca111d47d7f08016291ba0e5635a41ec3a1a79e9e636efd8a0664736f6c63430008140033",
    "linkReferences": {}
  },
  "methodIdentifiers": {
    "approve(address,uint256)": "095ea7b3",
    "balanceOf(address)": "70a08231",
    "getApproved(uint256)": "081812fc",
    "isApprovedForAll(address,address)": "e985e9c5",
    "mintNft(string)": "da86f4a9",
    "name()": "06fdde03",
    "ownerOf(uint256)": "6352211e",
    "safeTransferFrom(address,address,uint256)": "42842e0e",
    "safeTransferFrom(address,address,uint256,bytes)": "b88d4fde",
    "setApprovalForAll(address,bool)": "a22cb465",
    "supportsInterface(bytes4)": "01ffc9a7",
    "symbol()": "95d89b41",
    "tokenURI(uint256)": "c87b56dd",
    "transferFrom(address,address,uint256)": "23b872dd"
  },
  "id": 26
}