{
  "abi": [
    {
      "inputs": [],
      "stateMutability": "nonpayable",
      "type": "constructor"
    },
    {
      "inputs": [],
      "name": "BasicNft__TokenUriNotFound",
      "type": "error"
    },
    {
      "anonymous": false,
      "inputs": [
        {
          "indexed": true,
          "internalType": "address",
          "name": "owner",
          "type": "address"
        },
        {
          "indexed": true,
          "internalType": "address",
          "name": "approved",
          "type": "address"
        },
        {
          "indexed": true,
          "internalType": "uint256",
          "name": "tokenId",
          "type": "uint256"
        }
      ],
      "name": "Approval",
      "type": "event"
    },
    {
      "anonymous": false,
      "inputs": [
        {
          "indexed": true,
          "internalType": "address",
          "name": "owner",
          "type": "address"
        },
        {
          "indexed": true,
          "internalType": "address",
          "name": "operator",
          "type": "address"
        },
        {
          "indexed": false,
          "internalType": "bool",
          "name": "approved",
          "type": "bool"
        }
      ],
      "name": "ApprovalForAll",
      "type": "event"
    },
    {
      "anonymous": false,
      "inputs": [
        {
          "indexed": true,
          "internalType": "address",
          "name": "from",
          "type": "address"
        },
        {
          "indexed": true,
          "internalType": "address",
          "name": "to",
          "type": "address"
        },
        {
          "indexed": true,
          "internalType": "uint256",
          "name": "tokenId",
          "type": "uint256"
        }
      ],
      "name": "Transfer",
      "type": "event"
    },
    {
      "inputs": [
        {
          "internalType": "address",
          "name": "to",
          "type": "address"
        },
        {
          "internalType": "uint256",
          "name": "tokenId",
          "type": "uint256"
        }
      ],
      "name": "approve",
      "outputs": [],
      "stateMutability": "nonpayable",
      "type": "function"
    },
    {
      "inputs": [
        {
          "internalType": "address",
          "name": "owner",
          "type": "address"
        }
      ],
      "name": "balanceOf",
      "outputs": [
        {
          "internalType": "uint256",
          "name": "",
          "type": "uint256"
        }
      ],
      "stateMutability": "view",
      "type": "function"
    },
    {
      "inputs": [
        {
          "internalType": "uint256",
          "name": "tokenId",
          "type": "uint256"
        }
      ],
      "name": "getApproved",
      "outputs": [
        {
          "internalType": "address",
          "name": "",
          "type": "address"
        }
      ],
      "stateMutability": "view",
      "type": "function"
    },
    {
      "inputs": [],
      "name": "getTokenCounter",
      "outputs": [
        {
          "internalType": "uint256",
          "name": "",
          "type": "uint256"
        }
      ],
      "stateMutability": "view",
      "type": "function"
    },
    {
      "inputs": [
        {
          "internalType": "address",
          "name": "owner",
          "type": "address"
        },
        {
          "internalType": "address",
          "name": "operator",
          "type": "address"
        }
      ],
      "name": "isApprovedForAll",
      "outputs": [
        {
          "internalType": "bool",
          "name": "",
          "type": "bool"
        }
      ],
      "stateMutability": "view",
      "type": "function"
    },
    {
      "inputs": [
        {
          "internalType": "string",
          "name": "tokenUri",
          "type": "string"
        }
      ],
      "name": "mintNft",
      "outputs": [],
      "stateMutability": "nonpayable",
      "type": "function"
    },
    {
      "inputs": [],
      "name": "name",
      "outputs": [
        {
          "internalType": "string",
          "name": "",
          "type": "string"
        }
      ],
      "stateMutability": "view",
      "type": "function"
    },
    {
      "inputs": [
        {
          "internalType": "uint256",
          "name": "tokenId",
          "type": "uint256"
        }
      ],
      "name": "ownerOf",
      "outputs": [
        {
          "internalType": "address",
          "name": "",
          "type": "address"
        }
      ],
      "stateMutability": "view",
      "type": "function"
    },
    {
      "inputs": [
        {
          "internalType": "address",
          "name": "from",
          "type": "address"
        },
        {
          "internalType": "address",
          "name": "to",
          "type": "address"
        },
        {
          "internalType": "uint256",
          "name": "tokenId",
          "type": "uint256"
        }
      ],
      "name": "safeTransferFrom",
      "outputs": [],
      "stateMutability": "nonpayable",
      "type": "function"
    },
    {
      "inputs": [
        {
          "internalType": "address",
          "name": "from",
          "type": "address"
        },
        {
          "internalType": "address",
          "name": "to",
          "type": "address"
        },
        {
          "internalType": "uint256",
          "name": "tokenId",
          "type": "uint256"
        },
        {
          "internalType": "bytes",
          "name": "data",
          "type": "bytes"
        }
      ],
      "name": "safeTransferFrom",
      "outputs": [],
      "stateMutability": "nonpayable",
      "type": "function"
    },
    {
      "inputs": [
        {
          "internalType": "address",
          "name": "operator",
          "type": "address"
        },
        {
          "internalType": "bool",
          "name": "approved",
          "type": "bool"
        }
      ],
      "name": "setApprovalForAll",
      "outputs": [],
      "stateMutability": "nonpayable",
      "type": "function"
    },
    {
      "inputs": [
        {
          "internalType": "bytes4",
          "name": "interfaceId",
          "type": "bytes4"
        }
      ],
      "name": "supportsInterface",
      "outputs": [
        {
          "internalType": "bool",
          "name": "",
          "type": "bool"
        }
      ],
      "stateMutability": "view",
      "type": "function"
    },
    {
      "inputs": [],
      "name": "symbol",
      "outputs": [
        {
          "internalType": "string",
          "name": "",
          "type": "string"
        }
      ],
      "stateMutability": "view",
      "type": "function"
    },
    {
      "inputs": [
        {
          "internalType": "uint256",
          "name": "tokenId",
          "type": "uint256"
        }
      ],
      "name": "tokenURI",
      "outputs": [
        {
          "internalType": "string",
          "name": "",
          "type": "string"
        }
      ],
      "stateMutability": "view",
      "type": "function"
    },
    {
      "inputs": [
        {
          "internalType": "address",
          "name": "from",
          "type": "address"
        },
        {
          "internalType": "address",
          "name": "to",
          "type": "address"
        },
        {
          "internalType": "uint256",
          "name": "tokenId",
          "type": "uint256"
        }
      ],
      "name": "transferFrom",
      "outputs": [],
      "stateMutability": "nonpayable",
      "type": "function"
    }
  ],
  "bytecode": {
    "object": "0x60806040523480156200001157600080fd5b5060405180604001604052806005815260200164446f67696560d81b81525060405180604001604052806003815260200162444f4760e81b81525081600090816200005d91906200011f565b5060016200006c82826200011f565b5050600060075550620001eb565b634e487b7160e01b600052604160045260246000fd5b600181811c90821680620000a557607f821691505b602082108103620000c657634e487b7160e01b600052602260045260246000fd5b50919050565b601f8211156200011a57600081815260208120601f850160051c81016020861015620000f55750805b601f850160051c820191505b81811015620001165782815560010162000101565b5050505b505050565b81516001600160401b038111156200013b576200013b6200007a565b62000153816200014c845462000090565b84620000cc565b602080601f8311600181146200018b5760008415620001725750858301515b600019600386901b1c1916600185901b17855562000116565b600085815260208120601f198616915b82811015620001bc578886015182559484019460019091019084016200019b565b5085821015620001db5787850151600019600388901b60f8161c191681555b5050505050600190811b01905550565b61137c80620001fb6000396000f3fe608060405234801561001057600080fd5b50600436106100f55760003560e01c80636e02007d11610097578063b88d4fde11610066578063b88d4fde146101f0578063c87b56dd14610203578063da86f4a914610216578063e985e9c51461022957600080fd5b80636e02007d146101b057806370a08231146101c257806395d89b41146101d5578063a22cb465146101dd57600080fd5b8063095ea7b3116100d3578063095ea7b31461016257806323b872dd1461017757806342842e0e1461018a5780636352211e1461019d57600080fd5b806301ffc9a7146100fa57806306fdde0314610122578063081812fc14610137575b600080fd5b61010d610108366004610dac565b61023c565b60405190151581526020015b60405180910390f35b61012a61028e565b6040516101199190610e16565b61014a610145366004610e29565b610320565b6040516001600160a01b039091168152602001610119565b610175610170366004610e5e565b610347565b005b610175610185366004610e88565b610461565b610175610198366004610e88565b610492565b61014a6101ab366004610e29565b6104ad565b6007545b604051908152602001610119565b6101b46101d0366004610ec4565b61050d565b61012a610593565b6101756101eb366004610edf565b6105a2565b6101756101fe366004610fa7565b6105b1565b61012a610211366004610e29565b6105e9565b610175610224366004611023565b6106bf565b61010d61023736600461106c565b6106fb565b60006001600160e01b031982166380ac58cd60e01b148061026d57506001600160e01b03198216635b5e139f60e01b145b8061028857506301ffc9a760e01b6001600160e01b03198316145b92915050565b60606000805461029d9061109f565b80601f01602080910402602001604051908101604052809291908181526020018280546102c99061109f565b80156103165780601f106102eb57610100808354040283529160200191610316565b820191906000526020600020905b8154815290600101906020018083116102f957829003601f168201915b5050505050905090565b600061032b82610729565b506000908152600460205260409020546001600160a01b031690565b6000610352826104ad565b9050806001600160a01b0316836001600160a01b0316036103c45760405162461bcd60e51b815260206004820152602160248201527f4552433732313a20617070726f76616c20746f2063757272656e74206f776e656044820152603960f91b60648201526084015b60405180910390fd5b336001600160a01b03821614806103e057506103e081336106fb565b6104525760405162461bcd60e51b815260206004820152603d60248201527f4552433732313a20617070726f76652063616c6c6572206973206e6f7420746f60448201527f6b656e206f776e6572206f7220617070726f76656420666f7220616c6c00000060648201526084016103bb565b61045c838361078b565b505050565b61046b33826107f9565b6104875760405162461bcd60e51b81526004016103bb906110d9565b61045c838383610858565b61045c838383604051806020016040528060008152506105b1565b6000818152600260205260408120546001600160a01b0316806102885760405162461bcd60e51b8152602060048201526018602482015277115490cdcc8c4e881a5b9d985b1a59081d1bdad95b88125160421b60448201526064016103bb565b60006001600160a01b0382166105775760405162461bcd60e51b815260206004820152602960248201527f4552433732313a2061646472657373207a65726f206973206e6f7420612076616044820152683634b21037bbb732b960b91b60648201526084016103bb565b506001600160a01b031660009081526003602052604090205490565b60606001805461029d9061109f565b6105ad3383836109bc565b5050565b6105bb33836107f9565b6105d75760405162461bcd60e51b81526004016103bb906110d9565b6105e384848484610a8a565b50505050565b6000818152600260205260409020546060906001600160a01b031661062157604051637598996f60e01b815260040160405180910390fd5b6000828152600660205260409020805461063a9061109f565b80601f01602080910402602001604051908101604052809291908181526020018280546106669061109f565b80156106b35780601f10610688576101008083540402835291602001916106b3565b820191906000526020600020905b81548152906001019060200180831161069657829003601f168201915b50505050509050919050565b60075460009081526006602052604090206106da8282611174565b506106e733600754610abd565b6007546106f5906001611234565b60075550565b6001600160a01b03918216600090815260056020908152604080832093909416825291909152205460ff1690565b6000818152600260205260409020546001600160a01b03166107885760405162461bcd60e51b8152602060048201526018602482015277115490cdcc8c4e881a5b9d985b1a59081d1bdad95b88125160421b60448201526064016103bb565b50565b600081815260046020526040902080546001600160a01b0319166001600160a01b03841690811790915581906107c0826104ad565b6001600160a01b03167f8c5be1e5ebec7d5bd14f71427d1e84f3dd0314c0f7b2291e5b200ac8c7c3b92560405160405180910390a45050565b600080610805836104ad565b9050806001600160a01b0316846001600160a01b0316148061082c575061082c81856106fb565b806108505750836001600160a01b031661084584610320565b6001600160a01b0316145b949350505050565b826001600160a01b031661086b826104ad565b6001600160a01b0316146108915760405162461bcd60e51b81526004016103bb90611255565b6001600160a01b0382166108f35760405162461bcd60e51b8152602060048201526024808201527f4552433732313a207472616e7366657220746f20746865207a65726f206164646044820152637265737360e01b60648201526084016103bb565b826001600160a01b0316610906826104ad565b6001600160a01b03161461092c5760405162461bcd60e51b81526004016103bb90611255565b600081815260046020908152604080832080546001600160a01b03199081169091556001600160a01b0387811680865260038552838620805460001901905590871680865283862080546001019055868652600290945282852080549092168417909155905184937fddf252ad1be2c89b69c2b068fc378daa952ba7f163c4a11628f55a4df523b3ef91a4505050565b816001600160a01b0316836001600160a01b031603610a1d5760405162461bcd60e51b815260206004820152601960248201527f4552433732313a20617070726f766520746f2063616c6c65720000000000000060448201526064016103bb565b6001600160a01b03838116600081815260056020908152604080832094871680845294825291829020805460ff191686151590811790915591519182527f17307eab39ab6107e8899845ad3d59bd9653f200f220920489ca2b5937696c31910160405180910390a3505050565b610a95848484610858565b610aa184848484610ad7565b6105e35760405162461bcd60e51b81526004016103bb9061129a565b6105ad828260405180602001604052806000815250610bd8565b60006001600160a01b0384163b15610bcd57604051630a85bd0160e11b81526001600160a01b0385169063150b7a0290610b1b9033908990889088906004016112ec565b6020604051808303816000875af1925050508015610b56575060408051601f3d908101601f19168201909252610b5391810190611329565b60015b610bb3573d808015610b84576040519150601f19603f3d011682016040523d82523d6000602084013e610b89565b606091505b508051600003610bab5760405162461bcd60e51b81526004016103bb9061129a565b805181602001fd5b6001600160e01b031916630a85bd0160e11b149050610850565b506001949350505050565b610be28383610c0b565b610bef6000848484610ad7565b61045c5760405162461bcd60e51b81526004016103bb9061129a565b6001600160a01b038216610c615760405162461bcd60e51b815260206004820181905260248201527f4552433732313a206d696e7420746f20746865207a65726f206164647265737360448201526064016103bb565b6000818152600260205260409020546001600160a01b031615610cc65760405162461bcd60e51b815260206004820152601c60248201527f4552433732313a20746f6b656e20616c7265616479206d696e7465640000000060448201526064016103bb565b6000818152600260205260409020546001600160a01b031615610d2b5760405162461bcd60e51b815260206004820152601c60248201527f4552433732313a20746f6b656e20616c7265616479206d696e7465640000000060448201526064016103bb565b6001600160a01b038216600081815260036020908152604080832080546001019055848352600290915280822080546001600160a01b0319168417905551839291907fddf252ad1be2c89b69c2b068fc378daa952ba7f163c4a11628f55a4df523b3ef908290a45050565b6001600160e01b03198116811461078857600080fd5b600060208284031215610dbe57600080fd5b8135610dc981610d96565b9392505050565b6000815180845260005b81811015610df657602081850181015186830182015201610dda565b506000602082860101526020601f19601f83011685010191505092915050565b602081526000610dc96020830184610dd0565b600060208284031215610e3b57600080fd5b5035919050565b80356001600160a01b0381168114610e5957600080fd5b919050565b60008060408385031215610e7157600080fd5b610e7a83610e42565b946020939093013593505050565b600080600060608486031215610e9d57600080fd5b610ea684610e42565b9250610eb460208501610e42565b9150604084013590509250925092565b600060208284031215610ed657600080fd5b610dc982610e42565b60008060408385031215610ef257600080fd5b610efb83610e42565b915060208301358015158114610f1057600080fd5b809150509250929050565b634e487b7160e01b600052604160045260246000fd5b600067ffffffffffffffff80841115610f4c57610f4c610f1b565b604051601f8501601f19908116603f01168101908282118183101715610f7457610f74610f1b565b81604052809350858152868686011115610f8d57600080fd5b858560208301376000602087830101525050509392505050565b60008060008060808587031215610fbd57600080fd5b610fc685610e42565b9350610fd460208601610e42565b925060408501359150606085013567ffffffffffffffff811115610ff757600080fd5b8501601f8101871361100857600080fd5b61101787823560208401610f31565b91505092959194509250565b60006020828403121561103557600080fd5b813567ffffffffffffffff81111561104c57600080fd5b8201601f8101841361105d57600080fd5b61085084823560208401610f31565b6000806040838503121561107f57600080fd5b61108883610e42565b915061109660208401610e42565b90509250929050565b600181811c908216806110b357607f821691505b6020821081036110d357634e487b7160e01b600052602260045260246000fd5b50919050565b6020808252602d908201527f4552433732313a2063616c6c6572206973206e6f7420746f6b656e206f776e6560408201526c1c881bdc88185c1c1c9bdd9959609a1b606082015260800190565b601f82111561045c57600081815260208120601f850160051c8101602086101561114d5750805b601f850160051c820191505b8181101561116c57828155600101611159565b505050505050565b815167ffffffffffffffff81111561118e5761118e610f1b565b6111a28161119c845461109f565b84611126565b602080601f8311600181146111d757600084156111bf5750858301515b600019600386901b1c1916600185901b17855561116c565b600085815260208120601f198616915b82811015611206578886015182559484019460019091019084016111e7565b50858210156112245787850151600019600388901b60f8161c191681555b5050505050600190811b01905550565b8082018082111561028857634e487b7160e01b600052601160045260246000fd5b60208082526025908201527f4552433732313a207472616e736665722066726f6d20696e636f72726563742060408201526437bbb732b960d91b606082015260800190565b60208082526032908201527f4552433732313a207472616e7366657220746f206e6f6e20455243373231526560408201527131b2b4bb32b91034b6b83632b6b2b73a32b960711b606082015260800190565b6001600160a01b038581168252841660208201526040810183905260806060820181905260009061131f90830184610dd0565b9695505050505050565b60006020828403121561133b57600080fd5b8151610dc981610d9656fea26469706673582212202d336e42b1ab3c315a8ab6c4774139c1f1b166ce7dfdcc9fd68ed5700023fbb764736f6c63430008140033",
    "linkReferences": {}
  },
  "methodIdentifiers": {
    "approve(address,uint256)": "095ea7b3",
    "balanceOf(address)": "70a08231",
    "getApproved(uint256)": "081812fc",
    "getTokenCounter()": "6e02007d",
    "isApprovedForAll(address,address)": "e985e9c5",
    "mintNft(string)": "da86f4a9",
    "name()": "06fdde03",
    "ownerOf(uint256)": "6352211e",
    "safeTransferFrom(address,address,uint256)": "42842e0e",
    "safeTransferFrom(address,address,uint256,bytes)": "b88d4fde",
    "setApprovalForAll(address,bool)": "a22cb465",
    "supportsInterface(bytes4)": "01ffc9a7",
    "symbol()": "95d89b41",
    "tokenURI(uint256)": "c87b56dd",
    "transferFrom(address,address,uint256)": "23b872dd"
  },
  "id": 35
}