{
  "abi": [
    {
      "inputs": [
        {
          "internalType": "address",
          "name": "_address",
          "type": "address"
        },
        {
          "internalType": "address",
          "name": "Sender",
          "type": "address"
        },
        {
          "internalType": "address",
          "name": "Transporter",
          "type": "address"
        },
        {
          "internalType": "address",
          "name": "Receiver",
          "type": "address"
        }
      ],
      "stateMutability": "nonpayable",
      "type": "constructor"
    },
    {
      "inputs": [],
      "name": "UnAUthorised_Receivers_Account",
      "type": "error"
    },
    {
      "inputs": [],
      "name": "UnAUthorised_Shippers_Account",
      "type": "error"
    },
    {
      "inputs": [],
      "name": "getBatchIDStatus",
      "outputs": [
        {
          "internalType": "uint256",
          "name": "",
          "type": "uint256"
        }
      ],
      "stateMutability": "view",
      "type": "function"
    },
    {
      "inputs": [
        {
          "internalType": "address",
          "name": "_address",
          "type": "address"
        },
        {
          "internalType": "address",
          "name": "_transporter",
          "type": "address"
        }
      ],
      "name": "pickWD",
      "outputs": [],
      "stateMutability": "nonpayable",
      "type": "function"
    },
    {
      "inputs": [
        {
          "internalType": "address",
          "name": "_address",
          "type": "address"
        },
        {
          "internalType": "address",
          "name": "Receiver",
          "type": "address"
        }
      ],
      "name": "receiveWD",
      "outputs": [],
      "stateMutability": "nonpayable",
      "type": "function"
    }
  ],
  "bytecode": {
    "object": "0x608060405234801561001057600080fd5b506040516103ba3803806103ba83398101604081905261002f916100b6565b600080546001600160a01b039485166001600160a01b0319918216811790925560018054968616968216969096179095556002805486169091179055600380549284169290941691909117909255600480546001600160a81b0319169290911691909117905561010a565b80516001600160a01b03811681146100b157600080fd5b919050565b600080600080608085870312156100cc57600080fd5b6100d58561009a565b93506100e36020860161009a565b92506100f16040860161009a565b91506100ff6060860161009a565b905092959194509250565b6102a1806101196000396000f3fe608060405234801561001057600080fd5b50600436106100415760003560e01c8063443c28d814610046578063d2f3fcc71461005b578063d7dcbe3b14610075575b600080fd5b610059610054366004610222565b610088565b005b610063610136565b60405190815260200160405180910390f35b610059610083366004610222565b61015c565b6003546001600160a01b038281169116146100b657604051630806858d60e01b815260040160405180910390fd5b60048054600160a01b60ff60a01b19821617825560025460405163f5c0e38360e01b81526001600160a01b03928316938101939093528116602483015283169063f5c0e383906044015b600060405180830381600087803b15801561011a57600080fd5b505af115801561012e573d6000803e3d6000fd5b505050505050565b600454600090600160a01b900460ff16600281111561015757610157610255565b905090565b6004546001600160a01b03908116908216036101be5760405162461bcd60e51b815260206004820152601f60248201527f556e617574686f72697a65642072656365697665722773206163636f756e7400604482015260640160405180910390fd5b600480546002919060ff60a01b1916600160a01b8302179055506040516393a668b760e01b81526001600160a01b0382811660048301528316906393a668b790602401610100565b80356001600160a01b038116811461021d57600080fd5b919050565b6000806040838503121561023557600080fd5b61023e83610206565b915061024c60208401610206565b90509250929050565b634e487b7160e01b600052602160045260246000fdfea264697066735822122091c74ce2d82c5491bfef4908c2c223814ac111b8cd47aab893be773c7fc4b43864736f6c63430008140033",
    "linkReferences": {}
  },
  "methodIdentifiers": {
    "getBatchIDStatus()": "d2f3fcc7",
    "pickWD(address,address)": "443c28d8",
    "receiveWD(address,address)": "d7dcbe3b"
  },
  "id": 3
}