{
  "abi": [
    {
      "inputs": [
        {
          "internalType": "string",
          "name": "sadSvgUri",
          "type": "string"
        },
        {
          "internalType": "string",
          "name": "happySvgUri",
          "type": "string"
        }
      ],
      "stateMutability": "nonpayable",
      "type": "constructor"
    },
    {
      "inputs": [],
      "name": "ERC721Metadata__URI_QueryFor_NonExistentToken",
      "type": "error"
    },
    {
      "inputs": [],
      "name": "MoodNft__CantFlipMoodIfNotOwner",
      "type": "error"
    },
    {
      "anonymous": false,
      "inputs": [
        {
          "indexed": true,
          "internalType": "address",
          "name": "owner",
          "type": "address"
        },
        {
          "indexed": true,
          "internalType": "address",
          "name": "approved",
          "type": "address"
        },
        {
          "indexed": true,
          "internalType": "uint256",
          "name": "tokenId",
          "type": "uint256"
        }
      ],
      "name": "Approval",
      "type": "event"
    },
    {
      "anonymous": false,
      "inputs": [
        {
          "indexed": true,
          "internalType": "address",
          "name": "owner",
          "type": "address"
        },
        {
          "indexed": true,
          "internalType": "address",
          "name": "operator",
          "type": "address"
        },
        {
          "indexed": false,
          "internalType": "bool",
          "name": "approved",
          "type": "bool"
        }
      ],
      "name": "ApprovalForAll",
      "type": "event"
    },
    {
      "anonymous": false,
      "inputs": [
        {
          "indexed": true,
          "internalType": "uint256",
          "name": "tokenId",
          "type": "uint256"
        }
      ],
      "name": "CreatedNFT",
      "type": "event"
    },
    {
      "anonymous": false,
      "inputs": [
        {
          "indexed": true,
          "internalType": "address",
          "name": "previousOwner",
          "type": "address"
        },
        {
          "indexed": true,
          "internalType": "address",
          "name": "newOwner",
          "type": "address"
        }
      ],
      "name": "OwnershipTransferred",
      "type": "event"
    },
    {
      "anonymous": false,
      "inputs": [
        {
          "indexed": true,
          "internalType": "address",
          "name": "from",
          "type": "address"
        },
        {
          "indexed": true,
          "internalType": "address",
          "name": "to",
          "type": "address"
        },
        {
          "indexed": true,
          "internalType": "uint256",
          "name": "tokenId",
          "type": "uint256"
        }
      ],
      "name": "Transfer",
      "type": "event"
    },
    {
      "inputs": [
        {
          "internalType": "address",
          "name": "to",
          "type": "address"
        },
        {
          "internalType": "uint256",
          "name": "tokenId",
          "type": "uint256"
        }
      ],
      "name": "approve",
      "outputs": [],
      "stateMutability": "nonpayable",
      "type": "function"
    },
    {
      "inputs": [
        {
          "internalType": "address",
          "name": "owner",
          "type": "address"
        }
      ],
      "name": "balanceOf",
      "outputs": [
        {
          "internalType": "uint256",
          "name": "",
          "type": "uint256"
        }
      ],
      "stateMutability": "view",
      "type": "function"
    },
    {
      "inputs": [
        {
          "internalType": "uint256",
          "name": "tokenId",
          "type": "uint256"
        }
      ],
      "name": "flipMood",
      "outputs": [],
      "stateMutability": "nonpayable",
      "type": "function"
    },
    {
      "inputs": [
        {
          "internalType": "uint256",
          "name": "tokenId",
          "type": "uint256"
        }
      ],
      "name": "getApproved",
      "outputs": [
        {
          "internalType": "address",
          "name": "",
          "type": "address"
        }
      ],
      "stateMutability": "view",
      "type": "function"
    },
    {
      "inputs": [],
      "name": "getHappySVG",
      "outputs": [
        {
          "internalType": "string",
          "name": "",
          "type": "string"
        }
      ],
      "stateMutability": "view",
      "type": "function"
    },
    {
      "inputs": [],
      "name": "getSadSVG",
      "outputs": [
        {
          "internalType": "string",
          "name": "",
          "type": "string"
        }
      ],
      "stateMutability": "view",
      "type": "function"
    },
    {
      "inputs": [],
      "name": "getTokenCounter",
      "outputs": [
        {
          "internalType": "uint256",
          "name": "",
          "type": "uint256"
        }
      ],
      "stateMutability": "view",
      "type": "function"
    },
    {
      "inputs": [
        {
          "internalType": "address",
          "name": "owner",
          "type": "address"
        },
        {
          "internalType": "address",
          "name": "operator",
          "type": "address"
        }
      ],
      "name": "isApprovedForAll",
      "outputs": [
        {
          "internalType": "bool",
          "name": "",
          "type": "bool"
        }
      ],
      "stateMutability": "view",
      "type": "function"
    },
    {
      "inputs": [],
      "name": "mintNft",
      "outputs": [],
      "stateMutability": "nonpayable",
      "type": "function"
    },
    {
      "inputs": [],
      "name": "name",
      "outputs": [
        {
          "internalType": "string",
          "name": "",
          "type": "string"
        }
      ],
      "stateMutability": "view",
      "type": "function"
    },
    {
      "inputs": [],
      "name": "owner",
      "outputs": [
        {
          "internalType": "address",
          "name": "",
          "type": "address"
        }
      ],
      "stateMutability": "view",
      "type": "function"
    },
    {
      "inputs": [
        {
          "internalType": "uint256",
          "name": "tokenId",
          "type": "uint256"
        }
      ],
      "name": "ownerOf",
      "outputs": [
        {
          "internalType": "address",
          "name": "",
          "type": "address"
        }
      ],
      "stateMutability": "view",
      "type": "function"
    },
    {
      "inputs": [],
      "name": "renounceOwnership",
      "outputs": [],
      "stateMutability": "nonpayable",
      "type": "function"
    },
    {
      "inputs": [
        {
          "internalType": "address",
          "name": "from",
          "type": "address"
        },
        {
          "internalType": "address",
          "name": "to",
          "type": "address"
        },
        {
          "internalType": "uint256",
          "name": "tokenId",
          "type": "uint256"
        }
      ],
      "name": "safeTransferFrom",
      "outputs": [],
      "stateMutability": "nonpayable",
      "type": "function"
    },
    {
      "inputs": [
        {
          "internalType": "address",
          "name": "from",
          "type": "address"
        },
        {
          "internalType": "address",
          "name": "to",
          "type": "address"
        },
        {
          "internalType": "uint256",
          "name": "tokenId",
          "type": "uint256"
        },
        {
          "internalType": "bytes",
          "name": "data",
          "type": "bytes"
        }
      ],
      "name": "safeTransferFrom",
      "outputs": [],
      "stateMutability": "nonpayable",
      "type": "function"
    },
    {
      "inputs": [
        {
          "internalType": "address",
          "name": "operator",
          "type": "address"
        },
        {
          "internalType": "bool",
          "name": "approved",
          "type": "bool"
        }
      ],
      "name": "setApprovalForAll",
      "outputs": [],
      "stateMutability": "nonpayable",
      "type": "function"
    },
    {
      "inputs": [
        {
          "internalType": "bytes4",
          "name": "interfaceId",
          "type": "bytes4"
        }
      ],
      "name": "supportsInterface",
      "outputs": [
        {
          "internalType": "bool",
          "name": "",
          "type": "bool"
        }
      ],
      "stateMutability": "view",
      "type": "function"
    },
    {
      "inputs": [],
      "name": "symbol",
      "outputs": [
        {
          "internalType": "string",
          "name": "",
          "type": "string"
        }
      ],
      "stateMutability": "view",
      "type": "function"
    },
    {
      "inputs": [
        {
          "internalType": "uint256",
          "name": "tokenId",
          "type": "uint256"
        }
      ],
      "name": "tokenURI",
      "outputs": [
        {
          "internalType": "string",
          "name": "",
          "type": "string"
        }
      ],
      "stateMutability": "view",
      "type": "function"
    },
    {
      "inputs": [
        {
          "internalType": "address",
          "name": "from",
          "type": "address"
        },
        {
          "internalType": "address",
          "name": "to",
          "type": "address"
        },
        {
          "internalType": "uint256",
          "name": "tokenId",
          "type": "uint256"
        }
      ],
      "name": "transferFrom",
      "outputs": [],
      "stateMutability": "nonpayable",
      "type": "function"
    },
    {
      "inputs": [
        {
          "internalType": "address",
          "name": "newOwner",
          "type": "address"
        }
      ],
      "name": "transferOwnership",
      "outputs": [],
      "stateMutability": "nonpayable",
      "type": "function"
    }
  ],
  "bytecode": {
    "object": "0x60806040523480156200001157600080fd5b5060405162001cb538038062001cb58339810160408190526200003491620001f3565b60405180604001604052806008815260200167135bdbd90813919560c21b8152506040518060400160405280600281526020016126a760f11b8152508160009081620000819190620002ec565b506001620000908282620002ec565b505050620000ad620000a7620000d860201b60201c565b620000dc565b60006007556008620000c08382620002ec565b506009620000cf8282620002ec565b505050620003b8565b3390565b600680546001600160a01b038381166001600160a01b0319831681179093556040519116919082907f8be0079c531659141344cd1fd0a4f28419497f9722a3daafe3b4186f6b6457e090600090a35050565b634e487b7160e01b600052604160045260246000fd5b600082601f8301126200015657600080fd5b81516001600160401b03808211156200017357620001736200012e565b604051601f8301601f19908116603f011681019082821181831017156200019e576200019e6200012e565b81604052838152602092508683858801011115620001bb57600080fd5b600091505b83821015620001df5785820183015181830184015290820190620001c0565b600093810190920192909252949350505050565b600080604083850312156200020757600080fd5b82516001600160401b03808211156200021f57600080fd5b6200022d8683870162000144565b935060208501519150808211156200024457600080fd5b50620002538582860162000144565b9150509250929050565b600181811c908216806200027257607f821691505b6020821081036200029357634e487b7160e01b600052602260045260246000fd5b50919050565b601f821115620002e757600081815260208120601f850160051c81016020861015620002c25750805b601f850160051c820191505b81811015620002e357828155600101620002ce565b5050505b505050565b81516001600160401b038111156200030857620003086200012e565b62000320816200031984546200025d565b8462000299565b602080601f8311600181146200035857600084156200033f5750858301515b600019600386901b1c1916600185901b178555620002e3565b600085815260208120601f198616915b82811015620003895788860151825594840194600190910190840162000368565b5085821015620003a85787850151600019600388901b60f8161c191681555b5050505050600190811b01905550565b6118ed80620003c86000396000f3fe608060405234801561001057600080fd5b50600436106101375760003560e01c8063715018a6116100b8578063c1a147a01161007c578063c1a147a014610266578063c2229fea14610279578063c87b56dd14610281578063e985e9c514610294578063f2fde38b146102a7578063fc842121146102ba57600080fd5b8063715018a61461021f5780638da5cb5b1461022757806395d89b4114610238578063a22cb46514610240578063b88d4fde1461025357600080fd5b806342842e0e116100ff57806342842e0e146101cc5780635de0682f146101df5780636352211e146101e75780636e02007d146101fa57806370a082311461020c57600080fd5b806301ffc9a71461013c57806306fdde0314610164578063081812fc14610179578063095ea7b3146101a457806323b872dd146101b9575b600080fd5b61014f61014a3660046112a6565b6102c2565b60405190151581526020015b60405180910390f35b61016c610314565b60405161015b919061131a565b61018c61018736600461132d565b6103a6565b6040516001600160a01b03909116815260200161015b565b6101b76101b2366004611362565b6103cd565b005b6101b76101c736600461138c565b6104e7565b6101b76101da36600461138c565b610518565b61016c610533565b61018c6101f536600461132d565b610542565b6007545b60405190815260200161015b565b6101fe61021a3660046113c8565b6105a2565b6101b7610628565b6006546001600160a01b031661018c565b61016c61063c565b6101b761024e3660046113e3565b61064b565b6101b7610261366004611435565b61065a565b6101b761027436600461132d565b610692565b6101b7610716565b61016c61028f36600461132d565b610760565b61014f6102a2366004611511565b610974565b6101b76102b53660046113c8565b6109a2565b61016c610a18565b60006001600160e01b031982166380ac58cd60e01b14806102f357506001600160e01b03198216635b5e139f60e01b145b8061030e57506301ffc9a760e01b6001600160e01b03198316145b92915050565b60606000805461032390611544565b80601f016020809104026020016040519081016040528092919081815260200182805461034f90611544565b801561039c5780601f106103715761010080835404028352916020019161039c565b820191906000526020600020905b81548152906001019060200180831161037f57829003601f168201915b5050505050905090565b60006103b182610a27565b506000908152600460205260409020546001600160a01b031690565b60006103d882610542565b9050806001600160a01b0316836001600160a01b03160361044a5760405162461bcd60e51b815260206004820152602160248201527f4552433732313a20617070726f76616c20746f2063757272656e74206f776e656044820152603960f91b60648201526084015b60405180910390fd5b336001600160a01b038216148061046657506104668133610974565b6104d85760405162461bcd60e51b815260206004820152603d60248201527f4552433732313a20617070726f76652063616c6c6572206973206e6f7420746f60448201527f6b656e206f776e6572206f7220617070726f76656420666f7220616c6c0000006064820152608401610441565b6104e28383610a86565b505050565b6104f13382610af4565b61050d5760405162461bcd60e51b81526004016104419061157e565b6104e2838383610b53565b6104e28383836040518060200160405280600081525061065a565b60606008805461032390611544565b6000818152600260205260408120546001600160a01b03168061030e5760405162461bcd60e51b8152602060048201526018602482015277115490cdcc8c4e881a5b9d985b1a59081d1bdad95b88125160421b6044820152606401610441565b60006001600160a01b03821661060c5760405162461bcd60e51b815260206004820152602960248201527f4552433732313a2061646472657373207a65726f206973206e6f7420612076616044820152683634b21037bbb732b960b91b6064820152608401610441565b506001600160a01b031660009081526003602052604090205490565b610630610cb7565b61063a6000610d11565b565b60606001805461032390611544565b610656338383610d63565b5050565b6106643383610af4565b6106805760405162461bcd60e51b81526004016104419061157e565b61068c84848484610e31565b50505050565b61069c3382610af4565b6106b9576040516385046ca760e01b815260040160405180910390fd5b6000818152600a602052604081205460ff1660018111156106dc576106dc6115cb565b036106fc576000908152600a60205260409020805460ff19166001179055565b6000818152600a60205260409020805460ff191690555b50565b61072233600754610e64565b6007546107309060016115f7565b60078190556040517f72102923c3d44433bd725cb2c744a4c92a536ad249b665dec9853a16ed66552590600090a2565b6000818152600260205260409020546060906001600160a01b0316610798576040516336faf6d760e11b815260040160405180910390fd5b6000600980546107a790611544565b80601f01602080910402602001604051908101604052809291908181526020018280546107d390611544565b80156108205780601f106107f557610100808354040283529160200191610820565b820191906000526020600020905b81548152906001019060200180831161080357829003601f168201915b509394506001935061083192505050565b6000848152600a602052604090205460ff166001811115610854576108546115cb565b036108e7576008805461086690611544565b80601f016020809104026020016040519081016040528092919081815260200182805461089290611544565b80156108df5780601f106108b4576101008083540402835291602001916108df565b820191906000526020600020905b8154815290600101906020018083116108c257829003601f168201915b505050505090505b60408051808201909152601d81527f646174613a6170706c69636174696f6e2f6a736f6e3b6261736536342c000000602082015261094c610926610314565b8360405160200161093892919061160a565b604051602081830303815290604052610e7e565b60405160200161095d92919061171e565b604051602081830303815290604052915050919050565b6001600160a01b03918216600090815260056020908152604080832093909416825291909152205460ff1690565b6109aa610cb7565b6001600160a01b038116610a0f5760405162461bcd60e51b815260206004820152602660248201527f4f776e61626c653a206e6577206f776e657220697320746865207a65726f206160448201526564647265737360d01b6064820152608401610441565b61071381610d11565b60606009805461032390611544565b6000818152600260205260409020546001600160a01b03166107135760405162461bcd60e51b8152602060048201526018602482015277115490cdcc8c4e881a5b9d985b1a59081d1bdad95b88125160421b6044820152606401610441565b600081815260046020526040902080546001600160a01b0319166001600160a01b0384169081179091558190610abb82610542565b6001600160a01b03167f8c5be1e5ebec7d5bd14f71427d1e84f3dd0314c0f7b2291e5b200ac8c7c3b92560405160405180910390a45050565b600080610b0083610542565b9050806001600160a01b0316846001600160a01b03161480610b275750610b278185610974565b80610b4b5750836001600160a01b0316610b40846103a6565b6001600160a01b0316145b949350505050565b826001600160a01b0316610b6682610542565b6001600160a01b031614610b8c5760405162461bcd60e51b81526004016104419061174d565b6001600160a01b038216610bee5760405162461bcd60e51b8152602060048201526024808201527f4552433732313a207472616e7366657220746f20746865207a65726f206164646044820152637265737360e01b6064820152608401610441565b826001600160a01b0316610c0182610542565b6001600160a01b031614610c275760405162461bcd60e51b81526004016104419061174d565b600081815260046020908152604080832080546001600160a01b03199081169091556001600160a01b0387811680865260038552838620805460001901905590871680865283862080546001019055868652600290945282852080549092168417909155905184937fddf252ad1be2c89b69c2b068fc378daa952ba7f163c4a11628f55a4df523b3ef91a4505050565b6006546001600160a01b0316331461063a5760405162461bcd60e51b815260206004820181905260248201527f4f776e61626c653a2063616c6c6572206973206e6f7420746865206f776e65726044820152606401610441565b600680546001600160a01b038381166001600160a01b0319831681179093556040519116919082907f8be0079c531659141344cd1fd0a4f28419497f9722a3daafe3b4186f6b6457e090600090a35050565b816001600160a01b0316836001600160a01b031603610dc45760405162461bcd60e51b815260206004820152601960248201527f4552433732313a20617070726f766520746f2063616c6c6572000000000000006044820152606401610441565b6001600160a01b03838116600081815260056020908152604080832094871680845294825291829020805460ff191686151590811790915591519182527f17307eab39ab6107e8899845ad3d59bd9653f200f220920489ca2b5937696c31910160405180910390a3505050565b610e3c848484610b53565b610e4884848484610fd1565b61068c5760405162461bcd60e51b815260040161044190611792565b6106568282604051806020016040528060008152506110d2565b60608151600003610e9d57505060408051602081019091526000815290565b60006040518060600160405280604081526020016118786040913990506000600384516002610ecc91906115f7565b610ed691906117e4565b610ee1906004611806565b67ffffffffffffffff811115610ef957610ef961141f565b6040519080825280601f01601f191660200182016040528015610f23576020820181803683370190505b509050600182016020820185865187015b80821015610f8f576003820191508151603f8160121c168501518453600184019350603f81600c1c168501518453600184019350603f8160061c168501518453600184019350603f8116850151845350600183019250610f34565b5050600386510660018114610fab5760028114610fbe57610fc6565b603d6001830353603d6002830353610fc6565b603d60018303535b509195945050505050565b60006001600160a01b0384163b156110c757604051630a85bd0160e11b81526001600160a01b0385169063150b7a029061101590339089908890889060040161181d565b6020604051808303816000875af1925050508015611050575060408051601f3d908101601f1916820190925261104d9181019061185a565b60015b6110ad573d80801561107e576040519150601f19603f3d011682016040523d82523d6000602084013e611083565b606091505b5080516000036110a55760405162461bcd60e51b815260040161044190611792565b805181602001fd5b6001600160e01b031916630a85bd0160e11b149050610b4b565b506001949350505050565b6110dc8383611105565b6110e96000848484610fd1565b6104e25760405162461bcd60e51b815260040161044190611792565b6001600160a01b03821661115b5760405162461bcd60e51b815260206004820181905260248201527f4552433732313a206d696e7420746f20746865207a65726f20616464726573736044820152606401610441565b6000818152600260205260409020546001600160a01b0316156111c05760405162461bcd60e51b815260206004820152601c60248201527f4552433732313a20746f6b656e20616c7265616479206d696e746564000000006044820152606401610441565b6000818152600260205260409020546001600160a01b0316156112255760405162461bcd60e51b815260206004820152601c60248201527f4552433732313a20746f6b656e20616c7265616479206d696e746564000000006044820152606401610441565b6001600160a01b038216600081815260036020908152604080832080546001019055848352600290915280822080546001600160a01b0319168417905551839291907fddf252ad1be2c89b69c2b068fc378daa952ba7f163c4a11628f55a4df523b3ef908290a45050565b6001600160e01b03198116811461071357600080fd5b6000602082840312156112b857600080fd5b81356112c381611290565b9392505050565b60005b838110156112e55781810151838201526020016112cd565b50506000910152565b600081518084526113068160208601602086016112ca565b601f01601f19169290920160200192915050565b6020815260006112c360208301846112ee565b60006020828403121561133f57600080fd5b5035919050565b80356001600160a01b038116811461135d57600080fd5b919050565b6000806040838503121561137557600080fd5b61137e83611346565b946020939093013593505050565b6000806000606084860312156113a157600080fd5b6113aa84611346565b92506113b860208501611346565b9150604084013590509250925092565b6000602082840312156113da57600080fd5b6112c382611346565b600080604083850312156113f657600080fd5b6113ff83611346565b91506020830135801515811461141457600080fd5b809150509250929050565b634e487b7160e01b600052604160045260246000fd5b6000806000806080858703121561144b57600080fd5b61145485611346565b935061146260208601611346565b925060408501359150606085013567ffffffffffffffff8082111561148657600080fd5b818701915087601f83011261149a57600080fd5b8135818111156114ac576114ac61141f565b604051601f8201601f19908116603f011681019083821181831017156114d4576114d461141f565b816040528281528a60208487010111156114ed57600080fd5b82602086016020830137600060208483010152809550505050505092959194509250565b6000806040838503121561152457600080fd5b61152d83611346565b915061153b60208401611346565b90509250929050565b600181811c9082168061155857607f821691505b60208210810361157857634e487b7160e01b600052602260045260246000fd5b50919050565b6020808252602d908201527f4552433732313a2063616c6c6572206973206e6f7420746f6b656e206f776e6560408201526c1c881bdc88185c1c1c9bdd9959609a1b606082015260800190565b634e487b7160e01b600052602160045260246000fd5b634e487b7160e01b600052601160045260246000fd5b8082018082111561030e5761030e6115e1565b683d913730b6b2911d1160b91b8152825160009061162f8160098501602088016112ca565b7f222c20226465736372697074696f6e223a22416e204e465420746861742072656009918401918201527f666c6563747320746865206d6f6f64206f6620746865206f776e65722c20313060298201526e018129037b71021b430b4b71091161608d1b60498201527f2261747472696275746573223a205b7b2274726169745f74797065223a20226d60588201527f6f6f64696e657373222c202276616c7565223a203130307d5d2c2022696d616760788201526332911d1160e11b6098820152835161170381609c8401602088016112ca565b61227d60f01b609c9290910191820152609e01949350505050565b600083516117308184602088016112ca565b8351908301906117448183602088016112ca565b01949350505050565b60208082526025908201527f4552433732313a207472616e736665722066726f6d20696e636f72726563742060408201526437bbb732b960d91b606082015260800190565b60208082526032908201527f4552433732313a207472616e7366657220746f206e6f6e20455243373231526560408201527131b2b4bb32b91034b6b83632b6b2b73a32b960711b606082015260800190565b60008261180157634e487b7160e01b600052601260045260246000fd5b500490565b808202811582820484141761030e5761030e6115e1565b6001600160a01b0385811682528416602082015260408101839052608060608201819052600090611850908301846112ee565b9695505050505050565b60006020828403121561186c57600080fd5b81516112c38161129056fe4142434445464748494a4b4c4d4e4f505152535455565758595a6162636465666768696a6b6c6d6e6f707172737475767778797a303132333435363738392b2fa26469706673582212200b696ea67147bf51f1c23e01774b66d490d09375c3d463752a89e5cf37bf4cb364736f6c63430008140033",
    "linkReferences": {}
  },
  "methodIdentifiers": {
    "approve(address,uint256)": "095ea7b3",
    "balanceOf(address)": "70a08231",
    "flipMood(uint256)": "c1a147a0",
    "getApproved(uint256)": "081812fc",
    "getHappySVG()": "fc842121",
    "getSadSVG()": "5de0682f",
    "getTokenCounter()": "6e02007d",
    "isApprovedForAll(address,address)": "e985e9c5",
    "mintNft()": "c2229fea",
    "name()": "06fdde03",
    "owner()": "8da5cb5b",
    "ownerOf(uint256)": "6352211e",
    "renounceOwnership()": "715018a6",
    "safeTransferFrom(address,address,uint256)": "42842e0e",
    "safeTransferFrom(address,address,uint256,bytes)": "b88d4fde",
    "setApprovalForAll(address,bool)": "a22cb465",
    "supportsInterface(bytes4)": "01ffc9a7",
    "symbol()": "95d89b41",
    "tokenURI(uint256)": "c87b56dd",
    "transferFrom(address,address,uint256)": "23b872dd",
    "transferOwnership(address)": "f2fde38b"
  },
  "id": 36
}