{
  "abi": [
    {
      "inputs": [
        {
          "internalType": "address",
          "name": "projectsStorageAddress",
          "type": "address"
        },
        {
          "internalType": "address",
          "name": "fundRaffleMoodNftAddress",
          "type": "address"
        }
      ],
      "stateMutability": "nonpayable",
      "type": "constructor"
    },
    {
      "inputs": [],
      "name": "Project_Does_Not_Exist",
      "type": "error"
    },
    {
      "inputs": [],
      "name": "RAFFLE_CANNOT_BE_ENTERED_UNTIL_FUNDING_GOAL_IS_REACHED",
      "type": "error"
    },
    {
      "inputs": [
        {
          "internalType": "uint256",
          "name": "projectId",
          "type": "uint256"
        }
      ],
      "name": "getProjectDetails",
      "outputs": [
        {
          "components": [
            {
              "internalType": "uint256",
              "name": "id",
              "type": "uint256"
            },
            {
              "internalType": "string",
              "name": "name",
              "type": "string"
            },
            {
              "internalType": "uint256",
              "name": "fundingGoal",
              "type": "uint256"
            },
            {
              "internalType": "uint256",
              "name": "totalFundsRaised",
              "type": "uint256"
            },
            {
              "internalType": "address[]",
              "name": "funders",
              "type": "address[]"
            },
            {
              "internalType": "address",
              "name": "projectAddress",
              "type": "address"
            }
          ],
          "internalType": "struct ProjectsStorage.Project",
          "name": "",
          "type": "tuple"
        }
      ],
      "stateMutability": "view",
      "type": "function"
    },
    {
      "inputs": [
        {
          "internalType": "string",
          "name": "_name",
          "type": "string"
        }
      ],
      "name": "raffle",
      "outputs": [],
      "stateMutability": "nonpayable",
      "type": "function"
    },
    {
      "inputs": [
        {
          "internalType": "address",
          "name": "from",
          "type": "address"
        },
        {
          "internalType": "address",
          "name": "to",
          "type": "address"
        }
      ],
      "name": "transferAllNfts",
      "outputs": [],
      "stateMutability": "nonpayable",
      "type": "function"
    }
  ],
  "bytecode": {
    "object": "0x608060405234801561001057600080fd5b50604051610a47380380610a4783398101604081905261002f9161007c565b600080546001600160a01b039384166001600160a01b031991821617909155600180549290931691161790556100af565b80516001600160a01b038116811461007757600080fd5b919050565b6000806040838503121561008f57600080fd5b61009883610060565b91506100a660208401610060565b90509250929050565b610989806100be6000396000f3fe608060405234801561001057600080fd5b50600436106100415760003560e01c80631ac76a9b146100465780635f8439e31461005b578063cadbe82014610084575b600080fd5b61005961005436600461049d565b610097565b005b61006e6100693660046104d6565b610213565b60405161007b919061053f565b60405180910390f35b610059610092366004610680565b6102ce565b6001546040516370a0823160e01b81526001600160a01b03848116600483015260009216906370a0823190602401602060405180830381865afa1580156100e2573d6000803e3d6000fd5b505050506040513d601f19601f820116820180604052508101906101069190610700565b905060005b8181101561020d57600154604051632f745c5960e01b81526001600160a01b038681166004830152602482018490526000921690632f745c5990604401602060405180830381865afa158015610165573d6000803e3d6000fd5b505050506040513d601f19601f820116820180604052508101906101899190610700565b6001546040516323b872dd60e01b81526001600160a01b0388811660048301528781166024830152604482018490529293509116906323b872dd90606401600060405180830381600087803b1580156101e157600080fd5b505af11580156101f5573d6000803e3d6000fd5b5050505050808061020590610719565b91505061010b565b50505050565b6102556040518060c00160405280600081526020016060815260200160008152602001600081526020016060815260200160006001600160a01b031681525090565b60008054604051631e1e7e5960e31b8152600481018590526001600160a01b039091169063f0f3f2c890602401600060405180830381865afa15801561029f573d6000803e3d6000fd5b505050506040513d6000823e601f3d908101601f191682016040526102c79190810190610826565b9392505050565b60005460405163786ce14960e11b81526001600160a01b039091169063f0d9c292906102fe9084906004016108e6565b602060405180830381865afa15801561031b573d6000803e3d6000fd5b505050506040513d601f19601f8201168201806040525081019061033f91906108f9565b61035c5760405163f87b278760e01b815260040160405180910390fd5b60008054604051635076a3a560e01b81526001600160a01b0390911690635076a3a59061038d9085906004016108e6565b602060405180830381865afa1580156103aa573d6000803e3d6000fd5b505050506040513d601f19601f820116820180604052508101906103ce9190610700565b9050806000036103f157604051631a5ebf2360e21b815260040160405180910390fd5b60006103fc82610213565b905060008160800151514244604051602001610422929190918252602082015260400190565b6040516020818303038152906040528051906020012060001c610445919061091b565b905060008260800151828151811061045f5761045f61093d565b602002602001015190506104778360a0015182610097565b505060606080909101525050565b6001600160a01b038116811461049a57600080fd5b50565b600080604083850312156104b057600080fd5b82356104bb81610485565b915060208301356104cb81610485565b809150509250929050565b6000602082840312156104e857600080fd5b5035919050565b60005b8381101561050a5781810151838201526020016104f2565b50506000910152565b6000815180845261052b8160208601602086016104ef565b601f01601f19169290920160200192915050565b600060208083528351818401528084015160c0604085015261056460e0850182610513565b6040860151606086810191909152860151608080870191909152860151858203601f190160a0870152805180835290840192506000918401905b808310156105c75783516001600160a01b0316825292840192600192909201919084019061059e565b5060a08701516001600160a01b03811660c088015293509695505050505050565b634e487b7160e01b600052604160045260246000fd5b60405160c0810167ffffffffffffffff81118282101715610621576106216105e8565b60405290565b604051601f8201601f1916810167ffffffffffffffff81118282101715610650576106506105e8565b604052919050565b600067ffffffffffffffff821115610672576106726105e8565b50601f01601f191660200190565b60006020828403121561069257600080fd5b813567ffffffffffffffff8111156106a957600080fd5b8201601f810184136106ba57600080fd5b80356106cd6106c882610658565b610627565b8181528560208385010111156106e257600080fd5b81602084016020830137600091810160200191909152949350505050565b60006020828403121561071257600080fd5b5051919050565b60006001820161073957634e487b7160e01b600052601160045260246000fd5b5060010190565b600082601f83011261075157600080fd5b815161075f6106c882610658565b81815284602083860101111561077457600080fd5b6107858260208301602087016104ef565b949350505050565b805161079881610485565b919050565b600082601f8301126107ae57600080fd5b8151602067ffffffffffffffff8211156107ca576107ca6105e8565b8160051b6107d9828201610627565b92835284810182019282810190878511156107f357600080fd5b83870192505b8483101561081b57825161080c81610485565b825291830191908301906107f9565b979650505050505050565b60006020828403121561083857600080fd5b815167ffffffffffffffff8082111561085057600080fd5b9083019060c0828603121561086457600080fd5b61086c6105fe565b8251815260208301518281111561088257600080fd5b61088e87828601610740565b60208301525060408301516040820152606083015160608201526080830151828111156108ba57600080fd5b6108c68782860161079d565b6080830152506108d860a0840161078d565b60a082015295945050505050565b6020815260006102c76020830184610513565b60006020828403121561090b57600080fd5b815180151581146102c757600080fd5b60008261093857634e487b7160e01b600052601260045260246000fd5b500690565b634e487b7160e01b600052603260045260246000fdfea26469706673582212208fe3103fa5e88c585a9edeef277d11a01caeac40a987edeb6e1ddf70ab40f72d64736f6c63430008140033",
    "linkReferences": {}
  },
  "methodIdentifiers": {
    "getProjectDetails(uint256)": "5f8439e3",
    "raffle(string)": "cadbe820",
    "transferAllNfts(address,address)": "1ac76a9b"
  },
  "id": 39
}