{
  "abi": [
    {
      "anonymous": false,
      "inputs": [
        {
          "indexed": false,
          "internalType": "address",
          "name": "_address",
          "type": "address"
        },
        {
          "indexed": true,
          "internalType": "address",
          "name": "Consumer",
          "type": "address"
        },
        {
          "indexed": false,
          "internalType": "uint256",
          "name": "status",
          "type": "uint256"
        }
      ],
      "name": "CommodityStatus",
      "type": "event"
    },
    {
      "inputs": [
        {
          "internalType": "address",
          "name": "",
          "type": "address"
        },
        {
          "internalType": "uint256",
          "name": "",
          "type": "uint256"
        }
      ],
      "name": "CommodityBatchAtFinalConsumer",
      "outputs": [
        {
          "internalType": "address",
          "name": "",
          "type": "address"
        }
      ],
      "stateMutability": "view",
      "type": "function"
    },
    {
      "inputs": [
        {
          "internalType": "address",
          "name": "_address",
          "type": "address"
        },
        {
          "internalType": "address",
          "name": "cid",
          "type": "address"
        }
      ],
      "name": "commodityRecievedAtFinalConsumer",
      "outputs": [],
      "stateMutability": "nonpayable",
      "type": "function"
    },
    {
      "inputs": [
        {
          "internalType": "address",
          "name": "",
          "type": "address"
        }
      ],
      "name": "sale",
      "outputs": [
        {
          "internalType": "enum FinalConsumer.salestatus",
          "name": "",
          "type": "uint8"
        }
      ],
      "stateMutability": "view",
      "type": "function"
    },
    {
      "inputs": [
        {
          "internalType": "address",
          "name": "_address",
          "type": "address"
        }
      ],
      "name": "salesInfo",
      "outputs": [
        {
          "internalType": "uint256",
          "name": "Status",
          "type": "uint256"
        }
      ],
      "stateMutability": "view",
      "type": "function"
    },
    {
      "inputs": [
        {
          "internalType": "address",
          "name": "_address",
          "type": "address"
        },
        {
          "internalType": "uint256",
          "name": "Status",
          "type": "uint256"
        }
      ],
      "name": "updateSaleStatus",
      "outputs": [],
      "stateMutability": "nonpayable",
      "type": "function"
    }
  ],
  "bytecode": {
    "object": "0x608060405234801561001057600080fd5b506103f8806100206000396000f3fe608060405234801561001057600080fd5b50600436106100575760003560e01c8063401fdedf1461005c57806360ef38511461008c57806375df2684146100a1578063bb8ee1c5146100d1578063eae3c207146100f2575b600080fd5b61006f61006a366004610305565b610105565b6040516001600160a01b0390911681526020015b60405180910390f35b61009f61009a36600461032f565b61013d565b005b6100c46100af366004610362565b60016020526000908152604090205460ff1681565b604051610083919061039a565b6100e46100df366004610362565b61021f565b604051908152602001610083565b61009f610100366004610305565b610252565b6000602052816000526040600020818154811061012157600080fd5b6000918252602090912001546001600160a01b03169150829050565b604051637bd6ee1f60e11b81526001600160a01b03838116600483015233602483015282169063f7addc3e90604401600060405180830381600087803b15801561018657600080fd5b505af115801561019a573d6000803e3d6000fd5b5050336000908152602081815260408220805460018082018355918452919092200180546001600160a01b0319166001600160a01b03871617905591506101de9050565b6001600160a01b03831660009081526001602081905260409091208054909160ff199091169083600481111561021657610216610384565b02179055505050565b6001600160a01b03811660009081526001602052604081205460ff16600481111561024c5761024c610384565b92915050565b80600481111561026457610264610384565b6001600160a01b03831660009081526001602081905260409091208054909160ff199091169083600481111561029c5761029c610384565b0217905550604080516001600160a01b03841681526020810183905233917f280e3a7c06861f6ebfc449cac1f69f63e8d2bc9641ed1327a29e89bd5cef23bf910160405180910390a25050565b80356001600160a01b038116811461030057600080fd5b919050565b6000806040838503121561031857600080fd5b610321836102e9565b946020939093013593505050565b6000806040838503121561034257600080fd5b61034b836102e9565b9150610359602084016102e9565b90509250929050565b60006020828403121561037457600080fd5b61037d826102e9565b9392505050565b634e487b7160e01b600052602160045260246000fd5b60208101600583106103bc57634e487b7160e01b600052602160045260246000fd5b9190529056fea26469706673582212207bd5e9f88998a21cc6cd757073f9d9a308c11074f76fc068258f75f030cfd2c664736f6c63430008140033",
    "linkReferences": {}
  },
  "methodIdentifiers": {
    "CommodityBatchAtFinalConsumer(address,uint256)": "401fdedf",
    "commodityRecievedAtFinalConsumer(address,address)": "60ef3851",
    "sale(address)": "75df2684",
    "salesInfo(address)": "bb8ee1c5",
    "updateSaleStatus(address,uint256)": "eae3c207"
  },
  "id": 5
}