{
  "abi": [
    {
      "anonymous": false,
      "inputs": [
        {
          "indexed": true,
          "internalType": "address",
          "name": "rawMaterialAddress",
          "type": "address"
        },
        {
          "indexed": true,
          "internalType": "address",
          "name": "supplier",
          "type": "address"
        }
      ],
      "name": "RawMaterialCreated",
      "type": "event"
    },
    {
      "inputs": [
        {
          "internalType": "bytes32",
          "name": "_description",
          "type": "bytes32"
        },
        {
          "internalType": "uint256",
          "name": "_quantity",
          "type": "uint256"
        },
        {
          "internalType": "address",
          "name": "_transporterAddr",
          "type": "address"
        },
        {
          "internalType": "address",
          "name": "_manufacturerAddr",
          "type": "address"
        }
      ],
      "name": "createRawMaterialPackage",
      "outputs": [],
      "stateMutability": "nonpayable",
      "type": "function"
    },
    {
      "inputs": [],
      "name": "getAllPackages",
      "outputs": [
        {
          "internalType": "address[]",
          "name": "",
          "type": "address[]"
        }
      ],
      "stateMutability": "view",
      "type": "function"
    },
    {
      "inputs": [],
      "name": "getNoOfPackagesOfSupplier",
      "outputs": [
        {
          "internalType": "uint256",
          "name": "",
          "type": "uint256"
        }
      ],
      "stateMutability": "view",
      "type": "function"
    },
    {
      "inputs": [
        {
          "internalType": "address",
          "name": "",
          "type": "address"
        },
        {
          "internalType": "uint256",
          "name": "",
          "type": "uint256"
        }
      ],
      "name": "supplierRawMaterials",
      "outputs": [
        {
          "internalType": "address",
          "name": "",
          "type": "address"
        }
      ],
      "stateMutability": "view",
      "type": "function"
    }
  ],
  "bytecode": {
    "object": "0x608060405234801561001057600080fd5b50611748806100206000396000f3fe608060405234801561001057600080fd5b506004361061004c5760003560e01c806306db8324146100515780630a421f0f14610081578063c22470ea14610096578063fc7e01f3146100b4575b600080fd5b61006461005f36600461036b565b6100c9565b6040516001600160a01b0390911681526020015b60405180910390f35b610089610101565b6040516100789190610395565b33600090815260208190526040902054604051908152602001610078565b6100c76100c23660046103e2565b6101e6565b005b600060205281600052604060002081815481106100e557600080fd5b6000918252602090912001546001600160a01b03169150829050565b336000908152602081905260408120546060918167ffffffffffffffff81111561012d5761012d610428565b604051908082528060200260200182016040528015610156578160200160208202803683370190505b50905060005b828110156101df573360009081526020819052604090208054829081106101855761018561043e565b9060005260206000200160009054906101000a90046001600160a01b03168282815181106101b5576101b561043e565b6001600160a01b0390921660209283029190910190910152806101d781610454565b91505061015c565b5092915050565b60405133606081901b6bffffffffffffffffffffffff1916602083015242603483015260009160029060540160408051601f198184030181529082905261022c9161047b565b602060405180830381855afa158015610249573d6000803e3d6000fd5b5050506040513d601f19601f8201168201806040525081019061026c91906104aa565b60601c8686868660405161027f90610342565b6001600160a01b0396871681529486166020860152604085019390935260608401919091528316608083015290911660a082015260c001604051809103906000f0801580156102d2573d6000803e3d6000fd5b5033600081815260208181526040808320805460018101825590845291832090910180546001600160a01b0319166001600160a01b038616908117909155905193945091927fc79cf8ddd8acb3b33a3e6376598d00dc00be90fd673c705fbc18a78321558e9f9190a35050505050565b61124f806104c483390190565b80356001600160a01b038116811461036657600080fd5b919050565b6000806040838503121561037e57600080fd5b6103878361034f565b946020939093013593505050565b6020808252825182820181905260009190848201906040850190845b818110156103d65783516001600160a01b0316835292840192918401916001016103b1565b50909695505050505050565b600080600080608085870312156103f857600080fd5b843593506020850135925061040f6040860161034f565b915061041d6060860161034f565b905092959194509250565b634e487b7160e01b600052604160045260246000fd5b634e487b7160e01b600052603260045260246000fd5b60006001820161047457634e487b7160e01b600052601160045260246000fd5b5060010190565b6000825160005b8181101561049c5760208186018101518583015201610482565b506000920191825250919050565b6000602082840312156104bc57600080fd5b505191905056fe608060405234801561001057600080fd5b5060405161124f38038061124f83398101604081905261002f91610123565b600080546001600160a01b03199081166001600160a01b0389811691821784556001805484168a8316179055600288905560038790556004805484168783161790556005805490931690851617909155600680546001600160a81b031916909117905560405182906100a0906100fa565b6001600160a01b039091168152602001604051809103906000f0801580156100cc573d6000803e3d6000fd5b50600880546001600160a01b0319166001600160a01b03929092169190911790555061018995505050505050565b610dc88061048783390190565b80516001600160a01b038116811461011e57600080fd5b919050565b60008060008060008060c0878903121561013c57600080fd5b61014587610107565b955061015360208801610107565b9450604087015193506060870151925061016f60808801610107565b915061017d60a08801610107565b90509295509295509295565b6102ef806101986000396000f3fe608060405234801561001057600080fd5b506004361061004c5760003560e01c806352b9996814610051578063638e9a3d146100665780636b099dca146100795780638072352014610094575b600080fd5b61006461005f366004610273565b6100ef565b005b610064610074366004610273565b6101a1565b61008161024d565b6040519081526020015b60405180910390f35b600154600254600354600654600454600554600854604080516001600160a01b0398891681526020810197909752860194909452918516606085015284166080840152831660a08301529190911660c082015260e00161008b565b6005546001600160a01b0382811691161461010957600080fd5b6001600654600160a01b900460ff166002811115610129576101296102a3565b1461013357600080fd5b6006805460ff60a01b1916600160a11b1790556005546004546001805460408051928352600260208401526001600160a01b039485169493841693909116917f7e89c4b1a4e2b51aae84eb1f90e8a34cb792ece5ac5cb63db4830c891220b28d91015b60405180910390a450565b6004546001600160a01b038281169116146101bb57600080fd5b6000600654600160a01b900460ff1660028111156101db576101db6102a3565b146101e557600080fd5b6006805460ff60a01b1916600160a01b179055600554600454600180546040805183815260208101939093526001600160a01b039485169493841693909116917f7e89c4b1a4e2b51aae84eb1f90e8a34cb792ece5ac5cb63db4830c891220b28d9101610196565b600654600090600160a01b900460ff16600281111561026e5761026e6102a3565b905090565b60006020828403121561028557600080fd5b81356001600160a01b038116811461029c57600080fd5b9392505050565b634e487b7160e01b600052602160045260246000fdfea26469706673582212206ffc57ce2ca22c01b7a51fbfd56e7ae636b7dc2875cdc4a49f35bcd2352f6b0264736f6c63430008140033608060405234801561001057600080fd5b50604051610dc8380380610dc883398101604081905261002f91610054565b600080546001600160a01b0319166001600160a01b0392909216919091179055610084565b60006020828403121561006657600080fd5b81516001600160a01b038116811461007d57600080fd5b9392505050565b610d35806100936000396000f3fe608060405234801561001057600080fd5b506004361061007d5760003560e01c8063b77bf6001161005b578063b77bf600146100f1578063c202fc2414610108578063c362eb7f1461011d578063daa105601461012557600080fd5b806327506f531461008257806333ea3dc8146100a0578063b4a99a4e146100c6575b600080fd5b61008a610138565b604051610097919061086c565b60405180910390f35b6100b36100ae366004610937565b610384565b6040516100979796959493929190610950565b6000546100d9906001600160a01b031681565b6040516001600160a01b039091168152602001610097565b6100fa60015481565b604051908152602001610097565b61011b610116366004610a6f565b61054e565b005b6001546100fa565b6100b3610133366004610937565b6106cb565b6060600060015467ffffffffffffffff811115610157576101576109cc565b6040519080825280602002602001820160405280156101bd57816020015b6040805160e0810182526000808252602080830182905292820181905260608083018290526080830181905260a083015260c082015282526000199092019101816101755790505b50905060005b60015481101561037e57600081815260026020818152604092839020835160e0810185528154815260018201546001600160a01b039081169382019390935292810154909116928201929092526003820154606082015260048201805491929160808401919061023290610b06565b80601f016020809104026020016040519081016040528092919081815260200182805461025e90610b06565b80156102ab5780601f10610280576101008083540402835291602001916102ab565b820191906000526020600020905b81548152906001019060200180831161028e57829003601f168201915b505050505081526020016005820180546102c490610b06565b80601f01602080910402602001604051908101604052809291908181526020018280546102f090610b06565b801561033d5780601f106103125761010080835404028352916020019161033d565b820191906000526020600020905b81548152906001019060200180831161032057829003601f168201915b5050505050815260200160068201548152505082828151811061036257610362610b3a565b60200260200101819052508061037790610b66565b90506101c3565b50919050565b6000818152600260208181526040808420815160e0810183528154815260018201546001600160a01b03908116948201949094529381015490921690830152600381015460608381019190915260048201805485948594859493849386938493909290916080840191906103f790610b06565b80601f016020809104026020016040519081016040528092919081815260200182805461042390610b06565b80156104705780601f1061044557610100808354040283529160200191610470565b820191906000526020600020905b81548152906001019060200180831161045357829003601f168201915b5050505050815260200160058201805461048990610b06565b80601f01602080910402602001604051908101604052809291908181526020018280546104b590610b06565b80156105025780601f106104d757610100808354040283529160200191610502565b820191906000526020600020905b8154815290600101906020018083116104e557829003601f168201915b50505091835250506006919091015460209182015281519082015160408301516060840151608085015160a086015160c090960151949f939e50919c509a509850919650945092505050565b60015442901580610581575083600260006001805461056d9190610b7f565b815260200190815260200160002060000154145b156106a9576040805160e0810182528881526001600160a01b038089166020808401918252898316848601908152606085018a8152608086018a815260a087018a905260c087018990526001805460009081526002958690529890982087518155945197850180549887166001600160a01b0319998a16179055915192840180549390951692909616919091179092559251600384015551909190600482019061062b9082610be7565b5060a082015160058201906106409082610be7565b5060c091909101516006909101556001805490600061065e83610b66565b91905055507f6ed33735d35afab24c9e528c8acb867ca8006c27e3369ba46090b6005244130c87878787878760405161069c96959493929190610ca7565b60405180910390a16106c2565b6040516347bc253b60e01b815260040160405180910390fd5b50505050505050565b60026020819052600091825260409091208054600182015492820154600383015460048401805493956001600160a01b039081169593169391929161070f90610b06565b80601f016020809104026020016040519081016040528092919081815260200182805461073b90610b06565b80156107885780601f1061075d57610100808354040283529160200191610788565b820191906000526020600020905b81548152906001019060200180831161076b57829003601f168201915b50505050509080600501805461079d90610b06565b80601f01602080910402602001604051908101604052809291908181526020018280546107c990610b06565b80156108165780601f106107eb57610100808354040283529160200191610816565b820191906000526020600020905b8154815290600101906020018083116107f957829003601f168201915b5050505050908060060154905087565b6000815180845260005b8181101561084c57602081850181015186830182015201610830565b506000602082860101526020601f19601f83011685010191505092915050565b60006020808301818452808551808352604092508286019150828160051b87010184880160005b8381101561092957888303603f19018552815180518452878101516001600160a01b03908116898601528782015116878501526060808201519085015260808082015160e082870181905291906108ec83880182610826565b9250505060a080830151868303828801526109078382610826565b60c0948501519790940196909652505094870194925090860190600101610893565b509098975050505050505050565b60006020828403121561094957600080fd5b5035919050565b8781526001600160a01b038781166020830152861660408201526060810185905260e06080820181905260009061098990830186610826565b82810360a084015261099b8186610826565b9150508260c083015298975050505050505050565b80356001600160a01b03811681146109c757600080fd5b919050565b634e487b7160e01b600052604160045260246000fd5b600082601f8301126109f357600080fd5b813567ffffffffffffffff80821115610a0e57610a0e6109cc565b604051601f8301601f19908116603f01168101908282118183101715610a3657610a366109cc565b81604052838152866020858801011115610a4f57600080fd5b836020870160208301376000602085830101528094505050505092915050565b60008060008060008060c08789031215610a8857600080fd5b86359550610a98602088016109b0565b9450610aa6604088016109b0565b935060608701359250608087013567ffffffffffffffff80821115610aca57600080fd5b610ad68a838b016109e2565b935060a0890135915080821115610aec57600080fd5b50610af989828a016109e2565b9150509295509295509295565b600181811c90821680610b1a57607f821691505b60208210810361037e57634e487b7160e01b600052602260045260246000fd5b634e487b7160e01b600052603260045260246000fd5b634e487b7160e01b600052601160045260246000fd5b600060018201610b7857610b78610b50565b5060010190565b81810381811115610b9257610b92610b50565b92915050565b601f821115610be257600081815260208120601f850160051c81016020861015610bbf5750805b601f850160051c820191505b81811015610bde57828155600101610bcb565b5050505b505050565b815167ffffffffffffffff811115610c0157610c016109cc565b610c1581610c0f8454610b06565b84610b98565b602080601f831160018114610c4a5760008415610c325750858301515b600019600386901b1c1916600185901b178555610bde565b600085815260208120601f198616915b82811015610c7957888601518255948401946001909101908401610c5a565b5085821015610c975787850151600019600388901b60f8161c191681555b5050505050600190811b01905550565b8681526001600160a01b038681166020830152851660408201526060810184905260c060808201819052600090610ce090830185610826565b82810360a0840152610cf28185610826565b999850505050505050505056fea2646970667358221220c31c1d8a9069df752989fa59dbdb9080412a40e4a8c5c8f202364ec6b625563164736f6c63430008140033a2646970667358221220c42fb693321332a049828b64c6408162a1276add69da5b106fbc314cb580e03f64736f6c63430008140033",
    "linkReferences": {}
  },
  "methodIdentifiers": {
    "createRawMaterialPackage(bytes32,uint256,address,address)": "fc7e01f3",
    "getAllPackages()": "0a421f0f",
    "getNoOfPackagesOfSupplier()": "c22470ea",
    "supplierRawMaterials(address,uint256)": "06db8324"
  },
  "id": 8
}