{
  "abi": [
    {
      "stateMutability": "payable",
      "type": "fallback"
    },
    {
      "inputs": [
        {
          "internalType": "uint256",
          "name": "numberToUpdate",
          "type": "uint256"
        }
      ],
      "name": "getDataToTransact",
      "outputs": [
        {
          "internalType": "bytes",
          "name": "",
          "type": "bytes"
        }
      ],
      "stateMutability": "pure",
      "type": "function"
    },
    {
      "inputs": [],
      "name": "readStorage",
      "outputs": [
        {
          "internalType": "uint256",
          "name": "valueAtStorageSlotZero",
          "type": "uint256"
        }
      ],
      "stateMutability": "view",
      "type": "function"
    },
    {
      "inputs": [
        {
          "internalType": "address",
          "name": "newImplementation",
          "type": "address"
        }
      ],
      "name": "setImplementation",
      "outputs": [],
      "stateMutability": "nonpayable",
      "type": "function"
    },
    {
      "stateMutability": "payable",
      "type": "receive"
    }
  ],
  "bytecode": {
    "object": "0x608060405234801561001057600080fd5b50610246806100206000396000f3fe6080604052600436106100385760003560e01c806331fadddf1461004f578063d784d42614610072578063df31349e146100b157610047565b36610047576100456100de565b005b6100456100de565b34801561005b57600080fd5b506000546040519081526020015b60405180910390f35b34801561007e57600080fd5b5061004561008d366004610179565b7f360894a13ba1a3210667c828492db98dca3e2076cc3735a920a3ca505d382bbc55565b3480156100bd57600080fd5b506100d16100cc3660046101a9565b610110565b60405161006991906101c2565b61010e6101097f360894a13ba1a3210667c828492db98dca3e2076cc3735a920a3ca505d382bbc5490565b610155565b565b60608160405160240161012591815260200190565b60408051601f198184030181529190526020810180516001600160e01b0316635524107760e01b17905292915050565b3660008037600080366000845af43d6000803e808015610174573d6000f35b3d6000fd5b60006020828403121561018b57600080fd5b81356001600160a01b03811681146101a257600080fd5b9392505050565b6000602082840312156101bb57600080fd5b5035919050565b600060208083528351808285015260005b818110156101ef578581018301518582016040015282016101d3565b506000604082860101526040601f19601f830116850101925050509291505056fea2646970667358221220fa8528b65f6721ae98b07c85b5c410aab21f9b9bfab55628e550257f1c517eaa64736f6c63430008140033",
    "linkReferences": {}
  },
  "methodIdentifiers": {
    "getDataToTransact(uint256)": "df31349e",
    "readStorage()": "31fadddf",
    "setImplementation(address)": "d784d426"
  },
  "id": 42
}