{
  "abi": [
    {
      "inputs": [],
      "stateMutability": "nonpayable",
      "type": "constructor"
    },
    {
      "anonymous": false,
      "inputs": [
        {
          "indexed": false,
          "internalType": "address",
          "name": "previousAdmin",
          "type": "address"
        },
        {
          "indexed": false,
          "internalType": "address",
          "name": "newAdmin",
          "type": "address"
        }
      ],
      "name": "AdminChanged",
      "type": "event"
    },
    {
      "anonymous": false,
      "inputs": [
        {
          "indexed": true,
          "internalType": "address",
          "name": "beacon",
          "type": "address"
        }
      ],
      "name": "BeaconUpgraded",
      "type": "event"
    },
    {
      "anonymous": false,
      "inputs": [
        {
          "indexed": false,
          "internalType": "uint8",
          "name": "version",
          "type": "uint8"
        }
      ],
      "name": "Initialized",
      "type": "event"
    },
    {
      "anonymous": false,
      "inputs": [
        {
          "indexed": true,
          "internalType": "address",
          "name": "previousOwner",
          "type": "address"
        },
        {
          "indexed": true,
          "internalType": "address",
          "name": "newOwner",
          "type": "address"
        }
      ],
      "name": "OwnershipTransferred",
      "type": "event"
    },
    {
      "anonymous": false,
      "inputs": [
        {
          "indexed": true,
          "internalType": "address",
          "name": "implementation",
          "type": "address"
        }
      ],
      "name": "Upgraded",
      "type": "event"
    },
    {
      "inputs": [],
      "name": "getValue",
      "outputs": [
        {
          "internalType": "uint256",
          "name": "",
          "type": "uint256"
        }
      ],
      "stateMutability": "view",
      "type": "function"
    },
    {
      "inputs": [],
      "name": "initialize",
      "outputs": [],
      "stateMutability": "nonpayable",
      "type": "function"
    },
    {
      "inputs": [],
      "name": "owner",
      "outputs": [
        {
          "internalType": "address",
          "name": "",
          "type": "address"
        }
      ],
      "stateMutability": "view",
      "type": "function"
    },
    {
      "inputs": [],
      "name": "proxiableUUID",
      "outputs": [
        {
          "internalType": "bytes32",
          "name": "",
          "type": "bytes32"
        }
      ],
      "stateMutability": "view",
      "type": "function"
    },
    {
      "inputs": [],
      "name": "renounceOwnership",
      "outputs": [],
      "stateMutability": "nonpayable",
      "type": "function"
    },
    {
      "inputs": [
        {
          "internalType": "uint256",
          "name": "newValue",
          "type": "uint256"
        }
      ],
      "name": "setValue",
      "outputs": [],
      "stateMutability": "nonpayable",
      "type": "function"
    },
    {
      "inputs": [
        {
          "internalType": "address",
          "name": "newOwner",
          "type": "address"
        }
      ],
      "name": "transferOwnership",
      "outputs": [],
      "stateMutability": "nonpayable",
      "type": "function"
    },
    {
      "inputs": [
        {
          "internalType": "address",
          "name": "newImplementation",
          "type": "address"
        }
      ],
      "name": "upgradeTo",
      "outputs": [],
      "stateMutability": "nonpayable",
      "type": "function"
    },
    {
      "inputs": [
        {
          "internalType": "address",
          "name": "newImplementation",
          "type": "address"
        },
        {
          "internalType": "bytes",
          "name": "data",
          "type": "bytes"
        }
      ],
      "name": "upgradeToAndCall",
      "outputs": [],
      "stateMutability": "payable",
      "type": "function"
    },
    {
      "inputs": [],
      "name": "version",
      "outputs": [
        {
          "internalType": "uint256",
          "name": "",
          "type": "uint256"
        }
      ],
      "stateMutability": "pure",
      "type": "function"
    }
  ],
  "bytecode": {
    "object": "0x60a06040523060805234801561001457600080fd5b5061001d610022565b6100e2565b600054610100900460ff161561008e5760405162461bcd60e51b815260206004820152602760248201527f496e697469616c697a61626c653a20636f6e747261637420697320696e697469604482015266616c697a696e6760c81b606482015260840160405180910390fd5b60005460ff90811610156100e0576000805460ff191660ff9081179091556040519081527f7f26b83ff96e1f2b6a682f133852f6798a09c465da95921460cefb38474024989060200160405180910390a15b565b608051610dba610119600039600081816101b4015281816101fd0152818161029c015281816102dc015261036f0152610dba6000f3fe6080604052600436106100915760003560e01c806355241077116100595780635524107714610118578063715018a6146101385780638129fc1c1461014d5780638da5cb5b14610162578063f2fde38b1461018a57600080fd5b806320965255146100965780633659cfe6146100ba5780634f1ef286146100dc57806352d1902d146100ef57806354fd4d5014610104575b600080fd5b3480156100a257600080fd5b5060c9545b6040519081526020015b60405180910390f35b3480156100c657600080fd5b506100da6100d5366004610ac2565b6101aa565b005b6100da6100ea366004610af3565b610292565b3480156100fb57600080fd5b506100a7610362565b34801561011057600080fd5b5060026100a7565b34801561012457600080fd5b506100da610133366004610bb5565b60c955565b34801561014457600080fd5b506100da610415565b34801561015957600080fd5b506100da610429565b34801561016e57600080fd5b506033546040516001600160a01b0390911681526020016100b1565b34801561019657600080fd5b506100da6101a5366004610ac2565b610541565b6001600160a01b037f00000000000000000000000000000000000000000000000000000000000000001630036101fb5760405162461bcd60e51b81526004016101f290610bce565b60405180910390fd5b7f00000000000000000000000000000000000000000000000000000000000000006001600160a01b0316610244600080516020610d3e833981519152546001600160a01b031690565b6001600160a01b03161461026a5760405162461bcd60e51b81526004016101f290610c1a565b610273816105b7565b6040805160008082526020820190925261028f918391906105bf565b50565b6001600160a01b037f00000000000000000000000000000000000000000000000000000000000000001630036102da5760405162461bcd60e51b81526004016101f290610bce565b7f00000000000000000000000000000000000000000000000000000000000000006001600160a01b0316610323600080516020610d3e833981519152546001600160a01b031690565b6001600160a01b0316146103495760405162461bcd60e51b81526004016101f290610c1a565b610352826105b7565b61035e828260016105bf565b5050565b6000306001600160a01b037f000000000000000000000000000000000000000000000000000000000000000016146104025760405162461bcd60e51b815260206004820152603860248201527f555550535570677261646561626c653a206d757374206e6f742062652063616c60448201527f6c6564207468726f7567682064656c656761746563616c6c000000000000000060648201526084016101f2565b50600080516020610d3e83398151915290565b61041d61072f565b6104276000610789565b565b600054610100900460ff16158080156104495750600054600160ff909116105b806104635750303b158015610463575060005460ff166001145b6104c65760405162461bcd60e51b815260206004820152602e60248201527f496e697469616c697a61626c653a20636f6e747261637420697320616c72656160448201526d191e481a5b9a5d1a585b1a5e995960921b60648201526084016101f2565b6000805460ff1916600117905580156104e9576000805461ff0019166101001790555b6104f16107db565b6104f961080a565b801561028f576000805461ff0019169055604051600181527f7f26b83ff96e1f2b6a682f133852f6798a09c465da95921460cefb38474024989060200160405180910390a150565b61054961072f565b6001600160a01b0381166105ae5760405162461bcd60e51b815260206004820152602660248201527f4f776e61626c653a206e6577206f776e657220697320746865207a65726f206160448201526564647265737360d01b60648201526084016101f2565b61028f81610789565b61028f61072f565b7f4910fdfa16fed3260ed0e7147f7cc6da11a60208b5b9406d12a635614ffd91435460ff16156105f7576105f283610831565b505050565b826001600160a01b03166352d1902d6040518163ffffffff1660e01b8152600401602060405180830381865afa925050508015610651575060408051601f3d908101601f1916820190925261064e91810190610c66565b60015b6106b45760405162461bcd60e51b815260206004820152602e60248201527f45524331393637557067726164653a206e657720696d706c656d656e7461746960448201526d6f6e206973206e6f74205555505360901b60648201526084016101f2565b600080516020610d3e83398151915281146107235760405162461bcd60e51b815260206004820152602960248201527f45524331393637557067726164653a20756e737570706f727465642070726f786044820152681a58589b195555525160ba1b60648201526084016101f2565b506105f28383836108cd565b6033546001600160a01b031633146104275760405162461bcd60e51b815260206004820181905260248201527f4f776e61626c653a2063616c6c6572206973206e6f7420746865206f776e657260448201526064016101f2565b603380546001600160a01b038381166001600160a01b0319831681179093556040519116919082907f8be0079c531659141344cd1fd0a4f28419497f9722a3daafe3b4186f6b6457e090600090a35050565b600054610100900460ff166108025760405162461bcd60e51b81526004016101f290610c7f565b6104276108f8565b600054610100900460ff166104275760405162461bcd60e51b81526004016101f290610c7f565b6001600160a01b0381163b61089e5760405162461bcd60e51b815260206004820152602d60248201527f455243313936373a206e657720696d706c656d656e746174696f6e206973206e60448201526c1bdd08184818dbdb9d1c9858dd609a1b60648201526084016101f2565b600080516020610d3e83398151915280546001600160a01b0319166001600160a01b0392909216919091179055565b6108d683610928565b6000825111806108e35750805b156105f2576108f28383610968565b50505050565b600054610100900460ff1661091f5760405162461bcd60e51b81526004016101f290610c7f565b61042733610789565b61093181610831565b6040516001600160a01b038216907fbc7cd75a20ee27fd9adebab32041f755214dbc6bffa90cc0225b39da2e5c2d3b90600090a250565b60606001600160a01b0383163b6109d05760405162461bcd60e51b815260206004820152602660248201527f416464726573733a2064656c65676174652063616c6c20746f206e6f6e2d636f6044820152651b9d1c9858dd60d21b60648201526084016101f2565b600080846001600160a01b0316846040516109eb9190610cee565b600060405180830381855af49150503d8060008114610a26576040519150601f19603f3d011682016040523d82523d6000602084013e610a2b565b606091505b5091509150610a538282604051806060016040528060278152602001610d5e60279139610a5c565b95945050505050565b60608315610a6b575081610a75565b610a758383610a7c565b9392505050565b815115610a8c5781518083602001fd5b8060405162461bcd60e51b81526004016101f29190610d0a565b80356001600160a01b0381168114610abd57600080fd5b919050565b600060208284031215610ad457600080fd5b610a7582610aa6565b634e487b7160e01b600052604160045260246000fd5b60008060408385031215610b0657600080fd5b610b0f83610aa6565b9150602083013567ffffffffffffffff80821115610b2c57600080fd5b818501915085601f830112610b4057600080fd5b813581811115610b5257610b52610add565b604051601f8201601f19908116603f01168101908382118183101715610b7a57610b7a610add565b81604052828152886020848701011115610b9357600080fd5b8260208601602083013760006020848301015280955050505050509250929050565b600060208284031215610bc757600080fd5b5035919050565b6020808252602c908201527f46756e6374696f6e206d7573742062652063616c6c6564207468726f7567682060408201526b19195b1959d85d1958d85b1b60a21b606082015260800190565b6020808252602c908201527f46756e6374696f6e206d7573742062652063616c6c6564207468726f7567682060408201526b6163746976652070726f787960a01b606082015260800190565b600060208284031215610c7857600080fd5b5051919050565b6020808252602b908201527f496e697469616c697a61626c653a20636f6e7472616374206973206e6f74206960408201526a6e697469616c697a696e6760a81b606082015260800190565b60005b83811015610ce5578181015183820152602001610ccd565b50506000910152565b60008251610d00818460208701610cca565b9190910192915050565b6020815260008251806020840152610d29816040850160208701610cca565b601f01601f1916919091016040019291505056fe360894a13ba1a3210667c828492db98dca3e2076cc3735a920a3ca505d382bbc416464726573733a206c6f772d6c6576656c2064656c65676174652063616c6c206661696c6564a2646970667358221220ee2aa622bbc0ac97780800b2ce81602336ccbb2800554f185514bf950c03e87b64736f6c63430008140033",
    "linkReferences": {}
  },
  "methodIdentifiers": {
    "getValue()": "20965255",
    "initialize()": "8129fc1c",
    "owner()": "8da5cb5b",
    "proxiableUUID()": "52d1902d",
    "renounceOwnership()": "715018a6",
    "setValue(uint256)": "55241077",
    "transferOwnership(address)": "f2fde38b",
    "upgradeTo(address)": "3659cfe6",
    "upgradeToAndCall(address,bytes)": "4f1ef286",
    "version()": "54fd4d50"
  },
  "id": 40
}