{
  "abi": [
    {
      "inputs": [],
      "stateMutability": "nonpayable",
      "type": "constructor"
    },
    {
      "inputs": [],
      "name": "Funding_Goal_CanntoBeLess_Than_Zero",
      "type": "error"
    },
    {
      "inputs": [],
      "name": "Name_Exists",
      "type": "error"
    },
    {
      "inputs": [],
      "name": "ProjectNam_CntBEmpty",
      "type": "error"
    },
    {
      "inputs": [],
      "name": "Project_Does_Not_Exist",
      "type": "error"
    },
    {
      "inputs": [],
      "name": "ProjectsStorage__NotOwner",
      "type": "error"
    },
    {
      "inputs": [
        {
          "internalType": "string",
          "name": "_name",
          "type": "string"
        },
        {
          "internalType": "uint256",
          "name": "_fundingGoal",
          "type": "uint256"
        }
      ],
      "name": "addProject",
      "outputs": [],
      "stateMutability": "nonpayable",
      "type": "function"
    },
    {
      "inputs": [
        {
          "internalType": "string",
          "name": "_name",
          "type": "string"
        }
      ],
      "name": "fundProject",
      "outputs": [],
      "stateMutability": "payable",
      "type": "function"
    },
    {
      "inputs": [
        {
          "internalType": "string",
          "name": "_name",
          "type": "string"
        }
      ],
      "name": "getProjectFunders",
      "outputs": [
        {
          "internalType": "address[]",
          "name": "",
          "type": "address[]"
        }
      ],
      "stateMutability": "view",
      "type": "function"
    },
    {
      "inputs": [],
      "name": "getProjectsLength",
      "outputs": [
        {
          "internalType": "uint256",
          "name": "",
          "type": "uint256"
        }
      ],
      "stateMutability": "view",
      "type": "function"
    },
    {
      "inputs": [
        {
          "internalType": "uint256",
          "name": "",
          "type": "uint256"
        }
      ],
      "name": "listofProjects",
      "outputs": [
        {
          "internalType": "uint256",
          "name": "id",
          "type": "uint256"
        },
        {
          "internalType": "string",
          "name": "name",
          "type": "string"
        },
        {
          "internalType": "uint256",
          "name": "fundingGoal",
          "type": "uint256"
        },
        {
          "internalType": "uint256",
          "name": "totalFundsRaised",
          "type": "uint256"
        }
      ],
      "stateMutability": "view",
      "type": "function"
    },
    {
      "inputs": [
        {
          "internalType": "string",
          "name": "_name",
          "type": "string"
        }
      ],
      "name": "projectBalance",
      "outputs": [
        {
          "internalType": "uint256",
          "name": "",
          "type": "uint256"
        }
      ],
      "stateMutability": "view",
      "type": "function"
    },
    {
      "inputs": [],
      "name": "projectIdCounter",
      "outputs": [
        {
          "internalType": "uint256",
          "name": "",
          "type": "uint256"
        }
      ],
      "stateMutability": "view",
      "type": "function"
    },
    {
      "inputs": [
        {
          "internalType": "string",
          "name": "projectName",
          "type": "string"
        }
      ],
      "name": "projectNameAlreadyExists",
      "outputs": [
        {
          "internalType": "bool",
          "name": "",
          "type": "bool"
        }
      ],
      "stateMutability": "view",
      "type": "function"
    },
    {
      "inputs": [
        {
          "internalType": "string",
          "name": "",
          "type": "string"
        }
      ],
      "name": "projectNameToId",
      "outputs": [
        {
          "internalType": "uint256",
          "name": "",
          "type": "uint256"
        }
      ],
      "stateMutability": "view",
      "type": "function"
    }
  ],
  "bytecode": {
    "object": "0x60a060405234801561001057600080fd5b5033608052608051610cf161003060003960006101ee0152610cf16000f3fe6080604052600436106100865760003560e01c80635929591f116100595780635929591f1461014557806392c9e219146101755780639f047f3c146101a5578063c6bdc0a2146101b8578063d5977b5e146101cd57600080fd5b806301a80a031461008b57806329ba314b146100d65780633a45b3df146100f85780634d71918414610118575b600080fd5b34801561009757600080fd5b506100c36100a636600461089e565b805160208183018101805160028252928201919093012091525481565b6040519081526020015b60405180910390f35b3480156100e257600080fd5b506100f66100f13660046108db565b6101e3565b005b34801561010457600080fd5b506100c361011336600461089e565b6103de565b34801561012457600080fd5b50610138610133366004610920565b61048a565b6040516100cd9190610992565b34801561015157600080fd5b506101656101603660046109df565b610568565b6040516100cd9493929190610a1c565b34801561018157600080fd5b5061019561019036600461089e565b61062c565b60405190151581526020016100cd565b6100f66101b336600461089e565b6106a4565b3480156101c457600080fd5b506001546100c3565b3480156101d957600080fd5b506100c360005481565b336001600160a01b037f0000000000000000000000000000000000000000000000000000000000000000161461022c5760405163078ff3e160e51b815260040160405180910390fd5b6000811161024d576040516301c9079760e11b815260040160405180910390fd5b6102568261062c565b151560010361027857604051630ee5c54560e21b815260040160405180910390fd5b604080516020808201909252600090528251908301207f3a2db9fe7908dcc36d81824d2338fc3f1aff49ac357dd8c4840527fba27a5b90016102cd576040516334895b9360e01b815260040160405180910390fd5b6000805490806102dc83610a7b565b919050555060016040518060a00160405280600054815260200184815260200183815260200160008152602001600067ffffffffffffffff811115610323576103236107fb565b60405190808252806020026020018201604052801561034c578160200160208202803683370190505b509052815460018181018455600093845260209384902083516005909302019182559282015191929091908201906103849082610b1d565b506040820151600282015560608201516003820155608082015180516103b4916004840191602090910190610781565b5050506000546002836040516103ca9190610bdd565b908152604051908190036020019020555050565b6000806002836040516103f19190610bdd565b9081526020016040518091039020549050806000036104505760405162461bcd60e51b8152602060048201526016602482015275141c9bda9958dd08191bd95cc81b9bdd08195e1a5cdd60521b60448201526064015b60405180910390fd5b6000600161045e8184610bf9565b8154811061046e5761046e610c0c565b6000918252602090912060036005909202010154949350505050565b60606000600284846040516104a0929190610c22565b9081526020016040518091039020549050806000146104d257604051631a5ebf2360e21b815260040160405180910390fd5b600060016104e08184610bf9565b815481106104f0576104f0610c0c565b906000526020600020906005020190508060040180548060200260200160405190810160405280929190818152602001828054801561055857602002820191906000526020600020905b81546001600160a01b0316815260019091019060200180831161053a575b5050505050925050505b92915050565b6001818154811061057857600080fd5b6000918252602090912060059091020180546001820180549193509061059d90610a94565b80601f01602080910402602001604051908101604052809291908181526020018280546105c990610a94565b80156106165780601f106105eb57610100808354040283529160200191610616565b820191906000526020600020905b8154815290600101906020018083116105f957829003601f168201915b5050505050908060020154908060030154905084565b6000805b60015481101561069b5782805190602001206001828154811061065557610655610c0c565b90600052602060002090600502016001016040516106739190610c32565b6040518091039020036106895750600192915050565b8061069381610a7b565b915050610630565b50600092915050565b60006002826040516106b69190610bdd565b9081526020016040518091039020549050806000036107105760405162461bcd60e51b8152602060048201526016602482015275141c9bda9958dd08191bd95cc81b9bdd08195e1a5cdd60521b6044820152606401610447565b6000600161071e8184610bf9565b8154811061072e5761072e610c0c565b90600052602060002090600502019050348160030160008282546107529190610ca8565b90915550506004018054600181018255600091825260209091200180546001600160a01b031916331790555050565b8280548282559060005260206000209081019282156107d6579160200282015b828111156107d657825182546001600160a01b0319166001600160a01b039091161782556020909201916001909101906107a1565b506107e29291506107e6565b5090565b5b808211156107e257600081556001016107e7565b634e487b7160e01b600052604160045260246000fd5b600082601f83011261082257600080fd5b813567ffffffffffffffff8082111561083d5761083d6107fb565b604051601f8301601f19908116603f01168101908282118183101715610865576108656107fb565b8160405283815286602085880101111561087e57600080fd5b836020870160208301376000602085830101528094505050505092915050565b6000602082840312156108b057600080fd5b813567ffffffffffffffff8111156108c757600080fd5b6108d384828501610811565b949350505050565b600080604083850312156108ee57600080fd5b823567ffffffffffffffff81111561090557600080fd5b61091185828601610811565b95602094909401359450505050565b6000806020838503121561093357600080fd5b823567ffffffffffffffff8082111561094b57600080fd5b818501915085601f83011261095f57600080fd5b81358181111561096e57600080fd5b86602082850101111561098057600080fd5b60209290920196919550909350505050565b6020808252825182820181905260009190848201906040850190845b818110156109d35783516001600160a01b0316835292840192918401916001016109ae565b50909695505050505050565b6000602082840312156109f157600080fd5b5035919050565b60005b83811015610a135781810151838201526020016109fb565b50506000910152565b8481526080602082015260008451806080840152610a418160a08501602089016109f8565b604083019490945250606081019190915260a0601f909201601f1916010192915050565b634e487b7160e01b600052601160045260246000fd5b600060018201610a8d57610a8d610a65565b5060010190565b600181811c90821680610aa857607f821691505b602082108103610ac857634e487b7160e01b600052602260045260246000fd5b50919050565b601f821115610b1857600081815260208120601f850160051c81016020861015610af55750805b601f850160051c820191505b81811015610b1457828155600101610b01565b5050505b505050565b815167ffffffffffffffff811115610b3757610b376107fb565b610b4b81610b458454610a94565b84610ace565b602080601f831160018114610b805760008415610b685750858301515b600019600386901b1c1916600185901b178555610b14565b600085815260208120601f198616915b82811015610baf57888601518255948401946001909101908401610b90565b5085821015610bcd5787850151600019600388901b60f8161c191681555b5050505050600190811b01905550565b60008251610bef8184602087016109f8565b9190910192915050565b8181038181111561056257610562610a65565b634e487b7160e01b600052603260045260246000fd5b8183823760009101908152919050565b6000808354610c4081610a94565b60018281168015610c585760018114610c6d57610c9c565b60ff1984168752821515830287019450610c9c565b8760005260208060002060005b85811015610c935781548a820152908401908201610c7a565b50505082870194505b50929695505050505050565b8082018082111561056257610562610a6556fea2646970667358221220db0fe184988504e6472440d08d138010f532f1442e126b0afafa64027bfe489164736f6c63430008140033",
    "linkReferences": {}
  },
  "methodIdentifiers": {
    "addProject(string,uint256)": "29ba314b",
    "fundProject(string)": "9f047f3c",
    "getProjectFunders(string)": "4d719184",
    "getProjectsLength()": "c6bdc0a2",
    "listofProjects(uint256)": "5929591f",
    "projectBalance(string)": "3a45b3df",
    "projectIdCounter()": "d5977b5e",
    "projectNameAlreadyExists(string)": "92c9e219",
    "projectNameToId(string)": "01a80a03"
  },
  "id": 19
}