{
  "abi": [
    {
      "inputs": [
        {
          "internalType": "address",
          "name": "priceFeed",
          "type": "address"
        },
        {
          "internalType": "address",
          "name": "raffleMOODNFTAddress",
          "type": "address"
        }
      ],
      "stateMutability": "nonpayable",
      "type": "constructor"
    },
    {
      "inputs": [],
      "name": "Funding_Goal_CanntoBeLess_Than_Zero",
      "type": "error"
    },
    {
      "inputs": [],
      "name": "Insufficient_Eth",
      "type": "error"
    },
    {
      "inputs": [],
      "name": "Name_Exists",
      "type": "error"
    },
    {
      "inputs": [],
      "name": "ProjectNam_CntBEmpty",
      "type": "error"
    },
    {
      "inputs": [],
      "name": "Project_Does_Not_Exist",
      "type": "error"
    },
    {
      "inputs": [],
      "name": "Project_Does_Not_Exist",
      "type": "error"
    },
    {
      "inputs": [],
      "name": "ProjectsStorage__NotOwner",
      "type": "error"
    },
    {
      "inputs": [],
      "name": "MINIMUM_USD",
      "outputs": [
        {
          "internalType": "uint256",
          "name": "",
          "type": "uint256"
        }
      ],
      "stateMutability": "view",
      "type": "function"
    },
    {
      "inputs": [
        {
          "internalType": "string",
          "name": "_name",
          "type": "string"
        },
        {
          "internalType": "uint256",
          "name": "_fundingGoal",
          "type": "uint256"
        }
      ],
      "name": "addProject",
      "outputs": [],
      "stateMutability": "nonpayable",
      "type": "function"
    },
    {
      "inputs": [
        {
          "internalType": "string",
          "name": "_name",
          "type": "string"
        },
        {
          "internalType": "uint256",
          "name": "_amount",
          "type": "uint256"
        }
      ],
      "name": "fund",
      "outputs": [],
      "stateMutability": "payable",
      "type": "function"
    },
    {
      "inputs": [],
      "name": "getPriceFeed",
      "outputs": [
        {
          "internalType": "contract AggregatorV3Interface",
          "name": "",
          "type": "address"
        }
      ],
      "stateMutability": "view",
      "type": "function"
    },
    {
      "inputs": [
        {
          "internalType": "string",
          "name": "_name",
          "type": "string"
        }
      ],
      "name": "getProjectBalance",
      "outputs": [
        {
          "internalType": "uint256",
          "name": "",
          "type": "uint256"
        }
      ],
      "stateMutability": "view",
      "type": "function"
    },
    {
      "inputs": [
        {
          "internalType": "string",
          "name": "_name",
          "type": "string"
        }
      ],
      "name": "getProjectFunders",
      "outputs": [
        {
          "internalType": "address[]",
          "name": "",
          "type": "address[]"
        }
      ],
      "stateMutability": "view",
      "type": "function"
    },
    {
      "inputs": [],
      "name": "getProjectsLength",
      "outputs": [
        {
          "internalType": "uint256",
          "name": "",
          "type": "uint256"
        }
      ],
      "stateMutability": "view",
      "type": "function"
    },
    {
      "inputs": [
        {
          "internalType": "uint256",
          "name": "",
          "type": "uint256"
        }
      ],
      "name": "listofProjects",
      "outputs": [
        {
          "internalType": "uint256",
          "name": "id",
          "type": "uint256"
        },
        {
          "internalType": "string",
          "name": "name",
          "type": "string"
        },
        {
          "internalType": "uint256",
          "name": "fundingGoal",
          "type": "uint256"
        },
        {
          "internalType": "uint256",
          "name": "totalFundsRaised",
          "type": "uint256"
        }
      ],
      "stateMutability": "view",
      "type": "function"
    },
    {
      "inputs": [],
      "name": "projectIdCounter",
      "outputs": [
        {
          "internalType": "uint256",
          "name": "",
          "type": "uint256"
        }
      ],
      "stateMutability": "view",
      "type": "function"
    },
    {
      "inputs": [
        {
          "internalType": "string",
          "name": "projectName",
          "type": "string"
        }
      ],
      "name": "projectNameAlreadyExists",
      "outputs": [
        {
          "internalType": "bool",
          "name": "",
          "type": "bool"
        }
      ],
      "stateMutability": "view",
      "type": "function"
    },
    {
      "inputs": [
        {
          "internalType": "string",
          "name": "",
          "type": "string"
        }
      ],
      "name": "projectNameToId",
      "outputs": [
        {
          "internalType": "uint256",
          "name": "",
          "type": "uint256"
        }
      ],
      "stateMutability": "view",
      "type": "function"
    }
  ],
  "bytecode": {
    "object": "0x60a060405234801561001057600080fd5b50604051610ff7380380610ff783398101604081905261002f91610080565b33608052600380546001600160a01b039384166001600160a01b031991821617909155600480549290931691161790556100b3565b80516001600160a01b038116811461007b57600080fd5b919050565b6000806040838503121561009357600080fd5b61009c83610064565b91506100aa60208401610064565b90509250929050565b608051610f296100ce60003960006102480152610f296000f3fe60806040526004361061009c5760003560e01c80636b69a592116100645780636b69a5921461018b57806392c9e219146101a75780639963ae8c146101d75780639e87a5cd146101ea578063c6bdc0a214610212578063d5977b5e1461022757600080fd5b806301a80a03146100a157806329ba314b146100ec5780634d7191841461010e5780635929591f1461013b57806360fd73911461016b575b600080fd5b3480156100ad57600080fd5b506100d96100bc3660046109fe565b805160208183018101805160028252928201919093012091525481565b6040519081526020015b60405180910390f35b3480156100f857600080fd5b5061010c610107366004610a3b565b61023d565b005b34801561011a57600080fd5b5061012e610129366004610a80565b610438565b6040516100e39190610af2565b34801561014757600080fd5b5061015b610156366004610b3f565b610516565b6040516100e39493929190610b7c565b34801561017757600080fd5b506100d96101863660046109fe565b6105da565b34801561019757600080fd5b506100d9674563918244f4000081565b3480156101b357600080fd5b506101c76101c23660046109fe565b610659565b60405190151581526020016100e3565b61010c6101e5366004610a3b565b6106d1565b3480156101f657600080fd5b506003546040516001600160a01b0390911681526020016100e3565b34801561021e57600080fd5b506001546100d9565b34801561023357600080fd5b506100d960005481565b336001600160a01b037f000000000000000000000000000000000000000000000000000000000000000016146102865760405163078ff3e160e51b815260040160405180910390fd5b600081116102a7576040516301c9079760e11b815260040160405180910390fd5b6102b082610659565b15156001036102d257604051630ee5c54560e21b815260040160405180910390fd5b604080516020808201909252600090528251908301207f3a2db9fe7908dcc36d81824d2338fc3f1aff49ac357dd8c4840527fba27a5b9001610327576040516334895b9360e01b815260040160405180910390fd5b60008054908061033683610bdb565b919050555060016040518060a00160405280600054815260200184815260200183815260200160008152602001600067ffffffffffffffff81111561037d5761037d61095b565b6040519080825280602002602001820160405280156103a6578160200160208202803683370190505b509052815460018181018455600093845260209384902083516005909302019182559282015191929091908201906103de9082610c7d565b5060408201516002820155606082015160038201556080820151805161040e9160048401916020909101906108e1565b5050506000546002836040516104249190610d3d565b908152604051908190036020019020555050565b606060006002848460405161044e929190610d59565b90815260200160405180910390205490508060001461048057604051631a5ebf2360e21b815260040160405180910390fd5b6000600161048e8184610d69565b8154811061049e5761049e610d7c565b906000526020600020906005020190508060040180548060200260200160405190810160405280929190818152602001828054801561050657602002820191906000526020600020905b81546001600160a01b031681526001909101906020018083116104e8575b5050505050925050505b92915050565b6001818154811061052657600080fd5b6000918252602090912060059091020180546001820180549193509061054b90610bf4565b80601f016020809104026020016040519081016040528092919081815260200182805461057790610bf4565b80156105c45780601f10610599576101008083540402835291602001916105c4565b820191906000526020600020905b8154815290600101906020018083116105a757829003601f168201915b5050505050908060020154908060030154905084565b6000806002836040516105ed9190610d3d565b90815260200160405180910390205490508060000361061f57604051631a5ebf2360e21b815260040160405180910390fd5b6000600161062d8184610d69565b8154811061063d5761063d610d7c565b6000918252602090912060036005909202010154949350505050565b6000805b6001548110156106c85782805190602001206001828154811061068257610682610d7c565b90600052602060002090600502016001016040516106a09190610d92565b6040518091039020036106b65750600192915050565b806106c081610bdb565b91505061065d565b50600092915050565b600354674563918244f40000906106f29034906001600160a01b0316610828565b101561071157604051633e1fcc8f60e21b815260040160405180910390fd5b60006002836040516107239190610d3d565b90815260200160405180910390205490508060000361075557604051631a5ebf2360e21b815260040160405180910390fd5b600060016107638184610d69565b8154811061077357610773610d7c565b90600052602060002090600502019050828160030160008282546107979190610e08565b909155505060048181018054600181018255600091825260209091200180546001600160a01b03191633908117909155815460405163e9c2e14b60e01b8152928301919091526001600160a01b03169063e9c2e14b90602401600060405180830381600087803b15801561080a57600080fd5b505af115801561081e573d6000803e3d6000fd5b5050505050505050565b6000806108348361085e565b90506000670de0b6b3a764000061084b8684610e1b565b6108559190610e32565b95945050505050565b600080826001600160a01b031663feaf968c6040518163ffffffff1660e01b815260040160a060405180830381865afa15801561089f573d6000803e3d6000fd5b505050506040513d601f19601f820116820180604052508101906108c39190610e73565b505050915050806402540be4006108da9190610ec3565b9392505050565b828054828255906000526020600020908101928215610936579160200282015b8281111561093657825182546001600160a01b0319166001600160a01b03909116178255602090920191600190910190610901565b50610942929150610946565b5090565b5b808211156109425760008155600101610947565b634e487b7160e01b600052604160045260246000fd5b600082601f83011261098257600080fd5b813567ffffffffffffffff8082111561099d5761099d61095b565b604051601f8301601f19908116603f011681019082821181831017156109c5576109c561095b565b816040528381528660208588010111156109de57600080fd5b836020870160208301376000602085830101528094505050505092915050565b600060208284031215610a1057600080fd5b813567ffffffffffffffff811115610a2757600080fd5b610a3384828501610971565b949350505050565b60008060408385031215610a4e57600080fd5b823567ffffffffffffffff811115610a6557600080fd5b610a7185828601610971565b95602094909401359450505050565b60008060208385031215610a9357600080fd5b823567ffffffffffffffff80821115610aab57600080fd5b818501915085601f830112610abf57600080fd5b813581811115610ace57600080fd5b866020828501011115610ae057600080fd5b60209290920196919550909350505050565b6020808252825182820181905260009190848201906040850190845b81811015610b335783516001600160a01b031683529284019291840191600101610b0e565b50909695505050505050565b600060208284031215610b5157600080fd5b5035919050565b60005b83811015610b73578181015183820152602001610b5b565b50506000910152565b8481526080602082015260008451806080840152610ba18160a0850160208901610b58565b604083019490945250606081019190915260a0601f909201601f1916010192915050565b634e487b7160e01b600052601160045260246000fd5b600060018201610bed57610bed610bc5565b5060010190565b600181811c90821680610c0857607f821691505b602082108103610c2857634e487b7160e01b600052602260045260246000fd5b50919050565b601f821115610c7857600081815260208120601f850160051c81016020861015610c555750805b601f850160051c820191505b81811015610c7457828155600101610c61565b5050505b505050565b815167ffffffffffffffff811115610c9757610c9761095b565b610cab81610ca58454610bf4565b84610c2e565b602080601f831160018114610ce05760008415610cc85750858301515b600019600386901b1c1916600185901b178555610c74565b600085815260208120601f198616915b82811015610d0f57888601518255948401946001909101908401610cf0565b5085821015610d2d5787850151600019600388901b60f8161c191681555b5050505050600190811b01905550565b60008251610d4f818460208701610b58565b9190910192915050565b8183823760009101908152919050565b8181038181111561051057610510610bc5565b634e487b7160e01b600052603260045260246000fd5b6000808354610da081610bf4565b60018281168015610db85760018114610dcd57610dfc565b60ff1984168752821515830287019450610dfc565b8760005260208060002060005b85811015610df35781548a820152908401908201610dda565b50505082870194505b50929695505050505050565b8082018082111561051057610510610bc5565b808202811582820484141761051057610510610bc5565b600082610e4f57634e487b7160e01b600052601260045260246000fd5b500490565b805169ffffffffffffffffffff81168114610e6e57600080fd5b919050565b600080600080600060a08688031215610e8b57600080fd5b610e9486610e54565b9450602086015193506040860151925060608601519150610eb760808701610e54565b90509295509295909350565b80820260008212600160ff1b84141615610edf57610edf610bc5565b818105831482151761051057610510610bc556fea2646970667358221220bbb5dfc4774bd708f072fccb71dec681dce53551df8502d1f3be62e1b5f65b8564736f6c63430008140033",
    "linkReferences": {}
  },
  "methodIdentifiers": {
    "MINIMUM_USD()": "6b69a592",
    "addProject(string,uint256)": "29ba314b",
    "fund(string,uint256)": "9963ae8c",
    "getPriceFeed()": "9e87a5cd",
    "getProjectBalance(string)": "60fd7391",
    "getProjectFunders(string)": "4d719184",
    "getProjectsLength()": "c6bdc0a2",
    "listofProjects(uint256)": "5929591f",
    "projectIdCounter()": "d5977b5e",
    "projectNameAlreadyExists(string)": "92c9e219",
    "projectNameToId(string)": "01a80a03"
  },
  "id": 34
}