{
  "abi": [
    {
      "inputs": [
        {
          "internalType": "address",
          "name": "priceFeed",
          "type": "address"
        }
      ],
      "stateMutability": "nonpayable",
      "type": "constructor"
    },
    {
      "inputs": [],
      "name": "Funding_Goal_CanntoBeLess_Than_Zero",
      "type": "error"
    },
    {
      "inputs": [],
      "name": "Name_Exists",
      "type": "error"
    },
    {
      "inputs": [],
      "name": "ProjectNam_CntBEmpty",
      "type": "error"
    },
    {
      "inputs": [],
      "name": "Project_Does_Not_Exist",
      "type": "error"
    },
    {
      "inputs": [],
      "name": "Project_Does_Not_Exist",
      "type": "error"
    },
    {
      "inputs": [],
      "name": "ProjectsStorage__NotOwner",
      "type": "error"
    },
    {
      "inputs": [
        {
          "internalType": "string",
          "name": "_name",
          "type": "string"
        },
        {
          "internalType": "uint256",
          "name": "_fundingGoal",
          "type": "uint256"
        }
      ],
      "name": "addProject",
      "outputs": [],
      "stateMutability": "nonpayable",
      "type": "function"
    },
    {
      "inputs": [
        {
          "internalType": "string",
          "name": "_name",
          "type": "string"
        }
      ],
      "name": "fund",
      "outputs": [],
      "stateMutability": "payable",
      "type": "function"
    },
    {
      "inputs": [],
      "name": "getPriceFeed",
      "outputs": [
        {
          "internalType": "contract AggregatorV3Interface",
          "name": "",
          "type": "address"
        }
      ],
      "stateMutability": "view",
      "type": "function"
    },
    {
      "inputs": [
        {
          "internalType": "string",
          "name": "_name",
          "type": "string"
        }
      ],
      "name": "getProjectFunders",
      "outputs": [
        {
          "internalType": "address[]",
          "name": "",
          "type": "address[]"
        }
      ],
      "stateMutability": "view",
      "type": "function"
    },
    {
      "inputs": [],
      "name": "getProjectsLength",
      "outputs": [
        {
          "internalType": "uint256",
          "name": "",
          "type": "uint256"
        }
      ],
      "stateMutability": "view",
      "type": "function"
    },
    {
      "inputs": [
        {
          "internalType": "uint256",
          "name": "",
          "type": "uint256"
        }
      ],
      "name": "listofProjects",
      "outputs": [
        {
          "internalType": "uint256",
          "name": "id",
          "type": "uint256"
        },
        {
          "internalType": "string",
          "name": "name",
          "type": "string"
        },
        {
          "internalType": "uint256",
          "name": "fundingGoal",
          "type": "uint256"
        },
        {
          "internalType": "uint256",
          "name": "totalFundsRaised",
          "type": "uint256"
        }
      ],
      "stateMutability": "view",
      "type": "function"
    },
    {
      "inputs": [
        {
          "internalType": "string",
          "name": "_name",
          "type": "string"
        }
      ],
      "name": "projectBalance",
      "outputs": [
        {
          "internalType": "uint256",
          "name": "",
          "type": "uint256"
        }
      ],
      "stateMutability": "view",
      "type": "function"
    },
    {
      "inputs": [],
      "name": "projectIdCounter",
      "outputs": [
        {
          "internalType": "uint256",
          "name": "",
          "type": "uint256"
        }
      ],
      "stateMutability": "view",
      "type": "function"
    },
    {
      "inputs": [
        {
          "internalType": "string",
          "name": "projectName",
          "type": "string"
        }
      ],
      "name": "projectNameAlreadyExists",
      "outputs": [
        {
          "internalType": "bool",
          "name": "",
          "type": "bool"
        }
      ],
      "stateMutability": "view",
      "type": "function"
    },
    {
      "inputs": [
        {
          "internalType": "string",
          "name": "",
          "type": "string"
        }
      ],
      "name": "projectNameToId",
      "outputs": [
        {
          "internalType": "uint256",
          "name": "",
          "type": "uint256"
        }
      ],
      "stateMutability": "view",
      "type": "function"
    }
  ],
  "bytecode": {
    "object": "0x60a060405234801561001057600080fd5b50604051610d72380380610d7283398101604081905261002f91610058565b33608052600380546001600160a01b0319166001600160a01b0392909216919091179055610088565b60006020828403121561006a57600080fd5b81516001600160a01b038116811461008157600080fd5b9392505050565b608051610ccf6100a360003960006102210152610ccf6000f3fe6080604052600436106100915760003560e01c806373451f651161005957806373451f651461018057806392c9e219146101935780639e87a5cd146101c3578063c6bdc0a2146101eb578063d5977b5e1461020057600080fd5b806301a80a031461009657806329ba314b146100e15780633a45b3df146101035780634d719184146101235780635929591f14610150575b600080fd5b3480156100a257600080fd5b506100ce6100b136600461087c565b805160208183018101805160028252928201919093012091525481565b6040519081526020015b60405180910390f35b3480156100ed57600080fd5b506101016100fc3660046108b9565b610216565b005b34801561010f57600080fd5b506100ce61011e36600461087c565b610411565b34801561012f57600080fd5b5061014361013e3660046108fe565b610490565b6040516100d89190610970565b34801561015c57600080fd5b5061017061016b3660046109bd565b61056e565b6040516100d894939291906109fa565b61010161018e36600461087c565b610632565b34801561019f57600080fd5b506101b36101ae36600461087c565b6106e7565b60405190151581526020016100d8565b3480156101cf57600080fd5b506003546040516001600160a01b0390911681526020016100d8565b3480156101f757600080fd5b506001546100ce565b34801561020c57600080fd5b506100ce60005481565b336001600160a01b037f0000000000000000000000000000000000000000000000000000000000000000161461025f5760405163078ff3e160e51b815260040160405180910390fd5b60008111610280576040516301c9079760e11b815260040160405180910390fd5b610289826106e7565b15156001036102ab57604051630ee5c54560e21b815260040160405180910390fd5b604080516020808201909252600090528251908301207f3a2db9fe7908dcc36d81824d2338fc3f1aff49ac357dd8c4840527fba27a5b9001610300576040516334895b9360e01b815260040160405180910390fd5b60008054908061030f83610a59565b919050555060016040518060a00160405280600054815260200184815260200183815260200160008152602001600067ffffffffffffffff811115610356576103566107d9565b60405190808252806020026020018201604052801561037f578160200160208202803683370190505b509052815460018181018455600093845260209384902083516005909302019182559282015191929091908201906103b79082610afb565b506040820151600282015560608201516003820155608082015180516103e791600484019160209091019061075f565b5050506000546002836040516103fd9190610bbb565b908152604051908190036020019020555050565b6000806002836040516104249190610bbb565b90815260200160405180910390205490508060000361045657604051631a5ebf2360e21b815260040160405180910390fd5b600060016104648184610bd7565b8154811061047457610474610bea565b6000918252602090912060036005909202010154949350505050565b60606000600284846040516104a6929190610c00565b9081526020016040518091039020549050806000146104d857604051631a5ebf2360e21b815260040160405180910390fd5b600060016104e68184610bd7565b815481106104f6576104f6610bea565b906000526020600020906005020190508060040180548060200260200160405190810160405280929190818152602001828054801561055e57602002820191906000526020600020905b81546001600160a01b03168152600190910190602001808311610540575b5050505050925050505b92915050565b6001818154811061057e57600080fd5b600091825260209091206005909102018054600182018054919350906105a390610a72565b80601f01602080910402602001604051908101604052809291908181526020018280546105cf90610a72565b801561061c5780601f106105f15761010080835404028352916020019161061c565b820191906000526020600020905b8154815290600101906020018083116105ff57829003601f168201915b5050505050908060020154908060030154905084565b60006002826040516106449190610bbb565b90815260200160405180910390205490508060000361067657604051631a5ebf2360e21b815260040160405180910390fd5b600060016106848184610bd7565b8154811061069457610694610bea565b90600052602060002090600502019050348160030160008282546106b89190610c10565b90915550506004018054600181018255600091825260209091200180546001600160a01b031916331790555050565b6000805b6001548110156107565782805190602001206001828154811061071057610710610bea565b906000526020600020906005020160010160405161072e9190610c23565b6040518091039020036107445750600192915050565b8061074e81610a59565b9150506106eb565b50600092915050565b8280548282559060005260206000209081019282156107b4579160200282015b828111156107b457825182546001600160a01b0319166001600160a01b0390911617825560209092019160019091019061077f565b506107c09291506107c4565b5090565b5b808211156107c057600081556001016107c5565b634e487b7160e01b600052604160045260246000fd5b600082601f83011261080057600080fd5b813567ffffffffffffffff8082111561081b5761081b6107d9565b604051601f8301601f19908116603f01168101908282118183101715610843576108436107d9565b8160405283815286602085880101111561085c57600080fd5b836020870160208301376000602085830101528094505050505092915050565b60006020828403121561088e57600080fd5b813567ffffffffffffffff8111156108a557600080fd5b6108b1848285016107ef565b949350505050565b600080604083850312156108cc57600080fd5b823567ffffffffffffffff8111156108e357600080fd5b6108ef858286016107ef565b95602094909401359450505050565b6000806020838503121561091157600080fd5b823567ffffffffffffffff8082111561092957600080fd5b818501915085601f83011261093d57600080fd5b81358181111561094c57600080fd5b86602082850101111561095e57600080fd5b60209290920196919550909350505050565b6020808252825182820181905260009190848201906040850190845b818110156109b15783516001600160a01b03168352928401929184019160010161098c565b50909695505050505050565b6000602082840312156109cf57600080fd5b5035919050565b60005b838110156109f15781810151838201526020016109d9565b50506000910152565b8481526080602082015260008451806080840152610a1f8160a08501602089016109d6565b604083019490945250606081019190915260a0601f909201601f1916010192915050565b634e487b7160e01b600052601160045260246000fd5b600060018201610a6b57610a6b610a43565b5060010190565b600181811c90821680610a8657607f821691505b602082108103610aa657634e487b7160e01b600052602260045260246000fd5b50919050565b601f821115610af657600081815260208120601f850160051c81016020861015610ad35750805b601f850160051c820191505b81811015610af257828155600101610adf565b5050505b505050565b815167ffffffffffffffff811115610b1557610b156107d9565b610b2981610b238454610a72565b84610aac565b602080601f831160018114610b5e5760008415610b465750858301515b600019600386901b1c1916600185901b178555610af2565b600085815260208120601f198616915b82811015610b8d57888601518255948401946001909101908401610b6e565b5085821015610bab5787850151600019600388901b60f8161c191681555b5050505050600190811b01905550565b60008251610bcd8184602087016109d6565b9190910192915050565b8181038181111561056857610568610a43565b634e487b7160e01b600052603260045260246000fd5b8183823760009101908152919050565b8082018082111561056857610568610a43565b6000808354610c3181610a72565b60018281168015610c495760018114610c5e57610c8d565b60ff1984168752821515830287019450610c8d565b8760005260208060002060005b85811015610c845781548a820152908401908201610c6b565b50505082870194505b5092969550505050505056fea2646970667358221220e229320c4816fee66e6c07e2bc375a0ec5c7cf427ac4cf8239f47cb26fc58bd364736f6c63430008140033",
    "linkReferences": {}
  },
  "methodIdentifiers": {
    "addProject(string,uint256)": "29ba314b",
    "fund(string)": "73451f65",
    "getPriceFeed()": "9e87a5cd",
    "getProjectFunders(string)": "4d719184",
    "getProjectsLength()": "c6bdc0a2",
    "listofProjects(uint256)": "5929591f",
    "projectBalance(string)": "3a45b3df",
    "projectIdCounter()": "d5977b5e",
    "projectNameAlreadyExists(string)": "92c9e219",
    "projectNameToId(string)": "01a80a03"
  },
  "id": 21
}