{
  "abi": [
    {
      "inputs": [
        {
          "internalType": "address",
          "name": "priceFeed",
          "type": "address"
        },
        {
          "internalType": "address",
          "name": "raffleMOODNFTAddress",
          "type": "address"
        }
      ],
      "stateMutability": "nonpayable",
      "type": "constructor"
    },
    {
      "inputs": [],
      "name": "Funding_Goal_CanntoBeLess_Than_Zero",
      "type": "error"
    },
    {
      "inputs": [],
      "name": "Insufficient_Eth",
      "type": "error"
    },
    {
      "inputs": [],
      "name": "Name_Exists",
      "type": "error"
    },
    {
      "inputs": [],
      "name": "ProjectNam_CntBEmpty",
      "type": "error"
    },
    {
      "inputs": [],
      "name": "Project_Does_Not_Exist",
      "type": "error"
    },
    {
      "inputs": [],
      "name": "Project_Does_Not_Exist",
      "type": "error"
    },
    {
      "inputs": [],
      "name": "ProjectsStorage__NotOwner",
      "type": "error"
    },
    {
      "inputs": [],
      "name": "MINIMUM_USD",
      "outputs": [
        {
          "internalType": "uint256",
          "name": "",
          "type": "uint256"
        }
      ],
      "stateMutability": "view",
      "type": "function"
    },
    {
      "inputs": [
        {
          "internalType": "string",
          "name": "_name",
          "type": "string"
        },
        {
          "internalType": "uint256",
          "name": "_fundingGoal",
          "type": "uint256"
        }
      ],
      "name": "addProject",
      "outputs": [],
      "stateMutability": "nonpayable",
      "type": "function"
    },
    {
      "inputs": [
        {
          "internalType": "string",
          "name": "_name",
          "type": "string"
        }
      ],
      "name": "checkGoalReached",
      "outputs": [
        {
          "internalType": "bool",
          "name": "",
          "type": "bool"
        }
      ],
      "stateMutability": "view",
      "type": "function"
    },
    {
      "inputs": [
        {
          "internalType": "string",
          "name": "_name",
          "type": "string"
        },
        {
          "internalType": "uint256",
          "name": "_amount",
          "type": "uint256"
        }
      ],
      "name": "fund",
      "outputs": [],
      "stateMutability": "payable",
      "type": "function"
    },
    {
      "inputs": [],
      "name": "getPriceFeed",
      "outputs": [
        {
          "internalType": "contract AggregatorV3Interface",
          "name": "",
          "type": "address"
        }
      ],
      "stateMutability": "view",
      "type": "function"
    },
    {
      "inputs": [
        {
          "internalType": "uint256",
          "name": "projectId",
          "type": "uint256"
        }
      ],
      "name": "getProject",
      "outputs": [
        {
          "components": [
            {
              "internalType": "uint256",
              "name": "id",
              "type": "uint256"
            },
            {
              "internalType": "string",
              "name": "name",
              "type": "string"
            },
            {
              "internalType": "uint256",
              "name": "fundingGoal",
              "type": "uint256"
            },
            {
              "internalType": "uint256",
              "name": "totalFundsRaised",
              "type": "uint256"
            },
            {
              "internalType": "address[]",
              "name": "funders",
              "type": "address[]"
            },
            {
              "internalType": "address",
              "name": "projectAddress",
              "type": "address"
            }
          ],
          "internalType": "struct ProjectsStorage.Project",
          "name": "",
          "type": "tuple"
        }
      ],
      "stateMutability": "view",
      "type": "function"
    },
    {
      "inputs": [
        {
          "internalType": "string",
          "name": "_name",
          "type": "string"
        }
      ],
      "name": "getProjectBalance",
      "outputs": [
        {
          "internalType": "uint256",
          "name": "",
          "type": "uint256"
        }
      ],
      "stateMutability": "view",
      "type": "function"
    },
    {
      "inputs": [
        {
          "internalType": "string",
          "name": "_name",
          "type": "string"
        }
      ],
      "name": "getProjectFunders",
      "outputs": [
        {
          "internalType": "address[]",
          "name": "",
          "type": "address[]"
        }
      ],
      "stateMutability": "view",
      "type": "function"
    },
    {
      "inputs": [
        {
          "internalType": "string",
          "name": "projectName",
          "type": "string"
        }
      ],
      "name": "getProjectId",
      "outputs": [
        {
          "internalType": "uint256",
          "name": "",
          "type": "uint256"
        }
      ],
      "stateMutability": "view",
      "type": "function"
    },
    {
      "inputs": [],
      "name": "getProjectsLength",
      "outputs": [
        {
          "internalType": "uint256",
          "name": "",
          "type": "uint256"
        }
      ],
      "stateMutability": "view",
      "type": "function"
    },
    {
      "inputs": [],
      "name": "getUniqueAddress",
      "outputs": [
        {
          "internalType": "address",
          "name": "",
          "type": "address"
        }
      ],
      "stateMutability": "view",
      "type": "function"
    },
    {
      "inputs": [
        {
          "internalType": "uint256",
          "name": "",
          "type": "uint256"
        }
      ],
      "name": "listofProjects",
      "outputs": [
        {
          "internalType": "uint256",
          "name": "id",
          "type": "uint256"
        },
        {
          "internalType": "string",
          "name": "name",
          "type": "string"
        },
        {
          "internalType": "uint256",
          "name": "fundingGoal",
          "type": "uint256"
        },
        {
          "internalType": "uint256",
          "name": "totalFundsRaised",
          "type": "uint256"
        },
        {
          "internalType": "address",
          "name": "projectAddress",
          "type": "address"
        }
      ],
      "stateMutability": "view",
      "type": "function"
    },
    {
      "inputs": [],
      "name": "projectIdCounter",
      "outputs": [
        {
          "internalType": "uint256",
          "name": "",
          "type": "uint256"
        }
      ],
      "stateMutability": "view",
      "type": "function"
    },
    {
      "inputs": [
        {
          "internalType": "string",
          "name": "projectName",
          "type": "string"
        }
      ],
      "name": "projectNameAlreadyExists",
      "outputs": [
        {
          "internalType": "bool",
          "name": "",
          "type": "bool"
        }
      ],
      "stateMutability": "view",
      "type": "function"
    },
    {
      "inputs": [
        {
          "internalType": "string",
          "name": "",
          "type": "string"
        }
      ],
      "name": "projectNameToId",
      "outputs": [
        {
          "internalType": "uint256",
          "name": "",
          "type": "uint256"
        }
      ],
      "stateMutability": "view",
      "type": "function"
    }
  ],
  "bytecode": {
    "object": "0x60a060405234801561001057600080fd5b5060405161149638038061149683398101604081905261002f91610080565b33608052600380546001600160a01b039384166001600160a01b031991821617909155600480549290931691161790556100b3565b80516001600160a01b038116811461007b57600080fd5b919050565b6000806040838503121561009357600080fd5b61009c83610064565b91506100aa60208401610064565b90509250929050565b6080516113c86100ce600039600061032101526113c86000f3fe6080604052600436106100e85760003560e01c806392c9e2191161008a578063cdd02d7e11610059578063cdd02d7e1461029e578063d5977b5e146102b3578063f0d9c292146102c9578063f0f3f2c8146102e957600080fd5b806392c9e219146102145780639963ae8c146102445780639e87a5cd14610257578063c6bdc0a21461028957600080fd5b80635076a3a5116100c65780635076a3a5146101875780635929591f146101a757806360fd7391146101d85780636b69a592146101f857600080fd5b806301a80a03146100ed57806329ba314b146101385780634d7191841461015a575b600080fd5b3480156100f957600080fd5b50610125610108366004610dd2565b805160208183018101805160028252928201919093012091525481565b6040519081526020015b60405180910390f35b34801561014457600080fd5b50610158610153366004610e0f565b610316565b005b34801561016657600080fd5b5061017a610175366004610e54565b610554565b60405161012f9190610ec6565b34801561019357600080fd5b506101256101a2366004610dd2565b610632565b3480156101b357600080fd5b506101c76101c2366004610f13565b61065a565b60405161012f959493929190610f7c565b3480156101e457600080fd5b506101256101f3366004610dd2565b61072f565b34801561020457600080fd5b50610125674563918244f4000081565b34801561022057600080fd5b5061023461022f366004610dd2565b6107ae565b604051901515815260200161012f565b610158610252366004610e0f565b610826565b34801561026357600080fd5b506003546001600160a01b03165b6040516001600160a01b03909116815260200161012f565b34801561029557600080fd5b50600154610125565b3480156102aa57600080fd5b50610271610982565b3480156102bf57600080fd5b5061012560005481565b3480156102d557600080fd5b506102346102e4366004610dd2565b6109d0565b3480156102f557600080fd5b50610309610304366004610f13565b610a58565b60405161012f9190610fbb565b336001600160a01b037f0000000000000000000000000000000000000000000000000000000000000000161461035f5760405163078ff3e160e51b815260040160405180910390fd5b6000610369610982565b90506000821161038c576040516301c9079760e11b815260040160405180910390fd5b610395836107ae565b15156001036103b757604051630ee5c54560e21b815260040160405180910390fd5b604080516020808201909252600090528351908401207f3a2db9fe7908dcc36d81824d2338fc3f1aff49ac357dd8c4840527fba27a5b900161040c576040516334895b9360e01b815260040160405180910390fd5b60008054908061041b8361107a565b919050555060016040518060c00160405280600054815260200185815260200184815260200160008152602001600067ffffffffffffffff81111561046257610462610d2f565b60405190808252806020026020018201604052801561048b578160200160208202803683370190505b5081526001600160a01b03841660209182015282546001818101855560009485529382902083516006909202019081559082015191929091908201906104d1908261111c565b50604082015160028201556060820151600382015560808201518051610501916004840191602090910190610cb5565b5060a09190910151600590910180546001600160a01b0319166001600160a01b0390921691909117905560005460405160029061053f9086906111dc565b90815260405190819003602001902055505050565b606060006002848460405161056a9291906111f8565b90815260200160405180910390205490508060001461059c57604051631a5ebf2360e21b815260040160405180910390fd5b600060016105aa8184611208565b815481106105ba576105ba61121b565b906000526020600020906006020190508060040180548060200260200160405190810160405280929190818152602001828054801561062257602002820191906000526020600020905b81546001600160a01b03168152600190910190602001808311610604575b5050505050925050505b92915050565b600060028260405161064491906111dc565b9081526020016040518091039020549050919050565b6001818154811061066a57600080fd5b6000918252602090912060069091020180546001820180549193509061068f90611093565b80601f01602080910402602001604051908101604052809291908181526020018280546106bb90611093565b80156107085780601f106106dd57610100808354040283529160200191610708565b820191906000526020600020905b8154815290600101906020018083116106eb57829003601f168201915b5050505060028301546003840154600590940154929390929091506001600160a01b031685565b60008060028360405161074291906111dc565b90815260200160405180910390205490508060000361077457604051631a5ebf2360e21b815260040160405180910390fd5b600060016107828184611208565b815481106107925761079261121b565b6000918252602090912060036006909202010154949350505050565b6000805b60015481101561081d578280519060200120600182815481106107d7576107d761121b565b90600052602060002090600602016001016040516107f59190611231565b60405180910390200361080b5750600192915050565b806108158161107a565b9150506107b2565b50600092915050565b600354674563918244f40000906108479034906001600160a01b0316610bfc565b101561086657604051633e1fcc8f60e21b815260040160405180910390fd5b600060028360405161087891906111dc565b9081526020016040518091039020549050806000036108aa57604051631a5ebf2360e21b815260040160405180910390fd5b600060016108b88184611208565b815481106108c8576108c861121b565b90600052602060002090600602019050828160030160008282546108ec91906112a7565b909155505060048181018054600181018255600091825260209091200180546001600160a01b031916331790558054600583015460405163e9c2e14b60e01b81526001600160a01b0391821693810193909352169063e9c2e14b90602401600060405180830381600087803b15801561096457600080fd5b505af1158015610978573d6000803e3d6000fd5b5050505050505050565b600042336040516020016109b292919091825260601b6bffffffffffffffffffffffff1916602082015260340190565b6040516020818303038152906040528051906020012060001c905090565b6000806002836040516109e391906111dc565b908152602001604051809103902054905080600003610a1557604051631a5ebf2360e21b815260040160405180910390fd5b60006001610a238184611208565b81548110610a3357610a3361121b565b9060005260206000209060060201905080600201548160030154101592505050919050565b610a9a6040518060c00160405280600081526020016060815260200160008152602001600081526020016060815260200160006001600160a01b031681525090565b6001610aa68184611208565b81548110610ab657610ab661121b565b90600052602060002090600602016040518060c001604052908160008201548152602001600182018054610ae990611093565b80601f0160208091040260200160405190810160405280929190818152602001828054610b1590611093565b8015610b625780601f10610b3757610100808354040283529160200191610b62565b820191906000526020600020905b815481529060010190602001808311610b4557829003601f168201915b50505050508152602001600282015481526020016003820154815260200160048201805480602002602001604051908101604052809291908181526020018280548015610bd857602002820191906000526020600020905b81546001600160a01b03168152600190910190602001808311610bba575b5050509183525050600591909101546001600160a01b031660209091015292915050565b600080610c0883610c32565b90506000670de0b6b3a7640000610c1f86846112ba565b610c2991906112d1565b95945050505050565b600080826001600160a01b031663feaf968c6040518163ffffffff1660e01b815260040160a060405180830381865afa158015610c73573d6000803e3d6000fd5b505050506040513d601f19601f82011682018060405250810190610c979190611312565b505050915050806402540be400610cae9190611362565b9392505050565b828054828255906000526020600020908101928215610d0a579160200282015b82811115610d0a57825182546001600160a01b0319166001600160a01b03909116178255602090920191600190910190610cd5565b50610d16929150610d1a565b5090565b5b80821115610d165760008155600101610d1b565b634e487b7160e01b600052604160045260246000fd5b600082601f830112610d5657600080fd5b813567ffffffffffffffff80821115610d7157610d71610d2f565b604051601f8301601f19908116603f01168101908282118183101715610d9957610d99610d2f565b81604052838152866020858801011115610db257600080fd5b836020870160208301376000602085830101528094505050505092915050565b600060208284031215610de457600080fd5b813567ffffffffffffffff811115610dfb57600080fd5b610e0784828501610d45565b949350505050565b60008060408385031215610e2257600080fd5b823567ffffffffffffffff811115610e3957600080fd5b610e4585828601610d45565b95602094909401359450505050565b60008060208385031215610e6757600080fd5b823567ffffffffffffffff80821115610e7f57600080fd5b818501915085601f830112610e9357600080fd5b813581811115610ea257600080fd5b866020828501011115610eb457600080fd5b60209290920196919550909350505050565b6020808252825182820181905260009190848201906040850190845b81811015610f075783516001600160a01b031683529284019291840191600101610ee2565b50909695505050505050565b600060208284031215610f2557600080fd5b5035919050565b60005b83811015610f47578181015183820152602001610f2f565b50506000910152565b60008151808452610f68816020860160208601610f2c565b601f01601f19169290920160200192915050565b85815260a060208201526000610f9560a0830187610f50565b60408301959095525060608101929092526001600160a01b031660809091015292915050565b600060208083528351818401528084015160c06040850152610fe060e0850182610f50565b6040860151606086810191909152860151608080870191909152860151858203601f190160a0870152805180835290840192506000918401905b808310156110435783516001600160a01b0316825292840192600192909201919084019061101a565b5060a08701516001600160a01b03811660c088015293509695505050505050565b634e487b7160e01b600052601160045260246000fd5b60006001820161108c5761108c611064565b5060010190565b600181811c908216806110a757607f821691505b6020821081036110c757634e487b7160e01b600052602260045260246000fd5b50919050565b601f82111561111757600081815260208120601f850160051c810160208610156110f45750805b601f850160051c820191505b8181101561111357828155600101611100565b5050505b505050565b815167ffffffffffffffff81111561113657611136610d2f565b61114a816111448454611093565b846110cd565b602080601f83116001811461117f57600084156111675750858301515b600019600386901b1c1916600185901b178555611113565b600085815260208120601f198616915b828110156111ae5788860151825594840194600190910190840161118f565b50858210156111cc5787850151600019600388901b60f8161c191681555b5050505050600190811b01905550565b600082516111ee818460208701610f2c565b9190910192915050565b8183823760009101908152919050565b8181038181111561062c5761062c611064565b634e487b7160e01b600052603260045260246000fd5b600080835461123f81611093565b60018281168015611257576001811461126c5761129b565b60ff198416875282151583028701945061129b565b8760005260208060002060005b858110156112925781548a820152908401908201611279565b50505082870194505b50929695505050505050565b8082018082111561062c5761062c611064565b808202811582820484141761062c5761062c611064565b6000826112ee57634e487b7160e01b600052601260045260246000fd5b500490565b805169ffffffffffffffffffff8116811461130d57600080fd5b919050565b600080600080600060a0868803121561132a57600080fd5b611333866112f3565b9450602086015193506040860151925060608601519150611356608087016112f3565b90509295509295909350565b80820260008212600160ff1b8414161561137e5761137e611064565b818105831482151761062c5761062c61106456fea26469706673582212206596653674d2ef31e2b957d0af2fff3fb1c15d4d9bd5de7dd85cba74d1fb0c6f64736f6c63430008140033",
    "linkReferences": {}
  },
  "methodIdentifiers": {
    "MINIMUM_USD()": "6b69a592",
    "addProject(string,uint256)": "29ba314b",
    "checkGoalReached(string)": "f0d9c292",
    "fund(string,uint256)": "9963ae8c",
    "getPriceFeed()": "9e87a5cd",
    "getProject(uint256)": "f0f3f2c8",
    "getProjectBalance(string)": "60fd7391",
    "getProjectFunders(string)": "4d719184",
    "getProjectId(string)": "5076a3a5",
    "getProjectsLength()": "c6bdc0a2",
    "getUniqueAddress()": "cdd02d7e",
    "listofProjects(uint256)": "5929591f",
    "projectIdCounter()": "d5977b5e",
    "projectNameAlreadyExists(string)": "92c9e219",
    "projectNameToId(string)": "01a80a03"
  },
  "id": 35
}