{
  "abi": [
    {
      "inputs": [],
      "stateMutability": "nonpayable",
      "type": "constructor"
    },
    {
      "inputs": [],
      "name": "ProjectsStorage__NotOwner",
      "type": "error"
    },
    {
      "inputs": [
        {
          "internalType": "string",
          "name": "_name",
          "type": "string"
        },
        {
          "internalType": "uint256",
          "name": "_fundingGoal",
          "type": "uint256"
        }
      ],
      "name": "addProject",
      "outputs": [],
      "stateMutability": "nonpayable",
      "type": "function"
    },
    {
      "inputs": [
        {
          "internalType": "string",
          "name": "_name",
          "type": "string"
        }
      ],
      "name": "fundProject",
      "outputs": [],
      "stateMutability": "payable",
      "type": "function"
    },
    {
      "inputs": [
        {
          "internalType": "string",
          "name": "_name",
          "type": "string"
        }
      ],
      "name": "getProjectFunders",
      "outputs": [
        {
          "internalType": "address[]",
          "name": "",
          "type": "address[]"
        }
      ],
      "stateMutability": "view",
      "type": "function"
    },
    {
      "inputs": [
        {
          "internalType": "uint256",
          "name": "",
          "type": "uint256"
        }
      ],
      "name": "listofProjects",
      "outputs": [
        {
          "internalType": "uint256",
          "name": "id",
          "type": "uint256"
        },
        {
          "internalType": "string",
          "name": "name",
          "type": "string"
        },
        {
          "internalType": "uint256",
          "name": "fundingGoal",
          "type": "uint256"
        },
        {
          "internalType": "uint256",
          "name": "totalFundsRaised",
          "type": "uint256"
        }
      ],
      "stateMutability": "view",
      "type": "function"
    },
    {
      "inputs": [
        {
          "internalType": "string",
          "name": "",
          "type": "string"
        }
      ],
      "name": "projectNameToId",
      "outputs": [
        {
          "internalType": "uint256",
          "name": "",
          "type": "uint256"
        }
      ],
      "stateMutability": "view",
      "type": "function"
    }
  ],
  "bytecode": {
    "object": "0x60a060405234801561001057600080fd5b5033608052608051610a2c61003060003960006101370152610a2c6000f3fe60806040526004361061004a5760003560e01c806301a80a031461004f57806329ba314b1461009a5780634d719184146100bc5780635929591f146100e95780639f047f3c14610119575b600080fd5b34801561005b57600080fd5b5061008761006a36600461064f565b805160208183018101805160028252928201919093012091525481565b6040519081526020015b60405180910390f35b3480156100a657600080fd5b506100ba6100b536600461068c565b61012c565b005b3480156100c857600080fd5b506100dc6100d73660046106d1565b610286565b6040516100919190610743565b3480156100f557600080fd5b50610109610104366004610790565b610391565b60405161009194939291906107cd565b6100ba61012736600461064f565b610455565b336001600160a01b037f000000000000000000000000000000000000000000000000000000000000000016146101755760405163078ff3e160e51b815260040160405180910390fd5b6000805490806101848361082c565b919050555060016040518060a00160405280600054815260200184815260200183815260200160008152602001600067ffffffffffffffff8111156101cb576101cb6105ac565b6040519080825280602002602001820160405280156101f4578160200160208202803683370190505b5090528154600181810184556000938452602093849020835160059093020191825592820151919290919082019061022c90826108ce565b5060408201516002820155606082015160038201556080820151805161025c916004840191602090910190610532565b505050600054600283604051610272919061098e565b908152604051908190036020019020555050565b606060006002848460405161029c9291906109aa565b9081526020016040518091039020549050806000036102fb5760405162461bcd60e51b8152602060048201526016602482015275141c9bda9958dd08191bd95cc81b9bdd08195e1a5cdd60521b60448201526064015b60405180910390fd5b6000600161030981846109ba565b81548110610319576103196109cd565b906000526020600020906005020190508060040180548060200260200160405190810160405280929190818152602001828054801561038157602002820191906000526020600020905b81546001600160a01b03168152600190910190602001808311610363575b5050505050925050505b92915050565b600181815481106103a157600080fd5b600091825260209091206005909102018054600182018054919350906103c690610845565b80601f01602080910402602001604051908101604052809291908181526020018280546103f290610845565b801561043f5780601f106104145761010080835404028352916020019161043f565b820191906000526020600020905b81548152906001019060200180831161042257829003601f168201915b5050505050908060020154908060030154905084565b6000600282604051610467919061098e565b9081526020016040518091039020549050806000036104c15760405162461bcd60e51b8152602060048201526016602482015275141c9bda9958dd08191bd95cc81b9bdd08195e1a5cdd60521b60448201526064016102f2565b600060016104cf81846109ba565b815481106104df576104df6109cd565b906000526020600020906005020190503481600301600082825461050391906109e3565b90915550506004018054600181018255600091825260209091200180546001600160a01b031916331790555050565b828054828255906000526020600020908101928215610587579160200282015b8281111561058757825182546001600160a01b0319166001600160a01b03909116178255602090920191600190910190610552565b50610593929150610597565b5090565b5b808211156105935760008155600101610598565b634e487b7160e01b600052604160045260246000fd5b600082601f8301126105d357600080fd5b813567ffffffffffffffff808211156105ee576105ee6105ac565b604051601f8301601f19908116603f01168101908282118183101715610616576106166105ac565b8160405283815286602085880101111561062f57600080fd5b836020870160208301376000602085830101528094505050505092915050565b60006020828403121561066157600080fd5b813567ffffffffffffffff81111561067857600080fd5b610684848285016105c2565b949350505050565b6000806040838503121561069f57600080fd5b823567ffffffffffffffff8111156106b657600080fd5b6106c2858286016105c2565b95602094909401359450505050565b600080602083850312156106e457600080fd5b823567ffffffffffffffff808211156106fc57600080fd5b818501915085601f83011261071057600080fd5b81358181111561071f57600080fd5b86602082850101111561073157600080fd5b60209290920196919550909350505050565b6020808252825182820181905260009190848201906040850190845b818110156107845783516001600160a01b03168352928401929184019160010161075f565b50909695505050505050565b6000602082840312156107a257600080fd5b5035919050565b60005b838110156107c45781810151838201526020016107ac565b50506000910152565b84815260806020820152600084518060808401526107f28160a08501602089016107a9565b604083019490945250606081019190915260a0601f909201601f1916010192915050565b634e487b7160e01b600052601160045260246000fd5b60006001820161083e5761083e610816565b5060010190565b600181811c9082168061085957607f821691505b60208210810361087957634e487b7160e01b600052602260045260246000fd5b50919050565b601f8211156108c957600081815260208120601f850160051c810160208610156108a65750805b601f850160051c820191505b818110156108c5578281556001016108b2565b5050505b505050565b815167ffffffffffffffff8111156108e8576108e86105ac565b6108fc816108f68454610845565b8461087f565b602080601f83116001811461093157600084156109195750858301515b600019600386901b1c1916600185901b1785556108c5565b600085815260208120601f198616915b8281101561096057888601518255948401946001909101908401610941565b508582101561097e5787850151600019600388901b60f8161c191681555b5050505050600190811b01905550565b600082516109a08184602087016107a9565b9190910192915050565b8183823760009101908152919050565b8181038181111561038b5761038b610816565b634e487b7160e01b600052603260045260246000fd5b8082018082111561038b5761038b61081656fea2646970667358221220ee8c2efce68b2758b00cd2049d8beafa8037b765d228750b1a8b070b7229403864736f6c63430008140033",
    "linkReferences": {}
  },
  "methodIdentifiers": {
    "addProject(string,uint256)": "29ba314b",
    "fundProject(string)": "9f047f3c",
    "getProjectFunders(string)": "4d719184",
    "listofProjects(uint256)": "5929591f",
    "projectNameToId(string)": "01a80a03"
  },
  "id": 0
}