{
  "abi": [
    {
      "inputs": [],
      "stateMutability": "nonpayable",
      "type": "constructor"
    },
    {
      "inputs": [],
      "name": "Funding_Goal_CanntoBeLess_Than_Zero",
      "type": "error"
    },
    {
      "inputs": [],
      "name": "Name_Exists",
      "type": "error"
    },
    {
      "inputs": [],
      "name": "ProjectNam_CntBEmpty",
      "type": "error"
    },
    {
      "inputs": [],
      "name": "Project_Does_Not_Exist",
      "type": "error"
    },
    {
      "inputs": [],
      "name": "Project_Does_Not_Exist",
      "type": "error"
    },
    {
      "inputs": [],
      "name": "ProjectsStorage__NotOwner",
      "type": "error"
    },
    {
      "inputs": [
        {
          "internalType": "string",
          "name": "_name",
          "type": "string"
        },
        {
          "internalType": "uint256",
          "name": "_fundingGoal",
          "type": "uint256"
        }
      ],
      "name": "addProject",
      "outputs": [],
      "stateMutability": "nonpayable",
      "type": "function"
    },
    {
      "inputs": [
        {
          "internalType": "string",
          "name": "_name",
          "type": "string"
        }
      ],
      "name": "fund",
      "outputs": [],
      "stateMutability": "payable",
      "type": "function"
    },
    {
      "inputs": [
        {
          "internalType": "string",
          "name": "_name",
          "type": "string"
        }
      ],
      "name": "getProjectFunders",
      "outputs": [
        {
          "internalType": "address[]",
          "name": "",
          "type": "address[]"
        }
      ],
      "stateMutability": "view",
      "type": "function"
    },
    {
      "inputs": [],
      "name": "getProjectsLength",
      "outputs": [
        {
          "internalType": "uint256",
          "name": "",
          "type": "uint256"
        }
      ],
      "stateMutability": "view",
      "type": "function"
    },
    {
      "inputs": [
        {
          "internalType": "uint256",
          "name": "",
          "type": "uint256"
        }
      ],
      "name": "listofProjects",
      "outputs": [
        {
          "internalType": "uint256",
          "name": "id",
          "type": "uint256"
        },
        {
          "internalType": "string",
          "name": "name",
          "type": "string"
        },
        {
          "internalType": "uint256",
          "name": "fundingGoal",
          "type": "uint256"
        },
        {
          "internalType": "uint256",
          "name": "totalFundsRaised",
          "type": "uint256"
        }
      ],
      "stateMutability": "view",
      "type": "function"
    },
    {
      "inputs": [
        {
          "internalType": "string",
          "name": "_name",
          "type": "string"
        }
      ],
      "name": "projectBalance",
      "outputs": [
        {
          "internalType": "uint256",
          "name": "",
          "type": "uint256"
        }
      ],
      "stateMutability": "view",
      "type": "function"
    },
    {
      "inputs": [],
      "name": "projectIdCounter",
      "outputs": [
        {
          "internalType": "uint256",
          "name": "",
          "type": "uint256"
        }
      ],
      "stateMutability": "view",
      "type": "function"
    },
    {
      "inputs": [
        {
          "internalType": "string",
          "name": "projectName",
          "type": "string"
        }
      ],
      "name": "projectNameAlreadyExists",
      "outputs": [
        {
          "internalType": "bool",
          "name": "",
          "type": "bool"
        }
      ],
      "stateMutability": "view",
      "type": "function"
    },
    {
      "inputs": [
        {
          "internalType": "string",
          "name": "",
          "type": "string"
        }
      ],
      "name": "projectNameToId",
      "outputs": [
        {
          "internalType": "uint256",
          "name": "",
          "type": "uint256"
        }
      ],
      "stateMutability": "view",
      "type": "function"
    }
  ],
  "bytecode": {
    "object": "0x60a060405234801561001057600080fd5b5033608052608051610c9c61003060003960006101ee0152610c9c6000f3fe6080604052600436106100865760003560e01c80635929591f116100595780635929591f1461014557806373451f651461017557806392c9e21914610188578063c6bdc0a2146101b8578063d5977b5e146101cd57600080fd5b806301a80a031461008b57806329ba314b146100d65780633a45b3df146100f85780634d71918414610118575b600080fd5b34801561009757600080fd5b506100c36100a6366004610849565b805160208183018101805160028252928201919093012091525481565b6040519081526020015b60405180910390f35b3480156100e257600080fd5b506100f66100f1366004610886565b6101e3565b005b34801561010457600080fd5b506100c3610113366004610849565b6103de565b34801561012457600080fd5b506101386101333660046108cb565b61045d565b6040516100cd919061093d565b34801561015157600080fd5b5061016561016036600461098a565b61053b565b6040516100cd94939291906109c7565b6100f6610183366004610849565b6105ff565b34801561019457600080fd5b506101a86101a3366004610849565b6106b4565b60405190151581526020016100cd565b3480156101c457600080fd5b506001546100c3565b3480156101d957600080fd5b506100c360005481565b336001600160a01b037f0000000000000000000000000000000000000000000000000000000000000000161461022c5760405163078ff3e160e51b815260040160405180910390fd5b6000811161024d576040516301c9079760e11b815260040160405180910390fd5b610256826106b4565b151560010361027857604051630ee5c54560e21b815260040160405180910390fd5b604080516020808201909252600090528251908301207f3a2db9fe7908dcc36d81824d2338fc3f1aff49ac357dd8c4840527fba27a5b90016102cd576040516334895b9360e01b815260040160405180910390fd5b6000805490806102dc83610a26565b919050555060016040518060a00160405280600054815260200184815260200183815260200160008152602001600067ffffffffffffffff811115610323576103236107a6565b60405190808252806020026020018201604052801561034c578160200160208202803683370190505b509052815460018181018455600093845260209384902083516005909302019182559282015191929091908201906103849082610ac8565b506040820151600282015560608201516003820155608082015180516103b491600484019160209091019061072c565b5050506000546002836040516103ca9190610b88565b908152604051908190036020019020555050565b6000806002836040516103f19190610b88565b90815260200160405180910390205490508060000361042357604051631a5ebf2360e21b815260040160405180910390fd5b600060016104318184610ba4565b8154811061044157610441610bb7565b6000918252602090912060036005909202010154949350505050565b6060600060028484604051610473929190610bcd565b9081526020016040518091039020549050806000146104a557604051631a5ebf2360e21b815260040160405180910390fd5b600060016104b38184610ba4565b815481106104c3576104c3610bb7565b906000526020600020906005020190508060040180548060200260200160405190810160405280929190818152602001828054801561052b57602002820191906000526020600020905b81546001600160a01b0316815260019091019060200180831161050d575b5050505050925050505b92915050565b6001818154811061054b57600080fd5b6000918252602090912060059091020180546001820180549193509061057090610a3f565b80601f016020809104026020016040519081016040528092919081815260200182805461059c90610a3f565b80156105e95780601f106105be576101008083540402835291602001916105e9565b820191906000526020600020905b8154815290600101906020018083116105cc57829003601f168201915b5050505050908060020154908060030154905084565b60006002826040516106119190610b88565b90815260200160405180910390205490508060000361064357604051631a5ebf2360e21b815260040160405180910390fd5b600060016106518184610ba4565b8154811061066157610661610bb7565b90600052602060002090600502019050348160030160008282546106859190610bdd565b90915550506004018054600181018255600091825260209091200180546001600160a01b031916331790555050565b6000805b600154811015610723578280519060200120600182815481106106dd576106dd610bb7565b90600052602060002090600502016001016040516106fb9190610bf0565b6040518091039020036107115750600192915050565b8061071b81610a26565b9150506106b8565b50600092915050565b828054828255906000526020600020908101928215610781579160200282015b8281111561078157825182546001600160a01b0319166001600160a01b0390911617825560209092019160019091019061074c565b5061078d929150610791565b5090565b5b8082111561078d5760008155600101610792565b634e487b7160e01b600052604160045260246000fd5b600082601f8301126107cd57600080fd5b813567ffffffffffffffff808211156107e8576107e86107a6565b604051601f8301601f19908116603f01168101908282118183101715610810576108106107a6565b8160405283815286602085880101111561082957600080fd5b836020870160208301376000602085830101528094505050505092915050565b60006020828403121561085b57600080fd5b813567ffffffffffffffff81111561087257600080fd5b61087e848285016107bc565b949350505050565b6000806040838503121561089957600080fd5b823567ffffffffffffffff8111156108b057600080fd5b6108bc858286016107bc565b95602094909401359450505050565b600080602083850312156108de57600080fd5b823567ffffffffffffffff808211156108f657600080fd5b818501915085601f83011261090a57600080fd5b81358181111561091957600080fd5b86602082850101111561092b57600080fd5b60209290920196919550909350505050565b6020808252825182820181905260009190848201906040850190845b8181101561097e5783516001600160a01b031683529284019291840191600101610959565b50909695505050505050565b60006020828403121561099c57600080fd5b5035919050565b60005b838110156109be5781810151838201526020016109a6565b50506000910152565b84815260806020820152600084518060808401526109ec8160a08501602089016109a3565b604083019490945250606081019190915260a0601f909201601f1916010192915050565b634e487b7160e01b600052601160045260246000fd5b600060018201610a3857610a38610a10565b5060010190565b600181811c90821680610a5357607f821691505b602082108103610a7357634e487b7160e01b600052602260045260246000fd5b50919050565b601f821115610ac357600081815260208120601f850160051c81016020861015610aa05750805b601f850160051c820191505b81811015610abf57828155600101610aac565b5050505b505050565b815167ffffffffffffffff811115610ae257610ae26107a6565b610af681610af08454610a3f565b84610a79565b602080601f831160018114610b2b5760008415610b135750858301515b600019600386901b1c1916600185901b178555610abf565b600085815260208120601f198616915b82811015610b5a57888601518255948401946001909101908401610b3b565b5085821015610b785787850151600019600388901b60f8161c191681555b5050505050600190811b01905550565b60008251610b9a8184602087016109a3565b9190910192915050565b8181038181111561053557610535610a10565b634e487b7160e01b600052603260045260246000fd5b8183823760009101908152919050565b8082018082111561053557610535610a10565b6000808354610bfe81610a3f565b60018281168015610c165760018114610c2b57610c5a565b60ff1984168752821515830287019450610c5a565b8760005260208060002060005b85811015610c515781548a820152908401908201610c38565b50505082870194505b5092969550505050505056fea264697066735822122087cee588772a5af207b18d2aa910d8bf6290fea1d68409ae9fdff79f6dcdf6cf64736f6c63430008140033",
    "linkReferences": {}
  },
  "methodIdentifiers": {
    "addProject(string,uint256)": "29ba314b",
    "fund(string)": "73451f65",
    "getProjectFunders(string)": "4d719184",
    "getProjectsLength()": "c6bdc0a2",
    "listofProjects(uint256)": "5929591f",
    "projectBalance(string)": "3a45b3df",
    "projectIdCounter()": "d5977b5e",
    "projectNameAlreadyExists(string)": "92c9e219",
    "projectNameToId(string)": "01a80a03"
  },
  "id": 19
}