{
  "abi": [
    {
      "inputs": [],
      "stateMutability": "nonpayable",
      "type": "constructor"
    },
    {
      "inputs": [],
      "name": "ProjectsStorage__NotOwner",
      "type": "error"
    },
    {
      "inputs": [
        {
          "internalType": "string",
          "name": "_name",
          "type": "string"
        },
        {
          "internalType": "uint256",
          "name": "_fundingGoal",
          "type": "uint256"
        }
      ],
      "name": "addProject",
      "outputs": [],
      "stateMutability": "nonpayable",
      "type": "function"
    },
    {
      "inputs": [
        {
          "internalType": "string",
          "name": "_name",
          "type": "string"
        }
      ],
      "name": "fundProject",
      "outputs": [],
      "stateMutability": "payable",
      "type": "function"
    },
    {
      "inputs": [
        {
          "internalType": "string",
          "name": "_name",
          "type": "string"
        }
      ],
      "name": "getProjectFunders",
      "outputs": [
        {
          "internalType": "address[]",
          "name": "",
          "type": "address[]"
        }
      ],
      "stateMutability": "view",
      "type": "function"
    },
    {
      "inputs": [
        {
          "internalType": "uint256",
          "name": "",
          "type": "uint256"
        }
      ],
      "name": "listofProjects",
      "outputs": [
        {
          "internalType": "uint256",
          "name": "id",
          "type": "uint256"
        },
        {
          "internalType": "string",
          "name": "name",
          "type": "string"
        },
        {
          "internalType": "uint256",
          "name": "fundingGoal",
          "type": "uint256"
        },
        {
          "internalType": "uint256",
          "name": "totalFundsRaised",
          "type": "uint256"
        }
      ],
      "stateMutability": "view",
      "type": "function"
    },
    {
      "inputs": [
        {
          "internalType": "string",
          "name": "_name",
          "type": "string"
        }
      ],
      "name": "projectBalance",
      "outputs": [
        {
          "internalType": "uint256",
          "name": "",
          "type": "uint256"
        }
      ],
      "stateMutability": "view",
      "type": "function"
    },
    {
      "inputs": [
        {
          "internalType": "string",
          "name": "",
          "type": "string"
        }
      ],
      "name": "projectNameToId",
      "outputs": [
        {
          "internalType": "uint256",
          "name": "",
          "type": "uint256"
        }
      ],
      "stateMutability": "view",
      "type": "function"
    }
  ],
  "bytecode": {
    "object": "0x60a060405234801561001057600080fd5b5033608052608051610ab761003060003960006101620152610ab76000f3fe6080604052600436106100555760003560e01c806301a80a031461005a57806329ba314b146100a55780633a45b3df146100c75780634d719184146100e75780635929591f146101145780639f047f3c14610144575b600080fd5b34801561006657600080fd5b506100926100753660046106aa565b805160208183018101805160028252928201919093012091525481565b6040519081526020015b60405180910390f35b3480156100b157600080fd5b506100c56100c03660046106e7565b610157565b005b3480156100d357600080fd5b506100926100e23660046106aa565b6102b1565b3480156100f357600080fd5b5061010761010236600461072c565b610338565b60405161009c919061079e565b34801561012057600080fd5b5061013461012f3660046107eb565b610415565b60405161009c9493929190610828565b6100c56101523660046106aa565b6104d9565b336001600160a01b037f000000000000000000000000000000000000000000000000000000000000000016146101a05760405163078ff3e160e51b815260040160405180910390fd5b6000805490806101af83610887565b919050555060016040518060a00160405280600054815260200184815260200183815260200160008152602001600067ffffffffffffffff8111156101f6576101f6610607565b60405190808252806020026020018201604052801561021f578160200160208202803683370190505b509052815460018181018455600093845260209384902083516005909302019182559282015191929091908201906102579082610929565b5060408201516002820155606082015160038201556080820151805161028791600484019160209091019061058d565b50505060005460028360405161029d91906109e9565b908152604051908190036020019020555050565b6000806002836040516102c491906109e9565b9081526020016040518091039020549050806000036102fe5760405162461bcd60e51b81526004016102f590610a05565b60405180910390fd5b6000600161030c8184610a35565b8154811061031c5761031c610a48565b6000918252602090912060036005909202010154949350505050565b606060006002848460405161034e929190610a5e565b90815260200160405180910390205490508060000361037f5760405162461bcd60e51b81526004016102f590610a05565b6000600161038d8184610a35565b8154811061039d5761039d610a48565b906000526020600020906005020190508060040180548060200260200160405190810160405280929190818152602001828054801561040557602002820191906000526020600020905b81546001600160a01b031681526001909101906020018083116103e7575b5050505050925050505b92915050565b6001818154811061042557600080fd5b6000918252602090912060059091020180546001820180549193509061044a906108a0565b80601f0160208091040260200160405190810160405280929190818152602001828054610476906108a0565b80156104c35780601f10610498576101008083540402835291602001916104c3565b820191906000526020600020905b8154815290600101906020018083116104a657829003601f168201915b5050505050908060020154908060030154905084565b60006002826040516104eb91906109e9565b90815260200160405180910390205490508060000361051c5760405162461bcd60e51b81526004016102f590610a05565b6000600161052a8184610a35565b8154811061053a5761053a610a48565b906000526020600020906005020190503481600301600082825461055e9190610a6e565b90915550506004018054600181018255600091825260209091200180546001600160a01b031916331790555050565b8280548282559060005260206000209081019282156105e2579160200282015b828111156105e257825182546001600160a01b0319166001600160a01b039091161782556020909201916001909101906105ad565b506105ee9291506105f2565b5090565b5b808211156105ee57600081556001016105f3565b634e487b7160e01b600052604160045260246000fd5b600082601f83011261062e57600080fd5b813567ffffffffffffffff8082111561064957610649610607565b604051601f8301601f19908116603f0116810190828211818310171561067157610671610607565b8160405283815286602085880101111561068a57600080fd5b836020870160208301376000602085830101528094505050505092915050565b6000602082840312156106bc57600080fd5b813567ffffffffffffffff8111156106d357600080fd5b6106df8482850161061d565b949350505050565b600080604083850312156106fa57600080fd5b823567ffffffffffffffff81111561071157600080fd5b61071d8582860161061d565b95602094909401359450505050565b6000806020838503121561073f57600080fd5b823567ffffffffffffffff8082111561075757600080fd5b818501915085601f83011261076b57600080fd5b81358181111561077a57600080fd5b86602082850101111561078c57600080fd5b60209290920196919550909350505050565b6020808252825182820181905260009190848201906040850190845b818110156107df5783516001600160a01b0316835292840192918401916001016107ba565b50909695505050505050565b6000602082840312156107fd57600080fd5b5035919050565b60005b8381101561081f578181015183820152602001610807565b50506000910152565b848152608060208201526000845180608084015261084d8160a0850160208901610804565b604083019490945250606081019190915260a0601f909201601f1916010192915050565b634e487b7160e01b600052601160045260246000fd5b60006001820161089957610899610871565b5060010190565b600181811c908216806108b457607f821691505b6020821081036108d457634e487b7160e01b600052602260045260246000fd5b50919050565b601f82111561092457600081815260208120601f850160051c810160208610156109015750805b601f850160051c820191505b818110156109205782815560010161090d565b5050505b505050565b815167ffffffffffffffff81111561094357610943610607565b6109578161095184546108a0565b846108da565b602080601f83116001811461098c57600084156109745750858301515b600019600386901b1c1916600185901b178555610920565b600085815260208120601f198616915b828110156109bb5788860151825594840194600190910190840161099c565b50858210156109d95787850151600019600388901b60f8161c191681555b5050505050600190811b01905550565b600082516109fb818460208701610804565b9190910192915050565b602080825260169082015275141c9bda9958dd08191bd95cc81b9bdd08195e1a5cdd60521b604082015260600190565b8181038181111561040f5761040f610871565b634e487b7160e01b600052603260045260246000fd5b8183823760009101908152919050565b8082018082111561040f5761040f61087156fea2646970667358221220e642735e22c6dfd332a42029de56704a55433325ac0a507a01d848488a93630264736f6c63430008140033",
    "linkReferences": {}
  },
  "methodIdentifiers": {
    "addProject(string,uint256)": "29ba314b",
    "fundProject(string)": "9f047f3c",
    "getProjectFunders(string)": "4d719184",
    "listofProjects(uint256)": "5929591f",
    "projectBalance(string)": "3a45b3df",
    "projectNameToId(string)": "01a80a03"
  },
  "id": 13
}