{
  "abi": [
    {
      "inputs": [
        {
          "internalType": "address",
          "name": "_addr",
          "type": "address"
        },
        {
          "internalType": "uint256",
          "name": "transportertype",
          "type": "uint256"
        },
        {
          "internalType": "address",
          "name": "cid",
          "type": "address"
        }
      ],
      "name": "handlePackage",
      "outputs": [],
      "stateMutability": "nonpayable",
      "type": "function"
    }
  ],
  "bytecode": {
    "object": "0x608060405234801561001057600080fd5b50610200806100206000396000f3fe608060405234801561001057600080fd5b506004361061002b5760003560e01c80636f41507c14610030575b600080fd5b61004361003e36600461018e565b610045565b005b816001036100ac5760405163638e9a3d60e01b81523360048201526001600160a01b0384169063638e9a3d906024015b600060405180830381600087803b15801561008f57600080fd5b505af11580156100a3573d6000803e3d6000fd5b50505050505050565b816002036100e05760405163a375be1160e01b81523360048201526001600160a01b0384169063a375be1190602401610075565b8160030361011c57604051630887851b60e31b81526001600160a01b03848116600483015233602483015282169063443c28d890604401610075565b8160040361016d5760405163298abd8d60e11b81526001600160a01b0384811660048301523360248301528216906353157b1a90604401600060405180830381600087803b15801561008f57600080fd5b505050565b80356001600160a01b038116811461018957600080fd5b919050565b6000806000606084860312156101a357600080fd5b6101ac84610172565b9250602084013591506101c160408501610172565b9050925092509256fea2646970667358221220a9c476e2bf73b40ffd1984c4f552fc622357004ca6e9b7c414423ccee3ea8e3664736f6c63430008140033",
    "linkReferences": {}
  },
  "methodIdentifiers": {
    "handlePackage(address,uint256,address)": "6f41507c"
  },
  "id": 10
}