{
  "abi": [
    {
      "inputs": [],
      "name": "cancel",
      "outputs": [],
      "stateMutability": "nonpayable",
      "type": "function"
    },
    {
      "inputs": [],
      "name": "get",
      "outputs": [
        {
          "internalType": "enum Everything.Status",
          "name": "",
          "type": "uint8"
        }
      ],
      "stateMutability": "view",
      "type": "function"
    },
    {
      "inputs": [
        {
          "internalType": "enum Everything.Status",
          "name": "_status",
          "type": "uint8"
        }
      ],
      "name": "set",
      "outputs": [],
      "stateMutability": "nonpayable",
      "type": "function"
    },
    {
      "inputs": [],
      "name": "status",
      "outputs": [
        {
          "internalType": "enum Everything.Status",
          "name": "",
          "type": "uint8"
        }
      ],
      "stateMutability": "view",
      "type": "function"
    }
  ],
  "bytecode": {
    "object": "0x608060405234801561001057600080fd5b50610169806100206000396000f3fe608060405234801561001057600080fd5b506004361061004c5760003560e01c8063200d2ed21461005157806324b8ba5f146100745780636d4ce63c14610089578063ea8a1af014610094575b600080fd5b60005461005e9060ff1681565b60405161006b91906100e3565b60405180910390f35b61008761008236600461010b565b6100a6565b005b60005460ff1661005e565b6100876000805460ff19166004179055565b6000805482919060ff191660018360048111156100c5576100c56100cd565b021790555050565b634e487b7160e01b600052602160045260246000fd5b602081016005831061010557634e487b7160e01b600052602160045260246000fd5b91905290565b60006020828403121561011d57600080fd5b81356005811061012c57600080fd5b939250505056fea26469706673582212202a5f33046bdab654e5c063f0b261395f10c97d9d668609e7d600b6844130051164736f6c63430008140033",
    "linkReferences": {}
  },
  "methodIdentifiers": {
    "cancel()": "ea8a1af0",
    "get()": "6d4ce63c",
    "set(uint8)": "24b8ba5f",
    "status()": "200d2ed2"
  },
  "id": 19
}