{
  "abi": [
    {
      "anonymous": false,
      "inputs": [
        {
          "indexed": false,
          "internalType": "string",
          "name": "drugId",
          "type": "string"
        }
      ],
      "name": "DrugInvalidated",
      "type": "event"
    },
    {
      "anonymous": false,
      "inputs": [
        {
          "indexed": false,
          "internalType": "string",
          "name": "drugId",
          "type": "string"
        },
        {
          "indexed": false,
          "internalType": "address",
          "name": "from",
          "type": "address"
        },
        {
          "indexed": false,
          "internalType": "address",
          "name": "to",
          "type": "address"
        }
      ],
      "name": "DrugTransferred",
      "type": "event"
    },
    {
      "anonymous": false,
      "inputs": [
        {
          "indexed": false,
          "internalType": "string",
          "name": "drugId",
          "type": "string"
        },
        {
          "indexed": false,
          "internalType": "bool",
          "name": "authenticity",
          "type": "bool"
        }
      ],
      "name": "DrugVerified",
      "type": "event"
    },
    {
      "anonymous": false,
      "inputs": [
        {
          "indexed": true,
          "internalType": "address",
          "name": "entityAddress",
          "type": "address"
        },
        {
          "indexed": false,
          "internalType": "string",
          "name": "role",
          "type": "string"
        }
      ],
      "name": "NewEntityCreated",
      "type": "event"
    },
    {
      "anonymous": false,
      "inputs": [
        {
          "indexed": false,
          "internalType": "string",
          "name": "orderId",
          "type": "string"
        },
        {
          "indexed": false,
          "internalType": "string",
          "name": "drugId",
          "type": "string"
        }
      ],
      "name": "NewOrderCreated",
      "type": "event"
    },
    {
      "anonymous": false,
      "inputs": [
        {
          "indexed": false,
          "internalType": "string",
          "name": "orderId",
          "type": "string"
        }
      ],
      "name": "OrderFulfilled",
      "type": "event"
    },
    {
      "anonymous": false,
      "inputs": [
        {
          "indexed": false,
          "internalType": "address",
          "name": "account",
          "type": "address"
        }
      ],
      "name": "Paused",
      "type": "event"
    },
    {
      "anonymous": false,
      "inputs": [
        {
          "indexed": true,
          "internalType": "bytes32",
          "name": "role",
          "type": "bytes32"
        },
        {
          "indexed": true,
          "internalType": "bytes32",
          "name": "previousAdminRole",
          "type": "bytes32"
        },
        {
          "indexed": true,
          "internalType": "bytes32",
          "name": "newAdminRole",
          "type": "bytes32"
        }
      ],
      "name": "RoleAdminChanged",
      "type": "event"
    },
    {
      "anonymous": false,
      "inputs": [
        {
          "indexed": true,
          "internalType": "bytes32",
          "name": "role",
          "type": "bytes32"
        },
        {
          "indexed": true,
          "internalType": "address",
          "name": "account",
          "type": "address"
        },
        {
          "indexed": true,
          "internalType": "address",
          "name": "sender",
          "type": "address"
        }
      ],
      "name": "RoleGranted",
      "type": "event"
    },
    {
      "anonymous": false,
      "inputs": [
        {
          "indexed": true,
          "internalType": "bytes32",
          "name": "role",
          "type": "bytes32"
        },
        {
          "indexed": true,
          "internalType": "address",
          "name": "account",
          "type": "address"
        },
        {
          "indexed": true,
          "internalType": "address",
          "name": "sender",
          "type": "address"
        }
      ],
      "name": "RoleRevoked",
      "type": "event"
    },
    {
      "anonymous": false,
      "inputs": [
        {
          "indexed": false,
          "internalType": "address",
          "name": "account",
          "type": "address"
        }
      ],
      "name": "Unpaused",
      "type": "event"
    },
    {
      "inputs": [],
      "name": "CONSUMER_ROLE",
      "outputs": [
        {
          "internalType": "bytes32",
          "name": "",
          "type": "bytes32"
        }
      ],
      "stateMutability": "view",
      "type": "function"
    },
    {
      "inputs": [],
      "name": "DEFAULT_ADMIN_ROLE",
      "outputs": [
        {
          "internalType": "bytes32",
          "name": "",
          "type": "bytes32"
        }
      ],
      "stateMutability": "view",
      "type": "function"
    },
    {
      "inputs": [],
      "name": "REGULATOR_ROLE",
      "outputs": [
        {
          "internalType": "bytes32",
          "name": "",
          "type": "bytes32"
        }
      ],
      "stateMutability": "view",
      "type": "function"
    },
    {
      "inputs": [],
      "name": "SUPPLIER_ROLE",
      "outputs": [
        {
          "internalType": "bytes32",
          "name": "",
          "type": "bytes32"
        }
      ],
      "stateMutability": "view",
      "type": "function"
    },
    {
      "inputs": [
        {
          "internalType": "address",
          "name": "",
          "type": "address"
        }
      ],
      "name": "consumers",
      "outputs": [
        {
          "internalType": "address",
          "name": "id",
          "type": "address"
        },
        {
          "internalType": "string",
          "name": "name",
          "type": "string"
        }
      ],
      "stateMutability": "view",
      "type": "function"
    },
    {
      "inputs": [
        {
          "internalType": "address",
          "name": "_id",
          "type": "address"
        },
        {
          "internalType": "string",
          "name": "_name",
          "type": "string"
        }
      ],
      "name": "createConsumer",
      "outputs": [],
      "stateMutability": "nonpayable",
      "type": "function"
    },
    {
      "inputs": [
        {
          "internalType": "string",
          "name": "_id",
          "type": "string"
        },
        {
          "internalType": "string",
          "name": "_name",
          "type": "string"
        },
        {
          "internalType": "string",
          "name": "_description",
          "type": "string"
        },
        {
          "internalType": "address",
          "name": "_manufacturer",
          "type": "address"
        }
      ],
      "name": "createDrug",
      "outputs": [],
      "stateMutability": "nonpayable",
      "type": "function"
    },
    {
      "inputs": [
        {
          "internalType": "string",
          "name": "_orderId",
          "type": "string"
        },
        {
          "internalType": "string",
          "name": "_drugId",
          "type": "string"
        },
        {
          "internalType": "address",
          "name": "_buyer",
          "type": "address"
        },
        {
          "internalType": "address",
          "name": "_seller",
          "type": "address"
        }
      ],
      "name": "createOrder",
      "outputs": [],
      "stateMutability": "nonpayable",
      "type": "function"
    },
    {
      "inputs": [
        {
          "internalType": "address",
          "name": "_id",
          "type": "address"
        },
        {
          "internalType": "string",
          "name": "_name",
          "type": "string"
        }
      ],
      "name": "createRegulator",
      "outputs": [],
      "stateMutability": "nonpayable",
      "type": "function"
    },
    {
      "inputs": [
        {
          "internalType": "address",
          "name": "_id",
          "type": "address"
        },
        {
          "internalType": "string",
          "name": "_name",
          "type": "string"
        }
      ],
      "name": "createSupplier",
      "outputs": [],
      "stateMutability": "nonpayable",
      "type": "function"
    },
    {
      "inputs": [
        {
          "internalType": "string",
          "name": "",
          "type": "string"
        }
      ],
      "name": "drugs",
      "outputs": [
        {
          "internalType": "string",
          "name": "name",
          "type": "string"
        },
        {
          "internalType": "string",
          "name": "description",
          "type": "string"
        },
        {
          "internalType": "address",
          "name": "manufacturer",
          "type": "address"
        },
        {
          "internalType": "address",
          "name": "currentOwner",
          "type": "address"
        },
        {
          "internalType": "bool",
          "name": "isAuthentic",
          "type": "bool"
        }
      ],
      "stateMutability": "view",
      "type": "function"
    },
    {
      "inputs": [
        {
          "internalType": "string",
          "name": "_orderId",
          "type": "string"
        }
      ],
      "name": "fulfillOrder",
      "outputs": [],
      "stateMutability": "nonpayable",
      "type": "function"
    },
    {
      "inputs": [
        {
          "internalType": "string",
          "name": "_id",
          "type": "string"
        }
      ],
      "name": "getCurrentOwner",
      "outputs": [
        {
          "internalType": "address",
          "name": "",
          "type": "address"
        }
      ],
      "stateMutability": "view",
      "type": "function"
    },
    {
      "inputs": [
        {
          "internalType": "string",
          "name": "_id",
          "type": "string"
        }
      ],
      "name": "getOrigin",
      "outputs": [
        {
          "internalType": "address",
          "name": "",
          "type": "address"
        }
      ],
      "stateMutability": "view",
      "type": "function"
    },
    {
      "inputs": [
        {
          "internalType": "string",
          "name": "_id",
          "type": "string"
        }
      ],
      "name": "getOwnershipChain",
      "outputs": [
        {
          "internalType": "address[]",
          "name": "",
          "type": "address[]"
        }
      ],
      "stateMutability": "view",
      "type": "function"
    },
    {
      "inputs": [
        {
          "internalType": "bytes32",
          "name": "role",
          "type": "bytes32"
        }
      ],
      "name": "getRoleAdmin",
      "outputs": [
        {
          "internalType": "bytes32",
          "name": "",
          "type": "bytes32"
        }
      ],
      "stateMutability": "view",
      "type": "function"
    },
    {
      "inputs": [
        {
          "internalType": "bytes32",
          "name": "role",
          "type": "bytes32"
        },
        {
          "internalType": "address",
          "name": "account",
          "type": "address"
        }
      ],
      "name": "grantRole",
      "outputs": [],
      "stateMutability": "nonpayable",
      "type": "function"
    },
    {
      "inputs": [
        {
          "internalType": "bytes32",
          "name": "role",
          "type": "bytes32"
        },
        {
          "internalType": "address",
          "name": "account",
          "type": "address"
        }
      ],
      "name": "hasRole",
      "outputs": [
        {
          "internalType": "bool",
          "name": "",
          "type": "bool"
        }
      ],
      "stateMutability": "view",
      "type": "function"
    },
    {
      "inputs": [
        {
          "internalType": "string",
          "name": "_id",
          "type": "string"
        }
      ],
      "name": "invalidateDrug",
      "outputs": [],
      "stateMutability": "nonpayable",
      "type": "function"
    },
    {
      "inputs": [
        {
          "internalType": "string",
          "name": "",
          "type": "string"
        }
      ],
      "name": "orders",
      "outputs": [
        {
          "internalType": "string",
          "name": "drugId",
          "type": "string"
        },
        {
          "internalType": "address",
          "name": "buyer",
          "type": "address"
        },
        {
          "internalType": "address",
          "name": "seller",
          "type": "address"
        },
        {
          "internalType": "bool",
          "name": "isFulfilled",
          "type": "bool"
        }
      ],
      "stateMutability": "view",
      "type": "function"
    },
    {
      "inputs": [],
      "name": "paused",
      "outputs": [
        {
          "internalType": "bool",
          "name": "",
          "type": "bool"
        }
      ],
      "stateMutability": "view",
      "type": "function"
    },
    {
      "inputs": [],
      "name": "paymaster",
      "outputs": [
        {
          "internalType": "contract Paymaster",
          "name": "",
          "type": "address"
        }
      ],
      "stateMutability": "view",
      "type": "function"
    },
    {
      "inputs": [
        {
          "internalType": "address",
          "name": "",
          "type": "address"
        }
      ],
      "name": "regulators",
      "outputs": [
        {
          "internalType": "address",
          "name": "id",
          "type": "address"
        },
        {
          "internalType": "string",
          "name": "name",
          "type": "string"
        }
      ],
      "stateMutability": "view",
      "type": "function"
    },
    {
      "inputs": [
        {
          "internalType": "bytes32",
          "name": "role",
          "type": "bytes32"
        },
        {
          "internalType": "address",
          "name": "account",
          "type": "address"
        }
      ],
      "name": "renounceRole",
      "outputs": [],
      "stateMutability": "nonpayable",
      "type": "function"
    },
    {
      "inputs": [
        {
          "internalType": "bytes32",
          "name": "role",
          "type": "bytes32"
        },
        {
          "internalType": "address",
          "name": "account",
          "type": "address"
        }
      ],
      "name": "revokeRole",
      "outputs": [],
      "stateMutability": "nonpayable",
      "type": "function"
    },
    {
      "inputs": [
        {
          "internalType": "address",
          "name": "_paymaster",
          "type": "address"
        }
      ],
      "name": "setPaymaster",
      "outputs": [],
      "stateMutability": "nonpayable",
      "type": "function"
    },
    {
      "inputs": [
        {
          "internalType": "address",
          "name": "",
          "type": "address"
        }
      ],
      "name": "suppliers",
      "outputs": [
        {
          "internalType": "address",
          "name": "id",
          "type": "address"
        },
        {
          "internalType": "string",
          "name": "name",
          "type": "string"
        }
      ],
      "stateMutability": "view",
      "type": "function"
    },
    {
      "inputs": [
        {
          "internalType": "bytes4",
          "name": "interfaceId",
          "type": "bytes4"
        }
      ],
      "name": "supportsInterface",
      "outputs": [
        {
          "internalType": "bool",
          "name": "",
          "type": "bool"
        }
      ],
      "stateMutability": "view",
      "type": "function"
    },
    {
      "inputs": [
        {
          "internalType": "string",
          "name": "_id",
          "type": "string"
        },
        {
          "internalType": "address",
          "name": "_receiver",
          "type": "address"
        }
      ],
      "name": "transferDrug",
      "outputs": [],
      "stateMutability": "nonpayable",
      "type": "function"
    },
    {
      "inputs": [
        {
          "internalType": "string",
          "name": "_id",
          "type": "string"
        },
        {
          "internalType": "bool",
          "name": "_authenticity",
          "type": "bool"
        }
      ],
      "name": "verifyDrug",
      "outputs": [],
      "stateMutability": "nonpayable",
      "type": "function"
    }
  ],
  "bytecode": {
    "object": "0x608060405234801561001057600080fd5b506001805460ff191690556123ac8061002a6000396000f3fe608060405234801561001057600080fd5b50600436106101da5760003560e01c80637dfb86a011610104578063b0c6031f116100a2578063d842e8c511610071578063d842e8c514610460578063f16d951914610473578063f8d9673f14610486578063fc0e4e2f1461049957600080fd5b8063b0c6031f14610414578063b50a065914610427578063d547741f1461043a578063d55a772d1461044d57600080fd5b8063a217fddf116100de578063a217fddf146103c0578063a29508fc146103c8578063aa6e2a72146103dd578063b009493d146103f057600080fd5b80637dfb86a01461038757806391d148541461039a5780639fadb7e0146103ad57600080fd5b80632964c5261161017c5780634bc02da61161014b5780634bc02da6146103225780635c975abb146103495780637601e4ad146103545780637a2cac451461037457600080fd5b80632964c526146102d45780632a97fa77146102e95780632f2ff15d146102fc57806336568abe1461030f57600080fd5b806316dc15fe116101b857806316dc15fe1461024b57806316e4cbf91461025e5780631a9489471461028e578063248a9ca3146102b157600080fd5b806301ffc9a7146101df5780630bf5366814610207578063144bf58914610228575b600080fd5b6101f26101ed366004611a8d565b6104ac565b60405190151581526020015b60405180910390f35b61021a610215366004611ad3565b6104e3565b6040516101fe929190611b3e565b61023d60008051602061235783398151915281565b6040519081526020016101fe565b61021a610259366004611ad3565b610592565b6001546102769061010090046001600160a01b031681565b6040516001600160a01b0390911681526020016101fe565b6102a161029c366004611c0d565b6105be565b6040516101fe9493929190611c42565b61023d6102bf366004611c7d565b60009081526020819052604090206001015490565b6102e76102e2366004611c96565b61068c565b005b6102e76102f7366004611ad3565b6109a7565b6102e761030a366004611d2f565b6109db565b6102e761031d366004611d2f565b610a05565b61023d7fee129e6fb492ad85e7c4d99e24facc6412bb957226fd6e1ff5efa1d2c0569e9c81565b60015460ff166101f2565b610367610362366004611c0d565b610a83565b6040516101fe9190611d5b565b6102e7610382366004611c0d565b610b00565b61021a610395366004611ad3565b610da7565b6101f26103a8366004611d2f565b610dd3565b6102e76103bb366004611da8565b610dfc565b61023d600081565b61023d60008051602061233783398151915281565b6102e76103eb366004611df6565b610ee0565b6104036103fe366004611c0d565b611039565b6040516101fe959493929190611e70565b6102e7610422366004611da8565b611192565b6102e7610435366004611ebf565b611258565b6102e7610448366004611d2f565b6112fc565b61027661045b366004611c0d565b611321565b6102e761046e366004611da8565b611355565b6102e7610481366004611f16565b61141c565b610276610494366004611c0d565b61156e565b6102e76104a7366004611c0d565b6115be565b60006001600160e01b03198216637965db0b60e01b14806104dd57506301ffc9a760e01b6001600160e01b03198316145b92915050565b600460205260009081526040902080546001820180546001600160a01b03909216929161050f90611f5b565b80601f016020809104026020016040519081016040528092919081815260200182805461053b90611f5b565b80156105885780601f1061055d57610100808354040283529160200191610588565b820191906000526020600020905b81548152906001019060200180831161056b57829003601f168201915b5050505050905082565b600260205260009081526040902080546001820180546001600160a01b03909216929161050f90611f5b565b80516020818301810180516006825292820191909301209152805481906105e490611f5b565b80601f016020809104026020016040519081016040528092919081815260200182805461061090611f5b565b801561065d5780601f106106325761010080835404028352916020019161065d565b820191906000526020600020905b81548152906001019060200180831161064057829003601f168201915b50505050600183015460029093015491926001600160a01b03908116929081169150600160a01b900460ff1684565b6000805160206123378339815191526106a4816116c7565b6106ac6116d4565b6001546152089061010090046001600160a01b031663a0b7b9d2336106d1843a611fab565b6040516001600160e01b031960e085901b1681526001600160a01b0390921660048301526024820152604401600060405180830381600087803b15801561071757600080fd5b505af115801561072b573d6000803e3d6000fd5b5050505061074760008051602061233783398151915233610dd3565b61076c5760405162461bcd60e51b815260040161076390611fc2565b60405180910390fd5b604080516000815260208101918290525181209060059061078e908990612005565b908152604051602091819003820181206107aa92909101612021565b60405160208183030381529060405280519060200120146108175760405162461bcd60e51b815260206004820152602160248201527f447275672077697468207468697320494420616c7265616479206578697374736044820152601760f91b6064820152608401610763565b6040518060c00160405280868152602001858152602001846001600160a01b03168152602001846001600160a01b03168152602001600067ffffffffffffffff81111561086657610866611b6a565b60405190808252806020026020018201604052801561088f578160200160208202803683370190505b50815260016020909101526040516005906108ab908990612005565b908152604051908190036020019020815181906108c890826120e5565b50602082015160018201906108dd90826120e5565b5060408201516002820180546001600160a01b039283166001600160a01b031991821617909155606084015160038401805491909316911617905560808201518051610933916004840191602090910190611a13565b5060a091909101516005918201805460ff191691151591909117905560405161095d908890612005565b90815260405160209181900382019020600401805460018101825560009182529190200180546001600160a01b0319166001600160a01b0394909416939093179092555050505050565b60006109b2816116c7565b50600180546001600160a01b0390921661010002610100600160a81b0319909216919091179055565b6000828152602081905260409020600101546109f6816116c7565b610a00838361171c565b505050565b6001600160a01b0381163314610a755760405162461bcd60e51b815260206004820152602f60248201527f416363657373436f6e74726f6c3a2063616e206f6e6c792072656e6f756e636560448201526e103937b632b9903337b91039b2b63360891b6064820152608401610763565b610a7f82826117a0565b5050565b6060600582604051610a959190612005565b9081526040805191829003602090810183206004018054808302850183019093528284529190830182828015610af457602002820191906000526020600020905b81546001600160a01b03168152600190910190602001808311610ad6575b50505050509050919050565b610b1860008051602061233783398151915233610dd3565b610b345760405162461bcd60e51b815260040161076390611fc2565b336001600160a01b0316600682604051610b4e9190612005565b908152604051908190036020019020600201546001600160a01b031614610bb75760405162461bcd60e51b815260206004820152601960248201527f43616c6c6572206973206e6f74207468652073656c6c65722e000000000000006044820152606401610763565b336001600160a01b03166005600683604051610bd39190612005565b908152604051908190036020018120610beb91612021565b908152604051908190036020019020600301546001600160a01b031614610c545760405162461bcd60e51b815260206004820152601d60248201527f43616c6c657220646f6573206e6f74206f776e2074686520647275672e0000006044820152606401610763565b610d30600682604051610c679190612005565b9081526040519081900360200190208054610c8190611f5b565b80601f0160208091040260200160405190810160405280929190818152602001828054610cad90611f5b565b8015610cfa5780601f10610ccf57610100808354040283529160200191610cfa565b820191906000526020600020905b815481529060010190602001808311610cdd57829003601f168201915b5050505050600683604051610d0f9190612005565b908152604051908190036020019020600101546001600160a01b031661141c565b6001600682604051610d429190612005565b9081526040519081900360200181206002018054921515600160a01b0260ff60a01b19909316929092179091557f4151b7e804bf6c2582e73179c26ebcf401858707c6693e064aaa66a20a4c533990610d9c9083906121a5565b60405180910390a150565b600360205260009081526040902080546001820180546001600160a01b03909216929161050f90611f5b565b6000918252602082815260408084206001600160a01b0393909316845291905290205460ff1690565b610e267fee129e6fb492ad85e7c4d99e24facc6412bb957226fd6e1ff5efa1d2c0569e9c836109db565b6040805180820182526001600160a01b03848116808352602080840186815260009283526004909152939020825181546001600160a01b031916921691909117815591519091906001820190610e7c90826120e5565b50905050816001600160a01b03167f30c18ca0f62fc07ae1766a969b6369b4a84ef23315593c6493c90db154f1d6f3604051610ed49060208082526008908201526721a7a729aaa6a2a960c11b604082015260600190565b60405180910390a25050565b600583604051610ef09190612005565b9081526040519081900360200190206005015460ff16610f485760405162461bcd60e51b815260206004820152601360248201527222393ab39036bab9ba103132903b30b634b21760691b6044820152606401610763565b604080516080810182528481526001600160a01b038085166020830152831681830152600060608201529051600690610f82908790612005565b90815260405190819003602001902081518190610f9f90826120e5565b5060208201516001820180546001600160a01b039283166001600160a01b0319909116179055604080840151600290930180546060909501511515600160a01b026001600160a81b0319909516939092169290921792909217909155517f8592e5d963c312ea064b94d210e1886bf182ddea7f03831069c3218ef9d40baa9061102b90869086906121b8565b60405180910390a150505050565b805160208183018101805160058252928201919093012091528054819061105f90611f5b565b80601f016020809104026020016040519081016040528092919081815260200182805461108b90611f5b565b80156110d85780601f106110ad576101008083540402835291602001916110d8565b820191906000526020600020905b8154815290600101906020018083116110bb57829003601f168201915b5050505050908060010180546110ed90611f5b565b80601f016020809104026020016040519081016040528092919081815260200182805461111990611f5b565b80156111665780601f1061113b57610100808354040283529160200191611166565b820191906000526020600020905b81548152906001019060200180831161114957829003601f168201915b505050506002830154600384015460059094015492936001600160a01b03918216939116915060ff1685565b6111aa600080516020612337833981519152836109db565b6040805180820182526001600160a01b03848116808352602080840186815260009283526002909152939020825181546001600160a01b03191692169190911781559151909190600182019061120090826120e5565b50905050816001600160a01b03167f30c18ca0f62fc07ae1766a969b6369b4a84ef23315593c6493c90db154f1d6f3604051610ed49060208082526008908201526729aaa8282624a2a960c11b604082015260600190565b61127060008051602061235783398151915233610dd3565b61128c5760405162461bcd60e51b8152600401610763906121e6565b8060058360405161129d9190612005565b908152604051908190036020018120600501805492151560ff19909316929092179091557fb00e29257c711db47437bc90b3216ea7c436a65108cc8a996a6e33536f4bb7a2906112f0908490849061222a565b60405180910390a15050565b600082815260208190526040902060010154611317816116c7565b610a0083836117a0565b60006005826040516113339190612005565b908152604051908190036020019020600301546001600160a01b031692915050565b61136d600080516020612357833981519152836109db565b6040805180820182526001600160a01b03848116808352602080840186815260009283526003909152939020825181546001600160a01b0319169216919091178155915190919060018201906113c390826120e5565b50905050816001600160a01b03167f30c18ca0f62fc07ae1766a969b6369b4a84ef23315593c6493c90db154f1d6f3604051610ed4906020808252600990820152682922a3aaa620aa27a960b91b604082015260600190565b60058260405161142c9190612005565b90815260405190819003602001902060030154336001600160a01b03909116146114ac5760405162461bcd60e51b815260206004820152602b60248201527f4f6e6c79207468652063757272656e74206f776e65722063616e207472616e7360448201526a3332b910309032393ab39760a91b6064820152608401610763565b806005836040516114bd9190612005565b90815260405190819003602001812060030180546001600160a01b03939093166001600160a01b0319909316929092179091556005906114fe908490612005565b908152604051602091819003820181206004018054600181018255600091825292902090910180546001600160a01b0319166001600160a01b0384161790557fe8604bff71ef91700e807102afecb8cc239d93707c7b6ef9e2639cb41c9d2cb8906112f09084903390859061224e565b60006005826040516115809190612005565b90815260200160405180910390206004016000815481106115a3576115a3612281565b6000918252602090912001546001600160a01b031692915050565b6115d660008051602061235783398151915233610dd3565b6115f25760405162461bcd60e51b8152600401610763906121e6565b6005816040516116029190612005565b9081526040519081900360200190206005015460ff166116645760405162461bcd60e51b815260206004820152601860248201527f4472756720697320616c726561647920696e76616c69642e00000000000000006044820152606401610763565b60006005826040516116769190612005565b908152604051908190036020018120600501805492151560ff19909316929092179091557f32a50e7ce049f3c7f654ff56cd946e4c8fecdde3aeeaa2ff86bdaf4cb4a4a59c90610d9c9083906121a5565b6116d18133611805565b50565b60015460ff161561171a5760405162461bcd60e51b815260206004820152601060248201526f14185d5cd8589b194e881c185d5cd95960821b6044820152606401610763565b565b6117268282610dd3565b610a7f576000828152602081815260408083206001600160a01b03851684529091529020805460ff1916600117905561175c3390565b6001600160a01b0316816001600160a01b0316837f2f8788117e7eff1d82e926ec794901d17c78024a50270940304540a733656f0d60405160405180910390a45050565b6117aa8282610dd3565b15610a7f576000828152602081815260408083206001600160a01b0385168085529252808320805460ff1916905551339285917ff6391f5c32d9c69d2a47ea670b442974b53935d1edc7fd64eb21e047a839171b9190a45050565b61180f8282610dd3565b610a7f5761181c8161185e565b611827836020611870565b604051602001611838929190612297565b60408051601f198184030181529082905262461bcd60e51b8252610763916004016121a5565b60606104dd6001600160a01b03831660145b6060600061187f836002611fab565b61188a90600261230c565b67ffffffffffffffff8111156118a2576118a2611b6a565b6040519080825280601f01601f1916602001820160405280156118cc576020820181803683370190505b509050600360fc1b816000815181106118e7576118e7612281565b60200101906001600160f81b031916908160001a905350600f60fb1b8160018151811061191657611916612281565b60200101906001600160f81b031916908160001a905350600061193a846002611fab565b61194590600161230c565b90505b60018111156119bd576f181899199a1a9b1b9c1cb0b131b232b360811b85600f166010811061197957611979612281565b1a60f81b82828151811061198f5761198f612281565b60200101906001600160f81b031916908160001a90535060049490941c936119b68161231f565b9050611948565b508315611a0c5760405162461bcd60e51b815260206004820181905260248201527f537472696e67733a20686578206c656e67746820696e73756666696369656e746044820152606401610763565b9392505050565b828054828255906000526020600020908101928215611a68579160200282015b82811115611a6857825182546001600160a01b0319166001600160a01b03909116178255602090920191600190910190611a33565b50611a74929150611a78565b5090565b5b80821115611a745760008155600101611a79565b600060208284031215611a9f57600080fd5b81356001600160e01b031981168114611a0c57600080fd5b80356001600160a01b0381168114611ace57600080fd5b919050565b600060208284031215611ae557600080fd5b611a0c82611ab7565b60005b83811015611b09578181015183820152602001611af1565b50506000910152565b60008151808452611b2a816020860160208601611aee565b601f01601f19169290920160200192915050565b6001600160a01b0383168152604060208201819052600090611b6290830184611b12565b949350505050565b634e487b7160e01b600052604160045260246000fd5b600082601f830112611b9157600080fd5b813567ffffffffffffffff80821115611bac57611bac611b6a565b604051601f8301601f19908116603f01168101908282118183101715611bd457611bd4611b6a565b81604052838152866020858801011115611bed57600080fd5b836020870160208301376000602085830101528094505050505092915050565b600060208284031215611c1f57600080fd5b813567ffffffffffffffff811115611c3657600080fd5b611b6284828501611b80565b608081526000611c556080830187611b12565b6001600160a01b03958616602084015293909416604082015290151560609091015292915050565b600060208284031215611c8f57600080fd5b5035919050565b60008060008060808587031215611cac57600080fd5b843567ffffffffffffffff80821115611cc457600080fd5b611cd088838901611b80565b95506020870135915080821115611ce657600080fd5b611cf288838901611b80565b94506040870135915080821115611d0857600080fd5b50611d1587828801611b80565b925050611d2460608601611ab7565b905092959194509250565b60008060408385031215611d4257600080fd5b82359150611d5260208401611ab7565b90509250929050565b6020808252825182820181905260009190848201906040850190845b81811015611d9c5783516001600160a01b031683529284019291840191600101611d77565b50909695505050505050565b60008060408385031215611dbb57600080fd5b611dc483611ab7565b9150602083013567ffffffffffffffff811115611de057600080fd5b611dec85828601611b80565b9150509250929050565b60008060008060808587031215611e0c57600080fd5b843567ffffffffffffffff80821115611e2457600080fd5b611e3088838901611b80565b95506020870135915080821115611e4657600080fd5b50611e5387828801611b80565b935050611e6260408601611ab7565b9150611d2460608601611ab7565b60a081526000611e8360a0830188611b12565b8281036020840152611e958188611b12565b6001600160a01b039687166040850152949095166060830152509015156080909101529392505050565b60008060408385031215611ed257600080fd5b823567ffffffffffffffff811115611ee957600080fd5b611ef585828601611b80565b92505060208301358015158114611f0b57600080fd5b809150509250929050565b60008060408385031215611f2957600080fd5b823567ffffffffffffffff811115611f4057600080fd5b611f4c85828601611b80565b925050611d5260208401611ab7565b600181811c90821680611f6f57607f821691505b602082108103611f8f57634e487b7160e01b600052602260045260246000fd5b50919050565b634e487b7160e01b600052601160045260246000fd5b80820281158282048414176104dd576104dd611f95565b60208082526023908201527f43616c6c657220646f6573206e6f74206861766520737570706c69657220726f60408201526236329760e91b606082015260800190565b60008251612017818460208701611aee565b9190910192915050565b600080835461202f81611f5b565b60018281168015612047576001811461205c5761208b565b60ff198416875282151583028701945061208b565b8760005260208060002060005b858110156120825781548a820152908401908201612069565b50505082870194505b50929695505050505050565b601f821115610a0057600081815260208120601f850160051c810160208610156120be5750805b601f850160051c820191505b818110156120dd578281556001016120ca565b505050505050565b815167ffffffffffffffff8111156120ff576120ff611b6a565b6121138161210d8454611f5b565b84612097565b602080601f83116001811461214857600084156121305750858301515b600019600386901b1c1916600185901b1785556120dd565b600085815260208120601f198616915b8281101561217757888601518255948401946001909101908401612158565b50858210156121955787850151600019600388901b60f8161c191681555b5050505050600190811b01905550565b602081526000611a0c6020830184611b12565b6040815260006121cb6040830185611b12565b82810360208401526121dd8185611b12565b95945050505050565b60208082526024908201527f43616c6c657220646f6573206e6f74206861766520726567756c61746f72207260408201526337b6329760e11b606082015260800190565b60408152600061223d6040830185611b12565b905082151560208301529392505050565b6060815260006122616060830186611b12565b6001600160a01b0394851660208401529290931660409091015292915050565b634e487b7160e01b600052603260045260246000fd5b7f416363657373436f6e74726f6c3a206163636f756e74200000000000000000008152600083516122cf816017850160208801611aee565b7001034b99036b4b9b9b4b733903937b6329607d1b6017918401918201528351612300816028840160208801611aee565b01602801949350505050565b808201808211156104dd576104dd611f95565b60008161232e5761232e611f95565b50600019019056fef4649f2a97b4905837fc846dcfefa3e2561c3a9744fc53688b4d0bcb33e49f983c801090d1d22d8d8fe9837ef6d8ab50dfdff14e17d0039e333d4d7138ed50b3a2646970667358221220b896c6e95acacb96113d2873f3fc896768a2f472a59a6432969eca5026a0e85464736f6c63430008140033",
    "linkReferences": {}
  },
  "methodIdentifiers": {
    "CONSUMER_ROLE()": "4bc02da6",
    "DEFAULT_ADMIN_ROLE()": "a217fddf",
    "REGULATOR_ROLE()": "144bf589",
    "SUPPLIER_ROLE()": "a29508fc",
    "consumers(address)": "0bf53668",
    "createConsumer(address,string)": "9fadb7e0",
    "createDrug(string,string,string,address)": "2964c526",
    "createOrder(string,string,address,address)": "aa6e2a72",
    "createRegulator(address,string)": "d842e8c5",
    "createSupplier(address,string)": "b0c6031f",
    "drugs(string)": "b009493d",
    "fulfillOrder(string)": "7a2cac45",
    "getCurrentOwner(string)": "d55a772d",
    "getOrigin(string)": "f8d9673f",
    "getOwnershipChain(string)": "7601e4ad",
    "getRoleAdmin(bytes32)": "248a9ca3",
    "grantRole(bytes32,address)": "2f2ff15d",
    "hasRole(bytes32,address)": "91d14854",
    "invalidateDrug(string)": "fc0e4e2f",
    "orders(string)": "1a948947",
    "paused()": "5c975abb",
    "paymaster()": "16e4cbf9",
    "regulators(address)": "7dfb86a0",
    "renounceRole(bytes32,address)": "36568abe",
    "revokeRole(bytes32,address)": "d547741f",
    "setPaymaster(address)": "2a97fa77",
    "suppliers(address)": "16dc15fe",
    "supportsInterface(bytes4)": "01ffc9a7",
    "transferDrug(string,address)": "f16d9519",
    "verifyDrug(string,bool)": "b50a0659"
  },
  "id": 10
}