{
  "abi": [
    {
      "inputs": [],
      "name": "TRANSACTION_ERROR_OCCURRED",
      "type": "error"
    },
    {
      "anonymous": false,
      "inputs": [
        {
          "indexed": false,
          "internalType": "bytes32",
          "name": "_transactionHash",
          "type": "bytes32"
        },
        {
          "indexed": false,
          "internalType": "address",
          "name": "_from",
          "type": "address"
        },
        {
          "indexed": false,
          "internalType": "address",
          "name": "_to",
          "type": "address"
        },
        {
          "indexed": false,
          "internalType": "bytes32",
          "name": "_prevTransaction",
          "type": "bytes32"
        },
        {
          "indexed": false,
          "internalType": "string",
          "name": "_latitude",
          "type": "string"
        },
        {
          "indexed": false,
          "internalType": "string",
          "name": "_longitude",
          "type": "string"
        }
      ],
      "name": "transactionCreated",
      "type": "event"
    },
    {
      "inputs": [
        {
          "internalType": "bytes32",
          "name": "_transactionHash",
          "type": "bytes32"
        },
        {
          "internalType": "address",
          "name": "_from",
          "type": "address"
        },
        {
          "internalType": "address",
          "name": "_to",
          "type": "address"
        },
        {
          "internalType": "bytes32",
          "name": "_prevTransaction",
          "type": "bytes32"
        },
        {
          "internalType": "string",
          "name": "_latitude",
          "type": "string"
        },
        {
          "internalType": "string",
          "name": "_longitude",
          "type": "string"
        }
      ],
      "name": "createTransactionEntry",
      "outputs": [],
      "stateMutability": "nonpayable",
      "type": "function"
    },
    {
      "inputs": [],
      "name": "getAllTransactions",
      "outputs": [
        {
          "components": [
            {
              "internalType": "bytes32",
              "name": "transactionHash",
              "type": "bytes32"
            },
            {
              "internalType": "address",
              "name": "fromAddr",
              "type": "address"
            },
            {
              "internalType": "address",
              "name": "toAddr",
              "type": "address"
            },
            {
              "internalType": "bytes32",
              "name": "prevTransaction",
              "type": "bytes32"
            },
            {
              "internalType": "string",
              "name": "latitude",
              "type": "string"
            },
            {
              "internalType": "string",
              "name": "longitude",
              "type": "string"
            },
            {
              "internalType": "uint256",
              "name": "timestamp",
              "type": "uint256"
            }
          ],
          "internalType": "struct Transactions.transactions[]",
          "name": "",
          "type": "tuple[]"
        }
      ],
      "stateMutability": "view",
      "type": "function"
    },
    {
      "inputs": [
        {
          "internalType": "uint256",
          "name": "",
          "type": "uint256"
        }
      ],
      "name": "txns",
      "outputs": [
        {
          "internalType": "bytes32",
          "name": "transactionHash",
          "type": "bytes32"
        },
        {
          "internalType": "address",
          "name": "fromAddr",
          "type": "address"
        },
        {
          "internalType": "address",
          "name": "toAddr",
          "type": "address"
        },
        {
          "internalType": "bytes32",
          "name": "prevTransaction",
          "type": "bytes32"
        },
        {
          "internalType": "string",
          "name": "latitude",
          "type": "string"
        },
        {
          "internalType": "string",
          "name": "longitude",
          "type": "string"
        },
        {
          "internalType": "uint256",
          "name": "timestamp",
          "type": "uint256"
        }
      ],
      "stateMutability": "view",
      "type": "function"
    }
  ],
  "bytecode": {
    "object": "0x608060405234801561001057600080fd5b50610ba7806100206000396000f3fe608060405234801561001057600080fd5b50600436106100415760003560e01c806327506f5314610046578063c202fc2414610064578063daa1056014610079575b600080fd5b61004e61009f565b60405161005b91906106cb565b60405180910390f35b610077610072366004610855565b6102ea565b005b61008c6100873660046108ec565b61052b565b60405161005b9796959493929190610905565b60606000805467ffffffffffffffff8111156100bd576100bd6107b2565b60405190808252806020026020018201604052801561012357816020015b6040805160e0810182526000808252602080830182905292820181905260608083018290526080830181905260a083015260c082015282526000199092019101816100db5790505b50905060005b6000548110156102e457600081815260016020818152604092839020835160e08101855281548152928101546001600160a01b03908116928401929092526002810154909116928201929092526003820154606082015260048201805491929160808401919061019890610965565b80601f01602080910402602001604051908101604052809291908181526020018280546101c490610965565b80156102115780601f106101e657610100808354040283529160200191610211565b820191906000526020600020905b8154815290600101906020018083116101f457829003601f168201915b5050505050815260200160058201805461022a90610965565b80601f016020809104026020016040519081016040528092919081815260200182805461025690610965565b80156102a35780601f10610278576101008083540402835291602001916102a3565b820191906000526020600020905b81548152906001019060200180831161028657829003601f168201915b505050505081526020016006820154815250508282815181106102c8576102c8610999565b6020026020010181905250806102dd906109c5565b9050610129565b50919050565b600080544291036103bf576040805160e0810182528881526001600160a01b038089166020808401918252898316848601908152606085018a8152608086018a815260a087018a905260c087018990526000805481526001948590529790972086518155935192840180549386166001600160a01b031994851617905590516002840180549190951692169190911790925590516003820155915190919060048201906103979082610a2d565b5060a082015160058201906103ac9082610a2d565b5060c082015181600601559050506104c9565b836001600060016000546103d39190610aed565b81526020019081526020016000206000015414610403576040516347bc253b60e01b815260040160405180910390fd5b6040805160e0810182528881526001600160a01b038089166020808401918252898316848601908152606085018a8152608086018a815260a087018a905260c087018990526000805481526001948590529790972086518155935192840180549386166001600160a01b031994851617905590516002840180549190951692169190911790925590516003820155915190919060048201906104a59082610a2d565b5060a082015160058201906104ba9082610a2d565b5060c082015181600601559050505b60016000808282546104db9190610b06565b90915550506040517f6ed33735d35afab24c9e528c8acb867ca8006c27e3369ba46090b6005244130c9061051a90899089908990899089908990610b19565b60405180910390a150505050505050565b6001602081905260009182526040909120805491810154600282015460038301546004840180546001600160a01b03948516959490931693919261056e90610965565b80601f016020809104026020016040519081016040528092919081815260200182805461059a90610965565b80156105e75780601f106105bc576101008083540402835291602001916105e7565b820191906000526020600020905b8154815290600101906020018083116105ca57829003601f168201915b5050505050908060050180546105fc90610965565b80601f016020809104026020016040519081016040528092919081815260200182805461062890610965565b80156106755780601f1061064a57610100808354040283529160200191610675565b820191906000526020600020905b81548152906001019060200180831161065857829003601f168201915b5050505050908060060154905087565b6000815180845260005b818110156106ab5760208185018101518683018201520161068f565b506000602082860101526020601f19601f83011685010191505092915050565b60006020808301818452808551808352604092508286019150828160051b87010184880160005b8381101561078857888303603f19018552815180518452878101516001600160a01b03908116898601528782015116878501526060808201519085015260808082015160e0828701819052919061074b83880182610685565b9250505060a080830151868303828801526107668382610685565b60c09485015197909401969096525050948701949250908601906001016106f2565b509098975050505050505050565b80356001600160a01b03811681146107ad57600080fd5b919050565b634e487b7160e01b600052604160045260246000fd5b600082601f8301126107d957600080fd5b813567ffffffffffffffff808211156107f4576107f46107b2565b604051601f8301601f19908116603f0116810190828211818310171561081c5761081c6107b2565b8160405283815286602085880101111561083557600080fd5b836020870160208301376000602085830101528094505050505092915050565b60008060008060008060c0878903121561086e57600080fd5b8635955061087e60208801610796565b945061088c60408801610796565b935060608701359250608087013567ffffffffffffffff808211156108b057600080fd5b6108bc8a838b016107c8565b935060a08901359150808211156108d257600080fd5b506108df89828a016107c8565b9150509295509295509295565b6000602082840312156108fe57600080fd5b5035919050565b8781526001600160a01b038781166020830152861660408201526060810185905260e06080820181905260009061093e90830186610685565b82810360a08401526109508186610685565b9150508260c083015298975050505050505050565b600181811c9082168061097957607f821691505b6020821081036102e457634e487b7160e01b600052602260045260246000fd5b634e487b7160e01b600052603260045260246000fd5b634e487b7160e01b600052601160045260246000fd5b6000600182016109d7576109d76109af565b5060010190565b601f821115610a2857600081815260208120601f850160051c81016020861015610a055750805b601f850160051c820191505b81811015610a2457828155600101610a11565b5050505b505050565b815167ffffffffffffffff811115610a4757610a476107b2565b610a5b81610a558454610965565b846109de565b602080601f831160018114610a905760008415610a785750858301515b600019600386901b1c1916600185901b178555610a24565b600085815260208120601f198616915b82811015610abf57888601518255948401946001909101908401610aa0565b5085821015610add5787850151600019600388901b60f8161c191681555b5050505050600190811b01905550565b81810381811115610b0057610b006109af565b92915050565b80820180821115610b0057610b006109af565b8681526001600160a01b038681166020830152851660408201526060810184905260c060808201819052600090610b5290830185610685565b82810360a0840152610b648185610685565b999850505050505050505056fea26469706673582212208a35955fab82543e28a59efc7a97c6f621e20c8d17329e2332bf73c440a402f564736f6c63430008140033",
    "linkReferences": {}
  },
  "methodIdentifiers": {
    "createTransactionEntry(bytes32,address,address,bytes32,string,string)": "c202fc24",
    "getAllTransactions()": "27506f53",
    "txns(uint256)": "daa10560"
  },
  "id": 8
}