{
  "abi": [
    {
      "inputs": [],
      "name": "TRANSACTION_ERROR_OCCURRED",
      "type": "error"
    },
    {
      "anonymous": false,
      "inputs": [
        {
          "indexed": false,
          "internalType": "bytes32",
          "name": "_transactionHash",
          "type": "bytes32"
        },
        {
          "indexed": false,
          "internalType": "address",
          "name": "_from",
          "type": "address"
        },
        {
          "indexed": false,
          "internalType": "address",
          "name": "_to",
          "type": "address"
        },
        {
          "indexed": false,
          "internalType": "bytes32",
          "name": "_prevTransaction",
          "type": "bytes32"
        },
        {
          "indexed": false,
          "internalType": "string",
          "name": "_latitude",
          "type": "string"
        },
        {
          "indexed": false,
          "internalType": "string",
          "name": "_longitude",
          "type": "string"
        }
      ],
      "name": "transactionCreated",
      "type": "event"
    },
    {
      "inputs": [
        {
          "internalType": "bytes32",
          "name": "_transactionHash",
          "type": "bytes32"
        },
        {
          "internalType": "address",
          "name": "_from",
          "type": "address"
        },
        {
          "internalType": "address",
          "name": "_to",
          "type": "address"
        },
        {
          "internalType": "bytes32",
          "name": "_prevTransaction",
          "type": "bytes32"
        },
        {
          "internalType": "string",
          "name": "_latitude",
          "type": "string"
        },
        {
          "internalType": "string",
          "name": "_longitude",
          "type": "string"
        }
      ],
      "name": "createTransactionEntry",
      "outputs": [],
      "stateMutability": "nonpayable",
      "type": "function"
    },
    {
      "inputs": [],
      "name": "getAllTransactions",
      "outputs": [
        {
          "components": [
            {
              "internalType": "bytes32",
              "name": "transactionHash",
              "type": "bytes32"
            },
            {
              "internalType": "address",
              "name": "fromAddr",
              "type": "address"
            },
            {
              "internalType": "address",
              "name": "toAddr",
              "type": "address"
            },
            {
              "internalType": "bytes32",
              "name": "prevTransaction",
              "type": "bytes32"
            },
            {
              "internalType": "string",
              "name": "latitude",
              "type": "string"
            },
            {
              "internalType": "string",
              "name": "longitude",
              "type": "string"
            },
            {
              "internalType": "uint256",
              "name": "timestamp",
              "type": "uint256"
            }
          ],
          "internalType": "struct Transactions.transactions[]",
          "name": "",
          "type": "tuple[]"
        }
      ],
      "stateMutability": "view",
      "type": "function"
    },
    {
      "inputs": [],
      "name": "getAllTransactionsCount",
      "outputs": [
        {
          "internalType": "uint256",
          "name": "",
          "type": "uint256"
        }
      ],
      "stateMutability": "view",
      "type": "function"
    },
    {
      "inputs": [
        {
          "internalType": "uint256",
          "name": "id",
          "type": "uint256"
        }
      ],
      "name": "getTransaction",
      "outputs": [
        {
          "internalType": "bytes32",
          "name": "",
          "type": "bytes32"
        },
        {
          "internalType": "address",
          "name": "",
          "type": "address"
        },
        {
          "internalType": "address",
          "name": "",
          "type": "address"
        },
        {
          "internalType": "bytes32",
          "name": "",
          "type": "bytes32"
        },
        {
          "internalType": "string",
          "name": "",
          "type": "string"
        },
        {
          "internalType": "string",
          "name": "",
          "type": "string"
        },
        {
          "internalType": "uint256",
          "name": "",
          "type": "uint256"
        }
      ],
      "stateMutability": "view",
      "type": "function"
    },
    {
      "inputs": [],
      "name": "transactionCount",
      "outputs": [
        {
          "internalType": "uint256",
          "name": "",
          "type": "uint256"
        }
      ],
      "stateMutability": "view",
      "type": "function"
    },
    {
      "inputs": [
        {
          "internalType": "uint256",
          "name": "",
          "type": "uint256"
        }
      ],
      "name": "txns",
      "outputs": [
        {
          "internalType": "bytes32",
          "name": "transactionHash",
          "type": "bytes32"
        },
        {
          "internalType": "address",
          "name": "fromAddr",
          "type": "address"
        },
        {
          "internalType": "address",
          "name": "toAddr",
          "type": "address"
        },
        {
          "internalType": "bytes32",
          "name": "prevTransaction",
          "type": "bytes32"
        },
        {
          "internalType": "string",
          "name": "latitude",
          "type": "string"
        },
        {
          "internalType": "string",
          "name": "longitude",
          "type": "string"
        },
        {
          "internalType": "uint256",
          "name": "timestamp",
          "type": "uint256"
        }
      ],
      "stateMutability": "view",
      "type": "function"
    }
  ],
  "bytecode": {
    "object": "0x608060405234801561001057600080fd5b50610dc4806100206000396000f3fe608060405234801561001057600080fd5b50600436106100625760003560e01c806327506f531461006757806333ea3dc814610085578063b77bf600146100ab578063c202fc24146100c2578063c362eb7f146100d7578063daa10560146100df575b600080fd5b61006f6100f2565b60405161007c91906108e8565b60405180910390f35b6100986100933660046109b3565b61033d565b60405161007c97969594939291906109cc565b6100b460005481565b60405190815260200161007c565b6100d56100d0366004610aeb565b610507565b005b6000546100b4565b6100986100ed3660046109b3565b610748565b60606000805467ffffffffffffffff81111561011057610110610a48565b60405190808252806020026020018201604052801561017657816020015b6040805160e0810182526000808252602080830182905292820181905260608083018290526080830181905260a083015260c0820152825260001990920191018161012e5790505b50905060005b60005481101561033757600081815260016020818152604092839020835160e08101855281548152928101546001600160a01b0390811692840192909252600281015490911692820192909252600382015460608201526004820180549192916080840191906101eb90610b82565b80601f016020809104026020016040519081016040528092919081815260200182805461021790610b82565b80156102645780601f1061023957610100808354040283529160200191610264565b820191906000526020600020905b81548152906001019060200180831161024757829003601f168201915b5050505050815260200160058201805461027d90610b82565b80601f01602080910402602001604051908101604052809291908181526020018280546102a990610b82565b80156102f65780601f106102cb576101008083540402835291602001916102f6565b820191906000526020600020905b8154815290600101906020018083116102d957829003601f168201915b5050505050815260200160068201548152505082828151811061031b5761031b610bb6565b60200260200101819052508061033090610be2565b905061017c565b50919050565b6000818152600160208181526040808420815160e08101835281548152938101546001600160a01b0390811693850193909352600281015490921690830152600381015460608381019190915260048201805485948594859493849386938493909290916080840191906103b090610b82565b80601f01602080910402602001604051908101604052809291908181526020018280546103dc90610b82565b80156104295780601f106103fe57610100808354040283529160200191610429565b820191906000526020600020905b81548152906001019060200180831161040c57829003601f168201915b5050505050815260200160058201805461044290610b82565b80601f016020809104026020016040519081016040528092919081815260200182805461046e90610b82565b80156104bb5780601f10610490576101008083540402835291602001916104bb565b820191906000526020600020905b81548152906001019060200180831161049e57829003601f168201915b50505091835250506006919091015460209182015281519082015160408301516060840151608085015160a086015160c090960151949f939e50919c509a509850919650945092505050565b600080544291036105dc576040805160e0810182528881526001600160a01b038089166020808401918252898316848601908152606085018a8152608086018a815260a087018a905260c087018990526000805481526001948590529790972086518155935192840180549386166001600160a01b031994851617905590516002840180549190951692169190911790925590516003820155915190919060048201906105b49082610c4a565b5060a082015160058201906105c99082610c4a565b5060c082015181600601559050506106e6565b836001600060016000546105f09190610d0a565b81526020019081526020016000206000015414610620576040516347bc253b60e01b815260040160405180910390fd5b6040805160e0810182528881526001600160a01b038089166020808401918252898316848601908152606085018a8152608086018a815260a087018a905260c087018990526000805481526001948590529790972086518155935192840180549386166001600160a01b031994851617905590516002840180549190951692169190911790925590516003820155915190919060048201906106c29082610c4a565b5060a082015160058201906106d79082610c4a565b5060c082015181600601559050505b60016000808282546106f89190610d23565b90915550506040517f6ed33735d35afab24c9e528c8acb867ca8006c27e3369ba46090b6005244130c9061073790899089908990899089908990610d36565b60405180910390a150505050505050565b6001602081905260009182526040909120805491810154600282015460038301546004840180546001600160a01b03948516959490931693919261078b90610b82565b80601f01602080910402602001604051908101604052809291908181526020018280546107b790610b82565b80156108045780601f106107d957610100808354040283529160200191610804565b820191906000526020600020905b8154815290600101906020018083116107e757829003601f168201915b50505050509080600501805461081990610b82565b80601f016020809104026020016040519081016040528092919081815260200182805461084590610b82565b80156108925780601f1061086757610100808354040283529160200191610892565b820191906000526020600020905b81548152906001019060200180831161087557829003601f168201915b5050505050908060060154905087565b6000815180845260005b818110156108c8576020818501810151868301820152016108ac565b506000602082860101526020601f19601f83011685010191505092915050565b60006020808301818452808551808352604092508286019150828160051b87010184880160005b838110156109a557888303603f19018552815180518452878101516001600160a01b03908116898601528782015116878501526060808201519085015260808082015160e08287018190529190610968838801826108a2565b9250505060a0808301518683038288015261098383826108a2565b60c094850151979094019690965250509487019492509086019060010161090f565b509098975050505050505050565b6000602082840312156109c557600080fd5b5035919050565b8781526001600160a01b038781166020830152861660408201526060810185905260e060808201819052600090610a05908301866108a2565b82810360a0840152610a1781866108a2565b9150508260c083015298975050505050505050565b80356001600160a01b0381168114610a4357600080fd5b919050565b634e487b7160e01b600052604160045260246000fd5b600082601f830112610a6f57600080fd5b813567ffffffffffffffff80821115610a8a57610a8a610a48565b604051601f8301601f19908116603f01168101908282118183101715610ab257610ab2610a48565b81604052838152866020858801011115610acb57600080fd5b836020870160208301376000602085830101528094505050505092915050565b60008060008060008060c08789031215610b0457600080fd5b86359550610b1460208801610a2c565b9450610b2260408801610a2c565b935060608701359250608087013567ffffffffffffffff80821115610b4657600080fd5b610b528a838b01610a5e565b935060a0890135915080821115610b6857600080fd5b50610b7589828a01610a5e565b9150509295509295509295565b600181811c90821680610b9657607f821691505b60208210810361033757634e487b7160e01b600052602260045260246000fd5b634e487b7160e01b600052603260045260246000fd5b634e487b7160e01b600052601160045260246000fd5b600060018201610bf457610bf4610bcc565b5060010190565b601f821115610c4557600081815260208120601f850160051c81016020861015610c225750805b601f850160051c820191505b81811015610c4157828155600101610c2e565b5050505b505050565b815167ffffffffffffffff811115610c6457610c64610a48565b610c7881610c728454610b82565b84610bfb565b602080601f831160018114610cad5760008415610c955750858301515b600019600386901b1c1916600185901b178555610c41565b600085815260208120601f198616915b82811015610cdc57888601518255948401946001909101908401610cbd565b5085821015610cfa5787850151600019600388901b60f8161c191681555b5050505050600190811b01905550565b81810381811115610d1d57610d1d610bcc565b92915050565b80820180821115610d1d57610d1d610bcc565b8681526001600160a01b038681166020830152851660408201526060810184905260c060808201819052600090610d6f908301856108a2565b82810360a0840152610d8181856108a2565b999850505050505050505056fea2646970667358221220a885041c87c6a61d1c2de7a1b01d955a59ea4ca30f7868b6eb4a99a47e6140df64736f6c63430008140033",
    "linkReferences": {}
  },
  "methodIdentifiers": {
    "createTransactionEntry(bytes32,address,address,bytes32,string,string)": "c202fc24",
    "getAllTransactions()": "27506f53",
    "getAllTransactionsCount()": "c362eb7f",
    "getTransaction(uint256)": "33ea3dc8",
    "transactionCount()": "b77bf600",
    "txns(uint256)": "daa10560"
  },
  "id": 19
}