{
  "abi": [
    {
      "inputs": [
        {
          "internalType": "address",
          "name": "_manufacturerAddr",
          "type": "address"
        }
      ],
      "stateMutability": "nonpayable",
      "type": "constructor"
    },
    {
      "inputs": [],
      "name": "TRANSACTION_ERROR_OCCURRED",
      "type": "error"
    },
    {
      "anonymous": false,
      "inputs": [
        {
          "indexed": false,
          "internalType": "bytes32",
          "name": "_transactionHash",
          "type": "bytes32"
        },
        {
          "indexed": false,
          "internalType": "address",
          "name": "_from",
          "type": "address"
        },
        {
          "indexed": false,
          "internalType": "address",
          "name": "_to",
          "type": "address"
        },
        {
          "indexed": false,
          "internalType": "bytes32",
          "name": "_prevTransaction",
          "type": "bytes32"
        },
        {
          "indexed": false,
          "internalType": "string",
          "name": "_latitude",
          "type": "string"
        },
        {
          "indexed": false,
          "internalType": "string",
          "name": "_longitude",
          "type": "string"
        }
      ],
      "name": "transactionCreated",
      "type": "event"
    },
    {
      "inputs": [],
      "name": "Owner",
      "outputs": [
        {
          "internalType": "address",
          "name": "",
          "type": "address"
        }
      ],
      "stateMutability": "view",
      "type": "function"
    },
    {
      "inputs": [
        {
          "internalType": "bytes32",
          "name": "_transactionHash",
          "type": "bytes32"
        },
        {
          "internalType": "address",
          "name": "_from",
          "type": "address"
        },
        {
          "internalType": "address",
          "name": "_to",
          "type": "address"
        },
        {
          "internalType": "bytes32",
          "name": "_prevTransaction",
          "type": "bytes32"
        },
        {
          "internalType": "string",
          "name": "_latitude",
          "type": "string"
        },
        {
          "internalType": "string",
          "name": "_longitude",
          "type": "string"
        }
      ],
      "name": "createTransactionEntry",
      "outputs": [],
      "stateMutability": "nonpayable",
      "type": "function"
    },
    {
      "inputs": [],
      "name": "getAllTransactions",
      "outputs": [
        {
          "components": [
            {
              "internalType": "bytes32",
              "name": "transactionHash",
              "type": "bytes32"
            },
            {
              "internalType": "address",
              "name": "fromAddr",
              "type": "address"
            },
            {
              "internalType": "address",
              "name": "toAddr",
              "type": "address"
            },
            {
              "internalType": "bytes32",
              "name": "prevTransaction",
              "type": "bytes32"
            },
            {
              "internalType": "string",
              "name": "latitude",
              "type": "string"
            },
            {
              "internalType": "string",
              "name": "longitude",
              "type": "string"
            },
            {
              "internalType": "uint256",
              "name": "timestamp",
              "type": "uint256"
            }
          ],
          "internalType": "struct Transactions.transactions[]",
          "name": "",
          "type": "tuple[]"
        }
      ],
      "stateMutability": "view",
      "type": "function"
    },
    {
      "inputs": [],
      "name": "getAllTransactionsCount",
      "outputs": [
        {
          "internalType": "uint256",
          "name": "",
          "type": "uint256"
        }
      ],
      "stateMutability": "view",
      "type": "function"
    },
    {
      "inputs": [
        {
          "internalType": "uint256",
          "name": "id",
          "type": "uint256"
        }
      ],
      "name": "getTransaction",
      "outputs": [
        {
          "internalType": "bytes32",
          "name": "",
          "type": "bytes32"
        },
        {
          "internalType": "address",
          "name": "",
          "type": "address"
        },
        {
          "internalType": "address",
          "name": "",
          "type": "address"
        },
        {
          "internalType": "bytes32",
          "name": "",
          "type": "bytes32"
        },
        {
          "internalType": "string",
          "name": "",
          "type": "string"
        },
        {
          "internalType": "string",
          "name": "",
          "type": "string"
        },
        {
          "internalType": "uint256",
          "name": "",
          "type": "uint256"
        }
      ],
      "stateMutability": "view",
      "type": "function"
    },
    {
      "inputs": [],
      "name": "transactionCount",
      "outputs": [
        {
          "internalType": "uint256",
          "name": "",
          "type": "uint256"
        }
      ],
      "stateMutability": "view",
      "type": "function"
    },
    {
      "inputs": [
        {
          "internalType": "uint256",
          "name": "",
          "type": "uint256"
        }
      ],
      "name": "txns",
      "outputs": [
        {
          "internalType": "bytes32",
          "name": "transactionHash",
          "type": "bytes32"
        },
        {
          "internalType": "address",
          "name": "fromAddr",
          "type": "address"
        },
        {
          "internalType": "address",
          "name": "toAddr",
          "type": "address"
        },
        {
          "internalType": "bytes32",
          "name": "prevTransaction",
          "type": "bytes32"
        },
        {
          "internalType": "string",
          "name": "latitude",
          "type": "string"
        },
        {
          "internalType": "string",
          "name": "longitude",
          "type": "string"
        },
        {
          "internalType": "uint256",
          "name": "timestamp",
          "type": "uint256"
        }
      ],
      "stateMutability": "view",
      "type": "function"
    }
  ],
  "bytecode": {
    "object": "0x608060405234801561001057600080fd5b50604051610dc8380380610dc883398101604081905261002f91610054565b600080546001600160a01b0319166001600160a01b0392909216919091179055610084565b60006020828403121561006657600080fd5b81516001600160a01b038116811461007d57600080fd5b9392505050565b610d35806100936000396000f3fe608060405234801561001057600080fd5b506004361061007d5760003560e01c8063b77bf6001161005b578063b77bf600146100f1578063c202fc2414610108578063c362eb7f1461011d578063daa105601461012557600080fd5b806327506f531461008257806333ea3dc8146100a0578063b4a99a4e146100c6575b600080fd5b61008a610138565b604051610097919061086c565b60405180910390f35b6100b36100ae366004610937565b610384565b6040516100979796959493929190610950565b6000546100d9906001600160a01b031681565b6040516001600160a01b039091168152602001610097565b6100fa60015481565b604051908152602001610097565b61011b610116366004610a6f565b61054e565b005b6001546100fa565b6100b3610133366004610937565b6106cb565b6060600060015467ffffffffffffffff811115610157576101576109cc565b6040519080825280602002602001820160405280156101bd57816020015b6040805160e0810182526000808252602080830182905292820181905260608083018290526080830181905260a083015260c082015282526000199092019101816101755790505b50905060005b60015481101561037e57600081815260026020818152604092839020835160e0810185528154815260018201546001600160a01b039081169382019390935292810154909116928201929092526003820154606082015260048201805491929160808401919061023290610b06565b80601f016020809104026020016040519081016040528092919081815260200182805461025e90610b06565b80156102ab5780601f10610280576101008083540402835291602001916102ab565b820191906000526020600020905b81548152906001019060200180831161028e57829003601f168201915b505050505081526020016005820180546102c490610b06565b80601f01602080910402602001604051908101604052809291908181526020018280546102f090610b06565b801561033d5780601f106103125761010080835404028352916020019161033d565b820191906000526020600020905b81548152906001019060200180831161032057829003601f168201915b5050505050815260200160068201548152505082828151811061036257610362610b3a565b60200260200101819052508061037790610b66565b90506101c3565b50919050565b6000818152600260208181526040808420815160e0810183528154815260018201546001600160a01b03908116948201949094529381015490921690830152600381015460608381019190915260048201805485948594859493849386938493909290916080840191906103f790610b06565b80601f016020809104026020016040519081016040528092919081815260200182805461042390610b06565b80156104705780601f1061044557610100808354040283529160200191610470565b820191906000526020600020905b81548152906001019060200180831161045357829003601f168201915b5050505050815260200160058201805461048990610b06565b80601f01602080910402602001604051908101604052809291908181526020018280546104b590610b06565b80156105025780601f106104d757610100808354040283529160200191610502565b820191906000526020600020905b8154815290600101906020018083116104e557829003601f168201915b50505091835250506006919091015460209182015281519082015160408301516060840151608085015160a086015160c090960151949f939e50919c509a509850919650945092505050565b60015442901580610581575083600260006001805461056d9190610b7f565b815260200190815260200160002060000154145b156106a9576040805160e0810182528881526001600160a01b038089166020808401918252898316848601908152606085018a8152608086018a815260a087018a905260c087018990526001805460009081526002958690529890982087518155945197850180549887166001600160a01b0319998a16179055915192840180549390951692909616919091179092559251600384015551909190600482019061062b9082610be7565b5060a082015160058201906106409082610be7565b5060c091909101516006909101556001805490600061065e83610b66565b91905055507f6ed33735d35afab24c9e528c8acb867ca8006c27e3369ba46090b6005244130c87878787878760405161069c96959493929190610ca7565b60405180910390a16106c2565b6040516347bc253b60e01b815260040160405180910390fd5b50505050505050565b60026020819052600091825260409091208054600182015492820154600383015460048401805493956001600160a01b039081169593169391929161070f90610b06565b80601f016020809104026020016040519081016040528092919081815260200182805461073b90610b06565b80156107885780601f1061075d57610100808354040283529160200191610788565b820191906000526020600020905b81548152906001019060200180831161076b57829003601f168201915b50505050509080600501805461079d90610b06565b80601f01602080910402602001604051908101604052809291908181526020018280546107c990610b06565b80156108165780601f106107eb57610100808354040283529160200191610816565b820191906000526020600020905b8154815290600101906020018083116107f957829003601f168201915b5050505050908060060154905087565b6000815180845260005b8181101561084c57602081850181015186830182015201610830565b506000602082860101526020601f19601f83011685010191505092915050565b60006020808301818452808551808352604092508286019150828160051b87010184880160005b8381101561092957888303603f19018552815180518452878101516001600160a01b03908116898601528782015116878501526060808201519085015260808082015160e082870181905291906108ec83880182610826565b9250505060a080830151868303828801526109078382610826565b60c0948501519790940196909652505094870194925090860190600101610893565b509098975050505050505050565b60006020828403121561094957600080fd5b5035919050565b8781526001600160a01b038781166020830152861660408201526060810185905260e06080820181905260009061098990830186610826565b82810360a084015261099b8186610826565b9150508260c083015298975050505050505050565b80356001600160a01b03811681146109c757600080fd5b919050565b634e487b7160e01b600052604160045260246000fd5b600082601f8301126109f357600080fd5b813567ffffffffffffffff80821115610a0e57610a0e6109cc565b604051601f8301601f19908116603f01168101908282118183101715610a3657610a366109cc565b81604052838152866020858801011115610a4f57600080fd5b836020870160208301376000602085830101528094505050505092915050565b60008060008060008060c08789031215610a8857600080fd5b86359550610a98602088016109b0565b9450610aa6604088016109b0565b935060608701359250608087013567ffffffffffffffff80821115610aca57600080fd5b610ad68a838b016109e2565b935060a0890135915080821115610aec57600080fd5b50610af989828a016109e2565b9150509295509295509295565b600181811c90821680610b1a57607f821691505b60208210810361037e57634e487b7160e01b600052602260045260246000fd5b634e487b7160e01b600052603260045260246000fd5b634e487b7160e01b600052601160045260246000fd5b600060018201610b7857610b78610b50565b5060010190565b81810381811115610b9257610b92610b50565b92915050565b601f821115610be257600081815260208120601f850160051c81016020861015610bbf5750805b601f850160051c820191505b81811015610bde57828155600101610bcb565b5050505b505050565b815167ffffffffffffffff811115610c0157610c016109cc565b610c1581610c0f8454610b06565b84610b98565b602080601f831160018114610c4a5760008415610c325750858301515b600019600386901b1c1916600185901b178555610bde565b600085815260208120601f198616915b82811015610c7957888601518255948401946001909101908401610c5a565b5085821015610c975787850151600019600388901b60f8161c191681555b5050505050600190811b01905550565b8681526001600160a01b038681166020830152851660408201526060810184905260c060808201819052600090610ce090830185610826565b82810360a0840152610cf28185610826565b999850505050505050505056fea2646970667358221220c31c1d8a9069df752989fa59dbdb9080412a40e4a8c5c8f202364ec6b625563164736f6c63430008140033",
    "linkReferences": {}
  },
  "methodIdentifiers": {
    "Owner()": "b4a99a4e",
    "createTransactionEntry(bytes32,address,address,bytes32,string,string)": "c202fc24",
    "getAllTransactions()": "27506f53",
    "getAllTransactionsCount()": "c362eb7f",
    "getTransaction(uint256)": "33ea3dc8",
    "transactionCount()": "b77bf600",
    "txns(uint256)": "daa10560"
  },
  "id": 21
}