{
  "abi": [
    {
      "inputs": [],
      "stateMutability": "nonpayable",
      "type": "constructor"
    },
    {
      "inputs": [],
      "name": "TRANSACTION_ERROR_OCCORRED_IN_TRANSACTIONS_SOL",
      "type": "error"
    },
    {
      "anonymous": false,
      "inputs": [
        {
          "indexed": false,
          "internalType": "bytes32",
          "name": "_transactionHash",
          "type": "bytes32"
        },
        {
          "indexed": false,
          "internalType": "address",
          "name": "_from",
          "type": "address"
        },
        {
          "indexed": false,
          "internalType": "address",
          "name": "_to",
          "type": "address"
        },
        {
          "indexed": false,
          "internalType": "bytes32",
          "name": "_prevTransaction",
          "type": "bytes32"
        },
        {
          "indexed": false,
          "internalType": "string",
          "name": "_latitude",
          "type": "string"
        },
        {
          "indexed": false,
          "internalType": "string",
          "name": "_longitude",
          "type": "string"
        }
      ],
      "name": "transactionCreated",
      "type": "event"
    },
    {
      "inputs": [
        {
          "internalType": "bytes32",
          "name": "_transactionHash",
          "type": "bytes32"
        },
        {
          "internalType": "address",
          "name": "_from",
          "type": "address"
        },
        {
          "internalType": "address",
          "name": "_to",
          "type": "address"
        },
        {
          "internalType": "bytes32",
          "name": "_prevTransaction",
          "type": "bytes32"
        },
        {
          "internalType": "string",
          "name": "_latitude",
          "type": "string"
        },
        {
          "internalType": "string",
          "name": "_longitude",
          "type": "string"
        }
      ],
      "name": "createTransactionEntry",
      "outputs": [],
      "stateMutability": "nonpayable",
      "type": "function"
    },
    {
      "inputs": [
        {
          "internalType": "uint256",
          "name": "",
          "type": "uint256"
        }
      ],
      "name": "txns",
      "outputs": [
        {
          "internalType": "bytes32",
          "name": "transactionHash",
          "type": "bytes32"
        },
        {
          "internalType": "address",
          "name": "fromAddr",
          "type": "address"
        },
        {
          "internalType": "address",
          "name": "toAddr",
          "type": "address"
        },
        {
          "internalType": "bytes32",
          "name": "prevTransaction",
          "type": "bytes32"
        },
        {
          "internalType": "string",
          "name": "latitude",
          "type": "string"
        },
        {
          "internalType": "string",
          "name": "longitude",
          "type": "string"
        },
        {
          "internalType": "uint256",
          "name": "timestamp",
          "type": "uint256"
        }
      ],
      "stateMutability": "view",
      "type": "function"
    }
  ],
  "bytecode": {
    "object": "0x608060405234801561001057600080fd5b50610848806100206000396000f3fe608060405234801561001057600080fd5b50600436106100365760003560e01c8063c202fc241461003b578063daa1056014610050575b600080fd5b61004e6100493660046104d9565b61007f565b005b61006361005e366004610570565b6102c0565b60405161007697969594939291906105cf565b60405180910390f35b60008054429103610154576040805160e0810182528881526001600160a01b038089166020808401918252898316848601908152606085018a8152608086018a815260a087018a905260c087018990526000805481526001948590529790972086518155935192840180549386166001600160a01b0319948516179055905160028401805491909516921691909117909255905160038201559151909190600482019061012c90826106b8565b5060a0820151600582019061014190826106b8565b5060c0820151816006015590505061025e565b83600160006001600054610168919061078e565b815260200190815260200160002060000154146101985760405163a745b06160e01b815260040160405180910390fd5b6040805160e0810182528881526001600160a01b038089166020808401918252898316848601908152606085018a8152608086018a815260a087018a905260c087018990526000805481526001948590529790972086518155935192840180549386166001600160a01b0319948516179055905160028401805491909516921691909117909255905160038201559151909190600482019061023a90826106b8565b5060a0820151600582019061024f90826106b8565b5060c082015181600601559050505b600160008082825461027091906107a7565b90915550506040517f6ed33735d35afab24c9e528c8acb867ca8006c27e3369ba46090b6005244130c906102af908990899089908990899089906107ba565b60405180910390a150505050505050565b6001602081905260009182526040909120805491810154600282015460038301546004840180546001600160a01b0394851695949093169391926103039061062f565b80601f016020809104026020016040519081016040528092919081815260200182805461032f9061062f565b801561037c5780601f106103515761010080835404028352916020019161037c565b820191906000526020600020905b81548152906001019060200180831161035f57829003601f168201915b5050505050908060050180546103919061062f565b80601f01602080910402602001604051908101604052809291908181526020018280546103bd9061062f565b801561040a5780601f106103df5761010080835404028352916020019161040a565b820191906000526020600020905b8154815290600101906020018083116103ed57829003601f168201915b5050505050908060060154905087565b80356001600160a01b038116811461043157600080fd5b919050565b634e487b7160e01b600052604160045260246000fd5b600082601f83011261045d57600080fd5b813567ffffffffffffffff8082111561047857610478610436565b604051601f8301601f19908116603f011681019082821181831017156104a0576104a0610436565b816040528381528660208588010111156104b957600080fd5b836020870160208301376000602085830101528094505050505092915050565b60008060008060008060c087890312156104f257600080fd5b863595506105026020880161041a565b94506105106040880161041a565b935060608701359250608087013567ffffffffffffffff8082111561053457600080fd5b6105408a838b0161044c565b935060a089013591508082111561055657600080fd5b5061056389828a0161044c565b9150509295509295509295565b60006020828403121561058257600080fd5b5035919050565b6000815180845260005b818110156105af57602081850181015186830182015201610593565b506000602082860101526020601f19601f83011685010191505092915050565b8781526001600160a01b038781166020830152861660408201526060810185905260e06080820181905260009061060890830186610589565b82810360a084015261061a8186610589565b9150508260c083015298975050505050505050565b600181811c9082168061064357607f821691505b60208210810361066357634e487b7160e01b600052602260045260246000fd5b50919050565b601f8211156106b357600081815260208120601f850160051c810160208610156106905750805b601f850160051c820191505b818110156106af5782815560010161069c565b5050505b505050565b815167ffffffffffffffff8111156106d2576106d2610436565b6106e6816106e0845461062f565b84610669565b602080601f83116001811461071b57600084156107035750858301515b600019600386901b1c1916600185901b1785556106af565b600085815260208120601f198616915b8281101561074a5788860151825594840194600190910190840161072b565b50858210156107685787850151600019600388901b60f8161c191681555b5050505050600190811b01905550565b634e487b7160e01b600052601160045260246000fd5b818103818111156107a1576107a1610778565b92915050565b808201808211156107a1576107a1610778565b8681526001600160a01b038681166020830152851660408201526060810184905260c0608082018190526000906107f390830185610589565b82810360a08401526108058185610589565b999850505050505050505056fea2646970667358221220d794b40df21a1d6811d0a6a2d7fa72f7092c5135c720e8b98d47ad455e06f70364736f6c63430008140033",
    "linkReferences": {}
  },
  "methodIdentifiers": {
    "createTransactionEntry(bytes32,address,address,bytes32,string,string)": "c202fc24",
    "txns(uint256)": "daa10560"
  },
  "id": 0
}