{
  "abi": [
    {
      "inputs": [
        {
          "internalType": "address",
          "name": "priceFeed",
          "type": "address"
        }
      ],
      "stateMutability": "nonpayable",
      "type": "constructor"
    },
    {
      "inputs": [],
      "name": "FundMe_NotOwner",
      "type": "error"
    },
    {
      "anonymous": false,
      "inputs": [
        {
          "indexed": true,
          "internalType": "address",
          "name": "funder",
          "type": "address"
        },
        {
          "indexed": false,
          "internalType": "uint256",
          "name": "amount",
          "type": "uint256"
        }
      ],
      "name": "NewDonation",
      "type": "event"
    },
    {
      "inputs": [],
      "name": "MINIMUM_USD",
      "outputs": [
        {
          "internalType": "uint256",
          "name": "",
          "type": "uint256"
        }
      ],
      "stateMutability": "view",
      "type": "function"
    },
    {
      "inputs": [],
      "name": "deadline",
      "outputs": [
        {
          "internalType": "uint256",
          "name": "",
          "type": "uint256"
        }
      ],
      "stateMutability": "view",
      "type": "function"
    },
    {
      "inputs": [],
      "name": "fund",
      "outputs": [],
      "stateMutability": "payable",
      "type": "function"
    },
    {
      "inputs": [],
      "name": "fundsDestination",
      "outputs": [
        {
          "internalType": "address payable",
          "name": "",
          "type": "address"
        }
      ],
      "stateMutability": "view",
      "type": "function"
    },
    {
      "inputs": [
        {
          "internalType": "address",
          "name": "fundingAddress",
          "type": "address"
        }
      ],
      "name": "getAddressToAmountFunded",
      "outputs": [
        {
          "internalType": "uint256",
          "name": "",
          "type": "uint256"
        }
      ],
      "stateMutability": "view",
      "type": "function"
    },
    {
      "inputs": [],
      "name": "getContractBalance",
      "outputs": [
        {
          "internalType": "uint256",
          "name": "",
          "type": "uint256"
        }
      ],
      "stateMutability": "view",
      "type": "function"
    },
    {
      "inputs": [],
      "name": "getDonations",
      "outputs": [
        {
          "components": [
            {
              "internalType": "address",
              "name": "funderAddress",
              "type": "address"
            },
            {
              "internalType": "uint256",
              "name": "amountFunded",
              "type": "uint256"
            }
          ],
          "internalType": "struct FundMe.Funder[]",
          "name": "",
          "type": "tuple[]"
        }
      ],
      "stateMutability": "view",
      "type": "function"
    },
    {
      "inputs": [
        {
          "internalType": "uint256",
          "name": "index",
          "type": "uint256"
        }
      ],
      "name": "getFunder",
      "outputs": [
        {
          "internalType": "address",
          "name": "",
          "type": "address"
        }
      ],
      "stateMutability": "view",
      "type": "function"
    },
    {
      "inputs": [],
      "name": "getOwner",
      "outputs": [
        {
          "internalType": "address",
          "name": "",
          "type": "address"
        }
      ],
      "stateMutability": "view",
      "type": "function"
    },
    {
      "inputs": [],
      "name": "getPriceFeed",
      "outputs": [
        {
          "internalType": "contract AggregatorV3Interface",
          "name": "",
          "type": "address"
        }
      ],
      "stateMutability": "view",
      "type": "function"
    },
    {
      "inputs": [],
      "name": "getVersion",
      "outputs": [
        {
          "internalType": "uint256",
          "name": "",
          "type": "uint256"
        }
      ],
      "stateMutability": "view",
      "type": "function"
    },
    {
      "inputs": [],
      "name": "hasDeadlinePassed",
      "outputs": [
        {
          "internalType": "bool",
          "name": "",
          "type": "bool"
        }
      ],
      "stateMutability": "view",
      "type": "function"
    },
    {
      "inputs": [],
      "name": "maxGoal",
      "outputs": [
        {
          "internalType": "uint256",
          "name": "",
          "type": "uint256"
        }
      ],
      "stateMutability": "view",
      "type": "function"
    },
    {
      "inputs": [
        {
          "internalType": "uint256",
          "name": "_deadline",
          "type": "uint256"
        }
      ],
      "name": "setDeadline",
      "outputs": [],
      "stateMutability": "nonpayable",
      "type": "function"
    },
    {
      "inputs": [
        {
          "internalType": "address payable",
          "name": "_fundsDestination",
          "type": "address"
        }
      ],
      "name": "setFundsDestination",
      "outputs": [],
      "stateMutability": "nonpayable",
      "type": "function"
    },
    {
      "inputs": [
        {
          "internalType": "uint256",
          "name": "_maxGoal",
          "type": "uint256"
        }
      ],
      "name": "setMaxGoal",
      "outputs": [],
      "stateMutability": "nonpayable",
      "type": "function"
    },
    {
      "inputs": [],
      "name": "withdraw",
      "outputs": [],
      "stateMutability": "nonpayable",
      "type": "function"
    },
    {
      "inputs": [],
      "name": "withdrawFunds",
      "outputs": [],
      "stateMutability": "nonpayable",
      "type": "function"
    }
  ],
  "bytecode": {
    "object": "0x608060405234801561001057600080fd5b50604051610f2c380380610f2c83398101604081905261002f91610062565b60038054336001600160a01b031991821617909155600680549091166001600160a01b0392909216919091179055610092565b60006020828403121561007457600080fd5b81516001600160a01b038116811461008b57600080fd5b9392505050565b610e8b806100a16000396000f3fe6080604052600436106101095760003560e01c8063893d20e811610095578063c435ae0c11610064578063c435ae0c1461029a578063d7b4750c146102ba578063e25f8416146102da578063f71441a5146102fc578063fbab40cc1461031257600080fd5b8063893d20e81461021d57806396e3f4c51461024f5780639e87a5cd14610274578063b60d42881461029257600080fd5b806324600fc3116100dc57806324600fc3146101ae57806329dcb0cf146101c35780633ccfd60b146101d95780636b69a592146101ee5780636f9fb98a1461020a57600080fd5b80630343fb251461010e5780630d8e6e2c14610157578063195199f61461016c578063238e130a1461018e575b600080fd5b34801561011a57600080fd5b50610144610129366004610c3f565b6001600160a01b031660009081526020819052604090205490565b6040519081526020015b60405180910390f35b34801561016357600080fd5b50610144610332565b34801561017857600080fd5b5061018c610187366004610c5c565b6103a5565b005b34801561019a57600080fd5b5061018c6101a9366004610c3f565b6103d5565b3480156101ba57600080fd5b5061018c610422565b3480156101cf57600080fd5b5061014460055481565b3480156101e557600080fd5b5061018c610639565b3480156101fa57600080fd5b50610144674563918244f4000081565b34801561021657600080fd5b5047610144565b34801561022957600080fd5b506003546001600160a01b03165b6040516001600160a01b03909116815260200161014e565b34801561025b57600080fd5b50610264610762565b604051901515815260200161014e565b34801561028057600080fd5b506006546001600160a01b0316610237565b61018c610779565b3480156102a657600080fd5b5061018c6102b5366004610c5c565b610995565b3480156102c657600080fd5b506102376102d5366004610c5c565b6109c5565b3480156102e657600080fd5b506102ef6109f5565b60405161014e9190610c75565b34801561030857600080fd5b5061014460045481565b34801561031e57600080fd5b50600254610237906001600160a01b031681565b6006546040805163054fd4d560e41b815290516000926001600160a01b0316916354fd4d509160048083019260209291908290030181865afa15801561037c573d6000803e3d6000fd5b505050506040513d601f19601f820116820180604052508101906103a09190610ccd565b905090565b6003546001600160a01b031633146103d0576040516310e0797960e01b815260040160405180910390fd5b600555565b6003546001600160a01b03163314610400576040516310e0797960e01b815260040160405180910390fd5b600280546001600160a01b0319166001600160a01b0392909216919091179055565b600454156104935760045447106104935760405162461bcd60e51b815260206004820152602a60248201527f4d61782062616c616e636520726561636865642c2063616e6e6f742077697468604482015269647261772066756e647360b01b60648201526084015b60405180910390fd5b33600090815260208190526040902054806104f05760405162461bcd60e51b815260206004820181905260248201527f53656e64657220686173206e6f742066756e64656420616e7920616d6f756e74604482015260640161048a565b3360009081526020819052604081208190555b60015481101561060757336001600160a01b03166001828154811061052a5761052a610ce6565b6000918252602090912001546001600160a01b0316036105f55760018054610553908290610d12565b8154811061056357610563610ce6565b600091825260209091200154600180546001600160a01b03909216918390811061058f5761058f610ce6565b9060005260206000200160006101000a8154816001600160a01b0302191690836001600160a01b0316021790555060018054806105ce576105ce610d25565b600082815260209020810160001990810180546001600160a01b0319169055019055610607565b806105ff81610d3b565b915050610503565b50604051339082156108fc029083906000818181858888f19350505050158015610635573d6000803e3d6000fd5b5050565b6003546001600160a01b03163314610664576040516310e0797960e01b815260040160405180910390fd5b60005b6001548110156106ba5760006001828154811061068657610686610ce6565b60009182526020808320909101546001600160a01b03168252819052604081205550806106b281610d3b565b915050610667565b5060408051600081526020810191829052516106d891600191610bb0565b50604051600090339047908381818185875af1925050503d806000811461071b576040519150601f19603f3d011682016040523d82523d6000602084013e610720565b606091505b505090508061075f5760405162461bcd60e51b815260206004820152600b60248201526a10d85b1b0819985a5b195960aa1b604482015260640161048a565b50565b6000806005541180156103a0575050600554421190565b600654674563918244f400009061079a9034906001600160a01b0316610af5565b10156107e85760405162461bcd60e51b815260206004820152601b60248201527f596f75206e65656420746f207370656e64206d6f726520455448210000000000604482015260640161048a565b60045415610843576004546107fd3447610d6a565b11156108435760405162461bcd60e51b81526020600482015260156024820152744d6178696d756d20676f616c20726561636865642160581b604482015260640161048a565b600554156108a7576005544211156108a75760405162461bcd60e51b815260206004820152602160248201527f446561646c696e6520686173207061737365642c2063616e6e6f742066756e646044820152602160f81b606482015260840161048a565b33600090815260208190526040812080543492906108c6908490610d6a565b90915550506001805480820182556000919091527fb10e2d527612073b26eecdfd717e6a320cf44b4afac2b0732d9fcbe2b7fa0cf60180546001600160a01b031916331790556004541580159061091e575060045447145b1561095e576002546040516001600160a01b03909116904780156108fc02916000818181858888f1935050505015801561095c573d6000803e3d6000fd5b505b60405134815233907f0e04c8e83a5595ba6381972e5e9fe2926bb0a7439dace880c83ccc34b99c54779060200160405180910390a2565b6003546001600160a01b031633146109c0576040516310e0797960e01b815260040160405180910390fd5b600455565b6000600182815481106109da576109da610ce6565b6000918252602090912001546001600160a01b031692915050565b60015460609060009067ffffffffffffffff811115610a1657610a16610d54565b604051908082528060200260200182016040528015610a5b57816020015b6040805180820190915260008082526020820152815260200190600190039081610a345790505b50905060005b600154811015610aef57600060018281548110610a8057610a80610ce6565b60009182526020808320909101546001600160a01b03168083528282526040928390205483518085019094528184529183018290528551909350909190859085908110610acf57610acf610ce6565b602002602001018190525050508080610ae790610d3b565b915050610a61565b50919050565b600080610b0183610b2d565b90506000670de0b6b3a7640000610b188684610d7d565b610b229190610d94565b925050505b92915050565b600080826001600160a01b031663feaf968c6040518163ffffffff1660e01b815260040160a060405180830381865afa158015610b6e573d6000803e3d6000fd5b505050506040513d601f19601f82011682018060405250810190610b929190610dd5565b505050915050806402540be400610ba99190610e25565b9392505050565b828054828255906000526020600020908101928215610c05579160200282015b82811115610c0557825182546001600160a01b0319166001600160a01b03909116178255602090920191600190910190610bd0565b50610c11929150610c15565b5090565b5b80821115610c115760008155600101610c16565b6001600160a01b038116811461075f57600080fd5b600060208284031215610c5157600080fd5b8135610ba981610c2a565b600060208284031215610c6e57600080fd5b5035919050565b602080825282518282018190526000919060409081850190868401855b82811015610cc057815180516001600160a01b03168552860151868501529284019290850190600101610c92565b5091979650505050505050565b600060208284031215610cdf57600080fd5b5051919050565b634e487b7160e01b600052603260045260246000fd5b634e487b7160e01b600052601160045260246000fd5b81810381811115610b2757610b27610cfc565b634e487b7160e01b600052603160045260246000fd5b600060018201610d4d57610d4d610cfc565b5060010190565b634e487b7160e01b600052604160045260246000fd5b80820180821115610b2757610b27610cfc565b8082028115828204841417610b2757610b27610cfc565b600082610db157634e487b7160e01b600052601260045260246000fd5b500490565b805169ffffffffffffffffffff81168114610dd057600080fd5b919050565b600080600080600060a08688031215610ded57600080fd5b610df686610db6565b9450602086015193506040860151925060608601519150610e1960808701610db6565b90509295509295909350565b80820260008212600160ff1b84141615610e4157610e41610cfc565b8181058314821517610b2757610b27610cfc56fea264697066735822122034aebcb3b0807895e9c9d38ed338d5d09c335b82ba3335cf02404f58cf74cbff64736f6c63430008140033",
    "linkReferences": {}
  },
  "methodIdentifiers": {
    "MINIMUM_USD()": "6b69a592",
    "deadline()": "29dcb0cf",
    "fund()": "b60d4288",
    "fundsDestination()": "fbab40cc",
    "getAddressToAmountFunded(address)": "0343fb25",
    "getContractBalance()": "6f9fb98a",
    "getDonations()": "e25f8416",
    "getFunder(uint256)": "d7b4750c",
    "getOwner()": "893d20e8",
    "getPriceFeed()": "9e87a5cd",
    "getVersion()": "0d8e6e2c",
    "hasDeadlinePassed()": "96e3f4c5",
    "maxGoal()": "f71441a5",
    "setDeadline(uint256)": "195199f6",
    "setFundsDestination(address)": "238e130a",
    "setMaxGoal(uint256)": "c435ae0c",
    "withdraw()": "3ccfd60b",
    "withdrawFunds()": "24600fc3"
  },
  "id": 21
}