{
  "abi": [
    {
      "inputs": [
        {
          "internalType": "address",
          "name": "priceFeed",
          "type": "address"
        }
      ],
      "stateMutability": "nonpayable",
      "type": "constructor"
    },
    {
      "inputs": [],
      "name": "FundMe__NotOwner",
      "type": "error"
    },
    {
      "inputs": [],
      "name": "MINIMUM_USD",
      "outputs": [
        {
          "internalType": "uint256",
          "name": "",
          "type": "uint256"
        }
      ],
      "stateMutability": "view",
      "type": "function"
    },
    {
      "inputs": [],
      "name": "cheaperWithdraw",
      "outputs": [],
      "stateMutability": "nonpayable",
      "type": "function"
    },
    {
      "inputs": [
        {
          "internalType": "uint256",
          "name": "distributionPercentage",
          "type": "uint256"
        }
      ],
      "name": "distributeFunds",
      "outputs": [],
      "stateMutability": "nonpayable",
      "type": "function"
    },
    {
      "inputs": [],
      "name": "fund",
      "outputs": [],
      "stateMutability": "payable",
      "type": "function"
    },
    {
      "inputs": [
        {
          "internalType": "address",
          "name": "fundingAddress",
          "type": "address"
        }
      ],
      "name": "getAddressToAmountFunded",
      "outputs": [
        {
          "internalType": "uint256",
          "name": "",
          "type": "uint256"
        }
      ],
      "stateMutability": "view",
      "type": "function"
    },
    {
      "inputs": [
        {
          "internalType": "uint256",
          "name": "index",
          "type": "uint256"
        }
      ],
      "name": "getFunder",
      "outputs": [
        {
          "internalType": "address",
          "name": "",
          "type": "address"
        }
      ],
      "stateMutability": "view",
      "type": "function"
    },
    {
      "inputs": [],
      "name": "getFundersList",
      "outputs": [
        {
          "internalType": "address[]",
          "name": "",
          "type": "address[]"
        }
      ],
      "stateMutability": "view",
      "type": "function"
    },
    {
      "inputs": [],
      "name": "getOwner",
      "outputs": [
        {
          "internalType": "address",
          "name": "",
          "type": "address"
        }
      ],
      "stateMutability": "view",
      "type": "function"
    },
    {
      "inputs": [],
      "name": "getPriceFeed",
      "outputs": [
        {
          "internalType": "contract AggregatorV3Interface",
          "name": "",
          "type": "address"
        }
      ],
      "stateMutability": "view",
      "type": "function"
    },
    {
      "inputs": [],
      "name": "getTotalFundedAmount",
      "outputs": [
        {
          "internalType": "uint256",
          "name": "",
          "type": "uint256"
        }
      ],
      "stateMutability": "view",
      "type": "function"
    },
    {
      "inputs": [],
      "name": "getVersion",
      "outputs": [
        {
          "internalType": "uint256",
          "name": "",
          "type": "uint256"
        }
      ],
      "stateMutability": "view",
      "type": "function"
    },
    {
      "inputs": [],
      "name": "refund",
      "outputs": [],
      "stateMutability": "nonpayable",
      "type": "function"
    },
    {
      "inputs": [],
      "name": "withdraw",
      "outputs": [],
      "stateMutability": "nonpayable",
      "type": "function"
    }
  ],
  "bytecode": {
    "object": "0x60a060405234801561001057600080fd5b50604051610fb8380380610fb883398101604081905261002f91610058565b600280546001600160a01b0319166001600160a01b039290921691909117905533608052610088565b60006020828403121561006a57600080fd5b81516001600160a01b038116811461008157600080fd5b9392505050565b608051610ef26100c6600039600081816101b301528181610346015281816103fd015281816107d6015281816108e8015261099e0152610ef26000f3fe6080604052600436106100c25760003560e01c80638488e5e61161007f578063b60d428811610059578063b60d428814610209578063be2693f014610211578063d7b4750c14610226578063f726f7151461024657600080fd5b80638488e5e61461018f578063893d20e8146101a45780639e87a5cd146101eb57600080fd5b80630343fb25146100c75780630a5480d1146101105780630d8e6e2c146101325780633ccfd60b14610147578063590e1ae31461015e5780636b69a59214610173575b600080fd5b3480156100d357600080fd5b506100fd6100e2366004610cbb565b6001600160a01b031660009081526001602052604090205490565b6040519081526020015b60405180910390f35b34801561011c57600080fd5b50610125610266565b6040516101079190610ce4565b34801561013e57600080fd5b506100fd6102c8565b34801561015357600080fd5b5061015c61033b565b005b34801561016a57600080fd5b5061015c61047c565b34801561017f57600080fd5b506100fd674563918244f4000081565b34801561019b57600080fd5b506100fd610686565b3480156101b057600080fd5b507f00000000000000000000000000000000000000000000000000000000000000005b6040516001600160a01b039091168152602001610107565b3480156101f757600080fd5b506002546001600160a01b03166101d3565b61015c6106f7565b34801561021d57600080fd5b5061015c6107cb565b34801561023257600080fd5b506101d3610241366004610d31565b610964565b34801561025257600080fd5b5061015c610261366004610d31565b610993565b606060008054806020026020016040519081016040528092919081815260200182805480156102be57602002820191906000526020600020905b81546001600160a01b031681526001909101906020018083116102a0575b5050505050905090565b6002546040805163054fd4d560e41b815290516000926001600160a01b0316916354fd4d509160048083019260209291908290030181865afa158015610312573d6000803e3d6000fd5b505050506040513d601f19601f820116820180604052508101906103369190610d4a565b905090565b336001600160a01b037f000000000000000000000000000000000000000000000000000000000000000016146103845760405163579610db60e01b815260040160405180910390fd5b60005b6000548110156103da5760008082815481106103a5576103a5610d63565b60009182526020808320909101546001600160a01b0316825260019052604081205550806103d281610d8f565b915050610387565b50604080516000808252602082019283905290516103f89290610c41565b5060007f00000000000000000000000000000000000000000000000000000000000000006001600160a01b03164760405160006040518083038185875af1925050503d8060008114610466576040519150601f19603f3d011682016040523d82523d6000602084013e61046b565b606091505b505090508061047957600080fd5b50565b33600090815260016020526040902054806104e95760405162461bcd60e51b815260206004820152602260248201527f596f752068617665206e6f742066756e646564207468697320636f6e747261636044820152613a1760f11b60648201526084015b60405180910390fd5b3360009081526001602052604081208190555b6000548110156105f857336001600160a01b03166000828154811061052357610523610d63565b6000918252602090912001546001600160a01b0316036105e6576000805461054d90600190610da8565b8154811061055d5761055d610d63565b600091825260208220015481546001600160a01b0390911691908390811061058757610587610d63565b6000918252602082200180546001600160a01b0319166001600160a01b0393909316929092179091558054806105bf576105bf610dbb565b600082815260209020810160001990810180546001600160a01b03191690550190556105f8565b806105f081610d8f565b9150506104fc565b50604051600090339083908381818185875af1925050503d806000811461063b576040519150601f19603f3d011682016040523d82523d6000602084013e610640565b606091505b50509050806106825760405162461bcd60e51b815260206004820152600e60248201526d2932b33ab732103330b4b632b21760911b60448201526064016104e0565b5050565b600080805b6000548110156106f15760008082815481106106a9576106a9610d63565b60009182526020808320909101546001600160a01b031680835260019091526040909120549091506106db9084610dd1565b92505080806106e990610d8f565b91505061068b565b50919050565b600254674563918244f40000906107189034906001600160a01b0316610b86565b10156107665760405162461bcd60e51b815260206004820152601b60248201527f596f75206e65656420746f207370656e64206d6f72652045544821000000000060448201526064016104e0565b3360009081526001602052604081208054349290610785908490610dd1565b9091555050600080546001810182559080527f290decd9548b62a8d60345a988386fc84ba6bc95484008f6362f93160ef3e5630180546001600160a01b03191633179055565b336001600160a01b037f000000000000000000000000000000000000000000000000000000000000000016146108145760405163579610db60e01b815260040160405180910390fd5b600080546040805160208084028201810190925282815291839183018282801561086757602002820191906000526020600020905b81546001600160a01b03168152600190910190602001808311610849575b5050505050905060005b81518110156108c557600082828151811061088e5761088e610d63565b6020908102919091018101516001600160a01b031660009081526001909152604081205550806108bd81610d8f565b915050610871565b50604080516000808252602082019283905290516108e39290610c41565b5060007f00000000000000000000000000000000000000000000000000000000000000006001600160a01b03164760405160006040518083038185875af1925050503d8060008114610951576040519150601f19603f3d011682016040523d82523d6000602084013e610956565b606091505b505090508061068257600080fd5b600080828154811061097857610978610d63565b6000918252602090912001546001600160a01b031692915050565b336001600160a01b037f000000000000000000000000000000000000000000000000000000000000000016146109dc5760405163579610db60e01b815260040160405180910390fd5b6000811180156109ed575060648111155b610a395760405162461bcd60e51b815260206004820181905260248201527f496e76616c696420646973747269627574696f6e2070657263656e746167652e60448201526064016104e0565b6000610a43610686565b905060006064610a538484610de4565b610a5d9190610dfb565b905060005b600054811015610b80576000808281548110610a8057610a80610d63565b60009182526020808320909101546001600160a01b0316808352600190915260408220549092509085610ab38387610de4565b610abd9190610dfb565b90508015610b6a576000836001600160a01b03168260405160006040518083038185875af1925050503d8060008114610b12576040519150601f19603f3d011682016040523d82523d6000602084013e610b17565b606091505b5050905080610b685760405162461bcd60e51b815260206004820152601960248201527f46756e6420646973747269627574696f6e206661696c65642e0000000000000060448201526064016104e0565b505b5050508080610b7890610d8f565b915050610a62565b50505050565b600080610b9283610bbe565b90506000670de0b6b3a7640000610ba98684610de4565b610bb39190610dfb565b925050505b92915050565b600080826001600160a01b031663feaf968c6040518163ffffffff1660e01b815260040160a060405180830381865afa158015610bff573d6000803e3d6000fd5b505050506040513d601f19601f82011682018060405250810190610c239190610e3c565b505050915050806402540be400610c3a9190610e8c565b9392505050565b828054828255906000526020600020908101928215610c96579160200282015b82811115610c9657825182546001600160a01b0319166001600160a01b03909116178255602090920191600190910190610c61565b50610ca2929150610ca6565b5090565b5b80821115610ca25760008155600101610ca7565b600060208284031215610ccd57600080fd5b81356001600160a01b0381168114610c3a57600080fd5b6020808252825182820181905260009190848201906040850190845b81811015610d255783516001600160a01b031683529284019291840191600101610d00565b50909695505050505050565b600060208284031215610d4357600080fd5b5035919050565b600060208284031215610d5c57600080fd5b5051919050565b634e487b7160e01b600052603260045260246000fd5b634e487b7160e01b600052601160045260246000fd5b600060018201610da157610da1610d79565b5060010190565b81810381811115610bb857610bb8610d79565b634e487b7160e01b600052603160045260246000fd5b80820180821115610bb857610bb8610d79565b8082028115828204841417610bb857610bb8610d79565b600082610e1857634e487b7160e01b600052601260045260246000fd5b500490565b805169ffffffffffffffffffff81168114610e3757600080fd5b919050565b600080600080600060a08688031215610e5457600080fd5b610e5d86610e1d565b9450602086015193506040860151925060608601519150610e8060808701610e1d565b90509295509295909350565b80820260008212600160ff1b84141615610ea857610ea8610d79565b8181058314821517610bb857610bb8610d7956fea2646970667358221220fe047eed1b015509a4786f07093268a53104debf2cf5559c08b2025498eb0d1264736f6c63430008140033",
    "linkReferences": {}
  },
  "methodIdentifiers": {
    "MINIMUM_USD()": "6b69a592",
    "cheaperWithdraw()": "be2693f0",
    "distributeFunds(uint256)": "f726f715",
    "fund()": "b60d4288",
    "getAddressToAmountFunded(address)": "0343fb25",
    "getFunder(uint256)": "d7b4750c",
    "getFundersList()": "0a5480d1",
    "getOwner()": "893d20e8",
    "getPriceFeed()": "9e87a5cd",
    "getTotalFundedAmount()": "8488e5e6",
    "getVersion()": "0d8e6e2c",
    "refund()": "590e1ae3",
    "withdraw()": "3ccfd60b"
  },
  "id": 24
}