{
  "abi": [
    {
      "inputs": [
        {
          "internalType": "address",
          "name": "priceFeed",
          "type": "address"
        }
      ],
      "stateMutability": "nonpayable",
      "type": "constructor"
    },
    {
      "inputs": [],
      "name": "FundMe__NotOwner",
      "type": "error"
    },
    {
      "inputs": [],
      "name": "MINIMUM_USD",
      "outputs": [
        {
          "internalType": "uint256",
          "name": "",
          "type": "uint256"
        }
      ],
      "stateMutability": "view",
      "type": "function"
    },
    {
      "inputs": [],
      "name": "cheaperWithdraw",
      "outputs": [],
      "stateMutability": "nonpayable",
      "type": "function"
    },
    {
      "inputs": [
        {
          "internalType": "uint256",
          "name": "distributionPercentage",
          "type": "uint256"
        }
      ],
      "name": "distributeFunds",
      "outputs": [],
      "stateMutability": "nonpayable",
      "type": "function"
    },
    {
      "inputs": [],
      "name": "fund",
      "outputs": [],
      "stateMutability": "payable",
      "type": "function"
    },
    {
      "inputs": [
        {
          "internalType": "address",
          "name": "fundingAddress",
          "type": "address"
        }
      ],
      "name": "getAddressToAmountFunded",
      "outputs": [
        {
          "internalType": "uint256",
          "name": "",
          "type": "uint256"
        }
      ],
      "stateMutability": "view",
      "type": "function"
    },
    {
      "inputs": [
        {
          "internalType": "uint256",
          "name": "index",
          "type": "uint256"
        }
      ],
      "name": "getFunder",
      "outputs": [
        {
          "internalType": "address",
          "name": "",
          "type": "address"
        }
      ],
      "stateMutability": "view",
      "type": "function"
    },
    {
      "inputs": [],
      "name": "getFundersInfo",
      "outputs": [
        {
          "components": [
            {
              "internalType": "address",
              "name": "funderAddress",
              "type": "address"
            },
            {
              "internalType": "uint256",
              "name": "fundedAmount",
              "type": "uint256"
            }
          ],
          "internalType": "struct FundMe.Funder[]",
          "name": "",
          "type": "tuple[]"
        }
      ],
      "stateMutability": "view",
      "type": "function"
    },
    {
      "inputs": [],
      "name": "getFundersList",
      "outputs": [
        {
          "internalType": "address[]",
          "name": "",
          "type": "address[]"
        }
      ],
      "stateMutability": "view",
      "type": "function"
    },
    {
      "inputs": [],
      "name": "getOwner",
      "outputs": [
        {
          "internalType": "address",
          "name": "",
          "type": "address"
        }
      ],
      "stateMutability": "view",
      "type": "function"
    },
    {
      "inputs": [],
      "name": "getPriceFeed",
      "outputs": [
        {
          "internalType": "contract AggregatorV3Interface",
          "name": "",
          "type": "address"
        }
      ],
      "stateMutability": "view",
      "type": "function"
    },
    {
      "inputs": [],
      "name": "getTotalFundedAmount",
      "outputs": [
        {
          "internalType": "uint256",
          "name": "",
          "type": "uint256"
        }
      ],
      "stateMutability": "view",
      "type": "function"
    },
    {
      "inputs": [],
      "name": "getVersion",
      "outputs": [
        {
          "internalType": "uint256",
          "name": "",
          "type": "uint256"
        }
      ],
      "stateMutability": "view",
      "type": "function"
    },
    {
      "inputs": [],
      "name": "refund",
      "outputs": [],
      "stateMutability": "nonpayable",
      "type": "function"
    },
    {
      "inputs": [
        {
          "internalType": "uint256",
          "name": "",
          "type": "uint256"
        }
      ],
      "name": "s_fundersInfo",
      "outputs": [
        {
          "internalType": "address",
          "name": "funderAddress",
          "type": "address"
        },
        {
          "internalType": "uint256",
          "name": "fundedAmount",
          "type": "uint256"
        }
      ],
      "stateMutability": "view",
      "type": "function"
    },
    {
      "inputs": [],
      "name": "withdraw",
      "outputs": [],
      "stateMutability": "nonpayable",
      "type": "function"
    }
  ],
  "bytecode": {
    "object": "0x60a060405234801561001057600080fd5b506040516111ce3803806111ce83398101604081905261002f91610058565b600280546001600160a01b0319166001600160a01b039290921691909117905533608052610088565b60006020828403121561006a57600080fd5b81516001600160a01b038116811461008157600080fd5b9392505050565b6080516111086100c66000396000818161023a0152818161047a015281816105310152818161099401528181610aa60152610b5c01526111086000f3fe6080604052600436106100e85760003560e01c80636b69a5921161008a578063b60d428811610059578063b60d428814610290578063be2693f014610298578063d7b4750c146102ad578063f726f715146102cd57600080fd5b80636b69a592146101fa5780638488e5e614610216578063893d20e81461022b5780639e87a5cd1461027257600080fd5b80630a5480d1116100c65780630a5480d1146101975780630d8e6e2c146101b95780633ccfd60b146101ce578063590e1ae3146101e557600080fd5b80630343fb25146100ed57806308c4868f146101365780630976995514610175575b600080fd5b3480156100f957600080fd5b50610123610108366004610e79565b6001600160a01b031660009081526001602052604090205490565b6040519081526020015b60405180910390f35b34801561014257600080fd5b50610156610151366004610ea2565b6102ed565b604080516001600160a01b03909316835260208301919091520161012d565b34801561018157600080fd5b5061018a610325565b60405161012d9190610ebb565b3480156101a357600080fd5b506101ac61039a565b60405161012d9190610f13565b3480156101c557600080fd5b506101236103fc565b3480156101da57600080fd5b506101e361046f565b005b3480156101f157600080fd5b506101e36105b0565b34801561020657600080fd5b50610123674563918244f4000081565b34801561022257600080fd5b506101236107ba565b34801561023757600080fd5b507f00000000000000000000000000000000000000000000000000000000000000005b6040516001600160a01b03909116815260200161012d565b34801561027e57600080fd5b506002546001600160a01b031661025a565b6101e361082b565b3480156102a457600080fd5b506101e3610989565b3480156102b957600080fd5b5061025a6102c8366004610ea2565b610b22565b3480156102d957600080fd5b506101e36102e8366004610ea2565b610b51565b600381815481106102fd57600080fd5b6000918252602090912060029091020180546001909101546001600160a01b03909116915082565b60606003805480602002602001604051908101604052809291908181526020016000905b82821015610391576000848152602090819020604080518082019091526002850290910180546001600160a01b03168252600190810154828401529083529092019101610349565b50505050905090565b606060008054806020026020016040519081016040528092919081815260200182805480156103f257602002820191906000526020600020905b81546001600160a01b031681526001909101906020018083116103d4575b5050505050905090565b6002546040805163054fd4d560e41b815290516000926001600160a01b0316916354fd4d509160048083019260209291908290030181865afa158015610446573d6000803e3d6000fd5b505050506040513d601f19601f8201168201806040525081019061046a9190610f60565b905090565b336001600160a01b037f000000000000000000000000000000000000000000000000000000000000000016146104b85760405163579610db60e01b815260040160405180910390fd5b60005b60005481101561050e5760008082815481106104d9576104d9610f79565b60009182526020808320909101546001600160a01b03168252600190526040812055508061050681610fa5565b9150506104bb565b506040805160008082526020820192839052905161052c9290610dff565b5060007f00000000000000000000000000000000000000000000000000000000000000006001600160a01b03164760405160006040518083038185875af1925050503d806000811461059a576040519150601f19603f3d011682016040523d82523d6000602084013e61059f565b606091505b50509050806105ad57600080fd5b50565b336000908152600160205260409020548061061d5760405162461bcd60e51b815260206004820152602260248201527f596f752068617665206e6f742066756e646564207468697320636f6e747261636044820152613a1760f11b60648201526084015b60405180910390fd5b3360009081526001602052604081208190555b60005481101561072c57336001600160a01b03166000828154811061065757610657610f79565b6000918252602090912001546001600160a01b03160361071a576000805461068190600190610fbe565b8154811061069157610691610f79565b600091825260208220015481546001600160a01b039091169190839081106106bb576106bb610f79565b6000918252602082200180546001600160a01b0319166001600160a01b0393909316929092179091558054806106f3576106f3610fd1565b600082815260209020810160001990810180546001600160a01b031916905501905561072c565b8061072481610fa5565b915050610630565b50604051600090339083908381818185875af1925050503d806000811461076f576040519150601f19603f3d011682016040523d82523d6000602084013e610774565b606091505b50509050806107b65760405162461bcd60e51b815260206004820152600e60248201526d2932b33ab732103330b4b632b21760911b6044820152606401610614565b5050565b600080805b6000548110156108255760008082815481106107dd576107dd610f79565b60009182526020808320909101546001600160a01b0316808352600190915260409091205490915061080f9084610fe7565b925050808061081d90610fa5565b9150506107bf565b50919050565b600254674563918244f400009061084c9034906001600160a01b0316610d44565b101561089a5760405162461bcd60e51b815260206004820152601b60248201527f596f75206e65656420746f207370656e64206d6f7265204554482100000000006044820152606401610614565b33600090815260016020526040812080543492906108b9908490610fe7565b909155505060008054600180820183557f290decd9548b62a8d60345a988386fc84ba6bc95484008f6362f93160ef3e5639091018054336001600160a01b0319918216811790925560408051808201909152918252346020830190815260038054948501815590945290517fc2575a0e9e593c00f959f8c92f12db2869c3395a3b0502d05e2516446f71f85b600290930292830180549092166001600160a01b0390911617905590517fc2575a0e9e593c00f959f8c92f12db2869c3395a3b0502d05e2516446f71f85c90910155565b336001600160a01b037f000000000000000000000000000000000000000000000000000000000000000016146109d25760405163579610db60e01b815260040160405180910390fd5b6000805460408051602080840282018101909252828152918391830182828015610a2557602002820191906000526020600020905b81546001600160a01b03168152600190910190602001808311610a07575b5050505050905060005b8151811015610a83576000828281518110610a4c57610a4c610f79565b6020908102919091018101516001600160a01b03166000908152600190915260408120555080610a7b81610fa5565b915050610a2f565b5060408051600080825260208201928390529051610aa19290610dff565b5060007f00000000000000000000000000000000000000000000000000000000000000006001600160a01b03164760405160006040518083038185875af1925050503d8060008114610b0f576040519150601f19603f3d011682016040523d82523d6000602084013e610b14565b606091505b50509050806107b657600080fd5b6000808281548110610b3657610b36610f79565b6000918252602090912001546001600160a01b031692915050565b336001600160a01b037f00000000000000000000000000000000000000000000000000000000000000001614610b9a5760405163579610db60e01b815260040160405180910390fd5b600081118015610bab575060648111155b610bf75760405162461bcd60e51b815260206004820181905260248201527f496e76616c696420646973747269627574696f6e2070657263656e746167652e6044820152606401610614565b6000610c016107ba565b905060006064610c118484610ffa565b610c1b9190611011565b905060005b600054811015610d3e576000808281548110610c3e57610c3e610f79565b60009182526020808320909101546001600160a01b0316808352600190915260408220549092509085610c718387610ffa565b610c7b9190611011565b90508015610d28576000836001600160a01b03168260405160006040518083038185875af1925050503d8060008114610cd0576040519150601f19603f3d011682016040523d82523d6000602084013e610cd5565b606091505b5050905080610d265760405162461bcd60e51b815260206004820152601960248201527f46756e6420646973747269627574696f6e206661696c65642e000000000000006044820152606401610614565b505b5050508080610d3690610fa5565b915050610c20565b50505050565b600080610d5083610d7c565b90506000670de0b6b3a7640000610d678684610ffa565b610d719190611011565b925050505b92915050565b600080826001600160a01b031663feaf968c6040518163ffffffff1660e01b815260040160a060405180830381865afa158015610dbd573d6000803e3d6000fd5b505050506040513d601f19601f82011682018060405250810190610de19190611052565b505050915050806402540be400610df891906110a2565b9392505050565b828054828255906000526020600020908101928215610e54579160200282015b82811115610e5457825182546001600160a01b0319166001600160a01b03909116178255602090920191600190910190610e1f565b50610e60929150610e64565b5090565b5b80821115610e605760008155600101610e65565b600060208284031215610e8b57600080fd5b81356001600160a01b0381168114610df857600080fd5b600060208284031215610eb457600080fd5b5035919050565b602080825282518282018190526000919060409081850190868401855b82811015610f0657815180516001600160a01b03168552860151868501529284019290850190600101610ed8565b5091979650505050505050565b6020808252825182820181905260009190848201906040850190845b81811015610f545783516001600160a01b031683529284019291840191600101610f2f565b50909695505050505050565b600060208284031215610f7257600080fd5b5051919050565b634e487b7160e01b600052603260045260246000fd5b634e487b7160e01b600052601160045260246000fd5b600060018201610fb757610fb7610f8f565b5060010190565b81810381811115610d7657610d76610f8f565b634e487b7160e01b600052603160045260246000fd5b80820180821115610d7657610d76610f8f565b8082028115828204841417610d7657610d76610f8f565b60008261102e57634e487b7160e01b600052601260045260246000fd5b500490565b805169ffffffffffffffffffff8116811461104d57600080fd5b919050565b600080600080600060a0868803121561106a57600080fd5b61107386611033565b945060208601519350604086015192506060860151915061109660808701611033565b90509295509295909350565b80820260008212600160ff1b841416156110be576110be610f8f565b8181058314821517610d7657610d76610f8f56fea2646970667358221220c9c1a8ef65e080c553a8ba6a6cb033e4575666b62622e0238cb3c3cc438dd4ec64736f6c63430008140033",
    "linkReferences": {}
  },
  "methodIdentifiers": {
    "MINIMUM_USD()": "6b69a592",
    "cheaperWithdraw()": "be2693f0",
    "distributeFunds(uint256)": "f726f715",
    "fund()": "b60d4288",
    "getAddressToAmountFunded(address)": "0343fb25",
    "getFunder(uint256)": "d7b4750c",
    "getFundersInfo()": "09769955",
    "getFundersList()": "0a5480d1",
    "getOwner()": "893d20e8",
    "getPriceFeed()": "9e87a5cd",
    "getTotalFundedAmount()": "8488e5e6",
    "getVersion()": "0d8e6e2c",
    "refund()": "590e1ae3",
    "s_fundersInfo(uint256)": "08c4868f",
    "withdraw()": "3ccfd60b"
  },
  "id": 25
}