{
  "abi": [
    {
      "inputs": [
        {
          "internalType": "address",
          "name": "priceFeed",
          "type": "address"
        }
      ],
      "stateMutability": "nonpayable",
      "type": "constructor"
    },
    {
      "inputs": [],
      "name": "FundMe__NotOwner",
      "type": "error"
    },
    {
      "inputs": [],
      "name": "MINIMUM_USD",
      "outputs": [
        {
          "internalType": "uint256",
          "name": "",
          "type": "uint256"
        }
      ],
      "stateMutability": "view",
      "type": "function"
    },
    {
      "inputs": [],
      "name": "cheaperWithdraw",
      "outputs": [],
      "stateMutability": "nonpayable",
      "type": "function"
    },
    {
      "inputs": [
        {
          "internalType": "uint256",
          "name": "distributionPercentage",
          "type": "uint256"
        }
      ],
      "name": "distributeFunds",
      "outputs": [],
      "stateMutability": "nonpayable",
      "type": "function"
    },
    {
      "inputs": [],
      "name": "fund",
      "outputs": [],
      "stateMutability": "payable",
      "type": "function"
    },
    {
      "inputs": [
        {
          "internalType": "address",
          "name": "fundingAddress",
          "type": "address"
        }
      ],
      "name": "getAddressToAmountFunded",
      "outputs": [
        {
          "internalType": "uint256",
          "name": "",
          "type": "uint256"
        }
      ],
      "stateMutability": "view",
      "type": "function"
    },
    {
      "inputs": [
        {
          "internalType": "uint256",
          "name": "index",
          "type": "uint256"
        }
      ],
      "name": "getFunder",
      "outputs": [
        {
          "internalType": "address",
          "name": "",
          "type": "address"
        }
      ],
      "stateMutability": "view",
      "type": "function"
    },
    {
      "inputs": [],
      "name": "getFundersInfo",
      "outputs": [
        {
          "components": [
            {
              "internalType": "address",
              "name": "funderAddress",
              "type": "address"
            },
            {
              "internalType": "uint256",
              "name": "fundedAmount",
              "type": "uint256"
            }
          ],
          "internalType": "struct FundMe.Funder[]",
          "name": "",
          "type": "tuple[]"
        }
      ],
      "stateMutability": "view",
      "type": "function"
    },
    {
      "inputs": [],
      "name": "getFundersList",
      "outputs": [
        {
          "internalType": "address[]",
          "name": "",
          "type": "address[]"
        }
      ],
      "stateMutability": "view",
      "type": "function"
    },
    {
      "inputs": [],
      "name": "getOwner",
      "outputs": [
        {
          "internalType": "address",
          "name": "",
          "type": "address"
        }
      ],
      "stateMutability": "view",
      "type": "function"
    },
    {
      "inputs": [],
      "name": "getPriceFeed",
      "outputs": [
        {
          "internalType": "contract AggregatorV3Interface",
          "name": "",
          "type": "address"
        }
      ],
      "stateMutability": "view",
      "type": "function"
    },
    {
      "inputs": [],
      "name": "getTotalFundedAmount",
      "outputs": [
        {
          "internalType": "uint256",
          "name": "",
          "type": "uint256"
        }
      ],
      "stateMutability": "view",
      "type": "function"
    },
    {
      "inputs": [],
      "name": "getVersion",
      "outputs": [
        {
          "internalType": "uint256",
          "name": "",
          "type": "uint256"
        }
      ],
      "stateMutability": "view",
      "type": "function"
    },
    {
      "inputs": [],
      "name": "refund",
      "outputs": [],
      "stateMutability": "nonpayable",
      "type": "function"
    },
    {
      "inputs": [],
      "name": "withdraw",
      "outputs": [],
      "stateMutability": "nonpayable",
      "type": "function"
    }
  ],
  "bytecode": {
    "object": "0x60a060405234801561001057600080fd5b5060405161114c38038061114c83398101604081905261002f91610058565b600280546001600160a01b0319166001600160a01b039290921691909117905533608052610088565b60006020828403121561006a57600080fd5b81516001600160a01b038116811461008157600080fd5b9392505050565b6080516110866100c6600039600081816101f0015281816103f8015281816104af0152818161091201528181610a240152610ada01526110866000f3fe6080604052600436106100dd5760003560e01c80638488e5e61161007f578063b60d428811610059578063b60d428814610246578063be2693f01461024e578063d7b4750c14610263578063f726f7151461028357600080fd5b80638488e5e6146101cc578063893d20e8146101e15780639e87a5cd1461022857600080fd5b80630d8e6e2c116100bb5780630d8e6e2c1461016f5780633ccfd60b14610184578063590e1ae31461019b5780636b69a592146101b057600080fd5b80630343fb25146100e2578063097699551461012b5780630a5480d11461014d575b600080fd5b3480156100ee57600080fd5b506101186100fd366004610df7565b6001600160a01b031660009081526001602052604090205490565b6040519081526020015b60405180910390f35b34801561013757600080fd5b506101406102a3565b6040516101229190610e20565b34801561015957600080fd5b50610162610318565b6040516101229190610e78565b34801561017b57600080fd5b5061011861037a565b34801561019057600080fd5b506101996103ed565b005b3480156101a757600080fd5b5061019961052e565b3480156101bc57600080fd5b50610118674563918244f4000081565b3480156101d857600080fd5b50610118610738565b3480156101ed57600080fd5b507f00000000000000000000000000000000000000000000000000000000000000005b6040516001600160a01b039091168152602001610122565b34801561023457600080fd5b506002546001600160a01b0316610210565b6101996107a9565b34801561025a57600080fd5b50610199610907565b34801561026f57600080fd5b5061021061027e366004610ec5565b610aa0565b34801561028f57600080fd5b5061019961029e366004610ec5565b610acf565b60606003805480602002602001604051908101604052809291908181526020016000905b8282101561030f576000848152602090819020604080518082019091526002850290910180546001600160a01b031682526001908101548284015290835290920191016102c7565b50505050905090565b6060600080548060200260200160405190810160405280929190818152602001828054801561037057602002820191906000526020600020905b81546001600160a01b03168152600190910190602001808311610352575b5050505050905090565b6002546040805163054fd4d560e41b815290516000926001600160a01b0316916354fd4d509160048083019260209291908290030181865afa1580156103c4573d6000803e3d6000fd5b505050506040513d601f19601f820116820180604052508101906103e89190610ede565b905090565b336001600160a01b037f000000000000000000000000000000000000000000000000000000000000000016146104365760405163579610db60e01b815260040160405180910390fd5b60005b60005481101561048c57600080828154811061045757610457610ef7565b60009182526020808320909101546001600160a01b03168252600190526040812055508061048481610f23565b915050610439565b50604080516000808252602082019283905290516104aa9290610d7d565b5060007f00000000000000000000000000000000000000000000000000000000000000006001600160a01b03164760405160006040518083038185875af1925050503d8060008114610518576040519150601f19603f3d011682016040523d82523d6000602084013e61051d565b606091505b505090508061052b57600080fd5b50565b336000908152600160205260409020548061059b5760405162461bcd60e51b815260206004820152602260248201527f596f752068617665206e6f742066756e646564207468697320636f6e747261636044820152613a1760f11b60648201526084015b60405180910390fd5b3360009081526001602052604081208190555b6000548110156106aa57336001600160a01b0316600082815481106105d5576105d5610ef7565b6000918252602090912001546001600160a01b03160361069857600080546105ff90600190610f3c565b8154811061060f5761060f610ef7565b600091825260208220015481546001600160a01b0390911691908390811061063957610639610ef7565b6000918252602082200180546001600160a01b0319166001600160a01b03939093169290921790915580548061067157610671610f4f565b600082815260209020810160001990810180546001600160a01b03191690550190556106aa565b806106a281610f23565b9150506105ae565b50604051600090339083908381818185875af1925050503d80600081146106ed576040519150601f19603f3d011682016040523d82523d6000602084013e6106f2565b606091505b50509050806107345760405162461bcd60e51b815260206004820152600e60248201526d2932b33ab732103330b4b632b21760911b6044820152606401610592565b5050565b600080805b6000548110156107a357600080828154811061075b5761075b610ef7565b60009182526020808320909101546001600160a01b0316808352600190915260409091205490915061078d9084610f65565b925050808061079b90610f23565b91505061073d565b50919050565b600254674563918244f40000906107ca9034906001600160a01b0316610cc2565b10156108185760405162461bcd60e51b815260206004820152601b60248201527f596f75206e65656420746f207370656e64206d6f7265204554482100000000006044820152606401610592565b3360009081526001602052604081208054349290610837908490610f65565b909155505060008054600180820183557f290decd9548b62a8d60345a988386fc84ba6bc95484008f6362f93160ef3e5639091018054336001600160a01b0319918216811790925560408051808201909152918252346020830190815260038054948501815590945290517fc2575a0e9e593c00f959f8c92f12db2869c3395a3b0502d05e2516446f71f85b600290930292830180549092166001600160a01b0390911617905590517fc2575a0e9e593c00f959f8c92f12db2869c3395a3b0502d05e2516446f71f85c90910155565b336001600160a01b037f000000000000000000000000000000000000000000000000000000000000000016146109505760405163579610db60e01b815260040160405180910390fd5b60008054604080516020808402820181019092528281529183918301828280156109a357602002820191906000526020600020905b81546001600160a01b03168152600190910190602001808311610985575b5050505050905060005b8151811015610a015760008282815181106109ca576109ca610ef7565b6020908102919091018101516001600160a01b031660009081526001909152604081205550806109f981610f23565b9150506109ad565b5060408051600080825260208201928390529051610a1f9290610d7d565b5060007f00000000000000000000000000000000000000000000000000000000000000006001600160a01b03164760405160006040518083038185875af1925050503d8060008114610a8d576040519150601f19603f3d011682016040523d82523d6000602084013e610a92565b606091505b505090508061073457600080fd5b6000808281548110610ab457610ab4610ef7565b6000918252602090912001546001600160a01b031692915050565b336001600160a01b037f00000000000000000000000000000000000000000000000000000000000000001614610b185760405163579610db60e01b815260040160405180910390fd5b600081118015610b29575060648111155b610b755760405162461bcd60e51b815260206004820181905260248201527f496e76616c696420646973747269627574696f6e2070657263656e746167652e6044820152606401610592565b6000610b7f610738565b905060006064610b8f8484610f78565b610b999190610f8f565b905060005b600054811015610cbc576000808281548110610bbc57610bbc610ef7565b60009182526020808320909101546001600160a01b0316808352600190915260408220549092509085610bef8387610f78565b610bf99190610f8f565b90508015610ca6576000836001600160a01b03168260405160006040518083038185875af1925050503d8060008114610c4e576040519150601f19603f3d011682016040523d82523d6000602084013e610c53565b606091505b5050905080610ca45760405162461bcd60e51b815260206004820152601960248201527f46756e6420646973747269627574696f6e206661696c65642e000000000000006044820152606401610592565b505b5050508080610cb490610f23565b915050610b9e565b50505050565b600080610cce83610cfa565b90506000670de0b6b3a7640000610ce58684610f78565b610cef9190610f8f565b925050505b92915050565b600080826001600160a01b031663feaf968c6040518163ffffffff1660e01b815260040160a060405180830381865afa158015610d3b573d6000803e3d6000fd5b505050506040513d601f19601f82011682018060405250810190610d5f9190610fd0565b505050915050806402540be400610d769190611020565b9392505050565b828054828255906000526020600020908101928215610dd2579160200282015b82811115610dd257825182546001600160a01b0319166001600160a01b03909116178255602090920191600190910190610d9d565b50610dde929150610de2565b5090565b5b80821115610dde5760008155600101610de3565b600060208284031215610e0957600080fd5b81356001600160a01b0381168114610d7657600080fd5b602080825282518282018190526000919060409081850190868401855b82811015610e6b57815180516001600160a01b03168552860151868501529284019290850190600101610e3d565b5091979650505050505050565b6020808252825182820181905260009190848201906040850190845b81811015610eb95783516001600160a01b031683529284019291840191600101610e94565b50909695505050505050565b600060208284031215610ed757600080fd5b5035919050565b600060208284031215610ef057600080fd5b5051919050565b634e487b7160e01b600052603260045260246000fd5b634e487b7160e01b600052601160045260246000fd5b600060018201610f3557610f35610f0d565b5060010190565b81810381811115610cf457610cf4610f0d565b634e487b7160e01b600052603160045260246000fd5b80820180821115610cf457610cf4610f0d565b8082028115828204841417610cf457610cf4610f0d565b600082610fac57634e487b7160e01b600052601260045260246000fd5b500490565b805169ffffffffffffffffffff81168114610fcb57600080fd5b919050565b600080600080600060a08688031215610fe857600080fd5b610ff186610fb1565b945060208601519350604086015192506060860151915061101460808701610fb1565b90509295509295909350565b80820260008212600160ff1b8414161561103c5761103c610f0d565b8181058314821517610cf457610cf4610f0d56fea2646970667358221220a717b555299f9e83ed8f44a5b2a5913fba3da487ef66a4ae22a15b52d7a3838264736f6c63430008140033",
    "linkReferences": {}
  },
  "methodIdentifiers": {
    "MINIMUM_USD()": "6b69a592",
    "cheaperWithdraw()": "be2693f0",
    "distributeFunds(uint256)": "f726f715",
    "fund()": "b60d4288",
    "getAddressToAmountFunded(address)": "0343fb25",
    "getFunder(uint256)": "d7b4750c",
    "getFundersInfo()": "09769955",
    "getFundersList()": "0a5480d1",
    "getOwner()": "893d20e8",
    "getPriceFeed()": "9e87a5cd",
    "getTotalFundedAmount()": "8488e5e6",
    "getVersion()": "0d8e6e2c",
    "refund()": "590e1ae3",
    "withdraw()": "3ccfd60b"
  },
  "id": 24
}