{
  "abi": [
    {
      "inputs": [
        {
          "internalType": "contract IEntryPoint",
          "name": "_entryPoint",
          "type": "address"
        }
      ],
      "stateMutability": "nonpayable",
      "type": "constructor"
    },
    {
      "anonymous": false,
      "inputs": [
        {
          "indexed": true,
          "internalType": "address",
          "name": "previousOwner",
          "type": "address"
        },
        {
          "indexed": true,
          "internalType": "address",
          "name": "newOwner",
          "type": "address"
        }
      ],
      "name": "OwnershipTransferred",
      "type": "event"
    },
    {
      "inputs": [],
      "name": "COST_OF_POST",
      "outputs": [
        {
          "internalType": "uint256",
          "name": "",
          "type": "uint256"
        }
      ],
      "stateMutability": "view",
      "type": "function"
    },
    {
      "inputs": [
        {
          "internalType": "contract IERC20",
          "name": "token",
          "type": "address"
        },
        {
          "internalType": "address",
          "name": "account",
          "type": "address"
        },
        {
          "internalType": "uint256",
          "name": "amount",
          "type": "uint256"
        }
      ],
      "name": "addDepositFor",
      "outputs": [],
      "stateMutability": "nonpayable",
      "type": "function"
    },
    {
      "inputs": [
        {
          "internalType": "uint32",
          "name": "unstakeDelaySec",
          "type": "uint32"
        }
      ],
      "name": "addStake",
      "outputs": [],
      "stateMutability": "payable",
      "type": "function"
    },
    {
      "inputs": [
        {
          "internalType": "contract IERC20",
          "name": "token",
          "type": "address"
        },
        {
          "internalType": "contract IOracle",
          "name": "tokenPriceOracle",
          "type": "address"
        }
      ],
      "name": "addToken",
      "outputs": [],
      "stateMutability": "nonpayable",
      "type": "function"
    },
    {
      "inputs": [
        {
          "internalType": "contract IERC20",
          "name": "",
          "type": "address"
        },
        {
          "internalType": "address",
          "name": "",
          "type": "address"
        }
      ],
      "name": "balances",
      "outputs": [
        {
          "internalType": "uint256",
          "name": "",
          "type": "uint256"
        }
      ],
      "stateMutability": "view",
      "type": "function"
    },
    {
      "inputs": [],
      "name": "deposit",
      "outputs": [],
      "stateMutability": "payable",
      "type": "function"
    },
    {
      "inputs": [
        {
          "internalType": "contract IERC20",
          "name": "token",
          "type": "address"
        },
        {
          "internalType": "address",
          "name": "account",
          "type": "address"
        }
      ],
      "name": "depositInfo",
      "outputs": [
        {
          "internalType": "uint256",
          "name": "amount",
          "type": "uint256"
        },
        {
          "internalType": "uint256",
          "name": "_unlockBlock",
          "type": "uint256"
        }
      ],
      "stateMutability": "view",
      "type": "function"
    },
    {
      "inputs": [],
      "name": "entryPoint",
      "outputs": [
        {
          "internalType": "contract IEntryPoint",
          "name": "",
          "type": "address"
        }
      ],
      "stateMutability": "view",
      "type": "function"
    },
    {
      "inputs": [],
      "name": "getDeposit",
      "outputs": [
        {
          "internalType": "uint256",
          "name": "",
          "type": "uint256"
        }
      ],
      "stateMutability": "view",
      "type": "function"
    },
    {
      "inputs": [],
      "name": "lockTokenDeposit",
      "outputs": [],
      "stateMutability": "nonpayable",
      "type": "function"
    },
    {
      "inputs": [
        {
          "internalType": "contract IERC20",
          "name": "",
          "type": "address"
        }
      ],
      "name": "oracles",
      "outputs": [
        {
          "internalType": "contract IOracle",
          "name": "",
          "type": "address"
        }
      ],
      "stateMutability": "view",
      "type": "function"
    },
    {
      "inputs": [],
      "name": "owner",
      "outputs": [
        {
          "internalType": "address",
          "name": "",
          "type": "address"
        }
      ],
      "stateMutability": "view",
      "type": "function"
    },
    {
      "inputs": [
        {
          "internalType": "enum IPaymaster.PostOpMode",
          "name": "mode",
          "type": "uint8"
        },
        {
          "internalType": "bytes",
          "name": "context",
          "type": "bytes"
        },
        {
          "internalType": "uint256",
          "name": "actualGasCost",
          "type": "uint256"
        }
      ],
      "name": "postOp",
      "outputs": [],
      "stateMutability": "nonpayable",
      "type": "function"
    },
    {
      "inputs": [],
      "name": "renounceOwnership",
      "outputs": [],
      "stateMutability": "nonpayable",
      "type": "function"
    },
    {
      "inputs": [
        {
          "internalType": "address",
          "name": "newOwner",
          "type": "address"
        }
      ],
      "name": "transferOwnership",
      "outputs": [],
      "stateMutability": "nonpayable",
      "type": "function"
    },
    {
      "inputs": [
        {
          "internalType": "address",
          "name": "",
          "type": "address"
        }
      ],
      "name": "unlockBlock",
      "outputs": [
        {
          "internalType": "uint256",
          "name": "",
          "type": "uint256"
        }
      ],
      "stateMutability": "view",
      "type": "function"
    },
    {
      "inputs": [],
      "name": "unlockStake",
      "outputs": [],
      "stateMutability": "nonpayable",
      "type": "function"
    },
    {
      "inputs": [],
      "name": "unlockTokenDeposit",
      "outputs": [],
      "stateMutability": "nonpayable",
      "type": "function"
    },
    {
      "inputs": [
        {
          "components": [
            {
              "internalType": "address",
              "name": "sender",
              "type": "address"
            },
            {
              "internalType": "uint256",
              "name": "nonce",
              "type": "uint256"
            },
            {
              "internalType": "bytes",
              "name": "initCode",
              "type": "bytes"
            },
            {
              "internalType": "bytes",
              "name": "callData",
              "type": "bytes"
            },
            {
              "internalType": "uint256",
              "name": "callGasLimit",
              "type": "uint256"
            },
            {
              "internalType": "uint256",
              "name": "verificationGasLimit",
              "type": "uint256"
            },
            {
              "internalType": "uint256",
              "name": "preVerificationGas",
              "type": "uint256"
            },
            {
              "internalType": "uint256",
              "name": "maxFeePerGas",
              "type": "uint256"
            },
            {
              "internalType": "uint256",
              "name": "maxPriorityFeePerGas",
              "type": "uint256"
            },
            {
              "internalType": "bytes",
              "name": "paymasterAndData",
              "type": "bytes"
            },
            {
              "internalType": "bytes",
              "name": "signature",
              "type": "bytes"
            }
          ],
          "internalType": "struct UserOperation",
          "name": "userOp",
          "type": "tuple"
        },
        {
          "internalType": "bytes32",
          "name": "userOpHash",
          "type": "bytes32"
        },
        {
          "internalType": "uint256",
          "name": "maxCost",
          "type": "uint256"
        }
      ],
      "name": "validatePaymasterUserOp",
      "outputs": [
        {
          "internalType": "bytes",
          "name": "context",
          "type": "bytes"
        },
        {
          "internalType": "uint256",
          "name": "validationData",
          "type": "uint256"
        }
      ],
      "stateMutability": "nonpayable",
      "type": "function"
    },
    {
      "inputs": [
        {
          "internalType": "address payable",
          "name": "withdrawAddress",
          "type": "address"
        }
      ],
      "name": "withdrawStake",
      "outputs": [],
      "stateMutability": "nonpayable",
      "type": "function"
    },
    {
      "inputs": [
        {
          "internalType": "address payable",
          "name": "withdrawAddress",
          "type": "address"
        },
        {
          "internalType": "uint256",
          "name": "amount",
          "type": "uint256"
        }
      ],
      "name": "withdrawTo",
      "outputs": [],
      "stateMutability": "nonpayable",
      "type": "function"
    },
    {
      "inputs": [
        {
          "internalType": "contract IERC20",
          "name": "token",
          "type": "address"
        },
        {
          "internalType": "address",
          "name": "target",
          "type": "address"
        },
        {
          "internalType": "uint256",
          "name": "amount",
          "type": "uint256"
        }
      ],
      "name": "withdrawTokensTo",
      "outputs": [],
      "stateMutability": "nonpayable",
      "type": "function"
    }
  ],
  "bytecode": {
    "object": "0x60a060405234801561001057600080fd5b50604051620018f3380380620018f3833981016040819052610031916100b4565b8061003b33610064565b6001600160a01b031660805261005e336000908152600360205260409020439055565b506100e4565b600080546001600160a01b038381166001600160a01b0319831681178455604051919092169283917f8be0079c531659141344cd1fd0a4f28419497f9722a3daafe3b4186f6b6457e09190a35050565b6000602082840312156100c657600080fd5b81516001600160a01b03811681146100dd57600080fd5b9392505050565b6080516117c2620001316000396000818161033f0152818161049d015281816105340152818161071d015281816107b1015281816108280152818161098c0152610b9501526117c26000f3fe6080604052600436106101355760003560e01c8063addd5099116100ab578063c399ec881161006f578063c399ec88146103ce578063cc9c837c146103e3578063cd8f80c214610403578063d0e30db014610425578063f2fde38b1461042d578063f465c77e1461044d57600080fd5b8063addd5099146102f7578063b0d691fe1461032d578063bb9fe6bf14610361578063c23a5cea14610376578063c23f001f1461039657600080fd5b80635476bd72116100fd5780635476bd7214610236578063715018a614610256578063796d43711461026b5780638da5cb5b146102815780639ed0fb68146102b3578063a9a23409146102d757600080fd5b80630396cb601461013a578063205c28781461014f578063382edd9e1461016f578063493b01701461018f5780634a6f84cf146101fb575b600080fd5b61014d610148366004611346565b61047b565b005b34801561015b57600080fd5b5061014d61016a366004611381565b610506565b34801561017b57600080fd5b5061014d61018a3660046113ad565b610578565b34801561019b57600080fd5b506101e16101aa3660046113ee565b6001600160a01b03918216600090815260026020908152604080832093909416825291825282812054600390925291909120549091565b604080519283526020830191909152015b60405180910390f35b34801561020757600080fd5b50610228610216366004611427565b60036020526000908152604090205481565b6040519081526020016101f2565b34801561024257600080fd5b5061014d6102513660046113ee565b610653565b34801561026257600080fd5b5061014d6106e5565b34801561027757600080fd5b506102286188b881565b34801561028d57600080fd5b506000546001600160a01b03165b6040516001600160a01b0390911681526020016101f2565b3480156102bf57600080fd5b5061014d336000908152600360205260409020439055565b3480156102e357600080fd5b5061014d6102f2366004611444565b6106f9565b34801561030357600080fd5b5061029b610312366004611427565b6001602052600090815260409020546001600160a01b031681565b34801561033957600080fd5b5061029b7f000000000000000000000000000000000000000000000000000000000000000081565b34801561036d57600080fd5b5061014d610713565b34801561038257600080fd5b5061014d610391366004611427565b61078a565b3480156103a257600080fd5b506102286103b13660046113ee565b600260209081526000928352604080842090915290825290205481565b3480156103da57600080fd5b50610228610810565b3480156103ef57600080fd5b5061014d6103fe3660046113ad565b6108a0565b34801561040f57600080fd5b5061014d33600090815260036020526040812055565b61014d610977565b34801561043957600080fd5b5061014d610448366004611427565b6109d9565b34801561045957600080fd5b5061046d6104683660046114d3565b610a52565b6040516101f2929190611577565b610483610a75565b604051621cb65b60e51b815263ffffffff821660048201527f00000000000000000000000000000000000000000000000000000000000000006001600160a01b031690630396cb609034906024016000604051808303818588803b1580156104ea57600080fd5b505af11580156104fe573d6000803e3d6000fd5b505050505050565b61050e610a75565b60405163040b850f60e31b81526001600160a01b038381166004830152602482018390527f0000000000000000000000000000000000000000000000000000000000000000169063205c287890604401600060405180830381600087803b1580156104ea57600080fd5b61058d6001600160a01b038416333084610acf565b6001600160a01b03838116600090815260016020526040902054166105ed5760405162461bcd60e51b81526020600482015260116024820152703ab739bab83837b93a32b2103a37b5b2b760791b60448201526064015b60405180910390fd5b6001600160a01b038084166000908152600260209081526040808320938616835292905290812080548392906106249084906115af565b90915550506001600160a01b038216330361064e5761064e33600090815260036020526040812055565b505050565b61065b610a75565b6001600160a01b0382811660009081526001602052604090205416156106b75760405162461bcd60e51b8152602060048201526011602482015270151bdad95b88185b1c9958591e481cd95d607a1b60448201526064016105e4565b6001600160a01b03918216600090815260016020526040902080546001600160a01b03191691909216179055565b6106ed610a75565b6106f76000610b3a565b565b610701610b8a565b61070d84848484610bfa565b50505050565b61071b610a75565b7f00000000000000000000000000000000000000000000000000000000000000006001600160a01b031663bb9fe6bf6040518163ffffffff1660e01b8152600401600060405180830381600087803b15801561077657600080fd5b505af115801561070d573d6000803e3d6000fd5b610792610a75565b60405163611d2e7560e11b81526001600160a01b0382811660048301527f0000000000000000000000000000000000000000000000000000000000000000169063c23a5cea90602401600060405180830381600087803b1580156107f557600080fd5b505af1158015610809573d6000803e3d6000fd5b5050505050565b6040516370a0823160e01b81523060048201526000907f00000000000000000000000000000000000000000000000000000000000000006001600160a01b0316906370a0823190602401602060405180830381865afa158015610877573d6000803e3d6000fd5b505050506040513d601f19601f8201168201806040525081019061089b91906115c2565b905090565b33600090815260036020526040902054158015906108cc57503360009081526003602052604090205443115b61092a5760405162461bcd60e51b815260206004820152602960248201527f4465706f7369745061796d61737465723a206d75737420756e6c6f636b546f6b604482015268195b91195c1bdcda5d60ba1b60648201526084016105e4565b6001600160a01b03831660009081526002602090815260408083203384529091528120805483929061095d9084906115db565b9091555061064e90506001600160a01b0384168383610d24565b60405163b760faf960e01b81523060048201527f00000000000000000000000000000000000000000000000000000000000000006001600160a01b03169063b760faf99034906024016000604051808303818588803b1580156107f557600080fd5b6109e1610a75565b6001600160a01b038116610a465760405162461bcd60e51b815260206004820152602660248201527f4f776e61626c653a206e6577206f776e657220697320746865207a65726f206160448201526564647265737360d01b60648201526084016105e4565b610a4f81610b3a565b50565b60606000610a5e610b8a565b610a69858585610d54565b91509150935093915050565b6000546001600160a01b031633146106f75760405162461bcd60e51b815260206004820181905260248201527f4f776e61626c653a2063616c6c6572206973206e6f7420746865206f776e657260448201526064016105e4565b6040516001600160a01b038085166024830152831660448201526064810182905261070d9085906323b872dd60e01b906084015b60408051601f198184030181529190526020810180516001600160e01b03166001600160e01b031990931692909217909152610fbc565b600080546001600160a01b038381166001600160a01b0319831681178455604051919092169283917f8be0079c531659141344cd1fd0a4f28419497f9722a3daafe3b4186f6b6457e09190a35050565b336001600160a01b037f000000000000000000000000000000000000000000000000000000000000000016146106f75760405162461bcd60e51b815260206004820152601560248201527414d95b99195c881b9bdd08115b9d1c9e541bda5b9d605a1b60448201526064016105e4565b600080808080610c0c878901896115ee565b9450945094509450945060008183856188b8610c28919061163f565b610c32908a6115af565b610c3c919061163f565b610c469190611656565b905060028a6002811115610c5c57610c5c611678565b14610c7b57610c766001600160a01b038616873084610acf565b610cb8565b6001600160a01b038086166000908152600260209081526040808320938a1683529290529081208054839290610cb29084906115db565b90915550505b6001600160a01b03851660009081526002602052604081208291610ce46000546001600160a01b031690565b6001600160a01b03166001600160a01b031681526020019081526020016000206000828254610d1391906115af565b909155505050505050505050505050565b6040516001600160a01b03831660248201526044810182905261064e90849063a9059cbb60e01b90606401610b03565b606060006188b88560a0013511610dbe5760405162461bcd60e51b815260206004820152602860248201527f4465706f7369745061796d61737465723a2067617320746f6f206c6f7720666f60448201526707220706f73744f760c41b60648201526084016105e4565b366000610dcf61012088018861168e565b909250905060288114610e425760405162461bcd60e51b815260206004820152603560248201527f4465706f7369745061796d61737465723a207061796d6173746572416e6444616044820152743a309036bab9ba1039b832b1b4b33c903a37b5b2b760591b60648201526084016105e4565b6000610e5182601481866116dc565b610e5a91611706565b60601c905087356000610e6d838961108e565b90506000610e7a8b611177565b6001600160a01b03841660009081526003602052604090205490915015610eef5760405162461bcd60e51b8152602060048201526024808201527f4465706f7369745061796d61737465723a206465706f736974206e6f74206c6f60448201526318dad95960e21b60648201526084016105e4565b6001600160a01b03808516600090815260026020908152604080832093871683529290522054821115610f6e5760405162461bcd60e51b815260206004820152602160248201527f4465706f7369745061796d61737465723a206465706f73697420746f6f206c6f6044820152607760f81b60648201526084016105e4565b604080516001600160a01b03948516602082015294909316848401526060840152608083015260a0808301979097528051808303909701875260c09091019052509295600095509350505050565b6000611011826040518060400160405280602081526020017f5361666545524332303a206c6f772d6c6576656c2063616c6c206661696c6564815250856001600160a01b03166111a69092919063ffffffff16565b80519091501561064e578080602001905181019061102f919061173b565b61064e5760405162461bcd60e51b815260206004820152602a60248201527f5361666545524332303a204552433230206f7065726174696f6e20646964206e6044820152691bdd081cdd58d8d9595960b21b60648201526084016105e4565b6001600160a01b03808316600090815260016020526040812054909116806111045760405162461bcd60e51b815260206004820152602360248201527f4465706f7369745061796d61737465723a20756e737570706f7274656420746f60448201526235b2b760e91b60648201526084016105e4565b60405163d1eca9cf60e01b8152600481018490526001600160a01b0382169063d1eca9cf90602401602060405180830381865afa158015611149573d6000803e3d6000fd5b505050506040513d601f19601f8201168201806040525081019061116d91906115c2565b9150505b92915050565b600060e0820135610100830135808203611192575092915050565b61119e824883016111b5565b949350505050565b606061119e84846000856111cd565b60008183106111c457816111c6565b825b9392505050565b60608247101561122e5760405162461bcd60e51b815260206004820152602660248201527f416464726573733a20696e73756666696369656e742062616c616e636520666f6044820152651c8818d85b1b60d21b60648201526084016105e4565b600080866001600160a01b0316858760405161124a919061175d565b60006040518083038185875af1925050503d8060008114611287576040519150601f19603f3d011682016040523d82523d6000602084013e61128c565b606091505b509150915061129d878383876112a8565b979650505050505050565b60608315611317578251600003611310576001600160a01b0385163b6113105760405162461bcd60e51b815260206004820152601d60248201527f416464726573733a2063616c6c20746f206e6f6e2d636f6e747261637400000060448201526064016105e4565b508161119e565b61119e838381511561132c5781518083602001fd5b8060405162461bcd60e51b81526004016105e49190611779565b60006020828403121561135857600080fd5b813563ffffffff811681146111c657600080fd5b6001600160a01b0381168114610a4f57600080fd5b6000806040838503121561139457600080fd5b823561139f8161136c565b946020939093013593505050565b6000806000606084860312156113c257600080fd5b83356113cd8161136c565b925060208401356113dd8161136c565b929592945050506040919091013590565b6000806040838503121561140157600080fd5b823561140c8161136c565b9150602083013561141c8161136c565b809150509250929050565b60006020828403121561143957600080fd5b81356111c68161136c565b6000806000806060858703121561145a57600080fd5b84356003811061146957600080fd5b9350602085013567ffffffffffffffff8082111561148657600080fd5b818701915087601f83011261149a57600080fd5b8135818111156114a957600080fd5b8860208285010111156114bb57600080fd5b95986020929092019750949560400135945092505050565b6000806000606084860312156114e857600080fd5b833567ffffffffffffffff8111156114ff57600080fd5b8401610160818703121561151257600080fd5b95602085013595506040909401359392505050565b60005b8381101561154257818101518382015260200161152a565b50506000910152565b60008151808452611563816020860160208601611527565b601f01601f19169290920160200192915050565b60408152600061158a604083018561154b565b90508260208301529392505050565b634e487b7160e01b600052601160045260246000fd5b8082018082111561117157611171611599565b6000602082840312156115d457600080fd5b5051919050565b8181038181111561117157611171611599565b600080600080600060a0868803121561160657600080fd5b85356116118161136c565b945060208601356116218161136c565b94979496505050506040830135926060810135926080909101359150565b808202811582820484141761117157611171611599565b60008261167357634e487b7160e01b600052601260045260246000fd5b500490565b634e487b7160e01b600052602160045260246000fd5b6000808335601e198436030181126116a557600080fd5b83018035915067ffffffffffffffff8211156116c057600080fd5b6020019150368190038213156116d557600080fd5b9250929050565b600080858511156116ec57600080fd5b838611156116f957600080fd5b5050820193919092039150565b6bffffffffffffffffffffffff1981358181169160148510156117335780818660140360031b1b83161692505b505092915050565b60006020828403121561174d57600080fd5b815180151581146111c657600080fd5b6000825161176f818460208701611527565b9190910192915050565b6020815260006111c6602083018461154b56fea26469706673582212208466a5286875e2f753cb0c26855f374e16a0af910ce6d69c2902849d1518ec3264736f6c63430008140033",
    "linkReferences": {}
  },
  "methodIdentifiers": {
    "COST_OF_POST()": "796d4371",
    "addDepositFor(address,address,uint256)": "382edd9e",
    "addStake(uint32)": "0396cb60",
    "addToken(address,address)": "5476bd72",
    "balances(address,address)": "c23f001f",
    "deposit()": "d0e30db0",
    "depositInfo(address,address)": "493b0170",
    "entryPoint()": "b0d691fe",
    "getDeposit()": "c399ec88",
    "lockTokenDeposit()": "cd8f80c2",
    "oracles(address)": "addd5099",
    "owner()": "8da5cb5b",
    "postOp(uint8,bytes,uint256)": "a9a23409",
    "renounceOwnership()": "715018a6",
    "transferOwnership(address)": "f2fde38b",
    "unlockBlock(address)": "4a6f84cf",
    "unlockStake()": "bb9fe6bf",
    "unlockTokenDeposit()": "9ed0fb68",
    "validatePaymasterUserOp((address,uint256,bytes,bytes,uint256,uint256,uint256,uint256,uint256,bytes,bytes),bytes32,uint256)": "f465c77e",
    "withdrawStake(address)": "c23a5cea",
    "withdrawTo(address,uint256)": "205c2878",
    "withdrawTokensTo(address,address,uint256)": "cc9c837c"
  },
  "id": 30
}