{
  "abi": [
    {
      "inputs": [],
      "stateMutability": "nonpayable",
      "type": "constructor"
    },
    {
      "inputs": [],
      "name": "Name",
      "outputs": [
        {
          "internalType": "string",
          "name": "",
          "type": "string"
        }
      ],
      "stateMutability": "pure",
      "type": "function"
    },
    {
      "inputs": [
        {
          "internalType": "address",
          "name": "_owner",
          "type": "address"
        }
      ],
      "name": "balanceOf",
      "outputs": [
        {
          "internalType": "uint256",
          "name": "",
          "type": "uint256"
        }
      ],
      "stateMutability": "view",
      "type": "function"
    },
    {
      "inputs": [],
      "name": "decimals",
      "outputs": [
        {
          "internalType": "uint8",
          "name": "",
          "type": "uint8"
        }
      ],
      "stateMutability": "pure",
      "type": "function"
    },
    {
      "inputs": [],
      "name": "totalSupply",
      "outputs": [
        {
          "internalType": "uint256",
          "name": "",
          "type": "uint256"
        }
      ],
      "stateMutability": "pure",
      "type": "function"
    },
    {
      "inputs": [
        {
          "internalType": "address",
          "name": "_to",
          "type": "address"
        },
        {
          "internalType": "uint256",
          "name": "_amount",
          "type": "uint256"
        }
      ],
      "name": "transfer",
      "outputs": [
        {
          "internalType": "bool",
          "name": "success",
          "type": "bool"
        }
      ],
      "stateMutability": "nonpayable",
      "type": "function"
    }
  ],
  "bytecode": {
    "object": "0x608060405234801561001057600080fd5b506102ef806100206000396000f3fe608060405234801561001057600080fd5b50600436106100575760003560e01c806318160ddd1461005c578063313ce5671461007a57806370a08231146100895780638052474d146100b2578063a9059cbb146100e0575b600080fd5b68056bc75e2d631000005b6040519081526020015b60405180910390f35b60405160128152602001610071565b6100676100973660046101dd565b6001600160a01b031660009081526020819052604090205490565b604080518082018252600c81526b26b0b73ab0b6102a37b5b2b760a11b6020820152905161007191906101ff565b6100f36100ee36600461024d565b610103565b6040519015158152602001610071565b6001600160a01b0382166000908152602081905260408082205433835290822054829161012f9161028d565b336000908152602081905260408120805492935085929091906101539084906102a6565b90915550506001600160a01b0384166000908152602081905260408120805485929061018090849061028d565b90915550506001600160a01b0384166000908152602081905260408082205433835291205482916101b09161028d565b146101ba57600080fd5b5092915050565b80356001600160a01b03811681146101d857600080fd5b919050565b6000602082840312156101ef57600080fd5b6101f8826101c1565b9392505050565b600060208083528351808285015260005b8181101561022c57858101830151858201604001528201610210565b506000604082860101526040601f19601f8301168501019250505092915050565b6000806040838503121561026057600080fd5b610269836101c1565b946020939093013593505050565b634e487b7160e01b600052601160045260246000fd5b808201808211156102a0576102a0610277565b92915050565b818103818111156102a0576102a061027756fea26469706673582212200781a5b598fc9da80f0fe18b18fd9cf11806b2226a440ad2043a1cf98faf465b64736f6c63430008140033",
    "linkReferences": {}
  },
  "methodIdentifiers": {
    "Name()": "8052474d",
    "balanceOf(address)": "70a08231",
    "decimals()": "313ce567",
    "totalSupply()": "18160ddd",
    "transfer(address,uint256)": "a9059cbb"
  },
  "id": 26
}