{
  "abi": [
    {
      "inputs": [],
      "stateMutability": "nonpayable",
      "type": "constructor"
    },
    {
      "anonymous": false,
      "inputs": [
        {
          "indexed": false,
          "internalType": "address",
          "name": "_address",
          "type": "address"
        },
        {
          "indexed": true,
          "internalType": "address",
          "name": "Consumer",
          "type": "address"
        },
        {
          "indexed": false,
          "internalType": "uint256",
          "name": "status",
          "type": "uint256"
        }
      ],
      "name": "CommodityStatus",
      "type": "event"
    },
    {
      "anonymous": false,
      "inputs": [
        {
          "indexed": true,
          "internalType": "address",
          "name": "rawMaterialAddress",
          "type": "address"
        },
        {
          "indexed": true,
          "internalType": "address",
          "name": "supplier",
          "type": "address"
        }
      ],
      "name": "RawMaterialCreated",
      "type": "event"
    },
    {
      "anonymous": false,
      "inputs": [
        {
          "indexed": true,
          "internalType": "address",
          "name": "_address",
          "type": "address"
        },
        {
          "indexed": false,
          "internalType": "bytes32",
          "name": "name",
          "type": "bytes32"
        }
      ],
      "name": "UserRegister",
      "type": "event"
    },
    {
      "anonymous": false,
      "inputs": [
        {
          "indexed": false,
          "internalType": "address",
          "name": "buyer",
          "type": "address"
        },
        {
          "indexed": false,
          "internalType": "address",
          "name": "seller",
          "type": "address"
        },
        {
          "indexed": false,
          "internalType": "address",
          "name": "packageAddr",
          "type": "address"
        },
        {
          "indexed": false,
          "internalType": "bytes32",
          "name": "signature",
          "type": "bytes32"
        },
        {
          "indexed": true,
          "internalType": "uint256",
          "name": "now",
          "type": "uint256"
        }
      ],
      "name": "buyEvent",
      "type": "event"
    },
    {
      "anonymous": false,
      "inputs": [
        {
          "indexed": false,
          "internalType": "address",
          "name": "buyer",
          "type": "address"
        },
        {
          "indexed": false,
          "internalType": "address",
          "name": "seller",
          "type": "address"
        },
        {
          "indexed": false,
          "internalType": "address",
          "name": "packageAddr",
          "type": "address"
        },
        {
          "indexed": false,
          "internalType": "bytes32",
          "name": "signature",
          "type": "bytes32"
        },
        {
          "indexed": true,
          "internalType": "uint256",
          "name": "now",
          "type": "uint256"
        }
      ],
      "name": "receivedEvent",
      "type": "event"
    },
    {
      "anonymous": false,
      "inputs": [
        {
          "indexed": false,
          "internalType": "address",
          "name": "buyer",
          "type": "address"
        },
        {
          "indexed": false,
          "internalType": "address",
          "name": "seller",
          "type": "address"
        },
        {
          "indexed": false,
          "internalType": "address",
          "name": "packageAddr",
          "type": "address"
        },
        {
          "indexed": false,
          "internalType": "bytes32",
          "name": "signature",
          "type": "bytes32"
        },
        {
          "indexed": true,
          "internalType": "uint256",
          "name": "now",
          "type": "uint256"
        }
      ],
      "name": "respondEvent",
      "type": "event"
    },
    {
      "anonymous": false,
      "inputs": [
        {
          "indexed": false,
          "internalType": "address",
          "name": "seller",
          "type": "address"
        },
        {
          "indexed": false,
          "internalType": "address",
          "name": "buyer",
          "type": "address"
        },
        {
          "indexed": false,
          "internalType": "address",
          "name": "packageAddr",
          "type": "address"
        },
        {
          "indexed": false,
          "internalType": "bytes32",
          "name": "signature",
          "type": "bytes32"
        },
        {
          "indexed": true,
          "internalType": "uint256",
          "name": "now",
          "type": "uint256"
        }
      ],
      "name": "sendEvent",
      "type": "event"
    },
    {
      "inputs": [
        {
          "internalType": "address",
          "name": "",
          "type": "address"
        },
        {
          "internalType": "uint256",
          "name": "",
          "type": "uint256"
        }
      ],
      "name": "CommoditiesAtWholesaler",
      "outputs": [
        {
          "internalType": "address",
          "name": "",
          "type": "address"
        }
      ],
      "stateMutability": "view",
      "type": "function"
    },
    {
      "inputs": [
        {
          "internalType": "address",
          "name": "",
          "type": "address"
        },
        {
          "internalType": "uint256",
          "name": "",
          "type": "uint256"
        }
      ],
      "name": "CommodityBatchAtFinalConsumer",
      "outputs": [
        {
          "internalType": "address",
          "name": "",
          "type": "address"
        }
      ],
      "stateMutability": "view",
      "type": "function"
    },
    {
      "inputs": [
        {
          "internalType": "address",
          "name": "",
          "type": "address"
        },
        {
          "internalType": "uint256",
          "name": "",
          "type": "uint256"
        }
      ],
      "name": "CommodityDtoC",
      "outputs": [
        {
          "internalType": "address",
          "name": "",
          "type": "address"
        }
      ],
      "stateMutability": "view",
      "type": "function"
    },
    {
      "inputs": [
        {
          "internalType": "address",
          "name": "",
          "type": "address"
        }
      ],
      "name": "CommodityDtoCTxContract",
      "outputs": [
        {
          "internalType": "address",
          "name": "",
          "type": "address"
        }
      ],
      "stateMutability": "view",
      "type": "function"
    },
    {
      "inputs": [
        {
          "internalType": "address",
          "name": "",
          "type": "address"
        },
        {
          "internalType": "uint256",
          "name": "",
          "type": "uint256"
        }
      ],
      "name": "CommodityWtoD",
      "outputs": [
        {
          "internalType": "address",
          "name": "",
          "type": "address"
        }
      ],
      "stateMutability": "view",
      "type": "function"
    },
    {
      "inputs": [
        {
          "internalType": "address",
          "name": "",
          "type": "address"
        }
      ],
      "name": "CommodityWtoDTxContract",
      "outputs": [
        {
          "internalType": "address",
          "name": "",
          "type": "address"
        }
      ],
      "stateMutability": "view",
      "type": "function"
    },
    {
      "inputs": [
        {
          "internalType": "address",
          "name": "",
          "type": "address"
        },
        {
          "internalType": "uint256",
          "name": "",
          "type": "uint256"
        }
      ],
      "name": "CommoditysAtDistributor",
      "outputs": [
        {
          "internalType": "address",
          "name": "",
          "type": "address"
        }
      ],
      "stateMutability": "view",
      "type": "function"
    },
    {
      "inputs": [],
      "name": "Owner",
      "outputs": [
        {
          "internalType": "address",
          "name": "",
          "type": "address"
        }
      ],
      "stateMutability": "view",
      "type": "function"
    },
    {
      "inputs": [
        {
          "internalType": "uint256",
          "name": "_role",
          "type": "uint256"
        },
        {
          "internalType": "address",
          "name": "_addr",
          "type": "address"
        }
      ],
      "name": "changeUserRole",
      "outputs": [
        {
          "internalType": "string",
          "name": "",
          "type": "string"
        }
      ],
      "stateMutability": "nonpayable",
      "type": "function"
    },
    {
      "inputs": [
        {
          "internalType": "address",
          "name": "_address",
          "type": "address"
        },
        {
          "internalType": "address",
          "name": "cid",
          "type": "address"
        }
      ],
      "name": "commodityRecievedAtDistributor",
      "outputs": [],
      "stateMutability": "nonpayable",
      "type": "function"
    },
    {
      "inputs": [
        {
          "internalType": "address",
          "name": "_address",
          "type": "address"
        },
        {
          "internalType": "address",
          "name": "cid",
          "type": "address"
        }
      ],
      "name": "commodityRecievedAtFinalConsumer",
      "outputs": [],
      "stateMutability": "nonpayable",
      "type": "function"
    },
    {
      "inputs": [
        {
          "internalType": "address",
          "name": "_address",
          "type": "address"
        }
      ],
      "name": "commodityRecievedAtWholesaler",
      "outputs": [],
      "stateMutability": "nonpayable",
      "type": "function"
    },
    {
      "inputs": [
        {
          "internalType": "address",
          "name": "_address",
          "type": "address"
        },
        {
          "internalType": "address",
          "name": "cid",
          "type": "address"
        }
      ],
      "name": "consumerReceivedCommodity",
      "outputs": [],
      "stateMutability": "nonpayable",
      "type": "function"
    },
    {
      "inputs": [
        {
          "internalType": "bytes32",
          "name": "_description",
          "type": "bytes32"
        },
        {
          "internalType": "uint256",
          "name": "_quantity",
          "type": "uint256"
        },
        {
          "internalType": "address",
          "name": "_transporterAddr",
          "type": "address"
        },
        {
          "internalType": "address",
          "name": "_manufacturerAddr",
          "type": "address"
        }
      ],
      "name": "createRawMaterialPackage",
      "outputs": [],
      "stateMutability": "nonpayable",
      "type": "function"
    },
    {
      "inputs": [
        {
          "internalType": "address",
          "name": "_address",
          "type": "address"
        },
        {
          "internalType": "address",
          "name": "cid",
          "type": "address"
        }
      ],
      "name": "distributorReceivedCommodity",
      "outputs": [],
      "stateMutability": "nonpayable",
      "type": "function"
    },
    {
      "inputs": [
        {
          "internalType": "address",
          "name": "_address",
          "type": "address"
        },
        {
          "internalType": "address",
          "name": "transporter",
          "type": "address"
        },
        {
          "internalType": "address",
          "name": "receiver",
          "type": "address"
        }
      ],
      "name": "distributorTransferCommoditytoFinalConsumer",
      "outputs": [],
      "stateMutability": "nonpayable",
      "type": "function"
    },
    {
      "inputs": [],
      "name": "getAllPackages",
      "outputs": [
        {
          "internalType": "address[]",
          "name": "",
          "type": "address[]"
        }
      ],
      "stateMutability": "view",
      "type": "function"
    },
    {
      "inputs": [
        {
          "internalType": "uint256",
          "name": "index",
          "type": "uint256"
        }
      ],
      "name": "getBatchIdByIndexC",
      "outputs": [
        {
          "internalType": "address",
          "name": "_address",
          "type": "address"
        }
      ],
      "stateMutability": "view",
      "type": "function"
    },
    {
      "inputs": [
        {
          "internalType": "uint256",
          "name": "index",
          "type": "uint256"
        }
      ],
      "name": "getBatchIdByIndexDC",
      "outputs": [
        {
          "internalType": "address",
          "name": "packageID",
          "type": "address"
        }
      ],
      "stateMutability": "view",
      "type": "function"
    },
    {
      "inputs": [
        {
          "internalType": "uint256",
          "name": "index",
          "type": "uint256"
        }
      ],
      "name": "getBatchIdByIndexWD",
      "outputs": [
        {
          "internalType": "address",
          "name": "packageID",
          "type": "address"
        }
      ],
      "stateMutability": "view",
      "type": "function"
    },
    {
      "inputs": [],
      "name": "getBatchesCountC",
      "outputs": [
        {
          "internalType": "uint256",
          "name": "count",
          "type": "uint256"
        }
      ],
      "stateMutability": "view",
      "type": "function"
    },
    {
      "inputs": [],
      "name": "getBatchesCountDC",
      "outputs": [
        {
          "internalType": "uint256",
          "name": "count",
          "type": "uint256"
        }
      ],
      "stateMutability": "view",
      "type": "function"
    },
    {
      "inputs": [],
      "name": "getNoOfPackagesOfSupplier",
      "outputs": [
        {
          "internalType": "uint256",
          "name": "",
          "type": "uint256"
        }
      ],
      "stateMutability": "view",
      "type": "function"
    },
    {
      "inputs": [
        {
          "internalType": "address",
          "name": "_address",
          "type": "address"
        }
      ],
      "name": "getSalesInfo",
      "outputs": [
        {
          "internalType": "uint256",
          "name": "Status",
          "type": "uint256"
        }
      ],
      "stateMutability": "view",
      "type": "function"
    },
    {
      "inputs": [
        {
          "internalType": "address",
          "name": "_address",
          "type": "address"
        }
      ],
      "name": "getSubContractDC",
      "outputs": [
        {
          "internalType": "address",
          "name": "SubContractDP",
          "type": "address"
        }
      ],
      "stateMutability": "view",
      "type": "function"
    },
    {
      "inputs": [
        {
          "internalType": "address",
          "name": "_address",
          "type": "address"
        }
      ],
      "name": "getSubContractWD",
      "outputs": [
        {
          "internalType": "address",
          "name": "SubContractWD",
          "type": "address"
        }
      ],
      "stateMutability": "view",
      "type": "function"
    },
    {
      "inputs": [
        {
          "internalType": "address",
          "name": "_address",
          "type": "address"
        }
      ],
      "name": "getUserInfo",
      "outputs": [
        {
          "components": [
            {
              "internalType": "bytes32",
              "name": "name",
              "type": "bytes32"
            },
            {
              "internalType": "string[]",
              "name": "userLoc",
              "type": "string[]"
            },
            {
              "internalType": "enum BriteLedgersV1.roles",
              "name": "role",
              "type": "uint8"
            },
            {
              "internalType": "address",
              "name": "userAddr",
              "type": "address"
            }
          ],
          "internalType": "struct BriteLedgersV1.userData",
          "name": "",
          "type": "tuple"
        }
      ],
      "stateMutability": "view",
      "type": "function"
    },
    {
      "inputs": [
        {
          "internalType": "address",
          "name": "_addr",
          "type": "address"
        },
        {
          "internalType": "uint256",
          "name": "transportertype",
          "type": "uint256"
        },
        {
          "internalType": "address",
          "name": "cid",
          "type": "address"
        }
      ],
      "name": "handlePackage",
      "outputs": [],
      "stateMutability": "nonpayable",
      "type": "function"
    },
    {
      "inputs": [
        {
          "internalType": "address",
          "name": "",
          "type": "address"
        },
        {
          "internalType": "uint256",
          "name": "",
          "type": "uint256"
        }
      ],
      "name": "manufacturerCommodities",
      "outputs": [
        {
          "internalType": "address",
          "name": "",
          "type": "address"
        }
      ],
      "stateMutability": "view",
      "type": "function"
    },
    {
      "inputs": [
        {
          "internalType": "address",
          "name": "_manufacturerAddr",
          "type": "address"
        },
        {
          "internalType": "bytes32",
          "name": "_description",
          "type": "bytes32"
        },
        {
          "internalType": "address[]",
          "name": "_rawAddr",
          "type": "address[]"
        },
        {
          "internalType": "uint256",
          "name": "_quantity",
          "type": "uint256"
        },
        {
          "internalType": "address[]",
          "name": "_transporterAddr",
          "type": "address[]"
        },
        {
          "internalType": "address",
          "name": "_recieverAddr",
          "type": "address"
        },
        {
          "internalType": "uint256",
          "name": "RcvrType",
          "type": "uint256"
        }
      ],
      "name": "manufacturerCreatesCommodity",
      "outputs": [],
      "stateMutability": "nonpayable",
      "type": "function"
    },
    {
      "inputs": [
        {
          "internalType": "bytes32",
          "name": "_description",
          "type": "bytes32"
        },
        {
          "internalType": "address[]",
          "name": "_rawAddr",
          "type": "address[]"
        },
        {
          "internalType": "uint256",
          "name": "_quantity",
          "type": "uint256"
        },
        {
          "internalType": "address[]",
          "name": "_transporterAddr",
          "type": "address[]"
        },
        {
          "internalType": "address",
          "name": "_receiverAddr",
          "type": "address"
        },
        {
          "internalType": "uint256",
          "name": "RcvrType",
          "type": "uint256"
        }
      ],
      "name": "manufacturerCreatesNewCommodity",
      "outputs": [
        {
          "internalType": "string",
          "name": "",
          "type": "string"
        }
      ],
      "stateMutability": "nonpayable",
      "type": "function"
    },
    {
      "inputs": [
        {
          "internalType": "address",
          "name": "",
          "type": "address"
        },
        {
          "internalType": "uint256",
          "name": "",
          "type": "uint256"
        }
      ],
      "name": "manufacturerRawMaterials",
      "outputs": [
        {
          "internalType": "address",
          "name": "",
          "type": "address"
        }
      ],
      "stateMutability": "view",
      "type": "function"
    },
    {
      "inputs": [
        {
          "internalType": "address",
          "name": "_addr",
          "type": "address"
        },
        {
          "internalType": "address",
          "name": "_manufacturerAddress",
          "type": "address"
        }
      ],
      "name": "manufacturerReceivedPackage",
      "outputs": [],
      "stateMutability": "nonpayable",
      "type": "function"
    },
    {
      "inputs": [
        {
          "internalType": "address",
          "name": "_addr",
          "type": "address"
        }
      ],
      "name": "manufacturerReceivedRawMaterials",
      "outputs": [],
      "stateMutability": "nonpayable",
      "type": "function"
    },
    {
      "inputs": [
        {
          "internalType": "bytes32",
          "name": "name",
          "type": "bytes32"
        },
        {
          "internalType": "string[]",
          "name": "loc",
          "type": "string[]"
        },
        {
          "internalType": "uint256",
          "name": "role",
          "type": "uint256"
        },
        {
          "internalType": "address",
          "name": "_userAddr",
          "type": "address"
        }
      ],
      "name": "registerUser",
      "outputs": [],
      "stateMutability": "nonpayable",
      "type": "function"
    },
    {
      "inputs": [
        {
          "internalType": "address",
          "name": "",
          "type": "address"
        }
      ],
      "name": "sale",
      "outputs": [
        {
          "internalType": "enum FinalConsumer.salestatus",
          "name": "",
          "type": "uint8"
        }
      ],
      "stateMutability": "view",
      "type": "function"
    },
    {
      "inputs": [
        {
          "internalType": "address",
          "name": "_address",
          "type": "address"
        }
      ],
      "name": "salesInfo",
      "outputs": [
        {
          "internalType": "uint256",
          "name": "Status",
          "type": "uint256"
        }
      ],
      "stateMutability": "view",
      "type": "function"
    },
    {
      "inputs": [
        {
          "internalType": "bytes32",
          "name": "_description",
          "type": "bytes32"
        },
        {
          "internalType": "uint256",
          "name": "_quantity",
          "type": "uint256"
        },
        {
          "internalType": "address",
          "name": "_transporterAddr",
          "type": "address"
        },
        {
          "internalType": "address",
          "name": "_manufacturerAddr",
          "type": "address"
        }
      ],
      "name": "supplierCreatesRawPackage",
      "outputs": [],
      "stateMutability": "nonpayable",
      "type": "function"
    },
    {
      "inputs": [],
      "name": "supplierGetPackageCount",
      "outputs": [
        {
          "internalType": "uint256",
          "name": "",
          "type": "uint256"
        }
      ],
      "stateMutability": "view",
      "type": "function"
    },
    {
      "inputs": [],
      "name": "supplierGetRawMaterialAddresses",
      "outputs": [
        {
          "internalType": "address[]",
          "name": "",
          "type": "address[]"
        }
      ],
      "stateMutability": "view",
      "type": "function"
    },
    {
      "inputs": [
        {
          "internalType": "address",
          "name": "",
          "type": "address"
        },
        {
          "internalType": "uint256",
          "name": "",
          "type": "uint256"
        }
      ],
      "name": "supplierRawMaterials",
      "outputs": [
        {
          "internalType": "address",
          "name": "",
          "type": "address"
        }
      ],
      "stateMutability": "view",
      "type": "function"
    },
    {
      "inputs": [
        {
          "internalType": "address",
          "name": "_address",
          "type": "address"
        },
        {
          "internalType": "address",
          "name": "transporter",
          "type": "address"
        },
        {
          "internalType": "address",
          "name": "receiver",
          "type": "address"
        }
      ],
      "name": "transferCommodityDtoC",
      "outputs": [],
      "stateMutability": "nonpayable",
      "type": "function"
    },
    {
      "inputs": [
        {
          "internalType": "address",
          "name": "_address",
          "type": "address"
        },
        {
          "internalType": "address",
          "name": "transporter",
          "type": "address"
        },
        {
          "internalType": "address",
          "name": "receiver",
          "type": "address"
        }
      ],
      "name": "transferCommodityW_D",
      "outputs": [],
      "stateMutability": "nonpayable",
      "type": "function"
    },
    {
      "inputs": [
        {
          "internalType": "address",
          "name": "_address",
          "type": "address"
        },
        {
          "internalType": "address",
          "name": "transporter",
          "type": "address"
        },
        {
          "internalType": "address",
          "name": "receiver",
          "type": "address"
        }
      ],
      "name": "transferCommodityWtoD",
      "outputs": [],
      "stateMutability": "nonpayable",
      "type": "function"
    },
    {
      "inputs": [
        {
          "internalType": "address",
          "name": "_address",
          "type": "address"
        },
        {
          "internalType": "uint256",
          "name": "transporterType",
          "type": "uint256"
        },
        {
          "internalType": "address",
          "name": "cid",
          "type": "address"
        }
      ],
      "name": "transporterHandlePackage",
      "outputs": [],
      "stateMutability": "nonpayable",
      "type": "function"
    },
    {
      "inputs": [
        {
          "internalType": "address",
          "name": "_address",
          "type": "address"
        },
        {
          "internalType": "uint256",
          "name": "Status",
          "type": "uint256"
        }
      ],
      "name": "updateSaleStatus",
      "outputs": [],
      "stateMutability": "nonpayable",
      "type": "function"
    },
    {
      "inputs": [
        {
          "internalType": "address",
          "name": "_address",
          "type": "address"
        },
        {
          "internalType": "uint256",
          "name": "Status",
          "type": "uint256"
        }
      ],
      "name": "updateStatus",
      "outputs": [],
      "stateMutability": "nonpayable",
      "type": "function"
    },
    {
      "inputs": [
        {
          "internalType": "address",
          "name": "",
          "type": "address"
        }
      ],
      "name": "userInfo",
      "outputs": [
        {
          "internalType": "bytes32",
          "name": "name",
          "type": "bytes32"
        },
        {
          "internalType": "enum BriteLedgersV1.roles",
          "name": "role",
          "type": "uint8"
        },
        {
          "internalType": "address",
          "name": "userAddr",
          "type": "address"
        }
      ],
      "stateMutability": "view",
      "type": "function"
    },
    {
      "inputs": [
        {
          "internalType": "address",
          "name": "_address",
          "type": "address"
        }
      ],
      "name": "wholesalerReceivedCommodity",
      "outputs": [],
      "stateMutability": "nonpayable",
      "type": "function"
    }
  ],
  "bytecode": {
    "object": "0x608060405234801561001057600080fd5b50600b80546001600160a01b0319163317905561634d806100326000396000f3fe60806040523480156200001157600080fd5b5060043610620002f65760003560e01c80638ccc8db711620001a2578063c22470ea11620000fc578063db37acb111620000af578063eae3c2071162000086578063eae3c20714620007cb578063f5aae16514620007e2578063f9cf31b914620007f9578063fc7e01f3146200081057600080fd5b8063db37acb11462000771578063de6e81a41462000788578063e18ea3fb14620007b457600080fd5b8063c22470ea14620006ed578063c2e653711462000703578063cd55152e146200071a578063cf340ed91462000724578063d1acb5271462000750578063d1f93e0c146200075a57600080fd5b8063a4d886b21162000155578063a4d886b21462000666578063afc58961146200067d578063b327bc721462000694578063b4a99a4e14620006ab578063bb8ee1c514620006bf578063be7ef9c014620006d657600080fd5b80638ccc8db714620005dc5780639100978614620005f35780639af035a3146200060a5780639c1ba94a14620006215780639d891d1c1462000638578063a489d467146200064f57600080fd5b806356466dee11620002545780636f41507c11620002075780636f41507c146200053257806375df268414620005495780637b417761146200057e5780637cd52fa01462000595578063824e43e714620005ac5780638c4b6e2e14620005b657600080fd5b806356466dee146200047f57806357bd4c7a146200049657806360ef385114620004af57806362c1fe3914620004c65780636386c1c714620004f55780636c58fc6e146200051b57600080fd5b80631f90ddaf11620002ad5780631f90ddaf14620003dd578063215f978c14620003f457806331e0afc2146200040b5780633475901614620004225780633e306e9b1462000451578063401fdedf146200046857600080fd5b806306db832414620002fb5780630a421f0f146200032f578063102795bc146200034857806311789ca61462000361578063164bcd5b14620003785780631959a002146200038f575b600080fd5b620003126200030c3660046200231f565b62000827565b6040516001600160a01b0390911681526020015b60405180910390f35b6200033962000860565b60405162000326919062002394565b6200035f62000359366004620023b0565b62000953565b005b6200035f62000372366004620023d0565b620009f4565b62000312620003893660046200241f565b62000a54565b620003cc620003a0366004620023b0565b600c602052600090815260409020805460029091015460ff81169061010090046001600160a01b031683565b604051620003269392919062002466565b6200035f620003ee36600462002506565b62000ae1565b6200035f6200040536600462002647565b62000bea565b6200035f6200041c3660046200231f565b62000c9e565b6200031262000433366004620023b0565b6001600160a01b039081166000908152600560205260409020541690565b62000312620004623660046200231f565b62000e4f565b62000312620004793660046200231f565b62000e6c565b6200035f6200049036600462002699565b62000e89565b620004a062000f26565b60405190815260200162000326565b6200035f620004c036600462002699565b62000f88565b62000312620004d7366004620023b0565b6001600160a01b039081166000908152600860205260409020541690565b6200050c62000506366004620023b0565b6200106c565b6040516200032691906200272b565b6200035f6200052c36600462002699565b62001214565b6200035f62000543366004620027d0565b620013a9565b6200056f6200055a366004620023b0565b600a6020526000908152604090205460ff1681565b6040516200032691906200280c565b620003126200058f3660046200231f565b620014a6565b62000312620005a63660046200231f565b620014c3565b62000339620014e0565b620005cd620005c7366004620028a1565b620014f4565b6040516200032691906200293e565b62000312620005ed3660046200231f565b62001617565b620005cd6200060436600462002953565b62001634565b620003126200061b3660046200241f565b620016cc565b62000312620006323660046200241f565b6200177d565b6200035f6200064936600462002647565b620017ef565b6200035f6200066036600462002647565b620018c5565b620004a062000677366004620023b0565b62001998565b620003126200068e3660046200231f565b620019a5565b6200035f620006a536600462002699565b620019c2565b600b5462000312906001600160a01b031681565b620004a0620006d0366004620023b0565b62001a57565b6200035f620006e7366004620027d0565b62001a87565b33600090815260208190526040902054620004a0565b6200035f6200071436600462002699565b62001b71565b620004a062001c46565b6200031262000735366004620023b0565b6005602052600090815260409020546001600160a01b031681565b620004a062001ca8565b6200035f6200076b366004620023b0565b62001d0a565b62000312620007823660046200231f565b62001dc3565b6200031262000799366004620023b0565b6008602052600090815260409020546001600160a01b031681565b6200035f620007c536600462002647565b62001de0565b6200035f620007dc3660046200231f565b62001e94565b6200035f620007f33660046200297b565b62001f2b565b6200035f6200080a366004620023b0565b62001fb8565b6200035f62000821366004620023d0565b62002092565b600060205281600052604060002081815481106200084457600080fd5b6000918252602090912001546001600160a01b03169150829050565b336000908152602081905260408120546060918167ffffffffffffffff8111156200088f576200088f62002495565b604051908082528060200260200182016040528015620008b9578160200160208202803683370190505b50905060005b828110156200094c57336000908152602081905260409020805482908110620008ec57620008ec62002a2e565b9060005260206000200160009054906101000a90046001600160a01b03168282815181106200091f576200091f62002a2e565b6001600160a01b039092166020928302919091019091015280620009438162002a44565b915050620008bf565b5092915050565b6003336000908152600c602052604090206002015460ff1660068111156200097f576200097f62002439565b14620009e55760405162461bcd60e51b815260206004820152602a60248201527f4f6e6c79204d616e7566616374757265722063616e20616363657373207468696044820152693990333ab731ba34b7b760b11b60648201526084015b60405180910390fd5b620009f1813362000e89565b50565b6001336000908152600c602052604090206002015460ff16600681111562000a205762000a2062002439565b1462000a405760405162461bcd60e51b8152600401620009dc9062002a6c565b62000a4e8484848462002092565b50505050565b60006005336000908152600c602052604090206002015460ff16600681111562000a825762000a8262002439565b1462000aa25760405162461bcd60e51b8152600401620009dc9062002ab0565b33600090815260076020526040902080548390811062000ac65762000ac662002a2e565b6000918252602090912001546001600160a01b031692915050565b600b546001600160a01b0316331462000af957600080fd5b6001600160a01b0381166000908152600c60209081526040909120858155845162000b2d92600190920191860190620021f6565b5081600681111562000b435762000b4362002439565b6001600160a01b0382166000908152600c60205260409020600201805460ff1916600183600681111562000b7b5762000b7b62002439565b02179055506001600160a01b0381166000818152600c60209081526040918290206002018054610100600160a81b031916610100850217905590518681527f33a7170f028b1e4f5ba321064a00ed820856a920c7f9c6636fbcf385427b1b0f910160405180910390a250505050565b60008333848460405162000bfe9062002253565b6001600160a01b039485168152928416602084015290831660408301529091166060820152608001604051809103906000f08015801562000c43573d6000803e3d6000fd5b5033600090815260076020908152604080832080546001810182559084528284200180546001600160a01b039586166001600160a01b0319918216811790925598909416835260089091529020805490951617909355505050565b6006336000908152600c602052604090206002015460ff16600681111562000cca5762000cca62002439565b14801562000d485750816001600160a01b031663abb428a66040518163ffffffff1660e01b8152600401606060405180830381865afa15801562000d12573d6000803e3d6000fd5b505050506040513d601f19601f8201168201806040525081019062000d38919062002af8565b604001516001600160a01b031633145b62000dbe576040805162461bcd60e51b81526020600482015260248101919091527f4f6e6c7920436f6e73756d6572206f722063757272656e74206f776e6572206f60448201527f66207061636b6167652063616e2063616c6c20746869732066756e6374696f6e6064820152608401620009dc565b60016001600160a01b0383166000908152600a602052604090205460ff16600481111562000df05762000df062002439565b1462000e3f5760405162461bcd60e51b815260206004820152601d60248201527f436f6d6d6f64697479204d75737420626520617420436f6e73756d65720000006044820152606401620009dc565b62000e4b828262001e94565b5050565b600260205281600052604060002081815481106200084457600080fd5b600960205281600052604060002081815481106200084457600080fd5b604051630a57332d60e31b81526001600160a01b0382811660048301528316906352b9996890602401600060405180830381600087803b15801562000ecd57600080fd5b505af115801562000ee2573d6000803e3d6000fd5b505050506001600160a01b03908116600090815260016020818152604083208054928301815583529091200180546001600160a01b03191692909116919091179055565b60006006336000908152600c602052604090206002015460ff16600681111562000f545762000f5462002439565b1462000f745760405162461bcd60e51b8152600401620009dc9062002b89565b503360009081526009602052604090205490565b604051637bd6ee1f60e11b81526001600160a01b03838116600483015233602483015282169063f7addc3e90604401600060405180830381600087803b15801562000fd257600080fd5b505af115801562000fe7573d6000803e3d6000fd5b50503360009081526009602090815260408220805460018082018355918452919092200180546001600160a01b0319166001600160a01b03871617905591506200102e9050565b6001600160a01b0383166000908152600a60205260409020805460ff1916600183600481111562001063576200106362002439565b02179055505050565b620010986040805160808101825260008082526060602083015290918201908152600060209091015290565b600b546001600160a01b03163314620010b057600080fd5b6001600160a01b0382166000908152600c602090815260408083208151608081018352815481526001820180548451818702810187019095528085529195929486810194939192919084015b82821015620011b25783829060005260206000200180546200111e9062002bf1565b80601f01602080910402602001604051908101604052809291908181526020018280546200114c9062002bf1565b80156200119d5780601f1062001171576101008083540402835291602001916200119d565b820191906000526020600020905b8154815290600101906020018083116200117f57829003601f168201915b505050505081526020019060010190620010fc565b50505090825250600282015460209091019060ff166006811115620011db57620011db62002439565b6006811115620011ef57620011ef62002439565b81526002919091015461010090046001600160a01b031660209091015290505b919050565b604051631f3e95d560e11b81523360048201526000906001600160a01b03841690633e7d2baa906024016020604051808303816000875af11580156200125e573d6000803e3d6000fd5b505050506040513d601f19601f8201168201806040525081019062001284919062002c2d565b905080600203620013a457336000908152600660209081526040808320805460018101825590845291832090910180546001600160a01b0319166001600160a01b03871690811790915581516355da145360e11b81529151909163abb428a69160048083019260609291908290030181865afa15801562001309573d6000803e3d6000fd5b505050506040513d601f19601f820116820180604052508101906200132f919062002af8565b516001600160a01b031614620013a45760405163d7dcbe3b60e01b81526001600160a01b03848116600483015233602483015283169063d7dcbe3b906044015b600060405180830381600087803b1580156200138a57600080fd5b505af11580156200139f573d6000803e3d6000fd5b505050505b505050565b81600103620013f45760405163638e9a3d60e01b81523360048201526001600160a01b0384169063638e9a3d90602401600060405180830381600087803b1580156200138a57600080fd5b816002036200142a5760405163a375be1160e01b81523360048201526001600160a01b0384169063a375be11906024016200136f565b816003036200146857604051630887851b60e31b81526001600160a01b03848116600483015233602483015282169063443c28d8906044016200136f565b81600403620013a45760405163298abd8d60e11b81526001600160a01b0384811660048301523360248301528216906353157b1a906044016200136f565b600760205281600052604060002081815481106200084457600080fd5b600660205281600052604060002081815481106200084457600080fd5b60606000620014ee62000860565b92915050565b60606003336000908152600c602052604090206002015460ff16600681111562001522576200152262002439565b14620015805760405162461bcd60e51b815260206004820152602660248201527f4f6e6c79204d616e7566616374757265722063616e2063726561746520436f6d6044820152656d6f6469747960d01b6064820152608401620009dc565b81600003620015d25760405162461bcd60e51b815260206004820152601f60248201527f526563696576657220547970652073686f756c6420626520646566696e6564006044820152606401620009dc565b620015e33388888888888862001f2b565b50604080518082019091526012815271436f6d6d6f6469747920637265617465642160701b60208201529695505050505050565b600160205281600052604060002081815481106200084457600080fd5b600b546060906001600160a01b031633146200164f57600080fd5b82600681111562001664576200166462002439565b6001600160a01b0383166000908152600c60205260409020600201805460ff191660018360068111156200169c576200169c62002439565b02179055505060408051808201909152600d81526c526f6c6520557064617465642160981b602082015292915050565b60006004336000908152600c602052604090206002015460ff166006811115620016fa57620016fa62002439565b14620017595760405162461bcd60e51b815260206004820152602760248201527f4f6e6c792057686f6c6573616c65722043616e2063616c6c20746869732066756044820152663731ba34b7b71760c91b6064820152608401620009dc565b33600090815260046020526040902080548390811062000ac65762000ac662002a2e565b60006006336000908152600c602052604090206002015460ff166006811115620017ab57620017ab62002439565b14620017cb5760405162461bcd60e51b8152600401620009dc9062002b89565b33600090815260096020526040902080548390811062000ac65762000ac662002a2e565b6005336000908152600c602052604090206002015460ff1660068111156200181b576200181b62002439565b148015620018995750826001600160a01b031663abb428a66040518163ffffffff1660e01b8152600401606060405180830381865afa15801562001863573d6000803e3d6000fd5b505050506040513d601f19601f8201168201806040525081019062001889919062002af8565b602001516001600160a01b031633145b620018b85760405162461bcd60e51b8152600401620009dc9062002c47565b620013a483838362000bea565b6004336000908152600c602052604090206002015460ff166006811115620018f157620018f162002439565b1480156200196c5750826001600160a01b031663abb428a66040518163ffffffff1660e01b8152600401606060405180830381865afa15801562001939573d6000803e3d6000fd5b505050506040513d601f19601f820116820180604052508101906200195f919062002af8565b516001600160a01b031633145b6200198b5760405162461bcd60e51b8152600401620009dc9062002b89565b620013a483838362001de0565b6000620014ee8262001a57565b600360205281600052604060002081815481106200084457600080fd5b6006336000908152600c602052604090206002015460ff166006811115620019ee57620019ee62002439565b1462001a4b5760405162461bcd60e51b815260206004820152602560248201527f4f6e6c7920436f6e73756d65722043616e2063616c6c20746869732066756e636044820152643a34b7b71760d91b6064820152608401620009dc565b62000e4b828262000f88565b6001600160a01b0381166000908152600a602052604081205460ff166004811115620014ee57620014ee62002439565b6002336000908152600c602052604090206002015460ff16600681111562001ab35762001ab362002439565b1462001b125760405162461bcd60e51b815260206004820152602760248201527f4f6e6c79205472616e73706f727465722063616e2063616c6c207468697320666044820152663ab731ba34b7b760c91b6064820152608401620009dc565b6000821162001b645760405162461bcd60e51b815260206004820152601d60248201527f5472616e73706f72746572205479706520697320696e636f72726563740000006044820152606401620009dc565b620013a4838383620013a9565b6005336000908152600c602052604090206002015460ff16600681111562001b9d5762001b9d62002439565b14801562001c1b5750816001600160a01b031663abb428a66040518163ffffffff1660e01b8152600401606060405180830381865afa15801562001be5573d6000803e3d6000fd5b505050506040513d601f19601f8201168201806040525081019062001c0b919062002af8565b602001516001600160a01b031633145b62001c3a5760405162461bcd60e51b8152600401620009dc9062002c47565b62000e4b828262001214565b60006005336000908152600c602052604090206002015460ff16600681111562001c745762001c7462002439565b1462001c945760405162461bcd60e51b8152600401620009dc9062002ab0565b503360009081526007602052604090205490565b60006001336000908152600c602052604090206002015460ff16600681111562001cd65762001cd662002439565b1462001cf65760405162461bcd60e51b8152600401620009dc9062002a6c565b503360009081526020819052604090205490565b604051631f3e95d560e11b81523360048201526000906001600160a01b03831690633e7d2baa906024016020604051808303816000875af115801562001d54573d6000803e3d6000fd5b505050506040513d601f19601f8201168201806040525081019062001d7a919062002c2d565b90508060010362000e4b573360009081526003602090815260408220805460018101825590835291200180546001600160a01b0384166001600160a01b03199091161790555050565b600460205281600052604060002081815481106200084457600080fd5b60008333848460405162001df49062002261565b6001600160a01b039485168152928416602084015290831660408301529091166060820152608001604051809103906000f08015801562001e39573d6000803e3d6000fd5b5033600090815260046020908152604080832080546001810182559084528284200180546001600160a01b039586166001600160a01b0319918216811790925598909416835260059091529020805490951617909355505050565b80600481111562001ea95762001ea962002439565b6001600160a01b0383166000908152600a60205260409020805460ff1916600183600481111562001ede5762001ede62002439565b0217905550604080516001600160a01b03841681526020810183905233917f280e3a7c06861f6ebfc449cac1f69f63e8d2bc9641ed1327a29e89bd5cef23bf910160405180910390a25050565b60008787878787878760405162001f42906200226f565b62001f54979695949392919062002cb0565b604051809103906000f08015801562001f71573d6000803e3d6000fd5b506001600160a01b0398891660009081526002602090815260408220805460018101825590835291200180546001600160a01b031916919099161790975550505050505050565b6004336000908152600c602052604090206002015460ff16600681111562001fe45762001fe462002439565b14806200201a57506005336000908152600c602052604090206002015460ff16600681111562002018576200201862002439565b145b620020875760405162461bcd60e51b815260206004820152603660248201527f4f6e6c792057686f6c6573616c657220616e64204469737472696275746f722060448201527531b0b71031b0b636103a3434b990333ab731ba34b7b760511b6064820152608401620009dc565b620009f18162001d0a565b60405133606081901b6bffffffffffffffffffffffff1916602083015242603483015260009160029060540160408051601f1981840301815290829052620020da9162002d0c565b602060405180830381855afa158015620020f8573d6000803e3d6000fd5b5050506040513d601f19601f820116820180604052508101906200211d919062002c2d565b60601c8686868660405162002132906200227d565b6001600160a01b0396871681529486166020860152604085019390935260608401919091528316608083015290911660a082015260c001604051809103906000f08015801562002186573d6000803e3d6000fd5b5033600081815260208181526040808320805460018101825590845291832090910180546001600160a01b0319166001600160a01b038616908117909155905193945091927fc79cf8ddd8acb3b33a3e6376598d00dc00be90fd673c705fbc18a78321558e9f9190a35050505050565b82805482825590600052602060002090810192821562002241579160200282015b8281111562002241578251829062002230908262002d7c565b509160200191906001019062002217565b506200224f9291506200228b565b5090565b6103868062002e4a83390190565b6103ba80620031d083390190565b611b3f806200358a83390190565b61124f80620050c983390190565b808211156200224f576000620022a28282620022ac565b506001016200228b565b508054620022ba9062002bf1565b6000825580601f10620022cb575050565b601f016020900490600052602060002090810190620009f191905b808211156200224f5760008155600101620022e6565b6001600160a01b0381168114620009f157600080fd5b80356200120f81620022fc565b600080604083850312156200233357600080fd5b82356200234081620022fc565b946020939093013593505050565b600081518084526020808501945080840160005b83811015620023895781516001600160a01b03168752958201959082019060010162002362565b509495945050505050565b602081526000620023a960208301846200234e565b9392505050565b600060208284031215620023c357600080fd5b8135620023a981620022fc565b60008060008060808587031215620023e757600080fd5b843593506020850135925060408501356200240281620022fc565b915060608501356200241481620022fc565b939692955090935050565b6000602082840312156200243257600080fd5b5035919050565b634e487b7160e01b600052602160045260246000fd5b6007811062002462576200246262002439565b9052565b838152606081016200247c60208301856200244f565b6001600160a01b03929092166040919091015292915050565b634e487b7160e01b600052604160045260246000fd5b604051601f8201601f1916810167ffffffffffffffff81118282101715620024d757620024d762002495565b604052919050565b600067ffffffffffffffff821115620024fc57620024fc62002495565b5060051b60200190565b600080600080608085870312156200251d57600080fd5b8435935060208086013567ffffffffffffffff808211156200253e57600080fd5b818801915088601f8301126200255357600080fd5b81356200256a6200256482620024df565b620024ab565b81815260059190911b8301840190848101908b8311156200258a57600080fd5b8585015b838110156200261e57803585811115620025a757600080fd5b8601603f81018e13620025b957600080fd5b8781013586811115620025d057620025d062002495565b620025e4601f8201601f19168a01620024ab565b8181528f6040838501011115620025fb5760008081fd5b81604084018b83013760009181018a01919091528452509186019186016200258e565b509750505050604087013593506200263c9150506060860162002312565b905092959194509250565b6000806000606084860312156200265d57600080fd5b83356200266a81620022fc565b925060208401356200267c81620022fc565b915060408401356200268e81620022fc565b809150509250925092565b60008060408385031215620026ad57600080fd5b8235620026ba81620022fc565b91506020830135620026cc81620022fc565b809150509250929050565b60005b83811015620026f4578181015183820152602001620026da565b50506000910152565b6000815180845262002717816020860160208601620026d7565b601f01601f19169290920160200192915050565b6000602080835260a08301845182850152818501516080604086015281815180845260c08701915060c08160051b8801019350848301925060005b81811015620027985760bf1988860301835262002785858551620026fd565b9450928501929185019160010162002766565b5050505060408501519150620027b260608501836200244f565b60608501516001600160a01b03811660808601529150949350505050565b600080600060608486031215620027e657600080fd5b8335620027f381620022fc565b92506020840135915060408401356200268e81620022fc565b602081016005831062002823576200282362002439565b91905290565b600082601f8301126200283b57600080fd5b813560206200284e6200256483620024df565b82815260059290921b840181019181810190868411156200286e57600080fd5b8286015b84811015620028965780356200288881620022fc565b835291830191830162002872565b509695505050505050565b60008060008060008060c08789031215620028bb57600080fd5b86359550602087013567ffffffffffffffff80821115620028db57600080fd5b620028e98a838b0162002829565b96506040890135955060608901359150808211156200290757600080fd5b506200291689828a0162002829565b93505060808701356200292981620022fc565b8092505060a087013590509295509295509295565b602081526000620023a96020830184620026fd565b600080604083850312156200296757600080fd5b823591506020830135620026cc81620022fc565b600080600080600080600060e0888a0312156200299757600080fd5b8735620029a481620022fc565b965060208801359550604088013567ffffffffffffffff80821115620029c957600080fd5b620029d78b838c0162002829565b965060608a0135955060808a0135915080821115620029f557600080fd5b5062002a048a828b0162002829565b93505060a088013562002a1781620022fc565b8092505060c0880135905092959891949750929550565b634e487b7160e01b600052603260045260246000fd5b60006001820162002a6557634e487b7160e01b600052601160045260246000fd5b5060010190565b60208082526024908201527f526f6c653d3e537570706c6965722063616e2075736520746869732066756e636040820152633a34b7b760e11b606082015260800190565b60208082526028908201527f4f6e6c79204469737472696275746f722043616e2063616c6c207468697320666040820152673ab731ba34b7b71760c11b606082015260800190565b60006060828403121562002b0b57600080fd5b82601f83011262002b1b57600080fd5b6040516060810181811067ffffffffffffffff8211171562002b415762002b4162002495565b60405280606084018581111562002b5757600080fd5b845b8181101562002b7e57805162002b6f81620022fc565b83526020928301920162002b59565b509195945050505050565b60208082526042908201527f4f6e6c792057686f6c6573616c6572206f722063757272656e74206f776e657260408201527f206f66207061636b6167652063616e2063616c6c20746869732066756e63746960608201526137b760f11b608082015260a00190565b600181811c9082168062002c0657607f821691505b60208210810362002c2757634e487b7160e01b600052602260045260246000fd5b50919050565b60006020828403121562002c4057600080fd5b5051919050565b60208082526043908201527f4f6e6c79204469737472696275746f72206f722063757272656e74206f776e6560408201527f72206f66207061636b6167652063616e2063616c6c20746869732066756e637460608201526234b7b760e91b608082015260a00190565b600060018060a01b03808a16835288602084015260e0604084015262002cda60e08401896200234e565b876060850152838103608085015262002cf481886200234e565b9590911660a0840152505060c0015295945050505050565b6000825162002d20818460208701620026d7565b9190910192915050565b601f821115620013a457600081815260208120601f850160051c8101602086101562002d535750805b601f850160051c820191505b8181101562002d745782815560010162002d5f565b505050505050565b815167ffffffffffffffff81111562002d995762002d9962002495565b62002db18162002daa845462002bf1565b8462002d2a565b602080601f83116001811462002de9576000841562002dd05750858301515b600019600386901b1c1916600185901b17855562002d74565b600085815260208120601f198616915b8281101562002e1a5788860151825594840194600190910190840162002df9565b508582101562002e395787850151600019600388901b60f8161c191681555b5050505050600190811b0190555056fe608060405234801561001057600080fd5b5060405161038638038061038683398101604081905261002f916100b6565b600080546001600160a01b039485166001600160a01b0319918216811790925560018054968616968216969096179095556002805486169091179055600380549284169290941691909117909255600480546001600160a81b0319169290911691909117905561010a565b80516001600160a01b03811681146100b157600080fd5b919050565b600080600080608085870312156100cc57600080fd5b6100d58561009a565b93506100e36020860161009a565b92506100f16040860161009a565b91506100ff6060860161009a565b905092959194509250565b61026d806101196000396000f3fe608060405234801561001057600080fd5b50600436106100415760003560e01c806353157b1a14610046578063c0114d061461005b578063f7addc3e14610075575b600080fd5b6100596100543660046101ee565b610088565b005b610063610136565b60405190815260200160405180910390f35b6100596100833660046101ee565b61015c565b6003546001600160a01b038281169116146100b65760405163c38b258560e01b815260040160405180910390fd5b60048054600160a01b60ff60a01b1982161782556002546040516305e3aeb160e31b81526001600160a01b039283169381019390935281166024830152831690632f1d7588906044015b600060405180830381600087803b15801561011a57600080fd5b505af115801561012e573d6000803e3d6000fd5b505050505050565b600454600090600160a01b900460ff16600281111561015757610157610221565b905090565b6004546001600160a01b0382811691161461018a576040516377c4980160e01b815260040160405180910390fd5b600480546002919060ff60a01b1916600160a01b83021790555060405163c8f5f18960e01b81526001600160a01b03828116600483015283169063c8f5f18990602401610100565b80356001600160a01b03811681146101e957600080fd5b919050565b6000806040838503121561020157600080fd5b61020a836101d2565b9150610218602084016101d2565b90509250929050565b634e487b7160e01b600052602160045260246000fdfea2646970667358221220f5711e6f12bf328ec8ebde82ba5d23843f8f08a9f6526e605cd1e8b5cd24232464736f6c63430008140033608060405234801561001057600080fd5b506040516103ba3803806103ba83398101604081905261002f916100b6565b600080546001600160a01b039485166001600160a01b0319918216811790925560018054968616968216969096179095556002805486169091179055600380549284169290941691909117909255600480546001600160a81b0319169290911691909117905561010a565b80516001600160a01b03811681146100b157600080fd5b919050565b600080600080608085870312156100cc57600080fd5b6100d58561009a565b93506100e36020860161009a565b92506100f16040860161009a565b91506100ff6060860161009a565b905092959194509250565b6102a1806101196000396000f3fe608060405234801561001057600080fd5b50600436106100415760003560e01c8063443c28d814610046578063d2f3fcc71461005b578063d7dcbe3b14610075575b600080fd5b610059610054366004610222565b610088565b005b610063610136565b60405190815260200160405180910390f35b610059610083366004610222565b61015c565b6003546001600160a01b038281169116146100b657604051630806858d60e01b815260040160405180910390fd5b60048054600160a01b60ff60a01b19821617825560025460405163f5c0e38360e01b81526001600160a01b03928316938101939093528116602483015283169063f5c0e383906044015b600060405180830381600087803b15801561011a57600080fd5b505af115801561012e573d6000803e3d6000fd5b505050505050565b600454600090600160a01b900460ff16600281111561015757610157610255565b905090565b6004546001600160a01b03908116908216036101be5760405162461bcd60e51b815260206004820152601f60248201527f556e617574686f72697a65642072656365697665722773206163636f756e7400604482015260640160405180910390fd5b600480546002919060ff60a01b1916600160a01b8302179055506040516393a668b760e01b81526001600160a01b0382811660048301528316906393a668b790602401610100565b80356001600160a01b038116811461021d57600080fd5b919050565b6000806040838503121561023557600080fd5b61023e83610206565b915061024c60208401610206565b90509250929050565b634e487b7160e01b600052602160045260246000fdfea264697066735822122091c74ce2d82c5491bfef4908c2c223814ac111b8cd47aab893be773c7fc4b43864736f6c6343000814003360806040523480156200001157600080fd5b5060405162001b3f38038062001b3f8339810160408190526200003491620002c7565b600080546001600160a01b0389166001600160a01b03199182168117909255600480549091169091179055600186905584516200007990600290602088019062000158565b50600884905582516200009490600390602086019062000158565b5080600103620000bf57600580546001600160a01b0319166001600160a01b038416179055620000e4565b80600203620000e457600680546001600160a01b0319166001600160a01b0384161790555b600087604051620000f590620001c2565b6001600160a01b039091168152602001604051809103906000f08015801562000122573d6000803e3d6000fd5b50600980546001600160a01b0390921661010002610100600160a81b031990921691909117905550620003749650505050505050565b828054828255906000526020600020908101928215620001b0579160200282015b82811115620001b057825182546001600160a01b0319166001600160a01b0390911617825560209092019160019091019062000179565b50620001be929150620001d0565b5090565b610dc88062000d7783390190565b5b80821115620001be5760008155600101620001d1565b80516001600160a01b0381168114620001ff57600080fd5b919050565b634e487b7160e01b600052604160045260246000fd5b600082601f8301126200022c57600080fd5b815160206001600160401b03808311156200024b576200024b62000204565b8260051b604051601f19603f8301168101818110848211171562000273576200027362000204565b6040529384528581018301938381019250878511156200029257600080fd5b83870191505b84821015620002bc57620002ac82620001e7565b8352918301919083019062000298565b979650505050505050565b600080600080600080600060e0888a031215620002e357600080fd5b620002ee88620001e7565b602089015160408a015191985096506001600160401b03808211156200031357600080fd5b620003218b838c016200021a565b965060608a0151955060808a01519150808211156200033f57600080fd5b506200034e8a828b016200021a565b9350506200035f60a08901620001e7565b915060c0880151905092959891949750929550565b6109f380620003846000396000f3fe608060405234801561001057600080fd5b506004361061009e5760003560e01c8063aab3a9d611610066578063aab3a9d614610123578063abb428a614610183578063c8f5f18914610198578063d2f3fcc7146101ab578063f5c0e383146101b357600080fd5b80632a3aed95146100a35780632f1d7588146100c75780633e7d2baa146100dc57806393a668b7146100fd578063a375be1114610110575b600080fd5b6100ab6101c6565b6040516100be9796959493929190610842565b60405180910390f35b6100da6100d53660046108bb565b6102ed565b005b6100ef6100ea3660046108ee565b61035e565b6040519081526020016100be565b6100da61010b3660046108ee565b61056e565b6100da61011e3660046108ee565b6105c3565b6100da6101313660046108ee565b600380546001810182556000919091527fc2575a0e9e593c00f959f8c92f12db2869c3395a3b0502d05e2516446f71f85b0180546001600160a01b0319166001600160a01b0392909216919091179055565b61018b610701565b6040516100be9190610910565b6100da6101a63660046108ee565b61073c565b6100ef610771565b6100da6101c13660046108bb565b610790565b600080606060006060600080600460009054906101000a90046001600160a01b031660015460026008546003600660009054906101000a90046001600160a01b0316600760009054906101000a90046001600160a01b03168480548060200260200160405190810160405280929190818152602001828054801561027357602002820191906000526020600020905b81546001600160a01b03168152600190910190602001808311610255575b50505050509450828054806020026020016040519081016040528092919081815260200182805480156102cf57602002820191906000526020600020905b81546001600160a01b031681526001909101906020018083116102b1575b50505050509250965096509650965096509650965090919293949596565b6006546001600160a01b0382811691161461031b57604051638f05b46d60e01b815260040160405180910390fd5b600780546001600160a01b0319166001600160a01b03841617905560055b6009805460ff191660018360068111156103555761035561094a565b02179055505050565b6005546000906001600160a01b03838116911614158061038c57506006546001600160a01b03838116911614155b156103aa576040516374fe643d60e11b815260040160405180910390fd5b60095460019060ff1660068111156103c4576103c461094a565b106103e2576040516372e3eeb160e11b815260040160405180910390fd5b6005546001600160a01b0383811691161480156104155750600160095460ff1660068111156104135761041361094a565b145b156104a5576009805460ff1916600390811790915560055481546001600160a01b03909116919061044890600190610960565b8154811061045857610458610987565b6000918252602091829020015460408051600281526003938101939093526001600160a01b0390911691309160008051602061099e833981519152910160405180910390a4506001919050565b6006546001600160a01b0383811691161480156104d85750600260095460ff1660068111156104d6576104d661094a565b145b15610566576009805460ff19166004179055600654600380546001600160a01b039092169161050990600190610960565b8154811061051957610519610987565b6000918252602091829020015460408051600381526004938101939093526001600160a01b0390911691309160008051602061099e833981519152910160405180910390a4506002919050565b506000919050565b6006546001600160a01b0382811691161461059c57604051638f05b46d60e01b815260040160405180910390fd5b60045b6009805460ff191660018360068111156105bb576105bb61094a565b021790555050565b600380546105d390600190610960565b815481106105e3576105e3610987565b6000918252602090912001546001600160a01b0382811691161461061a5760405163d2233ae960e01b815260040160405180910390fd5b600060095460ff1660068111156106335761063361094a565b03610651576040516305edf05160e21b815260040160405180910390fd5b6005546001600160a01b0316156106b457600980546001919060ff19168280021790555060055460408051600180825260208201526001600160a01b0392831692841691309160008051602061099e83398151915291015b60405180910390a450565b600980546002919060ff191660018302179055506006546040805160018152600260208201526001600160a01b0392831692841691309160008051602061099e83398151915291016106a9565b6107096107e0565b50604080516060810182526005546001600160a01b03908116825260065481166020830152600754169181019190915290565b6007546001600160a01b0382811691161461076a5760405163085de2cb60e21b815260040160405180910390fd5b600661059f565b60095460009060ff16600681111561078b5761078b61094a565b905090565b6005546001600160a01b038281169116146107be57604051634550cb9960e11b815260040160405180910390fd5b600680546001600160a01b0319166001600160a01b0384161790556002610339565b60405180606001604052806003906020820280368337509192915050565b600081518084526020808501945080840160005b838110156108375781516001600160a01b031687529582019590820190600101610812565b509495945050505050565b600060018060a01b03808a16835288602084015260e0604084015261086a60e08401896107fe565b876060850152838103608085015261088281886107fe565b95821660a0850152509290921660c0909101525095945050505050565b80356001600160a01b03811681146108b657600080fd5b919050565b600080604083850312156108ce57600080fd5b6108d78361089f565b91506108e56020840161089f565b90509250929050565b60006020828403121561090057600080fd5b6109098261089f565b9392505050565b60608101818360005b60038110156109415781516001600160a01b0316835260209283019290910190600101610919565b50505092915050565b634e487b7160e01b600052602160045260246000fd5b8181038181111561098157634e487b7160e01b600052601160045260246000fd5b92915050565b634e487b7160e01b600052603260045260246000fdfe7e89c4b1a4e2b51aae84eb1f90e8a34cb792ece5ac5cb63db4830c891220b28da26469706673582212209c2a85b37243a97a5b373a88a7adf3862d956aee256fba24f0dccd596306222c64736f6c63430008140033608060405234801561001057600080fd5b50604051610dc8380380610dc883398101604081905261002f91610054565b600080546001600160a01b0319166001600160a01b0392909216919091179055610084565b60006020828403121561006657600080fd5b81516001600160a01b038116811461007d57600080fd5b9392505050565b610d35806100936000396000f3fe608060405234801561001057600080fd5b506004361061007d5760003560e01c8063b77bf6001161005b578063b77bf600146100f1578063c202fc2414610108578063c362eb7f1461011d578063daa105601461012557600080fd5b806327506f531461008257806333ea3dc8146100a0578063b4a99a4e146100c6575b600080fd5b61008a610138565b604051610097919061086c565b60405180910390f35b6100b36100ae366004610937565b610384565b6040516100979796959493929190610950565b6000546100d9906001600160a01b031681565b6040516001600160a01b039091168152602001610097565b6100fa60015481565b604051908152602001610097565b61011b610116366004610a6f565b61054e565b005b6001546100fa565b6100b3610133366004610937565b6106cb565b6060600060015467ffffffffffffffff811115610157576101576109cc565b6040519080825280602002602001820160405280156101bd57816020015b6040805160e0810182526000808252602080830182905292820181905260608083018290526080830181905260a083015260c082015282526000199092019101816101755790505b50905060005b60015481101561037e57600081815260026020818152604092839020835160e0810185528154815260018201546001600160a01b039081169382019390935292810154909116928201929092526003820154606082015260048201805491929160808401919061023290610b06565b80601f016020809104026020016040519081016040528092919081815260200182805461025e90610b06565b80156102ab5780601f10610280576101008083540402835291602001916102ab565b820191906000526020600020905b81548152906001019060200180831161028e57829003601f168201915b505050505081526020016005820180546102c490610b06565b80601f01602080910402602001604051908101604052809291908181526020018280546102f090610b06565b801561033d5780601f106103125761010080835404028352916020019161033d565b820191906000526020600020905b81548152906001019060200180831161032057829003601f168201915b5050505050815260200160068201548152505082828151811061036257610362610b3a565b60200260200101819052508061037790610b66565b90506101c3565b50919050565b6000818152600260208181526040808420815160e0810183528154815260018201546001600160a01b03908116948201949094529381015490921690830152600381015460608381019190915260048201805485948594859493849386938493909290916080840191906103f790610b06565b80601f016020809104026020016040519081016040528092919081815260200182805461042390610b06565b80156104705780601f1061044557610100808354040283529160200191610470565b820191906000526020600020905b81548152906001019060200180831161045357829003601f168201915b5050505050815260200160058201805461048990610b06565b80601f01602080910402602001604051908101604052809291908181526020018280546104b590610b06565b80156105025780601f106104d757610100808354040283529160200191610502565b820191906000526020600020905b8154815290600101906020018083116104e557829003601f168201915b50505091835250506006919091015460209182015281519082015160408301516060840151608085015160a086015160c090960151949f939e50919c509a509850919650945092505050565b60015442901580610581575083600260006001805461056d9190610b7f565b815260200190815260200160002060000154145b156106a9576040805160e0810182528881526001600160a01b038089166020808401918252898316848601908152606085018a8152608086018a815260a087018a905260c087018990526001805460009081526002958690529890982087518155945197850180549887166001600160a01b0319998a16179055915192840180549390951692909616919091179092559251600384015551909190600482019061062b9082610be7565b5060a082015160058201906106409082610be7565b5060c091909101516006909101556001805490600061065e83610b66565b91905055507f6ed33735d35afab24c9e528c8acb867ca8006c27e3369ba46090b6005244130c87878787878760405161069c96959493929190610ca7565b60405180910390a16106c2565b6040516347bc253b60e01b815260040160405180910390fd5b50505050505050565b60026020819052600091825260409091208054600182015492820154600383015460048401805493956001600160a01b039081169593169391929161070f90610b06565b80601f016020809104026020016040519081016040528092919081815260200182805461073b90610b06565b80156107885780601f1061075d57610100808354040283529160200191610788565b820191906000526020600020905b81548152906001019060200180831161076b57829003601f168201915b50505050509080600501805461079d90610b06565b80601f01602080910402602001604051908101604052809291908181526020018280546107c990610b06565b80156108165780601f106107eb57610100808354040283529160200191610816565b820191906000526020600020905b8154815290600101906020018083116107f957829003601f168201915b5050505050908060060154905087565b6000815180845260005b8181101561084c57602081850181015186830182015201610830565b506000602082860101526020601f19601f83011685010191505092915050565b60006020808301818452808551808352604092508286019150828160051b87010184880160005b8381101561092957888303603f19018552815180518452878101516001600160a01b03908116898601528782015116878501526060808201519085015260808082015160e082870181905291906108ec83880182610826565b9250505060a080830151868303828801526109078382610826565b60c0948501519790940196909652505094870194925090860190600101610893565b509098975050505050505050565b60006020828403121561094957600080fd5b5035919050565b8781526001600160a01b038781166020830152861660408201526060810185905260e06080820181905260009061098990830186610826565b82810360a084015261099b8186610826565b9150508260c083015298975050505050505050565b80356001600160a01b03811681146109c757600080fd5b919050565b634e487b7160e01b600052604160045260246000fd5b600082601f8301126109f357600080fd5b813567ffffffffffffffff80821115610a0e57610a0e6109cc565b604051601f8301601f19908116603f01168101908282118183101715610a3657610a366109cc565b81604052838152866020858801011115610a4f57600080fd5b836020870160208301376000602085830101528094505050505092915050565b60008060008060008060c08789031215610a8857600080fd5b86359550610a98602088016109b0565b9450610aa6604088016109b0565b935060608701359250608087013567ffffffffffffffff80821115610aca57600080fd5b610ad68a838b016109e2565b935060a0890135915080821115610aec57600080fd5b50610af989828a016109e2565b9150509295509295509295565b600181811c90821680610b1a57607f821691505b60208210810361037e57634e487b7160e01b600052602260045260246000fd5b634e487b7160e01b600052603260045260246000fd5b634e487b7160e01b600052601160045260246000fd5b600060018201610b7857610b78610b50565b5060010190565b81810381811115610b9257610b92610b50565b92915050565b601f821115610be257600081815260208120601f850160051c81016020861015610bbf5750805b601f850160051c820191505b81811015610bde57828155600101610bcb565b5050505b505050565b815167ffffffffffffffff811115610c0157610c016109cc565b610c1581610c0f8454610b06565b84610b98565b602080601f831160018114610c4a5760008415610c325750858301515b600019600386901b1c1916600185901b178555610bde565b600085815260208120601f198616915b82811015610c7957888601518255948401946001909101908401610c5a565b5085821015610c975787850151600019600388901b60f8161c191681555b5050505050600190811b01905550565b8681526001600160a01b038681166020830152851660408201526060810184905260c060808201819052600090610ce090830185610826565b82810360a0840152610cf28185610826565b999850505050505050505056fea2646970667358221220c31c1d8a9069df752989fa59dbdb9080412a40e4a8c5c8f202364ec6b625563164736f6c63430008140033608060405234801561001057600080fd5b5060405161124f38038061124f83398101604081905261002f91610123565b600080546001600160a01b03199081166001600160a01b0389811691821784556001805484168a8316179055600288905560038790556004805484168783161790556005805490931690851617909155600680546001600160a81b031916909117905560405182906100a0906100fa565b6001600160a01b039091168152602001604051809103906000f0801580156100cc573d6000803e3d6000fd5b50600880546001600160a01b0319166001600160a01b03929092169190911790555061018995505050505050565b610dc88061048783390190565b80516001600160a01b038116811461011e57600080fd5b919050565b60008060008060008060c0878903121561013c57600080fd5b61014587610107565b955061015360208801610107565b9450604087015193506060870151925061016f60808801610107565b915061017d60a08801610107565b90509295509295509295565b6102ef806101986000396000f3fe608060405234801561001057600080fd5b506004361061004c5760003560e01c806352b9996814610051578063638e9a3d146100665780636b099dca146100795780638072352014610094575b600080fd5b61006461005f366004610273565b6100ef565b005b610064610074366004610273565b6101a1565b61008161024d565b6040519081526020015b60405180910390f35b600154600254600354600654600454600554600854604080516001600160a01b0398891681526020810197909752860194909452918516606085015284166080840152831660a08301529190911660c082015260e00161008b565b6005546001600160a01b0382811691161461010957600080fd5b6001600654600160a01b900460ff166002811115610129576101296102a3565b1461013357600080fd5b6006805460ff60a01b1916600160a11b1790556005546004546001805460408051928352600260208401526001600160a01b039485169493841693909116917f7e89c4b1a4e2b51aae84eb1f90e8a34cb792ece5ac5cb63db4830c891220b28d91015b60405180910390a450565b6004546001600160a01b038281169116146101bb57600080fd5b6000600654600160a01b900460ff1660028111156101db576101db6102a3565b146101e557600080fd5b6006805460ff60a01b1916600160a01b179055600554600454600180546040805183815260208101939093526001600160a01b039485169493841693909116917f7e89c4b1a4e2b51aae84eb1f90e8a34cb792ece5ac5cb63db4830c891220b28d9101610196565b600654600090600160a01b900460ff16600281111561026e5761026e6102a3565b905090565b60006020828403121561028557600080fd5b81356001600160a01b038116811461029c57600080fd5b9392505050565b634e487b7160e01b600052602160045260246000fdfea26469706673582212206ffc57ce2ca22c01b7a51fbfd56e7ae636b7dc2875cdc4a49f35bcd2352f6b0264736f6c63430008140033608060405234801561001057600080fd5b50604051610dc8380380610dc883398101604081905261002f91610054565b600080546001600160a01b0319166001600160a01b0392909216919091179055610084565b60006020828403121561006657600080fd5b81516001600160a01b038116811461007d57600080fd5b9392505050565b610d35806100936000396000f3fe608060405234801561001057600080fd5b506004361061007d5760003560e01c8063b77bf6001161005b578063b77bf600146100f1578063c202fc2414610108578063c362eb7f1461011d578063daa105601461012557600080fd5b806327506f531461008257806333ea3dc8146100a0578063b4a99a4e146100c6575b600080fd5b61008a610138565b604051610097919061086c565b60405180910390f35b6100b36100ae366004610937565b610384565b6040516100979796959493929190610950565b6000546100d9906001600160a01b031681565b6040516001600160a01b039091168152602001610097565b6100fa60015481565b604051908152602001610097565b61011b610116366004610a6f565b61054e565b005b6001546100fa565b6100b3610133366004610937565b6106cb565b6060600060015467ffffffffffffffff811115610157576101576109cc565b6040519080825280602002602001820160405280156101bd57816020015b6040805160e0810182526000808252602080830182905292820181905260608083018290526080830181905260a083015260c082015282526000199092019101816101755790505b50905060005b60015481101561037e57600081815260026020818152604092839020835160e0810185528154815260018201546001600160a01b039081169382019390935292810154909116928201929092526003820154606082015260048201805491929160808401919061023290610b06565b80601f016020809104026020016040519081016040528092919081815260200182805461025e90610b06565b80156102ab5780601f10610280576101008083540402835291602001916102ab565b820191906000526020600020905b81548152906001019060200180831161028e57829003601f168201915b505050505081526020016005820180546102c490610b06565b80601f01602080910402602001604051908101604052809291908181526020018280546102f090610b06565b801561033d5780601f106103125761010080835404028352916020019161033d565b820191906000526020600020905b81548152906001019060200180831161032057829003601f168201915b5050505050815260200160068201548152505082828151811061036257610362610b3a565b60200260200101819052508061037790610b66565b90506101c3565b50919050565b6000818152600260208181526040808420815160e0810183528154815260018201546001600160a01b03908116948201949094529381015490921690830152600381015460608381019190915260048201805485948594859493849386938493909290916080840191906103f790610b06565b80601f016020809104026020016040519081016040528092919081815260200182805461042390610b06565b80156104705780601f1061044557610100808354040283529160200191610470565b820191906000526020600020905b81548152906001019060200180831161045357829003601f168201915b5050505050815260200160058201805461048990610b06565b80601f01602080910402602001604051908101604052809291908181526020018280546104b590610b06565b80156105025780601f106104d757610100808354040283529160200191610502565b820191906000526020600020905b8154815290600101906020018083116104e557829003601f168201915b50505091835250506006919091015460209182015281519082015160408301516060840151608085015160a086015160c090960151949f939e50919c509a509850919650945092505050565b60015442901580610581575083600260006001805461056d9190610b7f565b815260200190815260200160002060000154145b156106a9576040805160e0810182528881526001600160a01b038089166020808401918252898316848601908152606085018a8152608086018a815260a087018a905260c087018990526001805460009081526002958690529890982087518155945197850180549887166001600160a01b0319998a16179055915192840180549390951692909616919091179092559251600384015551909190600482019061062b9082610be7565b5060a082015160058201906106409082610be7565b5060c091909101516006909101556001805490600061065e83610b66565b91905055507f6ed33735d35afab24c9e528c8acb867ca8006c27e3369ba46090b6005244130c87878787878760405161069c96959493929190610ca7565b60405180910390a16106c2565b6040516347bc253b60e01b815260040160405180910390fd5b50505050505050565b60026020819052600091825260409091208054600182015492820154600383015460048401805493956001600160a01b039081169593169391929161070f90610b06565b80601f016020809104026020016040519081016040528092919081815260200182805461073b90610b06565b80156107885780601f1061075d57610100808354040283529160200191610788565b820191906000526020600020905b81548152906001019060200180831161076b57829003601f168201915b50505050509080600501805461079d90610b06565b80601f01602080910402602001604051908101604052809291908181526020018280546107c990610b06565b80156108165780601f106107eb57610100808354040283529160200191610816565b820191906000526020600020905b8154815290600101906020018083116107f957829003601f168201915b5050505050908060060154905087565b6000815180845260005b8181101561084c57602081850181015186830182015201610830565b506000602082860101526020601f19601f83011685010191505092915050565b60006020808301818452808551808352604092508286019150828160051b87010184880160005b8381101561092957888303603f19018552815180518452878101516001600160a01b03908116898601528782015116878501526060808201519085015260808082015160e082870181905291906108ec83880182610826565b9250505060a080830151868303828801526109078382610826565b60c0948501519790940196909652505094870194925090860190600101610893565b509098975050505050505050565b60006020828403121561094957600080fd5b5035919050565b8781526001600160a01b038781166020830152861660408201526060810185905260e06080820181905260009061098990830186610826565b82810360a084015261099b8186610826565b9150508260c083015298975050505050505050565b80356001600160a01b03811681146109c757600080fd5b919050565b634e487b7160e01b600052604160045260246000fd5b600082601f8301126109f357600080fd5b813567ffffffffffffffff80821115610a0e57610a0e6109cc565b604051601f8301601f19908116603f01168101908282118183101715610a3657610a366109cc565b81604052838152866020858801011115610a4f57600080fd5b836020870160208301376000602085830101528094505050505092915050565b60008060008060008060c08789031215610a8857600080fd5b86359550610a98602088016109b0565b9450610aa6604088016109b0565b935060608701359250608087013567ffffffffffffffff80821115610aca57600080fd5b610ad68a838b016109e2565b935060a0890135915080821115610aec57600080fd5b50610af989828a016109e2565b9150509295509295509295565b600181811c90821680610b1a57607f821691505b60208210810361037e57634e487b7160e01b600052602260045260246000fd5b634e487b7160e01b600052603260045260246000fd5b634e487b7160e01b600052601160045260246000fd5b600060018201610b7857610b78610b50565b5060010190565b81810381811115610b9257610b92610b50565b92915050565b601f821115610be257600081815260208120601f850160051c81016020861015610bbf5750805b601f850160051c820191505b81811015610bde57828155600101610bcb565b5050505b505050565b815167ffffffffffffffff811115610c0157610c016109cc565b610c1581610c0f8454610b06565b84610b98565b602080601f831160018114610c4a5760008415610c325750858301515b600019600386901b1c1916600185901b178555610bde565b600085815260208120601f198616915b82811015610c7957888601518255948401946001909101908401610c5a565b5085821015610c975787850151600019600388901b60f8161c191681555b5050505050600190811b01905550565b8681526001600160a01b038681166020830152851660408201526060810184905260c060808201819052600090610ce090830185610826565b82810360a0840152610cf28185610826565b999850505050505050505056fea2646970667358221220c31c1d8a9069df752989fa59dbdb9080412a40e4a8c5c8f202364ec6b625563164736f6c63430008140033a2646970667358221220e489a8dd1e622258bd735a09f9df6e19417398e9615505e77a08dc1d3781661264736f6c63430008140033",
    "linkReferences": {}
  },
  "methodIdentifiers": {
    "CommoditiesAtWholesaler(address,uint256)": "afc58961",
    "CommodityBatchAtFinalConsumer(address,uint256)": "401fdedf",
    "CommodityDtoC(address,uint256)": "7b417761",
    "CommodityDtoCTxContract(address)": "de6e81a4",
    "CommodityWtoD(address,uint256)": "db37acb1",
    "CommodityWtoDTxContract(address)": "cf340ed9",
    "CommoditysAtDistributor(address,uint256)": "7cd52fa0",
    "Owner()": "b4a99a4e",
    "changeUserRole(uint256,address)": "91009786",
    "commodityRecievedAtDistributor(address,address)": "6c58fc6e",
    "commodityRecievedAtFinalConsumer(address,address)": "60ef3851",
    "commodityRecievedAtWholesaler(address)": "d1f93e0c",
    "consumerReceivedCommodity(address,address)": "b327bc72",
    "createRawMaterialPackage(bytes32,uint256,address,address)": "fc7e01f3",
    "distributorReceivedCommodity(address,address)": "c2e65371",
    "distributorTransferCommoditytoFinalConsumer(address,address,address)": "9d891d1c",
    "getAllPackages()": "0a421f0f",
    "getBatchIdByIndexC(uint256)": "9c1ba94a",
    "getBatchIdByIndexDC(uint256)": "164bcd5b",
    "getBatchIdByIndexWD(uint256)": "9af035a3",
    "getBatchesCountC()": "57bd4c7a",
    "getBatchesCountDC()": "cd55152e",
    "getNoOfPackagesOfSupplier()": "c22470ea",
    "getSalesInfo(address)": "a4d886b2",
    "getSubContractDC(address)": "62c1fe39",
    "getSubContractWD(address)": "34759016",
    "getUserInfo(address)": "6386c1c7",
    "handlePackage(address,uint256,address)": "6f41507c",
    "manufacturerCommodities(address,uint256)": "3e306e9b",
    "manufacturerCreatesCommodity(address,bytes32,address[],uint256,address[],address,uint256)": "f5aae165",
    "manufacturerCreatesNewCommodity(bytes32,address[],uint256,address[],address,uint256)": "8c4b6e2e",
    "manufacturerRawMaterials(address,uint256)": "8ccc8db7",
    "manufacturerReceivedPackage(address,address)": "56466dee",
    "manufacturerReceivedRawMaterials(address)": "102795bc",
    "registerUser(bytes32,string[],uint256,address)": "1f90ddaf",
    "sale(address)": "75df2684",
    "salesInfo(address)": "bb8ee1c5",
    "supplierCreatesRawPackage(bytes32,uint256,address,address)": "11789ca6",
    "supplierGetPackageCount()": "d1acb527",
    "supplierGetRawMaterialAddresses()": "824e43e7",
    "supplierRawMaterials(address,uint256)": "06db8324",
    "transferCommodityDtoC(address,address,address)": "215f978c",
    "transferCommodityW_D(address,address,address)": "a489d467",
    "transferCommodityWtoD(address,address,address)": "e18ea3fb",
    "transporterHandlePackage(address,uint256,address)": "be7ef9c0",
    "updateSaleStatus(address,uint256)": "eae3c207",
    "updateStatus(address,uint256)": "31e0afc2",
    "userInfo(address)": "1959a002",
    "wholesalerReceivedCommodity(address)": "f9cf31b9"
  },
  "id": 0
}