{
  "abi": [
    {
      "inputs": [
        {
          "internalType": "string",
          "name": "_name",
          "type": "string"
        },
        {
          "internalType": "uint256",
          "name": "_favoriteNumber",
          "type": "uint256"
        }
      ],
      "name": "addPerson",
      "outputs": [],
      "stateMutability": "nonpayable",
      "type": "function"
    },
    {
      "inputs": [
        {
          "internalType": "string",
          "name": "_name",
          "type": "string"
        }
      ],
      "name": "deletePerson",
      "outputs": [],
      "stateMutability": "nonpayable",
      "type": "function"
    },
    {
      "inputs": [
        {
          "internalType": "uint256",
          "name": "i",
          "type": "uint256"
        }
      ],
      "name": "getPersonAtIndex",
      "outputs": [
        {
          "internalType": "string",
          "name": "",
          "type": "string"
        },
        {
          "internalType": "uint256",
          "name": "",
          "type": "uint256"
        }
      ],
      "stateMutability": "view",
      "type": "function"
    },
    {
      "inputs": [
        {
          "internalType": "string",
          "name": "_name",
          "type": "string"
        }
      ],
      "name": "getPersonFavoriteNumber",
      "outputs": [
        {
          "internalType": "uint256",
          "name": "",
          "type": "uint256"
        }
      ],
      "stateMutability": "view",
      "type": "function"
    },
    {
      "inputs": [],
      "name": "getTotalPeople",
      "outputs": [
        {
          "internalType": "uint256",
          "name": "",
          "type": "uint256"
        }
      ],
      "stateMutability": "view",
      "type": "function"
    },
    {
      "inputs": [
        {
          "internalType": "uint256",
          "name": "",
          "type": "uint256"
        }
      ],
      "name": "listofPeople",
      "outputs": [
        {
          "internalType": "uint256",
          "name": "favoriteNumber",
          "type": "uint256"
        },
        {
          "internalType": "string",
          "name": "name",
          "type": "string"
        }
      ],
      "stateMutability": "view",
      "type": "function"
    },
    {
      "inputs": [
        {
          "internalType": "string",
          "name": "",
          "type": "string"
        }
      ],
      "name": "nameToFavoriteNumber",
      "outputs": [
        {
          "internalType": "uint256",
          "name": "",
          "type": "uint256"
        }
      ],
      "stateMutability": "view",
      "type": "function"
    },
    {
      "inputs": [],
      "name": "retrieve",
      "outputs": [
        {
          "internalType": "uint256",
          "name": "",
          "type": "uint256"
        }
      ],
      "stateMutability": "view",
      "type": "function"
    },
    {
      "inputs": [
        {
          "internalType": "uint256",
          "name": "_favoriteNumber",
          "type": "uint256"
        }
      ],
      "name": "store",
      "outputs": [],
      "stateMutability": "nonpayable",
      "type": "function"
    }
  ],
  "bytecode": {
    "object": "0x608060405234801561001057600080fd5b50610c32806100206000396000f3fe608060405234801561001057600080fd5b50600436106100935760003560e01c80636122720011610066578063612272001461010a5780636f760f41146101125780637b4cd9eb146101255780638bab8dd514610138578063da21e2291461016357600080fd5b80632e5effac146100985780632e64cec1146100c257806331e21203146100d45780636057361d146100f5575b600080fd5b6100ab6100a636600461067a565b610176565b6040516100b99291906106e3565b60405180910390f35b6000545b6040519081526020016100b9565b6100e76100e236600461067a565b61022e565b6040516100b9929190610704565b61010861010336600461067a565b600055565b005b6001546100c6565b6101086101203660046107c9565b61035e565b6100c661013336600461080e565b610407565b6100c6610146366004610880565b805160208183018101805160028252928201919093012091525481565b610108610171366004610880565b610433565b6001818154811061018657600080fd5b600091825260209091206002909102018054600182018054919350906101ab906108b5565b80601f01602080910402602001604051908101604052809291908181526020018280546101d7906108b5565b80156102245780601f106101f957610100808354040283529160200191610224565b820191906000526020600020905b81548152906001019060200180831161020757829003601f168201915b5050505050905082565b60015460609060009083106102815760405162461bcd60e51b8152602060048201526014602482015273696e64657874206f7574206f6620626f756e647360601b60448201526064015b60405180910390fd5b600060018481548110610296576102966108ef565b9060005260206000209060020201604051806040016040529081600082015481526020016001820180546102c9906108b5565b80601f01602080910402602001604051908101604052809291908181526020018280546102f5906108b5565b80156103425780601f1061031757610100808354040283529160200191610342565b820191906000526020600020905b81548152906001019060200180831161032557829003601f168201915b5050509190925250505060208101519051909590945092505050565b6040805180820190915281815260208101838152600180548082018255600091909152825160029091027fb10e2d527612073b26eecdfd717e6a320cf44b4afac2b0732d9fcbe2b7fa0cf68101918255915190917fb10e2d527612073b26eecdfd717e6a320cf44b4afac2b0732d9fcbe2b7fa0cf701906103df9082610954565b505050806002836040516103f39190610a14565b908152604051908190036020019020555050565b60006002838360405161041b929190610a30565b90815260200160405180910390205490505b92915050565b60015461047a5760405162461bcd60e51b8152602060048201526015602482015274139bc81c195bdc1b19481a5b881d1a19481b1a5cdd605a1b6044820152606401610278565b60008060005b6001548110156104ee578380519060200120600182815481106104a5576104a56108ef565b90600052602060002090600202016001016040516104c39190610a40565b6040518091039020036104dc57809250600191506104ee565b806104e681610acc565b915050610480565b508061052f5760405162461bcd60e51b815260206004820152601060248201526f14195c9cdbdb881b9bdd08199bdd5b9960821b6044820152606401610278565b815b6001805461053f9190610ae5565b8110156105c15760016105528282610af8565b81548110610562576105626108ef565b906000526020600020906002020160018281548110610583576105836108ef565b6000918252602090912082546002909202019081556001808201906105aa90840182610b0b565b5090505080806105b990610acc565b915050610531565b5060018054806105d3576105d3610be6565b600082815260208120600260001990930192830201818155906105f96001830182610624565b5050905560028360405161060d9190610a14565b908152602001604051809103902060009055505050565b508054610630906108b5565b6000825580601f10610640575050565b601f01602090049060005260206000209081019061065e9190610661565b50565b5b808211156106765760008155600101610662565b5090565b60006020828403121561068c57600080fd5b5035919050565b60005b838110156106ae578181015183820152602001610696565b50506000910152565b600081518084526106cf816020860160208601610693565b601f01601f19169290920160200192915050565b8281526040602082015260006106fc60408301846106b7565b949350505050565b60408152600061071760408301856106b7565b90508260208301529392505050565b634e487b7160e01b600052604160045260246000fd5b600082601f83011261074d57600080fd5b813567ffffffffffffffff8082111561076857610768610726565b604051601f8301601f19908116603f0116810190828211818310171561079057610790610726565b816040528381528660208588010111156107a957600080fd5b836020870160208301376000602085830101528094505050505092915050565b600080604083850312156107dc57600080fd5b823567ffffffffffffffff8111156107f357600080fd5b6107ff8582860161073c565b95602094909401359450505050565b6000806020838503121561082157600080fd5b823567ffffffffffffffff8082111561083957600080fd5b818501915085601f83011261084d57600080fd5b81358181111561085c57600080fd5b86602082850101111561086e57600080fd5b60209290920196919550909350505050565b60006020828403121561089257600080fd5b813567ffffffffffffffff8111156108a957600080fd5b6106fc8482850161073c565b600181811c908216806108c957607f821691505b6020821081036108e957634e487b7160e01b600052602260045260246000fd5b50919050565b634e487b7160e01b600052603260045260246000fd5b601f82111561094f57600081815260208120601f850160051c8101602086101561092c5750805b601f850160051c820191505b8181101561094b57828155600101610938565b5050505b505050565b815167ffffffffffffffff81111561096e5761096e610726565b6109828161097c84546108b5565b84610905565b602080601f8311600181146109b7576000841561099f5750858301515b600019600386901b1c1916600185901b17855561094b565b600085815260208120601f198616915b828110156109e6578886015182559484019460019091019084016109c7565b5085821015610a045787850151600019600388901b60f8161c191681555b5050505050600190811b01905550565b60008251610a26818460208701610693565b9190910192915050565b8183823760009101908152919050565b6000808354610a4e816108b5565b60018281168015610a665760018114610a7b57610aaa565b60ff1984168752821515830287019450610aaa565b8760005260208060002060005b85811015610aa15781548a820152908401908201610a88565b50505082870194505b50929695505050505050565b634e487b7160e01b600052601160045260246000fd5b600060018201610ade57610ade610ab6565b5060010190565b8181038181111561042d5761042d610ab6565b8082018082111561042d5761042d610ab6565b818103610b16575050565b610b2082546108b5565b67ffffffffffffffff811115610b3857610b38610726565b610b468161097c84546108b5565b6000601f821160018114610b7a5760008315610b625750848201545b600019600385901b1c1916600184901b178455610bdf565b600085815260209020601f19841690600086815260209020845b83811015610bb45782860154825560019586019590910190602001610b94565b5085831015610bd25781850154600019600388901b60f8161c191681555b50505060018360011b0184555b5050505050565b634e487b7160e01b600052603160045260246000fdfea2646970667358221220050f3b16e94dcc7995edffa4b6fb515d589f27ef0320297c6d5c036f19794e3664736f6c63430008140033",
    "linkReferences": {}
  },
  "methodIdentifiers": {
    "addPerson(string,uint256)": "6f760f41",
    "deletePerson(string)": "da21e229",
    "getPersonAtIndex(uint256)": "31e21203",
    "getPersonFavoriteNumber(string)": "7b4cd9eb",
    "getTotalPeople()": "61227200",
    "listofPeople(uint256)": "2e5effac",
    "nameToFavoriteNumber(string)": "8bab8dd5",
    "retrieve()": "2e64cec1",
    "store(uint256)": "6057361d"
  },
  "id": 13
}