{
  "abi": [
    {
      "inputs": [
        {
          "internalType": "address",
          "name": "_manufacturerAddr",
          "type": "address"
        },
        {
          "internalType": "bytes32",
          "name": "_description",
          "type": "bytes32"
        },
        {
          "internalType": "address[]",
          "name": "_rawAddr",
          "type": "address[]"
        },
        {
          "internalType": "uint256",
          "name": "_quantity",
          "type": "uint256"
        },
        {
          "internalType": "address[]",
          "name": "_transporterAddr",
          "type": "address[]"
        },
        {
          "internalType": "address",
          "name": "_receiverAddr",
          "type": "address"
        },
        {
          "internalType": "uint256",
          "name": "RcvrType",
          "type": "uint256"
        }
      ],
      "stateMutability": "nonpayable",
      "type": "constructor"
    },
    {
      "inputs": [],
      "name": "Customer_is_not_Associated",
      "type": "error"
    },
    {
      "inputs": [],
      "name": "Distributor_is_not_Associated",
      "type": "error"
    },
    {
      "inputs": [],
      "name": "Only_Wholesaler_or_Distributor_Authorised",
      "type": "error"
    },
    {
      "inputs": [],
      "name": "Package_at_Manufacturer",
      "type": "error"
    },
    {
      "inputs": [],
      "name": "Product_not_picked_up_yet",
      "type": "error"
    },
    {
      "inputs": [],
      "name": "UnAuthorised_PickUp",
      "type": "error"
    },
    {
      "inputs": [],
      "name": "Wholesaler_is_not_Associated",
      "type": "error"
    },
    {
      "anonymous": false,
      "inputs": [
        {
          "indexed": true,
          "internalType": "address",
          "name": "BatchID",
          "type": "address"
        },
        {
          "indexed": true,
          "internalType": "address",
          "name": "Shipper",
          "type": "address"
        },
        {
          "indexed": true,
          "internalType": "address",
          "name": "Receiver",
          "type": "address"
        },
        {
          "indexed": false,
          "internalType": "uint256",
          "name": "TransporterType",
          "type": "uint256"
        },
        {
          "indexed": false,
          "internalType": "uint256",
          "name": "Status",
          "type": "uint256"
        }
      ],
      "name": "ShippmentUpdate",
      "type": "event"
    },
    {
      "inputs": [],
      "name": "getBatchIDStatus",
      "outputs": [
        {
          "internalType": "uint256",
          "name": "",
          "type": "uint256"
        }
      ],
      "stateMutability": "view",
      "type": "function"
    },
    {
      "inputs": [],
      "name": "getCommodityInfo",
      "outputs": [
        {
          "internalType": "address",
          "name": "_manufacturerAddr",
          "type": "address"
        },
        {
          "internalType": "bytes32",
          "name": "_description",
          "type": "bytes32"
        },
        {
          "internalType": "address[]",
          "name": "_rawAddr",
          "type": "address[]"
        },
        {
          "internalType": "uint256",
          "name": "_quantity",
          "type": "uint256"
        },
        {
          "internalType": "address[]",
          "name": "_transporterAddr",
          "type": "address[]"
        },
        {
          "internalType": "address",
          "name": "_distributor",
          "type": "address"
        },
        {
          "internalType": "address",
          "name": "_customer",
          "type": "address"
        }
      ],
      "stateMutability": "view",
      "type": "function"
    },
    {
      "inputs": [],
      "name": "getWDC",
      "outputs": [
        {
          "internalType": "address[3]",
          "name": "WDP",
          "type": "address[3]"
        }
      ],
      "stateMutability": "view",
      "type": "function"
    },
    {
      "inputs": [
        {
          "internalType": "address",
          "name": "_transporterAddr",
          "type": "address"
        }
      ],
      "name": "pickCommodity",
      "outputs": [],
      "stateMutability": "nonpayable",
      "type": "function"
    },
    {
      "inputs": [
        {
          "internalType": "address",
          "name": "_receiverAddr",
          "type": "address"
        }
      ],
      "name": "receivedCommodity",
      "outputs": [
        {
          "internalType": "uint256",
          "name": "",
          "type": "uint256"
        }
      ],
      "stateMutability": "nonpayable",
      "type": "function"
    },
    {
      "inputs": [
        {
          "internalType": "address",
          "name": "receiver",
          "type": "address"
        }
      ],
      "name": "receivedDtoC",
      "outputs": [],
      "stateMutability": "nonpayable",
      "type": "function"
    },
    {
      "inputs": [
        {
          "internalType": "address",
          "name": "receiver",
          "type": "address"
        }
      ],
      "name": "receivedWtoD",
      "outputs": [],
      "stateMutability": "nonpayable",
      "type": "function"
    },
    {
      "inputs": [
        {
          "internalType": "address",
          "name": "receiver",
          "type": "address"
        },
        {
          "internalType": "address",
          "name": "sender",
          "type": "address"
        }
      ],
      "name": "sendDtoC",
      "outputs": [],
      "stateMutability": "nonpayable",
      "type": "function"
    },
    {
      "inputs": [
        {
          "internalType": "address",
          "name": "receiver",
          "type": "address"
        },
        {
          "internalType": "address",
          "name": "sender",
          "type": "address"
        }
      ],
      "name": "sendWtoD",
      "outputs": [],
      "stateMutability": "nonpayable",
      "type": "function"
    },
    {
      "inputs": [
        {
          "internalType": "address",
          "name": "_transporterAddr",
          "type": "address"
        }
      ],
      "name": "updateTransporterArray",
      "outputs": [],
      "stateMutability": "nonpayable",
      "type": "function"
    }
  ],
  "bytecode": {
    "object": "0x60806040523480156200001157600080fd5b5060405162001b3f38038062001b3f8339810160408190526200003491620002c7565b600080546001600160a01b0389166001600160a01b03199182168117909255600480549091169091179055600186905584516200007990600290602088019062000158565b50600884905582516200009490600390602086019062000158565b5080600103620000bf57600580546001600160a01b0319166001600160a01b038416179055620000e4565b80600203620000e457600680546001600160a01b0319166001600160a01b0384161790555b600087604051620000f590620001c2565b6001600160a01b039091168152602001604051809103906000f08015801562000122573d6000803e3d6000fd5b50600980546001600160a01b0390921661010002610100600160a81b031990921691909117905550620003749650505050505050565b828054828255906000526020600020908101928215620001b0579160200282015b82811115620001b057825182546001600160a01b0319166001600160a01b0390911617825560209092019160019091019062000179565b50620001be929150620001d0565b5090565b610dc88062000d7783390190565b5b80821115620001be5760008155600101620001d1565b80516001600160a01b0381168114620001ff57600080fd5b919050565b634e487b7160e01b600052604160045260246000fd5b600082601f8301126200022c57600080fd5b815160206001600160401b03808311156200024b576200024b62000204565b8260051b604051601f19603f8301168101818110848211171562000273576200027362000204565b6040529384528581018301938381019250878511156200029257600080fd5b83870191505b84821015620002bc57620002ac82620001e7565b8352918301919083019062000298565b979650505050505050565b600080600080600080600060e0888a031215620002e357600080fd5b620002ee88620001e7565b602089015160408a015191985096506001600160401b03808211156200031357600080fd5b620003218b838c016200021a565b965060608a0151955060808a01519150808211156200033f57600080fd5b506200034e8a828b016200021a565b9350506200035f60a08901620001e7565b915060c0880151905092959891949750929550565b6109f380620003846000396000f3fe608060405234801561001057600080fd5b506004361061009e5760003560e01c8063aab3a9d611610066578063aab3a9d614610123578063abb428a614610183578063c8f5f18914610198578063d2f3fcc7146101ab578063f5c0e383146101b357600080fd5b80632a3aed95146100a35780632f1d7588146100c75780633e7d2baa146100dc57806393a668b7146100fd578063a375be1114610110575b600080fd5b6100ab6101c6565b6040516100be9796959493929190610842565b60405180910390f35b6100da6100d53660046108bb565b6102ed565b005b6100ef6100ea3660046108ee565b61035e565b6040519081526020016100be565b6100da61010b3660046108ee565b61056e565b6100da61011e3660046108ee565b6105c3565b6100da6101313660046108ee565b600380546001810182556000919091527fc2575a0e9e593c00f959f8c92f12db2869c3395a3b0502d05e2516446f71f85b0180546001600160a01b0319166001600160a01b0392909216919091179055565b61018b610701565b6040516100be9190610910565b6100da6101a63660046108ee565b61073c565b6100ef610771565b6100da6101c13660046108bb565b610790565b600080606060006060600080600460009054906101000a90046001600160a01b031660015460026008546003600660009054906101000a90046001600160a01b0316600760009054906101000a90046001600160a01b03168480548060200260200160405190810160405280929190818152602001828054801561027357602002820191906000526020600020905b81546001600160a01b03168152600190910190602001808311610255575b50505050509450828054806020026020016040519081016040528092919081815260200182805480156102cf57602002820191906000526020600020905b81546001600160a01b031681526001909101906020018083116102b1575b50505050509250965096509650965096509650965090919293949596565b6006546001600160a01b0382811691161461031b57604051638f05b46d60e01b815260040160405180910390fd5b600780546001600160a01b0319166001600160a01b03841617905560055b6009805460ff191660018360068111156103555761035561094a565b02179055505050565b6005546000906001600160a01b03838116911614158061038c57506006546001600160a01b03838116911614155b156103aa576040516374fe643d60e11b815260040160405180910390fd5b60095460019060ff1660068111156103c4576103c461094a565b106103e2576040516372e3eeb160e11b815260040160405180910390fd5b6005546001600160a01b0383811691161480156104155750600160095460ff1660068111156104135761041361094a565b145b156104a5576009805460ff1916600390811790915560055481546001600160a01b03909116919061044890600190610960565b8154811061045857610458610987565b6000918252602091829020015460408051600281526003938101939093526001600160a01b0390911691309160008051602061099e833981519152910160405180910390a4506001919050565b6006546001600160a01b0383811691161480156104d85750600260095460ff1660068111156104d6576104d661094a565b145b15610566576009805460ff19166004179055600654600380546001600160a01b039092169161050990600190610960565b8154811061051957610519610987565b6000918252602091829020015460408051600381526004938101939093526001600160a01b0390911691309160008051602061099e833981519152910160405180910390a4506002919050565b506000919050565b6006546001600160a01b0382811691161461059c57604051638f05b46d60e01b815260040160405180910390fd5b60045b6009805460ff191660018360068111156105bb576105bb61094a565b021790555050565b600380546105d390600190610960565b815481106105e3576105e3610987565b6000918252602090912001546001600160a01b0382811691161461061a5760405163d2233ae960e01b815260040160405180910390fd5b600060095460ff1660068111156106335761063361094a565b03610651576040516305edf05160e21b815260040160405180910390fd5b6005546001600160a01b0316156106b457600980546001919060ff19168280021790555060055460408051600180825260208201526001600160a01b0392831692841691309160008051602061099e83398151915291015b60405180910390a450565b600980546002919060ff191660018302179055506006546040805160018152600260208201526001600160a01b0392831692841691309160008051602061099e83398151915291016106a9565b6107096107e0565b50604080516060810182526005546001600160a01b03908116825260065481166020830152600754169181019190915290565b6007546001600160a01b0382811691161461076a5760405163085de2cb60e21b815260040160405180910390fd5b600661059f565b60095460009060ff16600681111561078b5761078b61094a565b905090565b6005546001600160a01b038281169116146107be57604051634550cb9960e11b815260040160405180910390fd5b600680546001600160a01b0319166001600160a01b0384161790556002610339565b60405180606001604052806003906020820280368337509192915050565b600081518084526020808501945080840160005b838110156108375781516001600160a01b031687529582019590820190600101610812565b509495945050505050565b600060018060a01b03808a16835288602084015260e0604084015261086a60e08401896107fe565b876060850152838103608085015261088281886107fe565b95821660a0850152509290921660c0909101525095945050505050565b80356001600160a01b03811681146108b657600080fd5b919050565b600080604083850312156108ce57600080fd5b6108d78361089f565b91506108e56020840161089f565b90509250929050565b60006020828403121561090057600080fd5b6109098261089f565b9392505050565b60608101818360005b60038110156109415781516001600160a01b0316835260209283019290910190600101610919565b50505092915050565b634e487b7160e01b600052602160045260246000fd5b8181038181111561098157634e487b7160e01b600052601160045260246000fd5b92915050565b634e487b7160e01b600052603260045260246000fdfe7e89c4b1a4e2b51aae84eb1f90e8a34cb792ece5ac5cb63db4830c891220b28da26469706673582212209c2a85b37243a97a5b373a88a7adf3862d956aee256fba24f0dccd596306222c64736f6c63430008140033608060405234801561001057600080fd5b50604051610dc8380380610dc883398101604081905261002f91610054565b600080546001600160a01b0319166001600160a01b0392909216919091179055610084565b60006020828403121561006657600080fd5b81516001600160a01b038116811461007d57600080fd5b9392505050565b610d35806100936000396000f3fe608060405234801561001057600080fd5b506004361061007d5760003560e01c8063b77bf6001161005b578063b77bf600146100f1578063c202fc2414610108578063c362eb7f1461011d578063daa105601461012557600080fd5b806327506f531461008257806333ea3dc8146100a0578063b4a99a4e146100c6575b600080fd5b61008a610138565b604051610097919061086c565b60405180910390f35b6100b36100ae366004610937565b610384565b6040516100979796959493929190610950565b6000546100d9906001600160a01b031681565b6040516001600160a01b039091168152602001610097565b6100fa60015481565b604051908152602001610097565b61011b610116366004610a6f565b61054e565b005b6001546100fa565b6100b3610133366004610937565b6106cb565b6060600060015467ffffffffffffffff811115610157576101576109cc565b6040519080825280602002602001820160405280156101bd57816020015b6040805160e0810182526000808252602080830182905292820181905260608083018290526080830181905260a083015260c082015282526000199092019101816101755790505b50905060005b60015481101561037e57600081815260026020818152604092839020835160e0810185528154815260018201546001600160a01b039081169382019390935292810154909116928201929092526003820154606082015260048201805491929160808401919061023290610b06565b80601f016020809104026020016040519081016040528092919081815260200182805461025e90610b06565b80156102ab5780601f10610280576101008083540402835291602001916102ab565b820191906000526020600020905b81548152906001019060200180831161028e57829003601f168201915b505050505081526020016005820180546102c490610b06565b80601f01602080910402602001604051908101604052809291908181526020018280546102f090610b06565b801561033d5780601f106103125761010080835404028352916020019161033d565b820191906000526020600020905b81548152906001019060200180831161032057829003601f168201915b5050505050815260200160068201548152505082828151811061036257610362610b3a565b60200260200101819052508061037790610b66565b90506101c3565b50919050565b6000818152600260208181526040808420815160e0810183528154815260018201546001600160a01b03908116948201949094529381015490921690830152600381015460608381019190915260048201805485948594859493849386938493909290916080840191906103f790610b06565b80601f016020809104026020016040519081016040528092919081815260200182805461042390610b06565b80156104705780601f1061044557610100808354040283529160200191610470565b820191906000526020600020905b81548152906001019060200180831161045357829003601f168201915b5050505050815260200160058201805461048990610b06565b80601f01602080910402602001604051908101604052809291908181526020018280546104b590610b06565b80156105025780601f106104d757610100808354040283529160200191610502565b820191906000526020600020905b8154815290600101906020018083116104e557829003601f168201915b50505091835250506006919091015460209182015281519082015160408301516060840151608085015160a086015160c090960151949f939e50919c509a509850919650945092505050565b60015442901580610581575083600260006001805461056d9190610b7f565b815260200190815260200160002060000154145b156106a9576040805160e0810182528881526001600160a01b038089166020808401918252898316848601908152606085018a8152608086018a815260a087018a905260c087018990526001805460009081526002958690529890982087518155945197850180549887166001600160a01b0319998a16179055915192840180549390951692909616919091179092559251600384015551909190600482019061062b9082610be7565b5060a082015160058201906106409082610be7565b5060c091909101516006909101556001805490600061065e83610b66565b91905055507f6ed33735d35afab24c9e528c8acb867ca8006c27e3369ba46090b6005244130c87878787878760405161069c96959493929190610ca7565b60405180910390a16106c2565b6040516347bc253b60e01b815260040160405180910390fd5b50505050505050565b60026020819052600091825260409091208054600182015492820154600383015460048401805493956001600160a01b039081169593169391929161070f90610b06565b80601f016020809104026020016040519081016040528092919081815260200182805461073b90610b06565b80156107885780601f1061075d57610100808354040283529160200191610788565b820191906000526020600020905b81548152906001019060200180831161076b57829003601f168201915b50505050509080600501805461079d90610b06565b80601f01602080910402602001604051908101604052809291908181526020018280546107c990610b06565b80156108165780601f106107eb57610100808354040283529160200191610816565b820191906000526020600020905b8154815290600101906020018083116107f957829003601f168201915b5050505050908060060154905087565b6000815180845260005b8181101561084c57602081850181015186830182015201610830565b506000602082860101526020601f19601f83011685010191505092915050565b60006020808301818452808551808352604092508286019150828160051b87010184880160005b8381101561092957888303603f19018552815180518452878101516001600160a01b03908116898601528782015116878501526060808201519085015260808082015160e082870181905291906108ec83880182610826565b9250505060a080830151868303828801526109078382610826565b60c0948501519790940196909652505094870194925090860190600101610893565b509098975050505050505050565b60006020828403121561094957600080fd5b5035919050565b8781526001600160a01b038781166020830152861660408201526060810185905260e06080820181905260009061098990830186610826565b82810360a084015261099b8186610826565b9150508260c083015298975050505050505050565b80356001600160a01b03811681146109c757600080fd5b919050565b634e487b7160e01b600052604160045260246000fd5b600082601f8301126109f357600080fd5b813567ffffffffffffffff80821115610a0e57610a0e6109cc565b604051601f8301601f19908116603f01168101908282118183101715610a3657610a366109cc565b81604052838152866020858801011115610a4f57600080fd5b836020870160208301376000602085830101528094505050505092915050565b60008060008060008060c08789031215610a8857600080fd5b86359550610a98602088016109b0565b9450610aa6604088016109b0565b935060608701359250608087013567ffffffffffffffff80821115610aca57600080fd5b610ad68a838b016109e2565b935060a0890135915080821115610aec57600080fd5b50610af989828a016109e2565b9150509295509295509295565b600181811c90821680610b1a57607f821691505b60208210810361037e57634e487b7160e01b600052602260045260246000fd5b634e487b7160e01b600052603260045260246000fd5b634e487b7160e01b600052601160045260246000fd5b600060018201610b7857610b78610b50565b5060010190565b81810381811115610b9257610b92610b50565b92915050565b601f821115610be257600081815260208120601f850160051c81016020861015610bbf5750805b601f850160051c820191505b81811015610bde57828155600101610bcb565b5050505b505050565b815167ffffffffffffffff811115610c0157610c016109cc565b610c1581610c0f8454610b06565b84610b98565b602080601f831160018114610c4a5760008415610c325750858301515b600019600386901b1c1916600185901b178555610bde565b600085815260208120601f198616915b82811015610c7957888601518255948401946001909101908401610c5a565b5085821015610c975787850151600019600388901b60f8161c191681555b5050505050600190811b01905550565b8681526001600160a01b038681166020830152851660408201526060810184905260c060808201819052600090610ce090830185610826565b82810360a0840152610cf28185610826565b999850505050505050505056fea2646970667358221220c31c1d8a9069df752989fa59dbdb9080412a40e4a8c5c8f202364ec6b625563164736f6c63430008140033",
    "linkReferences": {}
  },
  "methodIdentifiers": {
    "getBatchIDStatus()": "d2f3fcc7",
    "getCommodityInfo()": "2a3aed95",
    "getWDC()": "abb428a6",
    "pickCommodity(address)": "a375be11",
    "receivedCommodity(address)": "3e7d2baa",
    "receivedDtoC(address)": "c8f5f189",
    "receivedWtoD(address)": "93a668b7",
    "sendDtoC(address,address)": "2f1d7588",
    "sendWtoD(address,address)": "f5c0e383",
    "updateTransporterArray(address)": "aab3a9d6"
  },
  "id": 0
}