{
  "abi": [
    {
      "inputs": [],
      "name": "forever",
      "outputs": [],
      "stateMutability": "nonpayable",
      "type": "function"
    },
    {
      "inputs": [],
      "name": "i",
      "outputs": [
        {
          "internalType": "uint256",
          "name": "",
          "type": "uint256"
        }
      ],
      "stateMutability": "view",
      "type": "function"
    }
  ],
  "bytecode": {
    "object": "0x60806040526000805534801561001457600080fd5b5060cf806100236000396000f3fe6080604052348015600f57600080fd5b506004361060325760003560e01c80639ff9a603146037578063e5aa3d5814603f575b600080fd5b603d6059565b005b604760005481565b60405190815260200160405180910390f35b6001600080828254606991906073565b9091555060599050565b80820180821115609357634e487b7160e01b600052601160045260246000fd5b9291505056fea26469706673582212206c987a0af622c234f747e06dd4f96386a4bdb5d40408a3f0babe982a7506ad2d64736f6c63430008140033",
    "linkReferences": {}
  },
  "methodIdentifiers": {
    "forever()": "9ff9a603",
    "i()": "e5aa3d58"
  },
  "id": 19
}