{
  "abi": [
    {
      "inputs": [
        {
          "internalType": "address",
          "name": "",
          "type": "address"
        },
        {
          "internalType": "uint256",
          "name": "",
          "type": "uint256"
        }
      ],
      "name": "CommodityDtoC",
      "outputs": [
        {
          "internalType": "address",
          "name": "",
          "type": "address"
        }
      ],
      "stateMutability": "view",
      "type": "function"
    },
    {
      "inputs": [
        {
          "internalType": "address",
          "name": "",
          "type": "address"
        }
      ],
      "name": "CommodityDtoCTxContract",
      "outputs": [
        {
          "internalType": "address",
          "name": "",
          "type": "address"
        }
      ],
      "stateMutability": "view",
      "type": "function"
    },
    {
      "inputs": [
        {
          "internalType": "address",
          "name": "",
          "type": "address"
        },
        {
          "internalType": "uint256",
          "name": "",
          "type": "uint256"
        }
      ],
      "name": "CommoditysAtDistributor",
      "outputs": [
        {
          "internalType": "address",
          "name": "",
          "type": "address"
        }
      ],
      "stateMutability": "view",
      "type": "function"
    },
    {
      "inputs": [
        {
          "internalType": "address",
          "name": "_address",
          "type": "address"
        },
        {
          "internalType": "address",
          "name": "cid",
          "type": "address"
        }
      ],
      "name": "commodityRecievedAtDistributor",
      "outputs": [],
      "stateMutability": "nonpayable",
      "type": "function"
    },
    {
      "inputs": [
        {
          "internalType": "address",
          "name": "_address",
          "type": "address"
        },
        {
          "internalType": "address",
          "name": "transporter",
          "type": "address"
        },
        {
          "internalType": "address",
          "name": "receiver",
          "type": "address"
        }
      ],
      "name": "transferCommodityDtoC",
      "outputs": [],
      "stateMutability": "nonpayable",
      "type": "function"
    }
  ],
  "bytecode": {
    "object": "0x608060405234801561001057600080fd5b506108ec806100206000396000f3fe608060405234801561001057600080fd5b50600436106100575760003560e01c8063215f978c1461005c5780636c58fc6e146100715780637b417761146100845780637cd52fa0146100b3578063de6e81a4146100c6575b600080fd5b61006f61006a3660046103a0565b6100ef565b005b61006f61007f3660046103eb565b61019f565b610097610092366004610424565b610327565b6040516001600160a01b03909116815260200160405180910390f35b6100976100c1366004610424565b61035f565b6100976100d4366004610450565b6002602052600090815260409020546001600160a01b031681565b6000833384846040516101019061037b565b6001600160a01b039485168152928416602084015290831660408301529091166060820152608001604051809103906000f080158015610145573d6000803e3d6000fd5b5033600090815260016020818152604080842080549384018155845281842090920180546001600160a01b039586166001600160a01b03199182168117909255989094168352600290529020805490951617909355505050565b604051631f3e95d560e11b81523360048201526000906001600160a01b03841690633e7d2baa906024016020604051808303816000875af11580156101e8573d6000803e3d6000fd5b505050506040513d601f19601f8201168201806040525081019061020c9190610474565b9050806002036103225733600090815260208181526040808320805460018101825590845291832090910180546001600160a01b0319166001600160a01b03871690811790915581516355da145360e11b81529151909163abb428a69160048083019260609291908290030181865afa15801561028d573d6000803e3d6000fd5b505050506040513d601f19601f820116820180604052508101906102b1919061049d565b516001600160a01b0316146103225760405163d7dcbe3b60e01b81526001600160a01b03848116600483015233602483015283169063d7dcbe3b90604401600060405180830381600087803b15801561030957600080fd5b505af115801561031d573d6000803e3d6000fd5b505050505b505050565b6001602052816000526040600020818154811061034357600080fd5b6000918252602090912001546001600160a01b03169150829050565b6000602052816000526040600020818154811061034357600080fd5b6103868061053183390190565b6001600160a01b038116811461039d57600080fd5b50565b6000806000606084860312156103b557600080fd5b83356103c081610388565b925060208401356103d081610388565b915060408401356103e081610388565b809150509250925092565b600080604083850312156103fe57600080fd5b823561040981610388565b9150602083013561041981610388565b809150509250929050565b6000806040838503121561043757600080fd5b823561044281610388565b946020939093013593505050565b60006020828403121561046257600080fd5b813561046d81610388565b9392505050565b60006020828403121561048657600080fd5b5051919050565b805161049881610388565b919050565b6000606082840312156104af57600080fd5b82601f8301126104be57600080fd5b6040516060810181811067ffffffffffffffff821117156104ef57634e487b7160e01b600052604160045260246000fd5b60405280606084018581111561050457600080fd5b845b81811015610525576105178161048d565b835260209283019201610506565b50919594505050505056fe608060405234801561001057600080fd5b5060405161038638038061038683398101604081905261002f916100b6565b600080546001600160a01b039485166001600160a01b0319918216811790925560018054968616968216969096179095556002805486169091179055600380549284169290941691909117909255600480546001600160a81b0319169290911691909117905561010a565b80516001600160a01b03811681146100b157600080fd5b919050565b600080600080608085870312156100cc57600080fd5b6100d58561009a565b93506100e36020860161009a565b92506100f16040860161009a565b91506100ff6060860161009a565b905092959194509250565b61026d806101196000396000f3fe608060405234801561001057600080fd5b50600436106100415760003560e01c806353157b1a14610046578063c0114d061461005b578063f7addc3e14610075575b600080fd5b6100596100543660046101ee565b610088565b005b610063610136565b60405190815260200160405180910390f35b6100596100833660046101ee565b61015c565b6003546001600160a01b038281169116146100b65760405163c38b258560e01b815260040160405180910390fd5b60048054600160a01b60ff60a01b1982161782556002546040516305e3aeb160e31b81526001600160a01b039283169381019390935281166024830152831690632f1d7588906044015b600060405180830381600087803b15801561011a57600080fd5b505af115801561012e573d6000803e3d6000fd5b505050505050565b600454600090600160a01b900460ff16600281111561015757610157610221565b905090565b6004546001600160a01b0382811691161461018a576040516377c4980160e01b815260040160405180910390fd5b600480546002919060ff60a01b1916600160a01b83021790555060405163c8f5f18960e01b81526001600160a01b03828116600483015283169063c8f5f18990602401610100565b80356001600160a01b03811681146101e957600080fd5b919050565b6000806040838503121561020157600080fd5b61020a836101d2565b9150610218602084016101d2565b90509250929050565b634e487b7160e01b600052602160045260246000fdfea2646970667358221220f5711e6f12bf328ec8ebde82ba5d23843f8f08a9f6526e605cd1e8b5cd24232464736f6c63430008140033a26469706673582212208dceed8359cfe23463ab4508a60c0984c8d344f59066a0c3dc04264215c854ad64736f6c63430008140033",
    "linkReferences": {}
  },
  "methodIdentifiers": {
    "CommodityDtoC(address,uint256)": "7b417761",
    "CommodityDtoCTxContract(address)": "de6e81a4",
    "CommoditysAtDistributor(address,uint256)": "7cd52fa0",
    "commodityRecievedAtDistributor(address,address)": "6c58fc6e",
    "transferCommodityDtoC(address,address,address)": "215f978c"
  },
  "id": 4
}