{
  "abi": [
    {
      "inputs": [],
      "name": "combineStrings",
      "outputs": [
        {
          "internalType": "string",
          "name": "",
          "type": "string"
        }
      ],
      "stateMutability": "pure",
      "type": "function"
    },
    {
      "inputs": [],
      "name": "decodeString",
      "outputs": [
        {
          "internalType": "string",
          "name": "",
          "type": "string"
        }
      ],
      "stateMutability": "pure",
      "type": "function"
    },
    {
      "inputs": [],
      "name": "encodeNumber",
      "outputs": [
        {
          "internalType": "bytes",
          "name": "",
          "type": "bytes"
        }
      ],
      "stateMutability": "pure",
      "type": "function"
    },
    {
      "inputs": [],
      "name": "encodeString",
      "outputs": [
        {
          "internalType": "bytes",
          "name": "",
          "type": "bytes"
        }
      ],
      "stateMutability": "pure",
      "type": "function"
    },
    {
      "inputs": [],
      "name": "encodeStringBytes",
      "outputs": [
        {
          "internalType": "bytes",
          "name": "",
          "type": "bytes"
        }
      ],
      "stateMutability": "pure",
      "type": "function"
    },
    {
      "inputs": [],
      "name": "encodeStringPacked",
      "outputs": [
        {
          "internalType": "bytes",
          "name": "",
          "type": "bytes"
        }
      ],
      "stateMutability": "pure",
      "type": "function"
    },
    {
      "inputs": [],
      "name": "multiDecode",
      "outputs": [
        {
          "internalType": "string",
          "name": "",
          "type": "string"
        },
        {
          "internalType": "string",
          "name": "",
          "type": "string"
        }
      ],
      "stateMutability": "pure",
      "type": "function"
    },
    {
      "inputs": [],
      "name": "multiDecodePacked",
      "outputs": [
        {
          "internalType": "string",
          "name": "",
          "type": "string"
        }
      ],
      "stateMutability": "pure",
      "type": "function"
    },
    {
      "inputs": [],
      "name": "multiEncode",
      "outputs": [
        {
          "internalType": "bytes",
          "name": "",
          "type": "bytes"
        }
      ],
      "stateMutability": "pure",
      "type": "function"
    },
    {
      "inputs": [],
      "name": "multiEncodePacked",
      "outputs": [
        {
          "internalType": "bytes",
          "name": "",
          "type": "bytes"
        }
      ],
      "stateMutability": "pure",
      "type": "function"
    },
    {
      "inputs": [],
      "name": "multiStringCastPacked",
      "outputs": [
        {
          "internalType": "string",
          "name": "",
          "type": "string"
        }
      ],
      "stateMutability": "pure",
      "type": "function"
    },
    {
      "inputs": [
        {
          "internalType": "address",
          "name": "recentWinner",
          "type": "address"
        }
      ],
      "name": "withdraw",
      "outputs": [],
      "stateMutability": "nonpayable",
      "type": "function"
    }
  ],
  "bytecode": {
    "object": "0x608060405234801561001057600080fd5b50610606806100206000396000f3fe608060405234801561001057600080fd5b50600436106100b45760003560e01c8063929b807e11610071578063929b807e1461015d578063a6dc49b814610165578063a77b03601461016d578063b474871814610175578063c452d79b1461017d578063ed5df3651461019357600080fd5b8063114a7610146100b957806315889d1a146101095780632085f4b914610111578063406ec9f21461011957806351cff8d91461014057806360ee46c314610155575b600080fd5b6040805167024349026b7b690960c51b60208201526826b4b9b9903cb7ba9760b91b60288201528151808203601101815260319091019091525b604051610100919061039f565b60405180910390f35b6100f361019b565b6100f36101c4565b60408051808201909152600b81526a736f6d6520737472696e6760a81b60208201526100f3565b61015361014e3660046103b9565b6101e9565b005b6100f3610286565b6100f3610298565b6100f36102b7565b6100f36102ca565b6100f36102d6565b610185610310565b6040516101009291906103e2565b6100f361033c565b6040805160016020820152606091600091015b60408051601f1981840301815291905292915050565b606060006040516020016101ae906a736f6d6520737472696e6760a81b8152600b0190565b6000816001600160a01b03164760405160006040518083038185875af1925050503d8060008114610236576040519150601f19603f3d011682016040523d82523d6000602084013e61023b565b606091505b50509050806102825760405162461bcd60e51b815260206004820152600f60248201526e151c985b9cd9995c8811985a5b1959608a1b604482015260640160405180910390fd5b5050565b606060006102926102d6565b92915050565b606060006102a46102d6565b80602001905181019061029291906104ae565b606060006040516020016101ae906104eb565b606060006102a461033c565b606060006040516020016101ae906a736f6d6520737472696e6760a81b81526b69742773206269676765722160a01b600b82015260170190565b60608060008061031e6102b7565b8060200190518101906103319190610541565b909590945092505050565b606060006040516020016101ae906105a5565b60005b8381101561036a578181015183820152602001610352565b50506000910152565b6000815180845261038b81602086016020860161034f565b601f01601f19169290920160200192915050565b6020815260006103b26020830184610373565b9392505050565b6000602082840312156103cb57600080fd5b81356001600160a01b03811681146103b257600080fd5b6040815260006103f56040830185610373565b82810360208401526104078185610373565b95945050505050565b634e487b7160e01b600052604160045260246000fd5b600082601f83011261043757600080fd5b815167ffffffffffffffff8082111561045257610452610410565b604051601f8301601f19908116603f0116810190828211818310171561047a5761047a610410565b8160405283815286602085880101111561049357600080fd5b6104a484602083016020890161034f565b9695505050505050565b6000602082840312156104c057600080fd5b815167ffffffffffffffff8111156104d757600080fd5b6104e384828501610426565b949350505050565b60408152600061051660408301600b81526a736f6d6520737472696e6760a81b602082015260400190565b828103602093840152600c81526b69742773206269676765722160a01b928101929092525060400190565b6000806040838503121561055457600080fd5b825167ffffffffffffffff8082111561056c57600080fd5b61057886838701610426565b9350602085015191508082111561058e57600080fd5b5061059b85828601610426565b9150509250929050565b60208152600061029260208301600b81526a736f6d6520737472696e6760a81b60208201526040019056fea2646970667358221220a91588898dba6957e3b886927f42c995821415712a9d2fbed8764df338c2f5e964736f6c63430008140033",
    "linkReferences": {}
  },
  "methodIdentifiers": {
    "combineStrings()": "114a7610",
    "decodeString()": "a77b0360",
    "encodeNumber()": "15889d1a",
    "encodeString()": "ed5df365",
    "encodeStringBytes()": "406ec9f2",
    "encodeStringPacked()": "2085f4b9",
    "multiDecode()": "c452d79b",
    "multiDecodePacked()": "929b807e",
    "multiEncode()": "a6dc49b8",
    "multiEncodePacked()": "b4748718",
    "multiStringCastPacked()": "60ee46c3",
    "withdraw(address)": "51cff8d9"
  },
  "id": 38
}