{
  "abi": [
    {
      "inputs": [
        {
          "internalType": "contract IEntryPoint",
          "name": "_entryPoint",
          "type": "address"
        }
      ],
      "stateMutability": "nonpayable",
      "type": "constructor"
    },
    {
      "inputs": [],
      "name": "accountImplementation",
      "outputs": [
        {
          "internalType": "contract SupplyChainAccount",
          "name": "",
          "type": "address"
        }
      ],
      "stateMutability": "view",
      "type": "function"
    },
    {
      "inputs": [
        {
          "internalType": "address",
          "name": "owner",
          "type": "address"
        },
        {
          "internalType": "uint256",
          "name": "salt",
          "type": "uint256"
        }
      ],
      "name": "createAccount",
      "outputs": [
        {
          "internalType": "contract SupplyChainAccount",
          "name": "ret",
          "type": "address"
        }
      ],
      "stateMutability": "nonpayable",
      "type": "function"
    },
    {
      "inputs": [
        {
          "internalType": "address",
          "name": "owner",
          "type": "address"
        },
        {
          "internalType": "uint256",
          "name": "salt",
          "type": "uint256"
        }
      ],
      "name": "getAddress",
      "outputs": [
        {
          "internalType": "address",
          "name": "",
          "type": "address"
        }
      ],
      "stateMutability": "view",
      "type": "function"
    }
  ],
  "bytecode": {
    "object": "0x60a060405234801561001057600080fd5b50604051612d12380380612d1283398101604081905261002f91610088565b8060405161003c9061007b565b6001600160a01b039091168152602001604051809103906000f080158015610068573d6000803e3d6000fd5b506001600160a01b0316608052506100b8565b6123ba8061095883390190565b60006020828403121561009a57600080fd5b81516001600160a01b03811681146100b157600080fd5b9392505050565b6080516108796100df60003960008181604b0152818160ed01526101ba01526108796000f3fe608060405234801561001057600080fd5b50600436106100415760003560e01c806311464fbe146100465780635fbfb9cf146100895780638cb84e181461009c575b600080fd5b61006d7f000000000000000000000000000000000000000000000000000000000000000081565b6040516001600160a01b03909116815260200160405180910390f35b61006d610097366004610295565b6100af565b61006d6100aa366004610295565b61017b565b6000806100bc848461017b565b90506001600160a01b0381163b80156100d757509050610175565b6040516001600160a01b038616602482015284907f00000000000000000000000000000000000000000000000000000000000000009060440160408051601f198184030181529181526020820180516001600160e01b031663189acdbd60e31b1790525161014490610288565b61014f9291906102f1565b8190604051809103906000f590508015801561016f573d6000803e3d6000fd5b50925050505b92915050565b600061024f8260001b6040518060200161019490610288565b601f1982820381018352601f9091011660408190526001600160a01b03871660248201527f00000000000000000000000000000000000000000000000000000000000000009060440160408051601f19818403018152918152602080830180516001600160e01b031663189acdbd60e31b1790529051610216939291016102f1565b60408051601f19818403018152908290526102349291602001610333565b60405160208183030381529060405280519060200120610256565b9392505050565b600061024f8383306000604051836040820152846020820152828152600b8101905060ff815360559020949350505050565b6104e18061036383390190565b600080604083850312156102a857600080fd5b82356001600160a01b03811681146102bf57600080fd5b946020939093013593505050565b60005b838110156102e85781810151838201526020016102d0565b50506000910152565b60018060a01b0383168152604060208201526000825180604084015261031e8160608501602087016102cd565b601f01601f1916919091016060019392505050565b600083516103458184602088016102cd565b8351908301906103598183602088016102cd565b0194935050505056fe60806040526040516104e13803806104e1833981016040819052610022916102de565b61002e82826000610035565b50506103fb565b61003e83610061565b60008251118061004b5750805b1561005c5761005a83836100a1565b505b505050565b61006a816100cd565b6040516001600160a01b038216907fbc7cd75a20ee27fd9adebab32041f755214dbc6bffa90cc0225b39da2e5c2d3b90600090a250565b60606100c683836040518060600160405280602781526020016104ba60279139610180565b9392505050565b6001600160a01b0381163b61013f5760405162461bcd60e51b815260206004820152602d60248201527f455243313936373a206e657720696d706c656d656e746174696f6e206973206e60448201526c1bdd08184818dbdb9d1c9858dd609a1b60648201526084015b60405180910390fd5b7f360894a13ba1a3210667c828492db98dca3e2076cc3735a920a3ca505d382bbc80546001600160a01b0319166001600160a01b0392909216919091179055565b6060600080856001600160a01b03168560405161019d91906103ac565b600060405180830381855af49150503d80600081146101d8576040519150601f19603f3d011682016040523d82523d6000602084013e6101dd565b606091505b5090925090506101ef868383876101f9565b9695505050505050565b60608315610268578251600003610261576001600160a01b0385163b6102615760405162461bcd60e51b815260206004820152601d60248201527f416464726573733a2063616c6c20746f206e6f6e2d636f6e74726163740000006044820152606401610136565b5081610272565b610272838361027a565b949350505050565b81511561028a5781518083602001fd5b8060405162461bcd60e51b815260040161013691906103c8565b634e487b7160e01b600052604160045260246000fd5b60005b838110156102d55781810151838201526020016102bd565b50506000910152565b600080604083850312156102f157600080fd5b82516001600160a01b038116811461030857600080fd5b60208401519092506001600160401b038082111561032557600080fd5b818501915085601f83011261033957600080fd5b81518181111561034b5761034b6102a4565b604051601f8201601f19908116603f01168101908382118183101715610373576103736102a4565b8160405282815288602084870101111561038c57600080fd5b61039d8360208301602088016102ba565b80955050505050509250929050565b600082516103be8184602087016102ba565b9190910192915050565b60208152600082518060208401526103e78160408501602087016102ba565b601f01601f19169190910160400192915050565b60b1806104096000396000f3fe608060405236601057600e6013565b005b600e5b601f601b6021565b6058565b565b600060537f360894a13ba1a3210667c828492db98dca3e2076cc3735a920a3ca505d382bbc546001600160a01b031690565b905090565b3660008037600080366000845af43d6000803e8080156076573d6000f35b3d6000fdfea26469706673582212202e4b599e7fae1fa5d9d95434f23ae1f5e37ee1cfcdf51fe7d93f6513d67423ec64736f6c63430008140033416464726573733a206c6f772d6c6576656c2064656c65676174652063616c6c206661696c6564a26469706673582212208ee0ad7165b1320b434cbee749bc1a77cf4e3f36ac556ac2941c0ce6fbdf583e64736f6c6343000814003360c0604052306080523480156200001557600080fd5b50604051620023ba380380620023ba833981016040819052620000389162000118565b6001600160a01b03811660a0526200004f62000056565b506200014a565b600054610100900460ff1615620000c35760405162461bcd60e51b815260206004820152602760248201527f496e697469616c697a61626c653a20636f6e747261637420697320696e697469604482015266616c697a696e6760c81b606482015260840160405180910390fd5b60005460ff908116101562000116576000805460ff191660ff9081179091556040519081527f7f26b83ff96e1f2b6a682f133852f6798a09c465da95921460cefb38474024989060200160405180910390a15b565b6000602082840312156200012b57600080fd5b81516001600160a01b03811681146200014357600080fd5b9392505050565b60805160a0516121fd620001bd60003960008181610325015281816109080152818161098901528181610c9101528181610f6201528181610f9c0152818161123d015261154b01526000818161080b0152818161084b01528181610a4c01528181610a8c0152610b1f01526121fd6000f3fe60806040526004361061012d5760003560e01c80634f1ef286116100ab578063bc197c811161006f578063bc197c8114610369578063c399ec8814610398578063c4d66de8146103ad578063cc3beaec146103cd578063d087d288146103ed578063f23a6e611461040257600080fd5b80634f1ef286146102b057806352d1902d146102c35780638da5cb5b146102d8578063b0d691fe14610316578063b61d27f61461034957600080fd5b80633659cfe6116100f25780633659cfe61461021a5780633a871cdd1461023a5780634a58db19146102685780634d44560d146102705780634d8131201461029057600080fd5b806223de291461013957806301ffc9a714610160578063150b7a021461019557806318dfb3c7146101da57806329f57107146101fa57600080fd5b3661013457005b600080fd5b34801561014557600080fd5b5061015e610154366004611a81565b5050505050505050565b005b34801561016c57600080fd5b5061018061017b366004611b31565b61042f565b60405190151581526020015b60405180910390f35b3480156101a157600080fd5b506101c16101b0366004611b5b565b630a85bd0160e11b95945050505050565b6040516001600160e01b0319909116815260200161018c565b3480156101e657600080fd5b5061015e6101f5366004611c11565b610481565b34801561020657600080fd5b50610180610215366004611d1e565b6107e3565b34801561022657600080fd5b5061015e610235366004611d64565b610801565b34801561024657600080fd5b5061025a610255366004611d81565b6108e0565b60405190815260200161018c565b61015e610906565b34801561027c57600080fd5b5061015e61028b366004611dd4565b61097f565b34801561029c57600080fd5b5061015e6102ab366004611d64565b610a10565b61015e6102be366004611e00565b610a42565b3480156102cf57600080fd5b5061025a610b12565b3480156102e457600080fd5b506000546102fe906201000090046001600160a01b031681565b6040516001600160a01b03909116815260200161018c565b34801561032257600080fd5b507f00000000000000000000000000000000000000000000000000000000000000006102fe565b34801561035557600080fd5b5061015e610364366004611e39565b610bc5565b34801561037557600080fd5b506101c1610384366004611e88565b63bc197c8160e01b98975050505050505050565b3480156103a457600080fd5b5061025a610c71565b3480156103b957600080fd5b5061015e6103c8366004611d64565b610d02565b3480156103d957600080fd5b5061015e6103e8366004611f25565b610e14565b3480156103f957600080fd5b5061025a610f3b565b34801561040e57600080fd5b506101c161041d366004611f48565b63f23a6e6160e01b9695505050505050565b60006001600160e01b03198216630a85bd0160e11b148061046057506001600160e01b03198216630271189760e51b145b8061047b57506001600160e01b031982166301ffc9a760e01b145b92915050565b33600090815260016020819052604090912054600160a01b900460ff16146105005760405162461bcd60e51b815260206004820152602760248201527f4f6e6c7920737570706c696572732063616e20616363657373207468697320666044820152663ab731ba34b7b760c91b60648201526084015b60405180910390fd5b610508610f91565b82811461054d5760405162461bcd60e51b815260206004820152601360248201527277726f6e67206172726179206c656e6774687360681b60448201526064016104f7565b60005b838110156107dc57600483838381811061056c5761056c611fc3565b905060200281019061057e9190611fd9565b9050101580156105d95750601160f91b8383838181106105a0576105a0611fc3565b90506020028101906105b29190611fd9565b60008181106105c3576105c3611fc3565b9050013560f81c60f81b6001600160f81b031916145b80156106305750607560f91b8383838181106105f7576105f7611fc3565b90506020028101906106099190611fd9565b600181811061061a5761061a611fc3565b9050013560f81c60f81b6001600160f81b031916145b80156106875750603d60f81b83838381811061064e5761064e611fc3565b90506020028101906106609190611fd9565b600281811061067157610671611fc3565b9050013560f81c60f81b6001600160f81b031916145b80156106de5750602360f91b8383838181106106a5576106a5611fc3565b90506020028101906106b79190611fd9565b60038181106106c8576106c8611fc3565b9050013560f81c60f81b6001600160f81b031916145b156107405733600090815260016020526040902054600160a81b900460ff166107405760405162461bcd60e51b8152602060048201526014602482015273155cd95c881a5cc81b9bdd081d995c9a599a595960621b60448201526064016104f7565b6107ca85858381811061075557610755611fc3565b905060200201602081019061076a9190611d64565b600085858581811061077e5761077e611fc3565b90506020028101906107909190611fd9565b8080601f01602080910402602001604051908101604052809392919081815260200183838082843760009201919091525061102692505050565b806107d48161201f565b915050610550565b5050505050565b6000306107f08484611096565b6001600160a01b0316149392505050565b6001600160a01b037f00000000000000000000000000000000000000000000000000000000000000001630036108495760405162461bcd60e51b81526004016104f790612046565b7f00000000000000000000000000000000000000000000000000000000000000006001600160a01b0316610892600080516020612181833981519152546001600160a01b031690565b6001600160a01b0316146108b85760405162461bcd60e51b81526004016104f790612092565b6108c1816110ba565b604080516000808252602082019092526108dd918391906110c2565b50565b60006108ea611232565b6108f484846112aa565b90506108ff82611474565b9392505050565b7f000000000000000000000000000000000000000000000000000000000000000060405163b760faf960e01b81523060048201526001600160a01b03919091169063b760faf99034906024016000604051808303818588803b15801561096b57600080fd5b505af11580156107dc573d6000803e3d6000fd5b6109876114c1565b7f000000000000000000000000000000000000000000000000000000000000000060405163040b850f60e31b81526001600160a01b03848116600483015260248201849052919091169063205c287890604401600060405180830381600087803b1580156109f457600080fd5b505af1158015610a08573d6000803e3d6000fd5b505050505050565b610a186114c1565b6001600160a01b03166000908152600160205260409020805460ff60a81b1916600160a81b179055565b6001600160a01b037f0000000000000000000000000000000000000000000000000000000000000000163003610a8a5760405162461bcd60e51b81526004016104f790612046565b7f00000000000000000000000000000000000000000000000000000000000000006001600160a01b0316610ad3600080516020612181833981519152546001600160a01b031690565b6001600160a01b031614610af95760405162461bcd60e51b81526004016104f790612092565b610b02826110ba565b610b0e828260016110c2565b5050565b6000306001600160a01b037f00000000000000000000000000000000000000000000000000000000000000001614610bb25760405162461bcd60e51b815260206004820152603860248201527f555550535570677261646561626c653a206d757374206e6f742062652063616c60448201527f6c6564207468726f7567682064656c656761746563616c6c000000000000000060648201526084016104f7565b5060008051602061218183398151915290565b610bcd610f91565b33600090815260016020526040902054600160a81b900460ff16610c2a5760405162461bcd60e51b8152602060048201526014602482015273155cd95c881a5cc81b9bdd081d995c9a599a595960621b60448201526064016104f7565b610c6b848484848080601f01602080910402602001604051908101604052809392919081815260200183838082843760009201919091525061102692505050565b50505050565b6040516370a0823160e01b81523060048201526000906001600160a01b037f000000000000000000000000000000000000000000000000000000000000000016906370a08231906024015b602060405180830381865afa158015610cd9573d6000803e3d6000fd5b505050506040513d601f19601f82011682018060405250810190610cfd91906120de565b905090565b600054610100900460ff1615808015610d225750600054600160ff909116105b80610d3c5750303b158015610d3c575060005460ff166001145b610d9f5760405162461bcd60e51b815260206004820152602e60248201527f496e697469616c697a61626c653a20636f6e747261637420697320616c72656160448201526d191e481a5b9a5d1a585b1a5e995960921b60648201526084016104f7565b6000805460ff191660011790558015610dc2576000805461ff0019166101001790555b610dcb82611518565b8015610b0e576000805461ff0019169055604051600181527f7f26b83ff96e1f2b6a682f133852f6798a09c465da95921460cefb38474024989060200160405180910390a15050565b336000908152600160205260409020546001600160a01b031615610e735760405162461bcd60e51b81526020600482015260166024820152754163636f756e7420616c72656164792065786973747360501b60448201526064016104f7565b8060ff1660011480610e8857508060ff166002145b610ec35760405162461bcd60e51b815260206004820152600c60248201526b496e76616c696420726f6c6560a01b60448201526064016104f7565b604080516060810182523380825260ff9384166020808401918252600084860181815293815260019091529390932091518254935191511515600160a81b0260ff60a81b1992909516600160a01b026001600160a81b03199094166001600160a01b0391909116179290921791909116919091179055565b604051631aab3f0d60e11b8152306004820152600060248201819052906001600160a01b037f000000000000000000000000000000000000000000000000000000000000000016906335567e1a90604401610cbc565b336001600160a01b037f0000000000000000000000000000000000000000000000000000000000000000161480610fd857506000546201000090046001600160a01b031633145b6110245760405162461bcd60e51b815260206004820181905260248201527f6163636f756e743a206e6f74204f776e6572206f7220456e747279506f696e7460448201526064016104f7565b565b600080846001600160a01b03168484604051611042919061211b565b60006040518083038185875af1925050503d806000811461107f576040519150601f19603f3d011682016040523d82523d6000602084013e611084565b606091505b5091509150816107dc57805160208201fd5b60008060006110a58585611594565b915091506110b2816115d9565b509392505050565b6108dd6114c1565b7f4910fdfa16fed3260ed0e7147f7cc6da11a60208b5b9406d12a635614ffd91435460ff16156110fa576110f583611723565b505050565b826001600160a01b03166352d1902d6040518163ffffffff1660e01b8152600401602060405180830381865afa925050508015611154575060408051601f3d908101601f19168201909252611151918101906120de565b60015b6111b75760405162461bcd60e51b815260206004820152602e60248201527f45524331393637557067726164653a206e657720696d706c656d656e7461746960448201526d6f6e206973206e6f74205555505360901b60648201526084016104f7565b60008051602061218183398151915281146112265760405162461bcd60e51b815260206004820152602960248201527f45524331393637557067726164653a20756e737570706f727465642070726f786044820152681a58589b195555525160ba1b60648201526084016104f7565b506110f58383836117bf565b336001600160a01b037f000000000000000000000000000000000000000000000000000000000000000016146110245760405162461bcd60e51b815260206004820152601c60248201527f6163636f756e743a206e6f742066726f6d20456e747279506f696e740000000060448201526064016104f7565b600080611304836040517f19457468657265756d205369676e6564204d6573736167653a0a3332000000006020820152603c8101829052600090605c01604051602081830303815290604052805190602001209050919050565b90506000611356611319610140870187611fd9565b8080601f01602080910402602001604051908101604052809392919081815260200183838082843760009201919091525086939250506110969050565b33600090815260016020526040902054909150600160a81b900460ff161561144e5733600090815260016020819052604090912054600160a01b900460ff1690036113f7576000546001600160a01b038281166201000090920416146113f25760405162461bcd60e51b8152602060048201526011602482015270496e76616c6964207369676e617475726560781b60448201526064016104f7565b611443565b6001600160a01b03811633146114435760405162461bcd60e51b8152602060048201526011602482015270496e76616c6964207369676e617475726560781b60448201526064016104f7565b60009250505061047b565b6000546001600160a01b038281166201000090920416146114435760019250505061047b565b80156108dd57604051600090339060001990849084818181858888f193505050503d80600081146107dc576040519150601f19603f3d011682016040523d82523d6000602084013e6107dc565b6000546201000090046001600160a01b03163314806114df57503330145b6110245760405162461bcd60e51b815260206004820152600a60248201526937b7363c9037bbb732b960b11b60448201526064016104f7565b6000805462010000600160b01b031916620100006001600160a01b038481168202929092178084556040519190048216927f0000000000000000000000000000000000000000000000000000000000000000909216917f47e55c76e7a6f1fd8996a1da8008c1ea29699cca35e7bcd057f2dec313b6e5de91a350565b60008082516041036115ca5760208301516040840151606085015160001a6115be878285856117e4565b945094505050506115d2565b506000905060025b9250929050565b60008160048111156115ed576115ed612137565b036115f55750565b600181600481111561160957611609612137565b036116565760405162461bcd60e51b815260206004820152601860248201527f45434453413a20696e76616c6964207369676e6174757265000000000000000060448201526064016104f7565b600281600481111561166a5761166a612137565b036116b75760405162461bcd60e51b815260206004820152601f60248201527f45434453413a20696e76616c6964207369676e6174757265206c656e6774680060448201526064016104f7565b60038160048111156116cb576116cb612137565b036108dd5760405162461bcd60e51b815260206004820152602260248201527f45434453413a20696e76616c6964207369676e6174757265202773272076616c604482015261756560f01b60648201526084016104f7565b6001600160a01b0381163b6117905760405162461bcd60e51b815260206004820152602d60248201527f455243313936373a206e657720696d706c656d656e746174696f6e206973206e60448201526c1bdd08184818dbdb9d1c9858dd609a1b60648201526084016104f7565b60008051602061218183398151915280546001600160a01b0319166001600160a01b0392909216919091179055565b6117c8836118a8565b6000825111806117d55750805b156110f557610c6b83836118e8565b6000807f7fffffffffffffffffffffffffffffff5d576e7357a4501ddfe92f46681b20a083111561181b575060009050600361189f565b6040805160008082526020820180845289905260ff881692820192909252606081018690526080810185905260019060a0016020604051602081039080840390855afa15801561186f573d6000803e3d6000fd5b5050604051601f1901519150506001600160a01b0381166118985760006001925092505061189f565b9150600090505b94509492505050565b6118b181611723565b6040516001600160a01b038216907fbc7cd75a20ee27fd9adebab32041f755214dbc6bffa90cc0225b39da2e5c2d3b90600090a250565b60606108ff83836040518060600160405280602781526020016121a1602791396060600080856001600160a01b031685604051611925919061211b565b600060405180830381855af49150503d8060008114611960576040519150601f19603f3d011682016040523d82523d6000602084013e611965565b606091505b509150915061197686838387611980565b9695505050505050565b606083156119ef5782516000036119e8576001600160a01b0385163b6119e85760405162461bcd60e51b815260206004820152601d60248201527f416464726573733a2063616c6c20746f206e6f6e2d636f6e747261637400000060448201526064016104f7565b50816119f9565b6119f98383611a01565b949350505050565b815115611a115781518083602001fd5b8060405162461bcd60e51b81526004016104f7919061214d565b6001600160a01b03811681146108dd57600080fd5b60008083601f840112611a5257600080fd5b5081356001600160401b03811115611a6957600080fd5b6020830191508360208285010111156115d257600080fd5b60008060008060008060008060c0898b031215611a9d57600080fd5b8835611aa881611a2b565b97506020890135611ab881611a2b565b96506040890135611ac881611a2b565b95506060890135945060808901356001600160401b0380821115611aeb57600080fd5b611af78c838d01611a40565b909650945060a08b0135915080821115611b1057600080fd5b50611b1d8b828c01611a40565b999c989b5096995094979396929594505050565b600060208284031215611b4357600080fd5b81356001600160e01b0319811681146108ff57600080fd5b600080600080600060808688031215611b7357600080fd5b8535611b7e81611a2b565b94506020860135611b8e81611a2b565b93506040860135925060608601356001600160401b03811115611bb057600080fd5b611bbc88828901611a40565b969995985093965092949392505050565b60008083601f840112611bdf57600080fd5b5081356001600160401b03811115611bf657600080fd5b6020830191508360208260051b85010111156115d257600080fd5b60008060008060408587031215611c2757600080fd5b84356001600160401b0380821115611c3e57600080fd5b611c4a88838901611bcd565b90965094506020870135915080821115611c6357600080fd5b50611c7087828801611bcd565b95989497509550505050565b634e487b7160e01b600052604160045260246000fd5b600082601f830112611ca357600080fd5b81356001600160401b0380821115611cbd57611cbd611c7c565b604051601f8301601f19908116603f01168101908282118183101715611ce557611ce5611c7c565b81604052838152866020858801011115611cfe57600080fd5b836020870160208301376000602085830101528094505050505092915050565b60008060408385031215611d3157600080fd5b8235915060208301356001600160401b03811115611d4e57600080fd5b611d5a85828601611c92565b9150509250929050565b600060208284031215611d7657600080fd5b81356108ff81611a2b565b600080600060608486031215611d9657600080fd5b83356001600160401b03811115611dac57600080fd5b84016101608187031215611dbf57600080fd5b95602085013595506040909401359392505050565b60008060408385031215611de757600080fd5b8235611df281611a2b565b946020939093013593505050565b60008060408385031215611e1357600080fd5b8235611e1e81611a2b565b915060208301356001600160401b03811115611d4e57600080fd5b60008060008060608587031215611e4f57600080fd5b8435611e5a81611a2b565b93506020850135925060408501356001600160401b03811115611e7c57600080fd5b611c7087828801611a40565b60008060008060008060008060a0898b031215611ea457600080fd5b8835611eaf81611a2b565b97506020890135611ebf81611a2b565b965060408901356001600160401b0380821115611edb57600080fd5b611ee78c838d01611bcd565b909850965060608b0135915080821115611f0057600080fd5b611f0c8c838d01611bcd565b909650945060808b0135915080821115611b1057600080fd5b600060208284031215611f3757600080fd5b813560ff811681146108ff57600080fd5b60008060008060008060a08789031215611f6157600080fd5b8635611f6c81611a2b565b95506020870135611f7c81611a2b565b9450604087013593506060870135925060808701356001600160401b03811115611fa557600080fd5b611fb189828a01611a40565b979a9699509497509295939492505050565b634e487b7160e01b600052603260045260246000fd5b6000808335601e19843603018112611ff057600080fd5b8301803591506001600160401b0382111561200a57600080fd5b6020019150368190038213156115d257600080fd5b60006001820161203f57634e487b7160e01b600052601160045260246000fd5b5060010190565b6020808252602c908201527f46756e6374696f6e206d7573742062652063616c6c6564207468726f7567682060408201526b19195b1959d85d1958d85b1b60a21b606082015260800190565b6020808252602c908201527f46756e6374696f6e206d7573742062652063616c6c6564207468726f7567682060408201526b6163746976652070726f787960a01b606082015260800190565b6000602082840312156120f057600080fd5b5051919050565b60005b838110156121125781810151838201526020016120fa565b50506000910152565b6000825161212d8184602087016120f7565b9190910192915050565b634e487b7160e01b600052602160045260246000fd5b602081526000825180602084015261216c8160408501602087016120f7565b601f01601f1916919091016040019291505056fe360894a13ba1a3210667c828492db98dca3e2076cc3735a920a3ca505d382bbc416464726573733a206c6f772d6c6576656c2064656c65676174652063616c6c206661696c6564a2646970667358221220655859d2a9994c36407eab82ec8ede9b0298d859394bc1f8f7f8c7b7013b16b564736f6c63430008140033",
    "linkReferences": {}
  },
  "methodIdentifiers": {
    "accountImplementation()": "11464fbe",
    "createAccount(address,uint256)": "5fbfb9cf",
    "getAddress(address,uint256)": "8cb84e18"
  },
  "id": 29
}