{
  "abi": [
    {
      "inputs": [
        {
          "internalType": "address",
          "name": "supplyChainContract",
          "type": "address"
        }
      ],
      "stateMutability": "nonpayable",
      "type": "constructor"
    },
    {
      "anonymous": false,
      "inputs": [
        {
          "indexed": true,
          "internalType": "address",
          "name": "user",
          "type": "address"
        },
        {
          "indexed": false,
          "internalType": "uint256",
          "name": "amount",
          "type": "uint256"
        }
      ],
      "name": "BalanceAdded",
      "type": "event"
    },
    {
      "anonymous": false,
      "inputs": [
        {
          "indexed": true,
          "internalType": "address",
          "name": "user",
          "type": "address"
        },
        {
          "indexed": false,
          "internalType": "uint256",
          "name": "amount",
          "type": "uint256"
        }
      ],
      "name": "BalanceUsed",
      "type": "event"
    },
    {
      "anonymous": false,
      "inputs": [
        {
          "indexed": true,
          "internalType": "address",
          "name": "previousOwner",
          "type": "address"
        },
        {
          "indexed": true,
          "internalType": "address",
          "name": "newOwner",
          "type": "address"
        }
      ],
      "name": "OwnershipTransferred",
      "type": "event"
    },
    {
      "inputs": [
        {
          "internalType": "uint256",
          "name": "amount",
          "type": "uint256"
        }
      ],
      "name": "addToBalance",
      "outputs": [],
      "stateMutability": "payable",
      "type": "function"
    },
    {
      "inputs": [],
      "name": "owner",
      "outputs": [
        {
          "internalType": "address",
          "name": "",
          "type": "address"
        }
      ],
      "stateMutability": "view",
      "type": "function"
    },
    {
      "inputs": [],
      "name": "renounceOwnership",
      "outputs": [],
      "stateMutability": "nonpayable",
      "type": "function"
    },
    {
      "inputs": [
        {
          "internalType": "address",
          "name": "newOwner",
          "type": "address"
        }
      ],
      "name": "transferOwnership",
      "outputs": [],
      "stateMutability": "nonpayable",
      "type": "function"
    },
    {
      "inputs": [
        {
          "internalType": "address",
          "name": "user",
          "type": "address"
        },
        {
          "internalType": "uint256",
          "name": "amount",
          "type": "uint256"
        }
      ],
      "name": "useBalanceFromContract",
      "outputs": [],
      "stateMutability": "nonpayable",
      "type": "function"
    }
  ],
  "bytecode": {
    "object": "0x608060405234801561001057600080fd5b5060405161058c38038061058c83398101604081905261002f916100ad565b6100383361005d565b600280546001600160a01b0319166001600160a01b03929092169190911790556100dd565b600080546001600160a01b038381166001600160a01b0319831681178455604051919092169283917f8be0079c531659141344cd1fd0a4f28419497f9722a3daafe3b4186f6b6457e09190a35050565b6000602082840312156100bf57600080fd5b81516001600160a01b03811681146100d657600080fd5b9392505050565b6104a0806100ec6000396000f3fe60806040526004361061004a5760003560e01c8063715018a61461004f5780638a19e355146100665780638da5cb5b14610079578063a0b7b9d2146100a5578063f2fde38b146100c5575b600080fd5b34801561005b57600080fd5b506100646100e5565b005b6100646100743660046103a7565b6100f9565b34801561008557600080fd5b50600054604080516001600160a01b039092168252519081900360200190f35b3480156100b157600080fd5b506100646100c03660046103dc565b6101aa565b3480156100d157600080fd5b506100646100e0366004610406565b6101b8565b6100ed610231565b6100f7600061028b565b565b8034101561014e5760405162461bcd60e51b815260206004820152601960248201527f4e6f7420656e6f7567682076616c75652070726f76696465640000000000000060448201526064015b60405180910390fd5b336000908152600160205260408120805483929061016d90849061043e565b909155505060405181815233907fe96dd7a15a3974e8e7d5eb80de2cb6fd69907a1ee089170cd976cfffaedfa8ac9060200160405180910390a250565b6101b482826102db565b5050565b6101c0610231565b6001600160a01b0381166102255760405162461bcd60e51b815260206004820152602660248201527f4f776e61626c653a206e6577206f776e657220697320746865207a65726f206160448201526564647265737360d01b6064820152608401610145565b61022e8161028b565b50565b6000546001600160a01b031633146100f75760405162461bcd60e51b815260206004820181905260248201527f4f776e61626c653a2063616c6c6572206973206e6f7420746865206f776e65726044820152606401610145565b600080546001600160a01b038381166001600160a01b0319831681178455604051919092169283917f8be0079c531659141344cd1fd0a4f28419497f9722a3daafe3b4186f6b6457e09190a35050565b6001600160a01b0382166000908152600160205260409020548111156103385760405162461bcd60e51b81526020600482015260126024820152714e6f7420656e6f7567682062616c616e636560701b6044820152606401610145565b6001600160a01b03821660009081526001602052604081208054839290610360908490610457565b90915550506040518181526001600160a01b038316907fc7bee13c8191664cd30e771f584a524118ce837070d64becac6e9b0d8677c52d9060200160405180910390a25050565b6000602082840312156103b957600080fd5b5035919050565b80356001600160a01b03811681146103d757600080fd5b919050565b600080604083850312156103ef57600080fd5b6103f8836103c0565b946020939093013593505050565b60006020828403121561041857600080fd5b610421826103c0565b9392505050565b634e487b7160e01b600052601160045260246000fd5b8082018082111561045157610451610428565b92915050565b818103818111156104515761045161042856fea2646970667358221220f96cd52d3e4bec224240ca2e9e6ef08a31e9dd9c523147a52d3039a1ca46134d64736f6c63430008140033",
    "linkReferences": {}
  },
  "methodIdentifiers": {
    "addToBalance(uint256)": "8a19e355",
    "owner()": "8da5cb5b",
    "renounceOwnership()": "715018a6",
    "transferOwnership(address)": "f2fde38b",
    "useBalanceFromContract(address,uint256)": "a0b7b9d2"
  },
  "id": 9
}