{
  "abi": [
    {
      "inputs": [
        {
          "internalType": "address",
          "name": "selectorsAndSignaturesAddress",
          "type": "address"
        }
      ],
      "stateMutability": "nonpayable",
      "type": "constructor"
    },
    {
      "inputs": [
        {
          "internalType": "bytes",
          "name": "callData",
          "type": "bytes"
        }
      ],
      "name": "callFunctionDirectly",
      "outputs": [
        {
          "internalType": "bytes4",
          "name": "",
          "type": "bytes4"
        },
        {
          "internalType": "bool",
          "name": "",
          "type": "bool"
        }
      ],
      "stateMutability": "nonpayable",
      "type": "function"
    },
    {
      "inputs": [
        {
          "internalType": "address",
          "name": "someAddress",
          "type": "address"
        },
        {
          "internalType": "uint256",
          "name": "amount",
          "type": "uint256"
        }
      ],
      "name": "callTransferFunctionDirectlyThree",
      "outputs": [
        {
          "internalType": "bytes4",
          "name": "",
          "type": "bytes4"
        },
        {
          "internalType": "bool",
          "name": "",
          "type": "bool"
        }
      ],
      "stateMutability": "nonpayable",
      "type": "function"
    },
    {
      "inputs": [],
      "name": "s_selectorsAndSignaturesAddress",
      "outputs": [
        {
          "internalType": "address",
          "name": "",
          "type": "address"
        }
      ],
      "stateMutability": "view",
      "type": "function"
    },
    {
      "inputs": [],
      "name": "staticCallFunctionDirectly",
      "outputs": [
        {
          "internalType": "bytes4",
          "name": "",
          "type": "bytes4"
        },
        {
          "internalType": "bool",
          "name": "",
          "type": "bool"
        }
      ],
      "stateMutability": "view",
      "type": "function"
    }
  ],
  "bytecode": {
    "object": "0x608060405234801561001057600080fd5b5060405161049338038061049383398101604081905261002f91610054565b600080546001600160a01b0319166001600160a01b0392909216919091179055610084565b60006020828403121561006657600080fd5b81516001600160a01b038116811461007d57600080fd5b9392505050565b610400806100936000396000f3fe608060405234801561001057600080fd5b506004361061004c5760003560e01c80631ce431b9146100515780637690a4a21461007e57806378d331d614610091578063e4ca8507146100bc575b600080fd5b6100596100cf565b604080516001600160e01b031990931683529015156020830152015b60405180910390f35b61005961008c36600461028b565b610172565b6000546100a4906001600160a01b031681565b6040516001600160a01b039091168152602001610075565b6100596100ca3660046102fd565b61022b565b6000805460408051600481526024810182526020810180516001600160e01b0316639a41d3ad60e01b17905290518392839283926001600160a01b03909216916101199190610335565b600060405180830381855afa9150503d8060008114610154576040519150601f19603f3d011682016040523d82523d6000602084013e610159565b606091505b50915091508061016890610364565b9491935090915050565b600080546040518291829182916001600160a01b031690610199908890889060240161039b565b60408051601f198184030181529181526020820180516001600160e01b031663ce6eb7ff60e01b179052516101ce9190610335565b6000604051808303816000865af19150503d806000811461020b576040519150601f19603f3d011682016040523d82523d6000602084013e610210565b606091505b50915091508061021f90610364565b96919550909350505050565b600080546040516001600160a01b038581166024830152604482018590528392839283929091169060640160408051601f198184030181529181526020820180516001600160e01b031663a9059cbb60e01b179052516101ce9190610335565b6000806020838503121561029e57600080fd5b823567ffffffffffffffff808211156102b657600080fd5b818501915085601f8301126102ca57600080fd5b8135818111156102d957600080fd5b8660208285010111156102eb57600080fd5b60209290920196919550909350505050565b6000806040838503121561031057600080fd5b82356001600160a01b038116811461032757600080fd5b946020939093013593505050565b6000825160005b81811015610356576020818601810151858301520161033c565b506000920191825250919050565b805160208201516001600160e01b031980821692919060048310156103935780818460040360031b1b83161693505b505050919050565b60208152816020820152818360408301376000818301604090810191909152601f909201601f1916010191905056fea264697066735822122020eec8fe50b4319ab84755eaf198d0ac25bc5766a8212c8a84bb10c39b11853264736f6c63430008140033",
    "linkReferences": {}
  },
  "methodIdentifiers": {
    "callFunctionDirectly(bytes)": "7690a4a2",
    "callTransferFunctionDirectlyThree(address,uint256)": "e4ca8507",
    "s_selectorsAndSignaturesAddress()": "78d331d6",
    "staticCallFunctionDirectly()": "1ce431b9"
  },
  "id": 37
}