{
  "abi": [
    {
      "inputs": [
        {
          "internalType": "address",
          "name": "someAddress",
          "type": "address"
        },
        {
          "internalType": "uint256",
          "name": "amount",
          "type": "uint256"
        }
      ],
      "name": "callTransferFunctionDirectly",
      "outputs": [
        {
          "internalType": "bytes4",
          "name": "",
          "type": "bytes4"
        },
        {
          "internalType": "bool",
          "name": "",
          "type": "bool"
        }
      ],
      "stateMutability": "nonpayable",
      "type": "function"
    },
    {
      "inputs": [
        {
          "internalType": "address",
          "name": "someAddress",
          "type": "address"
        },
        {
          "internalType": "uint256",
          "name": "amount",
          "type": "uint256"
        }
      ],
      "name": "callTransferFunctionDirectlyTwo",
      "outputs": [
        {
          "internalType": "bytes4",
          "name": "",
          "type": "bytes4"
        },
        {
          "internalType": "bool",
          "name": "",
          "type": "bool"
        }
      ],
      "stateMutability": "nonpayable",
      "type": "function"
    },
    {
      "inputs": [],
      "name": "getCallData",
      "outputs": [
        {
          "internalType": "bytes",
          "name": "",
          "type": "bytes"
        }
      ],
      "stateMutability": "view",
      "type": "function"
    },
    {
      "inputs": [
        {
          "internalType": "address",
          "name": "someAddress",
          "type": "address"
        },
        {
          "internalType": "uint256",
          "name": "amount",
          "type": "uint256"
        }
      ],
      "name": "getDataToCallTransfer",
      "outputs": [
        {
          "internalType": "bytes",
          "name": "",
          "type": "bytes"
        }
      ],
      "stateMutability": "pure",
      "type": "function"
    },
    {
      "inputs": [],
      "name": "getSelectorFour",
      "outputs": [
        {
          "internalType": "bytes4",
          "name": "selector",
          "type": "bytes4"
        }
      ],
      "stateMutability": "pure",
      "type": "function"
    },
    {
      "inputs": [],
      "name": "getSelectorOne",
      "outputs": [
        {
          "internalType": "bytes4",
          "name": "selector",
          "type": "bytes4"
        }
      ],
      "stateMutability": "pure",
      "type": "function"
    },
    {
      "inputs": [
        {
          "internalType": "bytes",
          "name": "functionCallData",
          "type": "bytes"
        }
      ],
      "name": "getSelectorThree",
      "outputs": [
        {
          "internalType": "bytes4",
          "name": "selector",
          "type": "bytes4"
        }
      ],
      "stateMutability": "pure",
      "type": "function"
    },
    {
      "inputs": [],
      "name": "getSelectorTwo",
      "outputs": [
        {
          "internalType": "bytes4",
          "name": "selector",
          "type": "bytes4"
        }
      ],
      "stateMutability": "view",
      "type": "function"
    },
    {
      "inputs": [],
      "name": "getSignatureOne",
      "outputs": [
        {
          "internalType": "string",
          "name": "",
          "type": "string"
        }
      ],
      "stateMutability": "pure",
      "type": "function"
    },
    {
      "inputs": [],
      "name": "s_amount",
      "outputs": [
        {
          "internalType": "uint256",
          "name": "",
          "type": "uint256"
        }
      ],
      "stateMutability": "view",
      "type": "function"
    },
    {
      "inputs": [],
      "name": "s_someAddress",
      "outputs": [
        {
          "internalType": "address",
          "name": "",
          "type": "address"
        }
      ],
      "stateMutability": "view",
      "type": "function"
    },
    {
      "inputs": [
        {
          "internalType": "address",
          "name": "someAddress",
          "type": "address"
        },
        {
          "internalType": "uint256",
          "name": "amount",
          "type": "uint256"
        }
      ],
      "name": "transfer",
      "outputs": [],
      "stateMutability": "nonpayable",
      "type": "function"
    }
  ],
  "bytecode": {
    "object": "0x608060405234801561001057600080fd5b506106f2806100206000396000f3fe608060405234801561001057600080fd5b50600436106100b45760003560e01c8063a9059cbb11610071578063a9059cbb146101bc578063aad229d5146101f2578063b20d94461461021d578063c6e93bad14610230578063ce6eb7ff14610247578063fbf6d5151461025a57600080fd5b80630bf9aa4c146100b957806325435a56146101175780637c0c5f2314610139578063852d52fa1461014c5780639a41d3ad14610181578063a5694e4a14610189575b600080fd5b610101604051306024820152607b604482015260609060640160408051601f198184030181529190526020810180516001600160e01b031663a9059cbb60e01b179052919050565b60405161010e919061058f565b60405180910390f35b63a9059cbb60e01b5b6040516001600160e01b0319909116815260200161010e565b6101016101473660046105a9565b610262565b6040805180820190915260198152787472616e7366657228616464726573732c75696e743235362960381b6020820152610101565b6101206102c2565b61019c6101973660046105a9565b610317565b604080516001600160e01b0319909316835290151560208301520161010e565b6101f06101ca3660046105a9565b600080546001600160a01b0319166001600160a01b039390931692909217909155600155565b005b600054610205906001600160a01b031681565b6040516001600160a01b03909116815260200161010e565b61019c61022b3660046105a9565b6103dc565b61023960015481565b60405190815260200161010e565b6101206102553660046105e1565b503590565b610120610438565b606061026c6102c2565b6040516001600160a01b03851660248201526044810184905260640160408051601f198184030181529190526020810180516001600160e01b03166001600160e01b031990931692909217909152905092915050565b6040805180820190915260198152787472616e7366657228616464726573732c75696e743235362960381b6020909101527fa9059cbb2ab09eb219583f4a59a5d0623ade346d962bcd4e46b11da047c9049b90565b6000808080306103256102c2565b6040516001600160a01b03891660248201526044810188905260640160408051601f198184030181529181526020820180516001600160e01b03166001600160e01b031990941693909317909252905161037f9190610653565b6000604051808303816000865af19150503d80600081146103bc576040519150601f19603f3d011682016040523d82523d6000602084013e6103c1565b606091505b5091509150806103d09061066f565b96919550909350505050565b6040516001600160a01b038316602482015260448101829052600090819081908190309060640160408051601f198184030181529181526020820180516001600160e01b031663a9059cbb60e01b1790525161037f9190610653565b604051306024820152607b6044820152600090819060640160408051601f198184030181529190526020810180516001600160e01b031663a9059cbb60e01b17905280519091508190600090610490576104906106a6565b602001015160f81c60f81b816001815181106104ae576104ae6106a6565b602001015160f81c60f81b826002815181106104cc576104cc6106a6565b602001015160f81c60f81b836003815181106104ea576104ea6106a6565b016020908101516040516001600160f81b03199586169281019290925292841660218201529083166022820152911660238201526024016040516020818303038152906040526105399061066f565b91505090565b60005b8381101561055a578181015183820152602001610542565b50506000910152565b6000815180845261057b81602086016020860161053f565b601f01601f19169290920160200192915050565b6020815260006105a26020830184610563565b9392505050565b600080604083850312156105bc57600080fd5b82356001600160a01b03811681146105d357600080fd5b946020939093013593505050565b600080602083850312156105f457600080fd5b823567ffffffffffffffff8082111561060c57600080fd5b818501915085601f83011261062057600080fd5b81358181111561062f57600080fd5b86602082850101111561064157600080fd5b60209290920196919550909350505050565b6000825161066581846020870161053f565b9190910192915050565b805160208201516001600160e01b0319808216929190600483101561069e5780818460040360031b1b83161693505b505050919050565b634e487b7160e01b600052603260045260246000fdfea264697066735822122085dd3f7717e3bf1bdf0cb79842eb6ca9c907617716a60fecf34ad734f3a72eb664736f6c63430008140033",
    "linkReferences": {}
  },
  "methodIdentifiers": {
    "callTransferFunctionDirectly(address,uint256)": "a5694e4a",
    "callTransferFunctionDirectlyTwo(address,uint256)": "b20d9446",
    "getCallData()": "0bf9aa4c",
    "getDataToCallTransfer(address,uint256)": "7c0c5f23",
    "getSelectorFour()": "25435a56",
    "getSelectorOne()": "9a41d3ad",
    "getSelectorThree(bytes)": "ce6eb7ff",
    "getSelectorTwo()": "fbf6d515",
    "getSignatureOne()": "852d52fa",
    "s_amount()": "c6e93bad",
    "s_someAddress()": "aad229d5",
    "transfer(address,uint256)": "a9059cbb"
  },
  "id": 37
}