{
  "abi": [
    {
      "inputs": [],
      "stateMutability": "nonpayable",
      "type": "constructor"
    },
    {
      "inputs": [],
      "name": "ProjectsStorage__NotOwner",
      "type": "error"
    },
    {
      "inputs": [
        {
          "internalType": "string",
          "name": "_name",
          "type": "string"
        },
        {
          "internalType": "uint256",
          "name": "_fundingGoal",
          "type": "uint256"
        }
      ],
      "name": "addProject",
      "outputs": [],
      "stateMutability": "nonpayable",
      "type": "function"
    },
    {
      "inputs": [
        {
          "internalType": "string",
          "name": "_name",
          "type": "string"
        }
      ],
      "name": "getProjectFunders",
      "outputs": [
        {
          "internalType": "address[]",
          "name": "",
          "type": "address[]"
        }
      ],
      "stateMutability": "view",
      "type": "function"
    },
    {
      "inputs": [
        {
          "internalType": "uint256",
          "name": "",
          "type": "uint256"
        }
      ],
      "name": "listofProjects",
      "outputs": [
        {
          "internalType": "uint256",
          "name": "id",
          "type": "uint256"
        },
        {
          "internalType": "string",
          "name": "name",
          "type": "string"
        },
        {
          "internalType": "uint256",
          "name": "fundingGoal",
          "type": "uint256"
        },
        {
          "internalType": "uint256",
          "name": "totalFundsRaised",
          "type": "uint256"
        }
      ],
      "stateMutability": "view",
      "type": "function"
    },
    {
      "inputs": [
        {
          "internalType": "string",
          "name": "",
          "type": "string"
        }
      ],
      "name": "projectNameToId",
      "outputs": [
        {
          "internalType": "uint256",
          "name": "",
          "type": "uint256"
        }
      ],
      "stateMutability": "view",
      "type": "function"
    }
  ],
  "bytecode": {
    "object": "0x60a060405234801561001057600080fd5b50336080526080516108f661002f600039600060f201526108f66000f3fe608060405234801561001057600080fd5b506004361061004c5760003560e01c806301a80a031461005157806329ba314b1461008f5780634d719184146100a45780635929591f146100c4575b600080fd5b61007c61005f36600461052c565b805160208183018101805160028252928201919093012091525481565b6040519081526020015b60405180910390f35b6100a261009d366004610569565b6100e7565b005b6100b76100b23660046105ae565b610241565b6040516100869190610620565b6100d76100d236600461066d565b61034b565b60405161008694939291906106aa565b336001600160a01b037f000000000000000000000000000000000000000000000000000000000000000016146101305760405163078ff3e160e51b815260040160405180910390fd5b60008054908061013f83610709565b919050555060016040518060a00160405280600054815260200184815260200183815260200160008152602001600067ffffffffffffffff81111561018657610186610489565b6040519080825280602002602001820160405280156101af578160200160208202803683370190505b509052815460018181018455600093845260209384902083516005909302019182559282015191929091908201906101e790826107ab565b5060408201516002820155606082015160038201556080820151805161021791600484019160209091019061040f565b50505060005460028360405161022d919061086b565b908152604051908190036020019020555050565b6060600060028484604051610257929190610887565b9081526020016040518091039020549050806000036102b55760405162461bcd60e51b8152602060048201526016602482015275141c9bda9958dd08191bd95cc81b9bdd08195e1a5cdd60521b604482015260640160405180910390fd5b600060016102c38184610897565b815481106102d3576102d36108aa565b906000526020600020906005020190508060040180548060200260200160405190810160405280929190818152602001828054801561033b57602002820191906000526020600020905b81546001600160a01b0316815260019091019060200180831161031d575b5050505050925050505b92915050565b6001818154811061035b57600080fd5b6000918252602090912060059091020180546001820180549193509061038090610722565b80601f01602080910402602001604051908101604052809291908181526020018280546103ac90610722565b80156103f95780601f106103ce576101008083540402835291602001916103f9565b820191906000526020600020905b8154815290600101906020018083116103dc57829003601f168201915b5050505050908060020154908060030154905084565b828054828255906000526020600020908101928215610464579160200282015b8281111561046457825182546001600160a01b0319166001600160a01b0390911617825560209092019160019091019061042f565b50610470929150610474565b5090565b5b808211156104705760008155600101610475565b634e487b7160e01b600052604160045260246000fd5b600082601f8301126104b057600080fd5b813567ffffffffffffffff808211156104cb576104cb610489565b604051601f8301601f19908116603f011681019082821181831017156104f3576104f3610489565b8160405283815286602085880101111561050c57600080fd5b836020870160208301376000602085830101528094505050505092915050565b60006020828403121561053e57600080fd5b813567ffffffffffffffff81111561055557600080fd5b6105618482850161049f565b949350505050565b6000806040838503121561057c57600080fd5b823567ffffffffffffffff81111561059357600080fd5b61059f8582860161049f565b95602094909401359450505050565b600080602083850312156105c157600080fd5b823567ffffffffffffffff808211156105d957600080fd5b818501915085601f8301126105ed57600080fd5b8135818111156105fc57600080fd5b86602082850101111561060e57600080fd5b60209290920196919550909350505050565b6020808252825182820181905260009190848201906040850190845b818110156106615783516001600160a01b03168352928401929184019160010161063c565b50909695505050505050565b60006020828403121561067f57600080fd5b5035919050565b60005b838110156106a1578181015183820152602001610689565b50506000910152565b84815260806020820152600084518060808401526106cf8160a0850160208901610686565b604083019490945250606081019190915260a0601f909201601f1916010192915050565b634e487b7160e01b600052601160045260246000fd5b60006001820161071b5761071b6106f3565b5060010190565b600181811c9082168061073657607f821691505b60208210810361075657634e487b7160e01b600052602260045260246000fd5b50919050565b601f8211156107a657600081815260208120601f850160051c810160208610156107835750805b601f850160051c820191505b818110156107a25782815560010161078f565b5050505b505050565b815167ffffffffffffffff8111156107c5576107c5610489565b6107d9816107d38454610722565b8461075c565b602080601f83116001811461080e57600084156107f65750858301515b600019600386901b1c1916600185901b1785556107a2565b600085815260208120601f198616915b8281101561083d5788860151825594840194600190910190840161081e565b508582101561085b5787850151600019600388901b60f8161c191681555b5050505050600190811b01905550565b6000825161087d818460208701610686565b9190910192915050565b8183823760009101908152919050565b81810381811115610345576103456106f3565b634e487b7160e01b600052603260045260246000fdfea26469706673582212209d14c9ae57084a39308556a807c3fce8f919254ecc7c49df0a6a42aa516fec9e64736f6c63430008140033",
    "linkReferences": {}
  },
  "methodIdentifiers": {
    "addProject(string,uint256)": "29ba314b",
    "getProjectFunders(string)": "4d719184",
    "listofProjects(uint256)": "5929591f",
    "projectNameToId(string)": "01a80a03"
  },
  "id": 1
}