{
  "abi": [
    {
      "inputs": [
        {
          "internalType": "uint256",
          "name": "_totalProjectFunds",
          "type": "uint256"
        }
      ],
      "name": "store",
      "outputs": [],
      "stateMutability": "nonpayable",
      "type": "function"
    }
  ],
  "bytecode": {
    "object": "0x6080604052348015600f57600080fd5b50608d8061001e6000396000f3fe6080604052348015600f57600080fd5b506004361060285760003560e01c80636057361d14602d575b600080fd5b603d6038366004603f565b600055565b005b600060208284031215605057600080fd5b503591905056fea26469706673582212204098e8e4471cd9c592b4988044634e486ec4725a54065c95211ffcdf406497fe64736f6c63430008140033",
    "linkReferences": {}
  },
  "methodIdentifiers": {
    "store(uint256)": "6057361d"
  },
  "id": 0
}